{
  "_format": "hh-sol-artifact-1",
  "contractName": "Zkare",
  "sourceName": "contracts/Zkare.sol",
  "abi": [
    {
      "inputs": [],
      "stateMutability": "nonpayable",
      "type": "constructor"
    },
    {
      "anonymous": false,
      "inputs": [
        {
          "indexed": true,
          "internalType": "address",
          "name": "patient",
          "type": "address"
        },
        {
          "indexed": true,
          "internalType": "address",
          "name": "viewer",
          "type": "address"
        }
      ],
      "name": "AccessGranted",
      "type": "event"
    },
    {
      "anonymous": false,
      "inputs": [
        {
          "indexed": true,
          "internalType": "address",
          "name": "patient",
          "type": "address"
        },
        {
          "indexed": true,
          "internalType": "address",
          "name": "viewer",
          "type": "address"
        }
      ],
      "name": "AccessRevoked",
      "type": "event"
    },
    {
      "anonymous": false,
      "inputs": [
        {
          "indexed": true,
          "internalType": "address",
          "name": "doctor",
          "type": "address"
        }
      ],
      "name": "DoctorAdded",
      "type": "event"
    },
    {
      "anonymous": false,
      "inputs": [
        {
          "indexed": true,
          "internalType": "address",
          "name": "doctor",
          "type": "address"
        }
      ],
      "name": "DoctorRemoved",
      "type": "event"
    },
    {
      "anonymous": false,
      "inputs": [
        {
          "indexed": true,
          "internalType": "address",
          "name": "storageAddress",
          "type": "address"
        }
      ],
      "name": "MedicalRecordStorageDeployed",
      "type": "event"
    },
    {
      "anonymous": false,
      "inputs": [
        {
          "indexed": true,
          "internalType": "address",
          "name": "patient",
          "type": "address"
        },
        {
          "indexed": false,
          "internalType": "string",
          "name": "dataType",
          "type": "string"
        },
        {
          "indexed": false,
          "internalType": "uint256",
          "name": "value",
          "type": "uint256"
        }
      ],
      "name": "PatientDataRegistered",
      "type": "event"
    },
    {
      "anonymous": false,
      "inputs": [
        {
          "indexed": true,
          "internalType": "address",
          "name": "patient",
          "type": "address"
        }
      ],
      "name": "PatientRegistered",
      "type": "event"
    },
    {
      "anonymous": false,
      "inputs": [
        {
          "indexed": true,
          "internalType": "address",
          "name": "requester",
          "type": "address"
        },
        {
          "indexed": true,
          "internalType": "address",
          "name": "patient",
          "type": "address"
        },
        {
          "indexed": false,
          "internalType": "uint256",
          "name": "requestId",
          "type": "uint256"
        },
        {
          "indexed": false,
          "internalType": "string",
          "name": "verificationType",
          "type": "string"
        }
      ],
      "name": "VerificationRequested",
      "type": "event"
    },
    {
      "anonymous": false,
      "inputs": [
        {
          "indexed": true,
          "internalType": "address",
          "name": "patient",
          "type": "address"
        },
        {
          "indexed": false,
          "internalType": "uint256",
          "name": "requestId",
          "type": "uint256"
        },
        {
          "indexed": false,
          "internalType": "bool",
          "name": "approved",
          "type": "bool"
        }
      ],
      "name": "VerificationResponded",
      "type": "event"
    },
    {
      "anonymous": false,
      "inputs": [
        {
          "indexed": true,
          "internalType": "address",
          "name": "patient",
          "type": "address"
        },
        {
          "indexed": true,
          "internalType": "address",
          "name": "requester",
          "type": "address"
        },
        {
          "indexed": false,
          "internalType": "bool",
          "name": "approved",
          "type": "bool"
        }
      ],
      "name": "ViewRequestApproved",
      "type": "event"
    },
    {
      "anonymous": false,
      "inputs": [
        {
          "indexed": true,
          "internalType": "address",
          "name": "requester",
          "type": "address"
        },
        {
          "indexed": true,
          "internalType": "address",
          "name": "patient",
          "type": "address"
        },
        {
          "indexed": false,
          "internalType": "uint256",
          "name": "requestId",
          "type": "uint256"
        }
      ],
      "name": "ViewRequestCreated",
      "type": "event"
    },
    {
      "inputs": [
        {
          "internalType": "address",
          "name": "",
          "type": "address"
        },
        {
          "internalType": "address",
          "name": "",
          "type": "address"
        }
      ],
      "name": "accessApprovals",
      "outputs": [
        {
          "internalType": "bool",
          "name": "",
          "type": "bool"
        }
      ],
      "stateMutability": "view",
      "type": "function"
    },
    {
      "inputs": [
        {
          "internalType": "address",
          "name": "doctor",
          "type": "address"
        }
      ],
      "name": "addDoctor",
      "outputs": [],
      "stateMutability": "nonpayable",
      "type": "function"
    },
    {
      "inputs": [],
      "name": "admin",
      "outputs": [
        {
          "internalType": "address",
          "name": "",
          "type": "address"
        }
      ],
      "stateMutability": "view",
      "type": "function"
    },
    {
      "inputs": [
        {
          "internalType": "address",
          "name": "",
          "type": "address"
        }
      ],
      "name": "doctorStatus",
      "outputs": [
        {
          "internalType": "bool",
          "name": "",
          "type": "bool"
        }
      ],
      "stateMutability": "view",
      "type": "function"
    },
    {
      "inputs": [
        {
          "internalType": "uint256",
          "name": "",
          "type": "uint256"
        }
      ],
      "name": "doctors",
      "outputs": [
        {
          "internalType": "address",
          "name": "",
          "type": "address"
        }
      ],
      "stateMutability": "view",
      "type": "function"
    },
    {
      "inputs": [],
      "name": "getAllDoctors",
      "outputs": [
        {
          "internalType": "address[]",
          "name": "",
          "type": "address[]"
        }
      ],
      "stateMutability": "view",
      "type": "function"
    },
    {
      "inputs": [],
      "name": "getAllPatients",
      "outputs": [
        {
          "internalType": "address[]",
          "name": "",
          "type": "address[]"
        }
      ],
      "stateMutability": "view",
      "type": "function"
    },
    {
      "inputs": [
        {
          "internalType": "address",
          "name": "patient",
          "type": "address"
        },
        {
          "internalType": "string",
          "name": "dataType",
          "type": "string"
        }
      ],
      "name": "getPatientData",
      "outputs": [
        {
          "internalType": "uint256",
          "name": "",
          "type": "uint256"
        }
      ],
      "stateMutability": "view",
      "type": "function"
    },
    {
      "inputs": [
        {
          "internalType": "address",
          "name": "patient",
          "type": "address"
        },
        {
          "internalType": "uint256",
          "name": "recordId",
          "type": "uint256"
        }
      ],
      "name": "getPatientRecord",
      "outputs": [
        {
          "internalType": "uint256",
          "name": "id",
          "type": "uint256"
        },
        {
          "internalType": "string",
          "name": "recordType",
          "type": "string"
        },
        {
          "internalType": "string",
          "name": "title",
          "type": "string"
        },
        {
          "internalType": "string",
          "name": "description",
          "type": "string"
        },
        {
          "internalType": "uint256",
          "name": "timestamp",
          "type": "uint256"
        },
        {
          "internalType": "address",
          "name": "doctor",
          "type": "address"
        },
        {
          "internalType": "string",
          "name": "hospital",
          "type": "string"
        },
        {
          "internalType": "bytes32",
          "name": "contentHash",
          "type": "bytes32"
        },
        {
          "internalType": "string",
          "name": "metadata",
          "type": "string"
        },
        {
          "internalType": "bool",
          "name": "isActive",
          "type": "bool"
        }
      ],
      "stateMutability": "view",
      "type": "function"
    },
    {
      "inputs": [
        {
          "internalType": "address",
          "name": "patient",
          "type": "address"
        }
      ],
      "name": "getPatientRecordCount",
      "outputs": [
        {
          "internalType": "uint256",
          "name": "",
          "type": "uint256"
        }
      ],
      "stateMutability": "view",
      "type": "function"
    },
    {
      "inputs": [
        {
          "internalType": "address",
          "name": "patient",
          "type": "address"
        }
      ],
      "name": "getPatientRecordCountAdmin",
      "outputs": [
        {
          "internalType": "uint256",
          "name": "",
          "type": "uint256"
        }
      ],
      "stateMutability": "view",
      "type": "function"
    },
    {
      "inputs": [
        {
          "internalType": "address",
          "name": "patient",
          "type": "address"
        }
      ],
      "name": "getPatientRecords",
      "outputs": [
        {
          "internalType": "uint256[]",
          "name": "",
          "type": "uint256[]"
        }
      ],
      "stateMutability": "view",
      "type": "function"
    },
    {
      "inputs": [],
      "name": "getPendingRequests",
      "outputs": [
        {
          "internalType": "uint256[]",
          "name": "",
          "type": "uint256[]"
        }
      ],
      "stateMutability": "view",
      "type": "function"
    },
    {
      "inputs": [
        {
          "internalType": "address",
          "name": "patient",
          "type": "address"
        }
      ],
      "name": "getPendingVerificationCount",
      "outputs": [
        {
          "internalType": "uint256",
          "name": "",
          "type": "uint256"
        }
      ],
      "stateMutability": "view",
      "type": "function"
    },
    {
      "inputs": [
        {
          "internalType": "address",
          "name": "patient",
          "type": "address"
        },
        {
          "internalType": "uint256",
          "name": "requestId",
          "type": "uint256"
        }
      ],
      "name": "getRequestDetails",
      "outputs": [
        {
          "internalType": "address",
          "name": "requester",
          "type": "address"
        },
        {
          "internalType": "uint256",
          "name": "timestamp",
          "type": "uint256"
        },
        {
          "internalType": "bool",
          "name": "isPending",
          "type": "bool"
        },
        {
          "internalType": "bool",
          "name": "isApproved",
          "type": "bool"
        }
      ],
      "stateMutability": "view",
      "type": "function"
    },
    {
      "inputs": [
        {
          "internalType": "address",
          "name": "patient",
          "type": "address"
        },
        {
          "internalType": "uint256",
          "name": "requestId",
          "type": "uint256"
        }
      ],
      "name": "getVerificationRequestDetails",
      "outputs": [
        {
          "internalType": "address",
          "name": "requester",
          "type": "address"
        },
        {
          "internalType": "string",
          "name": "verificationType",
          "type": "string"
        },
        {
          "internalType": "uint256",
          "name": "requestedValue",
          "type": "uint256"
        },
        {
          "internalType": "uint256",
          "name": "timestamp",
          "type": "uint256"
        },
        {
          "internalType": "bool",
          "name": "isPending",
          "type": "bool"
        },
        {
          "internalType": "bool",
          "name": "isApproved",
          "type": "bool"
        }
      ],
      "stateMutability": "view",
      "type": "function"
    },
    {
      "inputs": [
        {
          "internalType": "address",
          "name": "doctor",
          "type": "address"
        }
      ],
      "name": "isDoctor",
      "outputs": [
        {
          "internalType": "bool",
          "name": "",
          "type": "bool"
        }
      ],
      "stateMutability": "view",
      "type": "function"
    },
    {
      "inputs": [
        {
          "internalType": "address",
          "name": "patient",
          "type": "address"
        }
      ],
      "name": "isPatient",
      "outputs": [
        {
          "internalType": "bool",
          "name": "",
          "type": "bool"
        }
      ],
      "stateMutability": "view",
      "type": "function"
    },
    {
      "inputs": [
        {
          "internalType": "address",
          "name": "",
          "type": "address"
        }
      ],
      "name": "patientStatus",
      "outputs": [
        {
          "internalType": "bool",
          "name": "",
          "type": "bool"
        }
      ],
      "stateMutability": "view",
      "type": "function"
    },
    {
      "inputs": [
        {
          "internalType": "uint256",
          "name": "",
          "type": "uint256"
        }
      ],
      "name": "patients",
      "outputs": [
        {
          "internalType": "address",
          "name": "",
          "type": "address"
        }
      ],
      "stateMutability": "view",
      "type": "function"
    },
    {
      "inputs": [],
      "name": "recordStorage",
      "outputs": [
        {
          "internalType": "contract MedicalRecordStorage",
          "name": "",
          "type": "address"
        }
      ],
      "stateMutability": "view",
      "type": "function"
    },
    {
      "inputs": [],
      "name": "registerPatient",
      "outputs": [],
      "stateMutability": "nonpayable",
      "type": "function"
    },
    {
      "inputs": [
        {
          "internalType": "address",
          "name": "patient",
          "type": "address"
        },
        {
          "internalType": "string",
          "name": "dataType",
          "type": "string"
        },
        {
          "internalType": "uint256",
          "name": "value",
          "type": "uint256"
        }
      ],
      "name": "registerPatientData",
      "outputs": [],
      "stateMutability": "nonpayable",
      "type": "function"
    },
    {
      "inputs": [
        {
          "internalType": "bytes32",
          "name": "recordHash",
          "type": "bytes32"
        },
        {
          "internalType": "string",
          "name": "cid",
          "type": "string"
        },
        {
          "internalType": "address",
          "name": "patient",
          "type": "address"
        }
      ],
      "name": "registerRecord",
      "outputs": [],
      "stateMutability": "nonpayable",
      "type": "function"
    },
    {
      "inputs": [
        {
          "internalType": "address",
          "name": "doctor",
          "type": "address"
        }
      ],
      "name": "removeDoctor",
      "outputs": [],
      "stateMutability": "nonpayable",
      "type": "function"
    },
    {
      "inputs": [
        {
          "internalType": "address",
          "name": "patient",
          "type": "address"
        }
      ],
      "name": "requestAccess",
      "outputs": [
        {
          "internalType": "uint256",
          "name": "",
          "type": "uint256"
        }
      ],
      "stateMutability": "nonpayable",
      "type": "function"
    },
    {
      "inputs": [
        {
          "internalType": "address",
          "name": "patient",
          "type": "address"
        },
        {
          "internalType": "string",
          "name": "verificationType",
          "type": "string"
        },
        {
          "internalType": "uint256",
          "name": "requestedValue",
          "type": "uint256"
        }
      ],
      "name": "requestVerification",
      "outputs": [
        {
          "internalType": "uint256",
          "name": "",
          "type": "uint256"
        }
      ],
      "stateMutability": "nonpayable",
      "type": "function"
    },
    {
      "inputs": [
        {
          "internalType": "uint256",
          "name": "requestId",
          "type": "uint256"
        },
        {
          "internalType": "bool",
          "name": "approved",
          "type": "bool"
        }
      ],
      "name": "respondToRequest",
      "outputs": [],
      "stateMutability": "nonpayable",
      "type": "function"
    },
    {
      "inputs": [
        {
          "internalType": "uint256",
          "name": "requestId",
          "type": "uint256"
        },
        {
          "internalType": "bool",
          "name": "approved",
          "type": "bool"
        }
      ],
      "name": "respondToVerification",
      "outputs": [],
      "stateMutability": "nonpayable",
      "type": "function"
    },
    {
      "inputs": [
        {
          "internalType": "address",
          "name": "viewer",
          "type": "address"
        }
      ],
      "name": "revokeAccess",
      "outputs": [],
      "stateMutability": "nonpayable",
      "type": "function"
    },
    {
      "inputs": [
        {
          "internalType": "address",
          "name": "_verifierContract",
          "type": "address"
        }
      ],
      "name": "setVerifierContract",
      "outputs": [],
      "stateMutability": "nonpayable",
      "type": "function"
    },
    {
      "inputs": [
        {
          "internalType": "address",
          "name": "patient",
          "type": "address"
        },
        {
          "internalType": "uint256",
          "name": "recordId",
          "type": "uint256"
        },
        {
          "internalType": "string",
          "name": "title",
          "type": "string"
        },
        {
          "internalType": "string",
          "name": "description",
          "type": "string"
        },
        {
          "internalType": "bytes32",
          "name": "contentHash",
          "type": "bytes32"
        },
        {
          "internalType": "string",
          "name": "metadata",
          "type": "string"
        }
      ],
      "name": "updatePatientRecord",
      "outputs": [],
      "stateMutability": "nonpayable",
      "type": "function"
    },
    {
      "inputs": [
        {
          "internalType": "address",
          "name": "",
          "type": "address"
        },
        {
          "internalType": "uint256",
          "name": "",
          "type": "uint256"
        }
      ],
      "name": "verificationRequests",
      "outputs": [
        {
          "internalType": "address",
          "name": "requester",
          "type": "address"
        },
        {
          "internalType": "string",
          "name": "verificationType",
          "type": "string"
        },
        {
          "internalType": "uint256",
          "name": "requestedValue",
          "type": "uint256"
        },
        {
          "internalType": "uint256",
          "name": "timestamp",
          "type": "uint256"
        },
        {
          "internalType": "bool",
          "name": "isPending",
          "type": "bool"
        },
        {
          "internalType": "bool",
          "name": "isApproved",
          "type": "bool"
        }
      ],
      "stateMutability": "view",
      "type": "function"
    },
    {
      "inputs": [],
      "name": "verifierContract",
      "outputs": [
        {
          "internalType": "contract Groth16Verifier",
          "name": "",
          "type": "address"
        }
      ],
      "stateMutability": "view",
      "type": "function"
    },
    {
      "inputs": [
        {
          "internalType": "address",
          "name": "",
          "type": "address"
        },
        {
          "internalType": "uint256",
          "name": "",
          "type": "uint256"
        }
      ],
      "name": "viewRequests",
      "outputs": [
        {
          "internalType": "address",
          "name": "requester",
          "type": "address"
        },
        {
          "internalType": "uint256",
          "name": "timestamp",
          "type": "uint256"
        },
        {
          "internalType": "bool",
          "name": "isPending",
          "type": "bool"
        },
        {
          "internalType": "bool",
          "name": "isApproved",
          "type": "bool"
        }
      ],
      "stateMutability": "view",
      "type": "function"
    }
  ],
  "bytecode": "0x608060405234801561001057600080fd5b5033600460006101000a81548173ffffffffffffffffffffffffffffffffffffffff021916908373ffffffffffffffffffffffffffffffffffffffff1602179055506100613361013f60201b60201c565b3060405161006e90610290565b61007891906102de565b604051809103906000f080158015610094573d6000803e3d6000fd5b50600960006101000a81548173ffffffffffffffffffffffffffffffffffffffff021916908373ffffffffffffffffffffffffffffffffffffffff160217905550600960009054906101000a900473ffffffffffffffffffffffffffffffffffffffff1673ffffffffffffffffffffffffffffffffffffffff167f7e69e5b87d3a1d5f49a721038189a03ff6328f2f3c93daa0e001456480d9dc9960405160405180910390a26102f9565b6000808273ffffffffffffffffffffffffffffffffffffffff1673ffffffffffffffffffffffffffffffffffffffff16815260200190815260200160002060009054906101000a900460ff1661028d5760016000808373ffffffffffffffffffffffffffffffffffffffff1673ffffffffffffffffffffffffffffffffffffffff16815260200190815260200160002060006101000a81548160ff0219169083151502179055506002819080600181540180825580915050600190039060005260206000200160009091909190916101000a81548173ffffffffffffffffffffffffffffffffffffffff021916908373ffffffffffffffffffffffffffffffffffffffff1602179055508073ffffffffffffffffffffffffffffffffffffffff167f69908b2e63170aa89ef89719bbe3b4c92cccc38653968ab25f4464eff7c28ac860405160405180910390a25b50565b6136f1806157a183390190565b600073ffffffffffffffffffffffffffffffffffffffff82169050919050565b60006102c88261029d565b9050919050565b6102d8816102bd565b82525050565b60006020820190506102f360008301846102cf565b92915050565b615499806103086000396000f3fe608060405234801561001057600080fd5b50600436106102115760003560e01c8063822d388511610125578063b03d07e0116100ad578063cf6956881161007c578063cf695688146106bf578063db455173146106dd578063f0d950901461070d578063f851a4401461072b578063fed84fa91461074957610211565b8063b03d07e014610624578063b72e721414610657578063b912561d14610673578063ba2d3f38146106a357610211565b806393119a83116100f457806393119a831461055757806398fc90e914610587578063996440c6146105a3578063a25da83c146105d3578063ab6d6e85146105ef57610211565b8063822d3885146104d157806385e68531146104db5780638a9a4164146104f75780638f9c79ed1461052757610211565b80634780468f116101a85780636e5f3dda116101775780636e5f3dda146104195780636ec9f7e9146104375780636efb1b84146104675780638068692e1461049757806380a1f712146104b357610211565b80634780468f146103755780635892ff5b1461039157806366d969c4146103ad5780636d93fa19146103e057610211565b806318bd4847116101e457806318bd4847146102c95780631c0cfd29146102f95780631f9ad2ff1461031557806326cc19fd1461034557610211565b8063022cb271146102165780630a9682ad14610246578063130c8ce61461027657806318a231a9146102ab575b600080fd5b610230600480360381019061022b91906138d3565b610779565b60405161023d9190613919565b60405180910390f35b610260600480360381019061025b91906138d3565b610a01565b60405161026d9190613919565b60405180910390f35b610290600480360381019061028b9190613960565b610ba7565b6040516102a296959493929190613a5a565b60405180910390f35b6102b3610cc2565b6040516102c09190613b80565b60405180910390f35b6102e360048036038101906102de91906138d3565b610d50565b6040516102f09190613c60565b60405180910390f35b610313600480360381019061030e9190613ce7565b610efb565b005b61032f600480360381019061032a9190613d5b565b61109b565b60405161033c9190613d9b565b60405180910390f35b61035f600480360381019061035a9190613ce7565b6110ca565b60405161036c9190613919565b60405180910390f35b61038f600480360381019061038a91906138d3565b61132f565b005b6103ab60048036038101906103a69190613de2565b6113cb565b005b6103c760048036038101906103c29190613960565b611591565b6040516103d79493929190613e22565b60405180910390f35b6103fa60048036038101906103f59190613960565b611618565b6040516104109a99989796959493929190613e80565b60405180910390f35b61042161183d565b60405161042e9190613f9e565b60405180910390f35b610451600480360381019061044c91906138d3565b611863565b60405161045e9190613d9b565b60405180910390f35b610481600480360381019061047c9190613fb9565b611883565b60405161048e9190613fe6565b60405180910390f35b6104b160048036038101906104ac919061415d565b6118c2565b005b6104bb611aa3565b6040516104c89190613c60565b60405180910390f35b6104d9611cdb565b005b6104f560048036038101906104f091906138d3565b611ce6565b005b610511600480360381019061050c91906138d3565b611ea1565b60405161051e9190613919565b60405180910390f35b610541600480360381019061053c91906138d3565b612029565b60405161054e9190613d9b565b60405180910390f35b610571600480360381019061056c9190613fb9565b61207f565b60405161057e9190613fe6565b60405180910390f35b6105a1600480360381019061059c91906138d3565b6120be565b005b6105bd60048036038101906105b891906138d3565b612276565b6040516105ca9190613d9b565b60405180910390f35b6105ed60048036038101906105e891906138d3565b6122cb565b005b61060960048036038101906106049190613960565b61239f565b60405161061b96959493929190613a5a565b60405180910390f35b61063e60048036038101906106399190613960565b612602565b60405161064e9493929190613e22565b60405180910390f35b610671600480360381019061066c91906141cc565b6128dc565b005b61068d600480360381019061068891906138d3565b612a59565b60405161069a9190613d9b565b60405180910390f35b6106bd60048036038101906106b89190613de2565b612a79565b005b6106c7612db6565b6040516106d491906142ce565b60405180910390f35b6106f760048036038101906106f291906142e9565b612ddc565b6040516107049190613919565b60405180910390f35b610715612f46565b6040516107229190613b80565b60405180910390f35b6107336131a4565b6040516107409190613fe6565b60405180910390f35b610763600480360381019061075e91906138d3565b6131ca565b6040516107709190613919565b60405180910390f35b6000600560008373ffffffffffffffffffffffffffffffffffffffff1673ffffffffffffffffffffffffffffffffffffffff16815260200190815260200160002060003373ffffffffffffffffffffffffffffffffffffffff1673ffffffffffffffffffffffffffffffffffffffff16815260200190815260200160002060009054906101000a900460ff161561081357600090506109fc565b6000600660008473ffffffffffffffffffffffffffffffffffffffff1673ffffffffffffffffffffffffffffffffffffffff168152602001908152602001600020805490509050600660008473ffffffffffffffffffffffffffffffffffffffff1673ffffffffffffffffffffffffffffffffffffffff16815260200190815260200160002060405180608001604052803373ffffffffffffffffffffffffffffffffffffffff16815260200142815260200160011515815260200160001515815250908060018154018082558091505060019003906000526020600020906003020160009091909190915060008201518160000160006101000a81548173ffffffffffffffffffffffffffffffffffffffff021916908373ffffffffffffffffffffffffffffffffffffffff1602179055506020820151816001015560408201518160020160006101000a81548160ff02191690831515021790555060608201518160020160016101000a81548160ff02191690831515021790555050508273ffffffffffffffffffffffffffffffffffffffff163373ffffffffffffffffffffffffffffffffffffffff167f70864b087235afb5bd6c5d68d7a73ae2f2a6adbfa405db231f7aad1b153e5dd1836040516109ef9190613919565b60405180910390a3809150505b919050565b6000818073ffffffffffffffffffffffffffffffffffffffff163373ffffffffffffffffffffffffffffffffffffffff161480610ac45750600560008273ffffffffffffffffffffffffffffffffffffffff1673ffffffffffffffffffffffffffffffffffffffff16815260200190815260200160002060003373ffffffffffffffffffffffffffffffffffffffff1673ffffffffffffffffffffffffffffffffffffffff16815260200190815260200160002060009054906101000a900460ff165b610b03576040517f08c379a0000000000000000000000000000000000000000000000000000000008152600401610afa906143bb565b60405180910390fd5b600960009054906101000a900473ffffffffffffffffffffffffffffffffffffffff1673ffffffffffffffffffffffffffffffffffffffff16630a9682ad846040518263ffffffff1660e01b8152600401610b5e9190613fe6565b602060405180830381865afa158015610b7b573d6000803e3d6000fd5b505050506040513d601f19601f82011682018060405250810190610b9f91906143f0565b915050919050565b60076020528160005260406000208181548110610bc357600080fd5b9060005260206000209060050201600091509150508060000160009054906101000a900473ffffffffffffffffffffffffffffffffffffffff1690806001018054610c0d9061444c565b80601f0160208091040260200160405190810160405280929190818152602001828054610c399061444c565b8015610c865780601f10610c5b57610100808354040283529160200191610c86565b820191906000526020600020905b815481529060010190602001808311610c6957829003601f168201915b5050505050908060020154908060030154908060040160009054906101000a900460ff16908060040160019054906101000a900460ff16905086565b60606003805480602002602001604051908101604052809291908181526020018280548015610d4657602002820191906000526020600020905b8160009054906101000a900473ffffffffffffffffffffffffffffffffffffffff1673ffffffffffffffffffffffffffffffffffffffff1681526020019060010190808311610cfc575b5050505050905090565b6060818073ffffffffffffffffffffffffffffffffffffffff163373ffffffffffffffffffffffffffffffffffffffff161480610e135750600560008273ffffffffffffffffffffffffffffffffffffffff1673ffffffffffffffffffffffffffffffffffffffff16815260200190815260200160002060003373ffffffffffffffffffffffffffffffffffffffff1673ffffffffffffffffffffffffffffffffffffffff16815260200190815260200160002060009054906101000a900460ff165b610e52576040517f08c379a0000000000000000000000000000000000000000000000000000000008152600401610e49906143bb565b60405180910390fd5b600960009054906101000a900473ffffffffffffffffffffffffffffffffffffffff1673ffffffffffffffffffffffffffffffffffffffff16636248204e846040518263ffffffff1660e01b8152600401610ead9190613fe6565b600060405180830381865afa158015610eca573d6000803e3d6000fd5b505050506040513d6000823e3d601f19601f82011682018060405250810190610ef39190614540565b915050919050565b6000803373ffffffffffffffffffffffffffffffffffffffff1673ffffffffffffffffffffffffffffffffffffffff16815260200190815260200160002060009054906101000a900460ff16610f86576040517f08c379a0000000000000000000000000000000000000000000000000000000008152600401610f7d906145fb565b60405180910390fd5b600160008573ffffffffffffffffffffffffffffffffffffffff1673ffffffffffffffffffffffffffffffffffffffff16815260200190815260200160002060009054906101000a900460ff16610fe157610fe0846132b9565b5b80600860008673ffffffffffffffffffffffffffffffffffffffff1673ffffffffffffffffffffffffffffffffffffffff168152602001908152602001600020848460405161103192919061464b565b9081526020016040518091039020819055508373ffffffffffffffffffffffffffffffffffffffff167f9c323e996fe0907f1b97cd49e78187d5d645d0ed93be8bd6ce0840da3167248e84848460405161108d93929190614691565b60405180910390a250505050565b60056020528160005260406000206020528060005260406000206000915091509054906101000a900460ff1681565b600080600760008773ffffffffffffffffffffffffffffffffffffffff1673ffffffffffffffffffffffffffffffffffffffff168152602001908152602001600020805490509050600760008773ffffffffffffffffffffffffffffffffffffffff1673ffffffffffffffffffffffffffffffffffffffff1681526020019081526020016000206040518060c001604052803373ffffffffffffffffffffffffffffffffffffffff16815260200187878080601f016020809104026020016040519081016040528093929190818152602001838380828437600081840152601f19601f82011690508083019250505050505050815260200185815260200142815260200160011515815260200160001515815250908060018154018082558091505060019003906000526020600020906005020160009091909190915060008201518160000160006101000a81548173ffffffffffffffffffffffffffffffffffffffff021916908373ffffffffffffffffffffffffffffffffffffffff16021790555060208201518160010190816112639190614865565b50604082015181600201556060820151816003015560808201518160040160006101000a81548160ff02191690831515021790555060a08201518160040160016101000a81548160ff02191690831515021790555050508573ffffffffffffffffffffffffffffffffffffffff163373ffffffffffffffffffffffffffffffffffffffff167f9f83cd2d846449105ba96ac5a75eef4d281940a457a8dd4af7745d1df59ef5b983888860405161131b93929190614937565b60405180910390a380915050949350505050565b600460009054906101000a900473ffffffffffffffffffffffffffffffffffffffff1673ffffffffffffffffffffffffffffffffffffffff163373ffffffffffffffffffffffffffffffffffffffff16146113bf576040517f08c379a00000000000000000000000000000000000000000000000000000000081526004016113b6906149db565b60405180910390fd5b6113c88161340b565b50565b600760003373ffffffffffffffffffffffffffffffffffffffff1673ffffffffffffffffffffffffffffffffffffffff16815260200190815260200160002080549050821061144f576040517f08c379a000000000000000000000000000000000000000000000000000000000815260040161144690614a47565b60405180910390fd5b6000600760003373ffffffffffffffffffffffffffffffffffffffff1673ffffffffffffffffffffffffffffffffffffffff16815260200190815260200160002083815481106114a2576114a1614a67565b5b906000526020600020906005020190508060040160009054906101000a900460ff16611503576040517f08c379a00000000000000000000000000000000000000000000000000000000081526004016114fa90614ae2565b60405180910390fd5b60008160040160006101000a81548160ff021916908315150217905550818160040160016101000a81548160ff0219169083151502179055503373ffffffffffffffffffffffffffffffffffffffff167f559eef316d3e0ad37ff9ff920d151cdb77f1b71db96930c63b0d759b93d604968484604051611584929190614b02565b60405180910390a2505050565b600660205281600052604060002081815481106115ad57600080fd5b9060005260206000209060030201600091509150508060000160009054906101000a900473ffffffffffffffffffffffffffffffffffffffff16908060010154908060020160009054906101000a900460ff16908060020160019054906101000a900460ff16905084565b6000606080606060008060606000606060008b8073ffffffffffffffffffffffffffffffffffffffff163373ffffffffffffffffffffffffffffffffffffffff1614806116eb5750600560008273ffffffffffffffffffffffffffffffffffffffff1673ffffffffffffffffffffffffffffffffffffffff16815260200190815260200160002060003373ffffffffffffffffffffffffffffffffffffffff1673ffffffffffffffffffffffffffffffffffffffff16815260200190815260200160002060009054906101000a900460ff165b61172a576040517f08c379a0000000000000000000000000000000000000000000000000000000008152600401611721906143bb565b60405180910390fd5b6000600960009054906101000a900473ffffffffffffffffffffffffffffffffffffffff1673ffffffffffffffffffffffffffffffffffffffff1663379ff52c8f8f6040518363ffffffff1660e01b8152600401611789929190614b2b565b600060405180830381865afa1580156117a6573d6000803e3d6000fd5b505050506040513d6000823e3d601f19601f820116820180604052508101906117cf9190614e54565b9050806000015181602001518260400151836060015184608001518560a001516117fc8760c0015161355c565b8760e0015188610120015160405180602001604052806000815250909b509b509b509b509b509b509b509b509b509b5050509295989b9194979a5092959850565b600960009054906101000a900473ffffffffffffffffffffffffffffffffffffffff1681565b60016020528060005260406000206000915054906101000a900460ff1681565b6002818154811061189357600080fd5b906000526020600020016000915054906101000a900473ffffffffffffffffffffffffffffffffffffffff1681565b6000803373ffffffffffffffffffffffffffffffffffffffff1673ffffffffffffffffffffffffffffffffffffffff16815260200190815260200160002060009054906101000a900460ff1661194d576040517f08c379a0000000000000000000000000000000000000000000000000000000008152600401611944906145fb565b60405180910390fd5b600160008273ffffffffffffffffffffffffffffffffffffffff1673ffffffffffffffffffffffffffffffffffffffff16815260200190815260200160002060009054906101000a900460ff166119a8576119a7816132b9565b5b60008067ffffffffffffffff8111156119c4576119c3614032565b5b6040519080825280602002602001820160405280156119f757816020015b60608152602001906001900390816119e25790505b509050600960009054906101000a900473ffffffffffffffffffffffffffffffffffffffff1673ffffffffffffffffffffffffffffffffffffffff1663a5aee06c8386846040518463ffffffff1660e01b8152600401611a59939291906150b3565b6020604051808303816000875af1158015611a78573d6000803e3d6000fd5b505050506040513d601f19601f82011682018060405250810190611a9c91906143f0565b5050505050565b60606000805b600660003373ffffffffffffffffffffffffffffffffffffffff1673ffffffffffffffffffffffffffffffffffffffff16815260200190815260200160002080549050811015611b8457600660003373ffffffffffffffffffffffffffffffffffffffff1673ffffffffffffffffffffffffffffffffffffffff1681526020019081526020016000208181548110611b4457611b43614a67565b5b906000526020600020906003020160020160009054906101000a900460ff1615611b77578180611b7390615159565b9250505b8080600101915050611aa9565b5060008167ffffffffffffffff811115611ba157611ba0614032565b5b604051908082528060200260200182016040528015611bcf5781602001602082028036833780820191505090505b5090506000805b600660003373ffffffffffffffffffffffffffffffffffffffff1673ffffffffffffffffffffffffffffffffffffffff16815260200190815260200160002080549050811015611cd157600660003373ffffffffffffffffffffffffffffffffffffffff1673ffffffffffffffffffffffffffffffffffffffff1681526020019081526020016000208181548110611c7157611c70614a67565b5b906000526020600020906003020160020160009054906101000a900460ff1615611cc45780838381518110611ca957611ca8614a67565b5b6020026020010181815250508180611cc090615159565b9250505b8080600101915050611bd6565b5081935050505090565b611ce4336132b9565b565b600560003373ffffffffffffffffffffffffffffffffffffffff1673ffffffffffffffffffffffffffffffffffffffff16815260200190815260200160002060008273ffffffffffffffffffffffffffffffffffffffff1673ffffffffffffffffffffffffffffffffffffffff16815260200190815260200160002060009054906101000a900460ff16611daf576040517f08c379a0000000000000000000000000000000000000000000000000000000008152600401611da6906151ed565b60405180910390fd5b6000600560003373ffffffffffffffffffffffffffffffffffffffff1673ffffffffffffffffffffffffffffffffffffffff16815260200190815260200160002060008373ffffffffffffffffffffffffffffffffffffffff1673ffffffffffffffffffffffffffffffffffffffff16815260200190815260200160002060006101000a81548160ff0219169083151502179055508073ffffffffffffffffffffffffffffffffffffffff163373ffffffffffffffffffffffffffffffffffffffff167f825c8be24eb0df19500f63e86c29e7d0d951e73056b889b891d85e40938d9b6e60405160405180910390a350565b60008060003373ffffffffffffffffffffffffffffffffffffffff1673ffffffffffffffffffffffffffffffffffffffff16815260200190815260200160002060009054906101000a900460ff1680611f475750600460009054906101000a900473ffffffffffffffffffffffffffffffffffffffff1673ffffffffffffffffffffffffffffffffffffffff163373ffffffffffffffffffffffffffffffffffffffff16145b611f86576040517f08c379a0000000000000000000000000000000000000000000000000000000008152600401611f7d90615259565b60405180910390fd5b600960009054906101000a900473ffffffffffffffffffffffffffffffffffffffff1673ffffffffffffffffffffffffffffffffffffffff16630a9682ad836040518263ffffffff1660e01b8152600401611fe19190613fe6565b602060405180830381865afa158015611ffe573d6000803e3d6000fd5b505050506040513d601f19601f8201168201806040525081019061202291906143f0565b9050919050565b6000600160008373ffffffffffffffffffffffffffffffffffffffff1673ffffffffffffffffffffffffffffffffffffffff16815260200190815260200160002060009054906101000a900460ff169050919050565b6003818154811061208f57600080fd5b906000526020600020016000915054906101000a900473ffffffffffffffffffffffffffffffffffffffff1681565b600460009054906101000a900473ffffffffffffffffffffffffffffffffffffffff1673ffffffffffffffffffffffffffffffffffffffff163373ffffffffffffffffffffffffffffffffffffffff161461214e576040517f08c379a0000000000000000000000000000000000000000000000000000000008152600401612145906149db565b60405180910390fd5b6000808273ffffffffffffffffffffffffffffffffffffffff1673ffffffffffffffffffffffffffffffffffffffff16815260200190815260200160002060009054906101000a900460ff166121d9576040517f08c379a00000000000000000000000000000000000000000000000000000000081526004016121d0906152c5565b60405180910390fd5b60008060008373ffffffffffffffffffffffffffffffffffffffff1673ffffffffffffffffffffffffffffffffffffffff16815260200190815260200160002060006101000a81548160ff0219169083151502179055508073ffffffffffffffffffffffffffffffffffffffff167f493d7cf6a7c880406a55654d6727464ea088bd01d40498e1987a327e68961ab860405160405180910390a250565b60008060008373ffffffffffffffffffffffffffffffffffffffff1673ffffffffffffffffffffffffffffffffffffffff16815260200190815260200160002060009054906101000a900460ff169050919050565b600460009054906101000a900473ffffffffffffffffffffffffffffffffffffffff1673ffffffffffffffffffffffffffffffffffffffff163373ffffffffffffffffffffffffffffffffffffffff161461235b576040517f08c379a0000000000000000000000000000000000000000000000000000000008152600401612352906149db565b60405180910390fd5b80600a60006101000a81548173ffffffffffffffffffffffffffffffffffffffff021916908373ffffffffffffffffffffffffffffffffffffffff16021790555050565b60006060600080600080600760008973ffffffffffffffffffffffffffffffffffffffff1673ffffffffffffffffffffffffffffffffffffffff16815260200190815260200160002080549050871061242d576040517f08c379a000000000000000000000000000000000000000000000000000000000815260040161242490614a47565b60405180910390fd5b6000600760008a73ffffffffffffffffffffffffffffffffffffffff1673ffffffffffffffffffffffffffffffffffffffff16815260200190815260200160002088815481106124805761247f614a67565b5b90600052602060002090600502016040518060c00160405290816000820160009054906101000a900473ffffffffffffffffffffffffffffffffffffffff1673ffffffffffffffffffffffffffffffffffffffff1673ffffffffffffffffffffffffffffffffffffffff1681526020016001820180546124ff9061444c565b80601f016020809104026020016040519081016040528092919081815260200182805461252b9061444c565b80156125785780601f1061254d57610100808354040283529160200191612578565b820191906000526020600020905b81548152906001019060200180831161255b57829003601f168201915b5050505050815260200160028201548152602001600382015481526020016004820160009054906101000a900460ff161515151581526020016004820160019054906101000a900460ff1615151515815250509050806000015181602001518260400151836060015184608001518560a00151965096509650965096509650509295509295509295565b600080600080600660008773ffffffffffffffffffffffffffffffffffffffff1673ffffffffffffffffffffffffffffffffffffffff16815260200190815260200160002080549050851061268c576040517f08c379a000000000000000000000000000000000000000000000000000000000815260040161268390614a47565b60405180910390fd5b8573ffffffffffffffffffffffffffffffffffffffff163373ffffffffffffffffffffffffffffffffffffffff1614806127735750600660008773ffffffffffffffffffffffffffffffffffffffff1673ffffffffffffffffffffffffffffffffffffffff168152602001908152602001600020858154811061271257612711614a67565b5b906000526020600020906003020160000160009054906101000a900473ffffffffffffffffffffffffffffffffffffffff1673ffffffffffffffffffffffffffffffffffffffff163373ffffffffffffffffffffffffffffffffffffffff16145b6127b2576040517f08c379a00000000000000000000000000000000000000000000000000000000081526004016127a990615357565b60405180910390fd5b6000600660008873ffffffffffffffffffffffffffffffffffffffff1673ffffffffffffffffffffffffffffffffffffffff168152602001908152602001600020868154811061280557612804614a67565b5b90600052602060002090600302016040518060800160405290816000820160009054906101000a900473ffffffffffffffffffffffffffffffffffffffff1673ffffffffffffffffffffffffffffffffffffffff1673ffffffffffffffffffffffffffffffffffffffff168152602001600182015481526020016002820160009054906101000a900460ff161515151581526020016002820160019054906101000a900460ff1615151515815250509050806000015181602001518260400151836060015194509450945094505092959194509250565b6000803373ffffffffffffffffffffffffffffffffffffffff1673ffffffffffffffffffffffffffffffffffffffff16815260200190815260200160002060009054906101000a900460ff16612967576040517f08c379a000000000000000000000000000000000000000000000000000000000815260040161295e906145fb565b60405180910390fd5b60008067ffffffffffffffff81111561298357612982614032565b5b6040519080825280602002602001820160405280156129b657816020015b60608152602001906001900390816129a15790505b509050600960009054906101000a900473ffffffffffffffffffffffffffffffffffffffff1673ffffffffffffffffffffffffffffffffffffffff16639fdc69e68888888888876040518763ffffffff1660e01b8152600401612a1e96959493929190615377565b600060405180830381600087803b158015612a3857600080fd5b505af1158015612a4c573d6000803e3d6000fd5b5050505050505050505050565b60006020528060005260406000206000915054906101000a900460ff1681565b600660003373ffffffffffffffffffffffffffffffffffffffff1673ffffffffffffffffffffffffffffffffffffffff168152602001908152602001600020805490508210612afd576040517f08c379a0000000000000000000000000000000000000000000000000000000008152600401612af490614a47565b60405180910390fd5b6000600660003373ffffffffffffffffffffffffffffffffffffffff1673ffffffffffffffffffffffffffffffffffffffff1681526020019081526020016000208381548110612b5057612b4f614a67565b5b906000526020600020906003020190508060020160009054906101000a900460ff16612bb1576040517f08c379a0000000000000000000000000000000000000000000000000000000008152600401612ba890614ae2565b60405180910390fd5b60008160020160006101000a81548160ff021916908315150217905550818160020160016101000a81548160ff0219169083151502179055508115612d28576001600560003373ffffffffffffffffffffffffffffffffffffffff1673ffffffffffffffffffffffffffffffffffffffff16815260200190815260200160002060008360000160009054906101000a900473ffffffffffffffffffffffffffffffffffffffff1673ffffffffffffffffffffffffffffffffffffffff1673ffffffffffffffffffffffffffffffffffffffff16815260200190815260200160002060006101000a81548160ff0219169083151502179055508060000160009054906101000a900473ffffffffffffffffffffffffffffffffffffffff1673ffffffffffffffffffffffffffffffffffffffff163373ffffffffffffffffffffffffffffffffffffffff167f9f520b3bfc56d06f7065d10b4683b3f57ac8895d5026cd176dee95ce1454cb8d60405160405180910390a35b8060000160009054906101000a900473ffffffffffffffffffffffffffffffffffffffff1673ffffffffffffffffffffffffffffffffffffffff163373ffffffffffffffffffffffffffffffffffffffff167f74fd0dd90f78af3dc9bef188bc8f7967b4d14ce969088d27cd52f32dd866a8c884604051612da99190613d9b565b60405180910390a3505050565b600a60009054906101000a900473ffffffffffffffffffffffffffffffffffffffff1681565b6000838073ffffffffffffffffffffffffffffffffffffffff163373ffffffffffffffffffffffffffffffffffffffff161480612e9f5750600560008273ffffffffffffffffffffffffffffffffffffffff1673ffffffffffffffffffffffffffffffffffffffff16815260200190815260200160002060003373ffffffffffffffffffffffffffffffffffffffff1673ffffffffffffffffffffffffffffffffffffffff16815260200190815260200160002060009054906101000a900460ff165b612ede576040517f08c379a0000000000000000000000000000000000000000000000000000000008152600401612ed5906143bb565b60405180910390fd5b600860008673ffffffffffffffffffffffffffffffffffffffff1673ffffffffffffffffffffffffffffffffffffffff1681526020019081526020016000208484604051612f2d92919061464b565b9081526020016040518091039020549150509392505050565b60606000805b6002805490508110156130045760008060028381548110612f7057612f6f614a67565b5b9060005260206000200160009054906101000a900473ffffffffffffffffffffffffffffffffffffffff1673ffffffffffffffffffffffffffffffffffffffff1673ffffffffffffffffffffffffffffffffffffffff16815260200190815260200160002060009054906101000a900460ff1615612ff7578180612ff390615159565b9250505b8080600101915050612f4c565b5060008167ffffffffffffffff81111561302157613020614032565b5b60405190808252806020026020018201604052801561304f5781602001602082028036833780820191505090505b5090506000805b60028054905081101561319a576000806002838154811061307a57613079614a67565b5b9060005260206000200160009054906101000a900473ffffffffffffffffffffffffffffffffffffffff1673ffffffffffffffffffffffffffffffffffffffff1673ffffffffffffffffffffffffffffffffffffffff16815260200190815260200160002060009054906101000a900460ff161561318d576002818154811061310657613105614a67565b5b9060005260206000200160009054906101000a900473ffffffffffffffffffffffffffffffffffffffff1683838151811061314457613143614a67565b5b602002602001019073ffffffffffffffffffffffffffffffffffffffff16908173ffffffffffffffffffffffffffffffffffffffff1681525050818061318990615159565b9250505b8080600101915050613056565b5081935050505090565b600460009054906101000a900473ffffffffffffffffffffffffffffffffffffffff1681565b6000806000905060005b600760008573ffffffffffffffffffffffffffffffffffffffff1673ffffffffffffffffffffffffffffffffffffffff168152602001908152602001600020805490508110156132af57600760008573ffffffffffffffffffffffffffffffffffffffff1673ffffffffffffffffffffffffffffffffffffffff168152602001908152602001600020818154811061326f5761326e614a67565b5b906000526020600020906005020160040160009054906101000a900460ff16156132a257818061329e90615159565b9250505b80806001019150506131d4565b5080915050919050565b600160008273ffffffffffffffffffffffffffffffffffffffff1673ffffffffffffffffffffffffffffffffffffffff16815260200190815260200160002060009054906101000a900460ff166134085760018060008373ffffffffffffffffffffffffffffffffffffffff1673ffffffffffffffffffffffffffffffffffffffff16815260200190815260200160002060006101000a81548160ff0219169083151502179055506003819080600181540180825580915050600190039060005260206000200160009091909190916101000a81548173ffffffffffffffffffffffffffffffffffffffff021916908373ffffffffffffffffffffffffffffffffffffffff1602179055508073ffffffffffffffffffffffffffffffffffffffff167fc9fa2003fca4ce0dfc8cb0deae32266b715536df6685365b05b5be96ede8e49c60405160405180910390a25b50565b6000808273ffffffffffffffffffffffffffffffffffffffff1673ffffffffffffffffffffffffffffffffffffffff16815260200190815260200160002060009054906101000a900460ff166135595760016000808373ffffffffffffffffffffffffffffffffffffffff1673ffffffffffffffffffffffffffffffffffffffff16815260200190815260200160002060006101000a81548160ff0219169083151502179055506002819080600181540180825580915050600190039060005260206000200160009091909190916101000a81548173ffffffffffffffffffffffffffffffffffffffff021916908373ffffffffffffffffffffffffffffffffffffffff1602179055508073ffffffffffffffffffffffffffffffffffffffff167f69908b2e63170aa89ef89719bbe3b4c92cccc38653968ab25f4464eff7c28ac860405160405180910390a25b50565b606060008273ffffffffffffffffffffffffffffffffffffffff1660001b905060006040518060400160405280601081526020017f303132333435363738396162636465660000000000000000000000000000000081525090506000602a67ffffffffffffffff8111156135d3576135d2614032565b5b6040519080825280601f01601f1916602001820160405280156136055781602001600182028036833780820191505090505b5090507f30000000000000000000000000000000000000000000000000000000000000008160008151811061363d5761363c614a67565b5b60200101907effffffffffffffffffffffffffffffffffffffffffffffffffffffffffffff1916908160001a9053507f7800000000000000000000000000000000000000000000000000000000000000816001815181106136a1576136a0614a67565b5b60200101907effffffffffffffffffffffffffffffffffffffffffffffffffffffffffffff1916908160001a90535060005b60148110156138555782600485600c846136ed91906153ed565b602081106136fe576136fd614a67565b5b1a60f81b7effffffffffffffffffffffffffffffffffffffffffffffffffffffffffffff1916901c60f81c60ff168151811061373d5761373c614a67565b5b602001015160f81c60f81b826002836137569190615421565b600261376291906153ed565b8151811061377357613772614a67565b5b60200101907effffffffffffffffffffffffffffffffffffffffffffffffffffffffffffff1916908160001a90535082600f60f81b85600c846137b691906153ed565b602081106137c7576137c6614a67565b5b1a60f81b1660f81c60ff16815181106137e3576137e2614a67565b5b602001015160f81c60f81b826002836137fc9190615421565b600361380891906153ed565b8151811061381957613818614a67565b5b60200101907effffffffffffffffffffffffffffffffffffffffffffffffffffffffffffff1916908160001a90535080806001019150506136d3565b50809350505050919050565b6000604051905090565b600080fd5b600080fd5b600073ffffffffffffffffffffffffffffffffffffffff82169050919050565b60006138a082613875565b9050919050565b6138b081613895565b81146138bb57600080fd5b50565b6000813590506138cd816138a7565b92915050565b6000602082840312156138e9576138e861386b565b5b60006138f7848285016138be565b91505092915050565b6000819050919050565b61391381613900565b82525050565b600060208201905061392e600083018461390a565b92915050565b61393d81613900565b811461394857600080fd5b50565b60008135905061395a81613934565b92915050565b600080604083850312156139775761397661386b565b5b6000613985858286016138be565b92505060206139968582860161394b565b9150509250929050565b6139a981613895565b82525050565b600081519050919050565b600082825260208201905092915050565b60005b838110156139e95780820151818401526020810190506139ce565b60008484015250505050565b6000601f19601f8301169050919050565b6000613a11826139af565b613a1b81856139ba565b9350613a2b8185602086016139cb565b613a34816139f5565b840191505092915050565b60008115159050919050565b613a5481613a3f565b82525050565b600060c082019050613a6f60008301896139a0565b8181036020830152613a818188613a06565b9050613a90604083018761390a565b613a9d606083018661390a565b613aaa6080830185613a4b565b613ab760a0830184613a4b565b979650505050505050565b600081519050919050565b600082825260208201905092915050565b6000819050602082019050919050565b613af781613895565b82525050565b6000613b098383613aee565b60208301905092915050565b6000602082019050919050565b6000613b2d82613ac2565b613b378185613acd565b9350613b4283613ade565b8060005b83811015613b73578151613b5a8882613afd565b9750613b6583613b15565b925050600181019050613b46565b5085935050505092915050565b60006020820190508181036000830152613b9a8184613b22565b905092915050565b600081519050919050565b600082825260208201905092915050565b6000819050602082019050919050565b613bd781613900565b82525050565b6000613be98383613bce565b60208301905092915050565b6000602082019050919050565b6000613c0d82613ba2565b613c178185613bad565b9350613c2283613bbe565b8060005b83811015613c53578151613c3a8882613bdd565b9750613c4583613bf5565b925050600181019050613c26565b5085935050505092915050565b60006020820190508181036000830152613c7a8184613c02565b905092915050565b600080fd5b600080fd5b600080fd5b60008083601f840112613ca757613ca6613c82565b5b8235905067ffffffffffffffff811115613cc457613cc3613c87565b5b602083019150836001820283011115613ce057613cdf613c8c565b5b9250929050565b60008060008060608587031215613d0157613d0061386b565b5b6000613d0f878288016138be565b945050602085013567ffffffffffffffff811115613d3057613d2f613870565b5b613d3c87828801613c91565b93509350506040613d4f8782880161394b565b91505092959194509250565b60008060408385031215613d7257613d7161386b565b5b6000613d80858286016138be565b9250506020613d91858286016138be565b9150509250929050565b6000602082019050613db06000830184613a4b565b92915050565b613dbf81613a3f565b8114613dca57600080fd5b50565b600081359050613ddc81613db6565b92915050565b60008060408385031215613df957613df861386b565b5b6000613e078582860161394b565b9250506020613e1885828601613dcd565b9150509250929050565b6000608082019050613e3760008301876139a0565b613e44602083018661390a565b613e516040830185613a4b565b613e5e6060830184613a4b565b95945050505050565b6000819050919050565b613e7a81613e67565b82525050565b600061014082019050613e96600083018d61390a565b8181036020830152613ea8818c613a06565b90508181036040830152613ebc818b613a06565b90508181036060830152613ed0818a613a06565b9050613edf608083018961390a565b613eec60a08301886139a0565b81810360c0830152613efe8187613a06565b9050613f0d60e0830186613e71565b818103610100830152613f208185613a06565b9050613f30610120830184613a4b565b9b9a5050505050505050505050565b6000819050919050565b6000613f64613f5f613f5a84613875565b613f3f565b613875565b9050919050565b6000613f7682613f49565b9050919050565b6000613f8882613f6b565b9050919050565b613f9881613f7d565b82525050565b6000602082019050613fb36000830184613f8f565b92915050565b600060208284031215613fcf57613fce61386b565b5b6000613fdd8482850161394b565b91505092915050565b6000602082019050613ffb60008301846139a0565b92915050565b61400a81613e67565b811461401557600080fd5b50565b60008135905061402781614001565b92915050565b600080fd5b7f4e487b7100000000000000000000000000000000000000000000000000000000600052604160045260246000fd5b61406a826139f5565b810181811067ffffffffffffffff8211171561408957614088614032565b5b80604052505050565b600061409c613861565b90506140a88282614061565b919050565b600067ffffffffffffffff8211156140c8576140c7614032565b5b6140d1826139f5565b9050602081019050919050565b82818337600083830152505050565b60006141006140fb846140ad565b614092565b90508281526020810184848401111561411c5761411b61402d565b5b6141278482856140de565b509392505050565b600082601f83011261414457614143613c82565b5b81356141548482602086016140ed565b91505092915050565b6000806000606084860312156141765761417561386b565b5b600061418486828701614018565b935050602084013567ffffffffffffffff8111156141a5576141a4613870565b5b6141b18682870161412f565b92505060406141c2868287016138be565b9150509250925092565b60008060008060008060c087890312156141e9576141e861386b565b5b60006141f789828a016138be565b965050602061420889828a0161394b565b955050604087013567ffffffffffffffff81111561422957614228613870565b5b61423589828a0161412f565b945050606087013567ffffffffffffffff81111561425657614255613870565b5b61426289828a0161412f565b935050608061427389828a01614018565b92505060a087013567ffffffffffffffff81111561429457614293613870565b5b6142a089828a0161412f565b9150509295509295509295565b60006142b882613f6b565b9050919050565b6142c8816142ad565b82525050565b60006020820190506142e360008301846142bf565b92915050565b6000806000604084860312156143025761430161386b565b5b6000614310868287016138be565b935050602084013567ffffffffffffffff81111561433157614330613870565b5b61433d86828701613c91565b92509250509250925092565b7f4e6f7420617574686f72697a656420746f206163636573732070617469656e7460008201527f207265636f726473000000000000000000000000000000000000000000000000602082015250565b60006143a56028836139ba565b91506143b082614349565b604082019050919050565b600060208201905081810360008301526143d481614398565b9050919050565b6000815190506143ea81613934565b92915050565b6000602082840312156144065761440561386b565b5b6000614414848285016143db565b91505092915050565b7f4e487b7100000000000000000000000000000000000000000000000000000000600052602260045260246000fd5b6000600282049050600182168061446457607f821691505b6020821081036144775761447661441d565b5b50919050565b600067ffffffffffffffff82111561449857614497614032565b5b602082029050602081019050919050565b60006144bc6144b78461447d565b614092565b905080838252602082019050602084028301858111156144df576144de613c8c565b5b835b8181101561450857806144f488826143db565b8452602084019350506020810190506144e1565b5050509392505050565b600082601f83011261452757614526613c82565b5b81516145378482602086016144a9565b91505092915050565b6000602082840312156145565761455561386b565b5b600082015167ffffffffffffffff81111561457457614573613870565b5b61458084828501614512565b91505092915050565b7f4f6e6c7920646f63746f722063616e2063616c6c20746869732066756e63746960008201527f6f6e000000000000000000000000000000000000000000000000000000000000602082015250565b60006145e56022836139ba565b91506145f082614589565b604082019050919050565b60006020820190508181036000830152614614816145d8565b9050919050565b600081905092915050565b6000614632838561461b565b935061463f8385846140de565b82840190509392505050565b6000614658828486614626565b91508190509392505050565b600061467083856139ba565b935061467d8385846140de565b614686836139f5565b840190509392505050565b600060408201905081810360008301526146ac818587614664565b90506146bb602083018461390a565b949350505050565b60008190508160005260206000209050919050565b60006020601f8301049050919050565b600082821b905092915050565b6000600883026147257fffffffffffffffffffffffffffffffffffffffffffffffffffffffffffffffff826146e8565b61472f86836146e8565b95508019841693508086168417925050509392505050565b600061476261475d61475884613900565b613f3f565b613900565b9050919050565b6000819050919050565b61477c83614747565b61479061478882614769565b8484546146f5565b825550505050565b600090565b6147a5614798565b6147b0818484614773565b505050565b5b818110156147d4576147c960008261479d565b6001810190506147b6565b5050565b601f821115614819576147ea816146c3565b6147f3846146d8565b81016020851015614802578190505b61481661480e856146d8565b8301826147b5565b50505b505050565b600082821c905092915050565b600061483c6000198460080261481e565b1980831691505092915050565b6000614855838361482b565b9150826002028217905092915050565b61486e826139af565b67ffffffffffffffff81111561488757614886614032565b5b614891825461444c565b61489c8282856147d8565b600060209050601f8311600181146148cf57600084156148bd578287015190505b6148c78582614849565b86555061492f565b601f1984166148dd866146c3565b60005b82811015614905578489015182556001820191506020850194506020810190506148e0565b86831015614922578489015161491e601f89168261482b565b8355505b6001600288020188555050505b505050505050565b600060408201905061494c600083018661390a565b818103602083015261495f818486614664565b9050949350505050565b7f4f6e6c792061646d696e2063616e2063616c6c20746869732066756e6374696f60008201527f6e00000000000000000000000000000000000000000000000000000000000000602082015250565b60006149c56021836139ba565b91506149d082614969565b604082019050919050565b600060208201905081810360008301526149f4816149b8565b9050919050565b7f52657175657374204944206e6f7420666f756e64000000000000000000000000600082015250565b6000614a316014836139ba565b9150614a3c826149fb565b602082019050919050565b60006020820190508181036000830152614a6081614a24565b9050919050565b7f4e487b7100000000000000000000000000000000000000000000000000000000600052603260045260246000fd5b7f5265717565737420616c72656164792070726f63657373656400000000000000600082015250565b6000614acc6019836139ba565b9150614ad782614a96565b602082019050919050565b60006020820190508181036000830152614afb81614abf565b9050919050565b6000604082019050614b17600083018561390a565b614b246020830184613a4b565b9392505050565b6000604082019050614b4060008301856139a0565b614b4d602083018461390a565b9392505050565b600080fd5b600080fd5b6000614b71614b6c846140ad565b614092565b905082815260208101848484011115614b8d57614b8c61402d565b5b614b988482856139cb565b509392505050565b600082601f830112614bb557614bb4613c82565b5b8151614bc5848260208601614b5e565b91505092915050565b600081519050614bdd816138a7565b92915050565b600081519050614bf281614001565b92915050565b600067ffffffffffffffff821115614c1357614c12614032565b5b602082029050602081019050919050565b6000614c37614c3284614bf8565b614092565b90508083825260208201905060208402830185811115614c5a57614c59613c8c565b5b835b81811015614ca157805167ffffffffffffffff811115614c7f57614c7e613c82565b5b808601614c8c8982614ba0565b85526020850194505050602081019050614c5c565b5050509392505050565b600082601f830112614cc057614cbf613c82565b5b8151614cd0848260208601614c24565b91505092915050565b600081519050614ce881613db6565b92915050565b60006101408284031215614d0557614d04614b54565b5b614d10610140614092565b90506000614d20848285016143db565b600083015250602082015167ffffffffffffffff811115614d4457614d43614b59565b5b614d5084828501614ba0565b602083015250604082015167ffffffffffffffff811115614d7457614d73614b59565b5b614d8084828501614ba0565b604083015250606082015167ffffffffffffffff811115614da457614da3614b59565b5b614db084828501614ba0565b6060830152506080614dc4848285016143db565b60808301525060a0614dd884828501614bce565b60a08301525060c0614dec84828501614bce565b60c08301525060e0614e0084828501614be3565b60e08301525061010082015167ffffffffffffffff811115614e2557614e24614b59565b5b614e3184828501614cab565b61010083015250610120614e4784828501614cd9565b6101208301525092915050565b600060208284031215614e6a57614e6961386b565b5b600082015167ffffffffffffffff811115614e8857614e87613870565b5b614e9484828501614cee565b91505092915050565b7f4d65646963616c205265636f7264000000000000000000000000000000000000600082015250565b6000614ed3600e836139ba565b9150614ede82614e9d565b602082019050919050565b7f54726561746d656e7420486973746f7279000000000000000000000000000000600082015250565b6000614f1f6011836139ba565b9150614f2a82614ee9565b602082019050919050565b7f54726561746d656e7420686973746f727920726567697374657265642062792060008201527f646f63746f720000000000000000000000000000000000000000000000000000602082015250565b6000614f916026836139ba565b9150614f9c82614f35565b604082019050919050565b600081519050919050565b600082825260208201905092915050565b6000819050602082019050919050565b600082825260208201905092915050565b6000614fef826139af565b614ff98185614fd3565b93506150098185602086016139cb565b615012816139f5565b840191505092915050565b60006150298383614fe4565b905092915050565b6000602082019050919050565b600061504982614fa7565b6150538185614fb2565b93508360208202850161506585614fc3565b8060005b858110156150a15784840389528151615082858261501d565b945061508d83615031565b925060208a01995050600181019050615069565b50829750879550505050505092915050565b600060c0820190506150c860008301866139a0565b81810360208301526150d981614ec6565b905081810360408301526150ec81614f12565b905081810360608301526150ff81614f84565b905061510e6080830185613e71565b81810360a0830152615120818461503e565b9050949350505050565b7f4e487b7100000000000000000000000000000000000000000000000000000000600052601160045260246000fd5b600061516482613900565b91507fffffffffffffffffffffffffffffffffffffffffffffffffffffffffffffffff82036151965761519561512a565b5b600182019050919050565b7f56696577657220646f6573206e6f742068617665206163636573730000000000600082015250565b60006151d7601b836139ba565b91506151e2826151a1565b602082019050919050565b60006020820190508181036000830152615206816151ca565b9050919050565b7f4f6e6c7920646f63746f72206f722061646d696e2063616e2063616c6c000000600082015250565b6000615243601d836139ba565b915061524e8261520d565b602082019050919050565b6000602082019050818103600083015261527281615236565b9050919050565b7f41646472657373206973206e6f74206120646f63746f72000000000000000000600082015250565b60006152af6017836139ba565b91506152ba82615279565b602082019050919050565b600060208201905081810360008301526152de816152a2565b9050919050565b7f4e6f7420617574686f72697a656420746f20766965772072657175657374206460008201527f657461696c730000000000000000000000000000000000000000000000000000602082015250565b60006153416026836139ba565b915061534c826152e5565b604082019050919050565b6000602082019050818103600083015261537081615334565b9050919050565b600060c08201905061538c60008301896139a0565b615399602083018861390a565b81810360408301526153ab8187613a06565b905081810360608301526153bf8186613a06565b90506153ce6080830185613e71565b81810360a08301526153e0818461503e565b9050979650505050505050565b60006153f882613900565b915061540383613900565b925082820190508082111561541b5761541a61512a565b5b92915050565b600061542c82613900565b915061543783613900565b925082820261544581613900565b9150828204841483151761545c5761545b61512a565b5b509291505056fea26469706673582212200673a6a51303fe26955823340cc2a90634a319223ce1c675c44b6b76638c41be64736f6c634300081c0033608060405234801561001057600080fd5b506040516136f13803806136f18339818101604052810190610032919061011c565b806000806101000a81548173ffffffffffffffffffffffffffffffffffffffff021916908373ffffffffffffffffffffffffffffffffffffffff16021790555033600460006101000a81548173ffffffffffffffffffffffffffffffffffffffff021916908373ffffffffffffffffffffffffffffffffffffffff16021790555050610149565b600080fd5b600073ffffffffffffffffffffffffffffffffffffffff82169050919050565b60006100e9826100be565b9050919050565b6100f9816100de565b811461010457600080fd5b50565b600081519050610116816100f0565b92915050565b600060208284031215610132576101316100b9565b5b600061014084828501610107565b91505092915050565b613599806101586000396000f3fe608060405234801561001057600080fd5b50600436106100f55760003560e01c8063505cceda11610097578063a5aee06c11610066578063a5aee06c146102aa578063a9698906146102da578063cc921307146102f6578063f851a44014610326576100f5565b8063505cceda146101fe5780636248204e1461022e57806381dc6fd21461025e5780639fdc69e61461028e576100f5565b8063210661b7116100d3578063210661b714610164578063379ff52c146101805780633a203739146101b057806348452edf146101ce576100f5565b80630a9682ad146100fa5780631aecb28b1461012a5780631b470bc714610148575b600080fd5b610114600480360381019061010f91906121ef565b610344565b6040516101219190612235565b60405180910390f35b610132610390565b60405161013f919061230e565b60405180910390f35b610162600480360381019061015d91906121ef565b61041e565b005b61017e6004803603810190610179919061235c565b6105aa565b005b61019a6004803603810190610195919061235c565b61086e565b6040516101a79190612620565b60405180910390f35b6101b8610ce1565b6040516101c591906126a1565b60405180910390f35b6101e860048036038101906101e391906121ef565b610d05565b6040516101f59190612235565b60405180910390f35b61021860048036038101906102139190612903565b610df4565b6040516102259190612235565b60405180910390f35b610248600480360381019061024391906121ef565b6112b1565b6040516102559190612ac4565b60405180910390f35b61027860048036038101906102739190612ae6565b611428565b6040516102859190612b22565b60405180910390f35b6102a860048036038101906102a39190612b3d565b611467565b005b6102c460048036038101906102bf9190612c1e565b611761565b6040516102d19190612235565b60405180910390f35b6102f460048036038101906102ef91906121ef565b611b41565b005b610310600480360381019061030b91906121ef565b611d5d565b60405161031d9190612ac4565b60405180910390f35b61032e611ff9565b60405161033b9190612b22565b60405180910390f35b6000600160008373ffffffffffffffffffffffffffffffffffffffff1673ffffffffffffffffffffffffffffffffffffffff168152602001908152602001600020805490509050919050565b6060600380548060200260200160405190810160405280929190818152602001828054801561041457602002820191906000526020600020905b8160009054906101000a900473ffffffffffffffffffffffffffffffffffffffff1673ffffffffffffffffffffffffffffffffffffffff16815260200190600101908083116103ca575b5050505050905090565b600460009054906101000a900473ffffffffffffffffffffffffffffffffffffffff1673ffffffffffffffffffffffffffffffffffffffff163373ffffffffffffffffffffffffffffffffffffffff16146104ae576040517f08c379a00000000000000000000000000000000000000000000000000000000081526004016104a590612d9e565b60405180910390fd5b60005b600380549050811015610542578173ffffffffffffffffffffffffffffffffffffffff16600382815481106104e9576104e8612dbe565b5b9060005260206000200160009054906101000a900473ffffffffffffffffffffffffffffffffffffffff1673ffffffffffffffffffffffffffffffffffffffff160361053557506105a7565b80806001019150506104b1565b506003819080600181540180825580915050600190039060005260206000200160009091909190916101000a81548173ffffffffffffffffffffffffffffffffffffffff021916908373ffffffffffffffffffffffffffffffffffffffff1602179055505b50565b60008054906101000a900473ffffffffffffffffffffffffffffffffffffffff1673ffffffffffffffffffffffffffffffffffffffff1663996440c6336040518263ffffffff1660e01b81526004016106039190612b22565b602060405180830381865afa158015610620573d6000803e3d6000fd5b505050506040513d601f19601f820116820180604052508101906106449190612e19565b610683576040517f08c379a000000000000000000000000000000000000000000000000000000000815260040161067a90612eb8565b60405180910390fd5b600160008373ffffffffffffffffffffffffffffffffffffffff1673ffffffffffffffffffffffffffffffffffffffff168152602001908152602001600020805490508110610707576040517f08c379a00000000000000000000000000000000000000000000000000000000081526004016106fe90612f24565b60405180910390fd5b6000600160008473ffffffffffffffffffffffffffffffffffffffff1673ffffffffffffffffffffffffffffffffffffffff168152602001908152602001600020828154811061075a57610759612dbe565b5b90600052602060002090600a020190503373ffffffffffffffffffffffffffffffffffffffff168160050160009054906101000a900473ffffffffffffffffffffffffffffffffffffffff1673ffffffffffffffffffffffffffffffffffffffff16146107fc576040517f08c379a00000000000000000000000000000000000000000000000000000000081526004016107f390612fb6565b60405180910390fd5b60008160090160006101000a81548160ff0219169083151502179055508273ffffffffffffffffffffffffffffffffffffffff167f7e7d28819d067d43a9f5f7649a7926426e42ffe92cfdd86394f7af8127d92d5b8342604051610861929190612fd6565b60405180910390a2505050565b61087661201f565b600160008473ffffffffffffffffffffffffffffffffffffffff1673ffffffffffffffffffffffffffffffffffffffff1681526020019081526020016000208054905082106108fa576040517f08c379a00000000000000000000000000000000000000000000000000000000081526004016108f190612f24565b60405180910390fd5b600160008473ffffffffffffffffffffffffffffffffffffffff1673ffffffffffffffffffffffffffffffffffffffff168152602001908152602001600020828154811061094b5761094a612dbe565b5b90600052602060002090600a0201604051806101400160405290816000820154815260200160018201805461097f9061302e565b80601f01602080910402602001604051908101604052809291908181526020018280546109ab9061302e565b80156109f85780601f106109cd576101008083540402835291602001916109f8565b820191906000526020600020905b8154815290600101906020018083116109db57829003601f168201915b50505050508152602001600282018054610a119061302e565b80601f0160208091040260200160405190810160405280929190818152602001828054610a3d9061302e565b8015610a8a5780601f10610a5f57610100808354040283529160200191610a8a565b820191906000526020600020905b815481529060010190602001808311610a6d57829003601f168201915b50505050508152602001600382018054610aa39061302e565b80601f0160208091040260200160405190810160405280929190818152602001828054610acf9061302e565b8015610b1c5780601f10610af157610100808354040283529160200191610b1c565b820191906000526020600020905b815481529060010190602001808311610aff57829003601f168201915b50505050508152602001600482015481526020016005820160009054906101000a900473ffffffffffffffffffffffffffffffffffffffff1673ffffffffffffffffffffffffffffffffffffffff1673ffffffffffffffffffffffffffffffffffffffff1681526020016006820160009054906101000a900473ffffffffffffffffffffffffffffffffffffffff1673ffffffffffffffffffffffffffffffffffffffff1673ffffffffffffffffffffffffffffffffffffffff1681526020016007820154815260200160088201805480602002602001604051908101604052809291908181526020016000905b82821015610cb6578382906000526020600020018054610c299061302e565b80601f0160208091040260200160405190810160405280929190818152602001828054610c559061302e565b8015610ca25780601f10610c7757610100808354040283529160200191610ca2565b820191906000526020600020905b815481529060010190602001808311610c8557829003601f168201915b505050505081526020019060010190610c0a565b5050505081526020016009820160009054906101000a900460ff161515151581525050905092915050565b60008054906101000a900473ffffffffffffffffffffffffffffffffffffffff1681565b6000806000905060005b600160008573ffffffffffffffffffffffffffffffffffffffff1673ffffffffffffffffffffffffffffffffffffffff16815260200190815260200160002080549050811015610dea57600160008573ffffffffffffffffffffffffffffffffffffffff1673ffffffffffffffffffffffffffffffffffffffff1681526020019081526020016000208181548110610daa57610da9612dbe565b5b90600052602060002090600a020160090160009054906101000a900460ff1615610ddd578180610dd99061308e565b9250505b8080600101915050610d0f565b5080915050919050565b6000806000905060005b600380549050811015610e925760038181548110610e1f57610e1e612dbe565b5b9060005260206000200160009054906101000a900473ffffffffffffffffffffffffffffffffffffffff1673ffffffffffffffffffffffffffffffffffffffff163373ffffffffffffffffffffffffffffffffffffffff1603610e855760019150610e92565b8080600101915050610dfe565b5080610ed3576040517f08c379a0000000000000000000000000000000000000000000000000000000008152600401610eca90613148565b60405180910390fd5b60008054906101000a900473ffffffffffffffffffffffffffffffffffffffff1673ffffffffffffffffffffffffffffffffffffffff1663996440c6896040518263ffffffff1660e01b8152600401610f2c9190612b22565b602060405180830381865afa158015610f49573d6000803e3d6000fd5b505050506040513d601f19601f82011682018060405250810190610f6d9190612e19565b610fac576040517f08c379a0000000000000000000000000000000000000000000000000000000008152600401610fa3906131da565b60405180910390fd5b6000600260008b73ffffffffffffffffffffffffffffffffffffffff1673ffffffffffffffffffffffffffffffffffffffff168152602001908152602001600020549050600260008b73ffffffffffffffffffffffffffffffffffffffff1673ffffffffffffffffffffffffffffffffffffffff16815260200190815260200160002060008154809291906110409061308e565b9190505550600160008b73ffffffffffffffffffffffffffffffffffffffff1673ffffffffffffffffffffffffffffffffffffffff1681526020019081526020016000206040518061014001604052808381526020018a81526020018981526020018881526020014281526020018b73ffffffffffffffffffffffffffffffffffffffff1681526020013373ffffffffffffffffffffffffffffffffffffffff1681526020018781526020018681526020016001151581525090806001815401808255809150506001900390600052602060002090600a0201600090919091909150600082015181600001556020820151816001019081611141919061339c565b506040820151816002019081611157919061339c565b50606082015181600301908161116d919061339c565b506080820151816004015560a08201518160050160006101000a81548173ffffffffffffffffffffffffffffffffffffffff021916908373ffffffffffffffffffffffffffffffffffffffff16021790555060c08201518160060160006101000a81548173ffffffffffffffffffffffffffffffffffffffff021916908373ffffffffffffffffffffffffffffffffffffffff16021790555060e0820151816007015561010082015181600801908051906020019061122d9291906120a3565b506101208201518160090160006101000a81548160ff02191690831515021790555050508973ffffffffffffffffffffffffffffffffffffffff167fa1a7f64025d019d8bc579145c62461f40f0cdd387d24faf148722009b9fe64948242604051611299929190612fd6565b60405180910390a28092505050979650505050505050565b60606000600160008473ffffffffffffffffffffffffffffffffffffffff1673ffffffffffffffffffffffffffffffffffffffff1681526020019081526020016000208054905067ffffffffffffffff811115611311576113106126c6565b5b60405190808252806020026020018201604052801561133f5781602001602082028036833780820191505090505b50905060005b600160008573ffffffffffffffffffffffffffffffffffffffff1673ffffffffffffffffffffffffffffffffffffffff1681526020019081526020016000208054905081101561141e57600160008573ffffffffffffffffffffffffffffffffffffffff1673ffffffffffffffffffffffffffffffffffffffff16815260200190815260200160002081815481106113e0576113df612dbe565b5b90600052602060002090600a02016000015482828151811061140557611404612dbe565b5b6020026020010181815250508080600101915050611345565b5080915050919050565b6003818154811061143857600080fd5b906000526020600020016000915054906101000a900473ffffffffffffffffffffffffffffffffffffffff1681565b60008054906101000a900473ffffffffffffffffffffffffffffffffffffffff1673ffffffffffffffffffffffffffffffffffffffff1663996440c6336040518263ffffffff1660e01b81526004016114c09190612b22565b602060405180830381865afa1580156114dd573d6000803e3d6000fd5b505050506040513d601f19601f820116820180604052508101906115019190612e19565b611540576040517f08c379a000000000000000000000000000000000000000000000000000000000815260040161153790612eb8565b60405180910390fd5b600160008773ffffffffffffffffffffffffffffffffffffffff1673ffffffffffffffffffffffffffffffffffffffff1681526020019081526020016000208054905085106115c4576040517f08c379a00000000000000000000000000000000000000000000000000000000081526004016115bb90612f24565b60405180910390fd5b6000600160008873ffffffffffffffffffffffffffffffffffffffff1673ffffffffffffffffffffffffffffffffffffffff168152602001908152602001600020868154811061161757611616612dbe565b5b90600052602060002090600a020190503373ffffffffffffffffffffffffffffffffffffffff168160050160009054906101000a900473ffffffffffffffffffffffffffffffffffffffff1673ffffffffffffffffffffffffffffffffffffffff16146116b9576040517f08c379a00000000000000000000000000000000000000000000000000000000081526004016116b0906134e0565b60405180910390fd5b848160020190816116ca919061339c565b50838160030190816116dc919061339c565b50828160070181905550818160080190805190602001906116fe9291906120a3565b504281600401819055508673ffffffffffffffffffffffffffffffffffffffff167f58bece2a7b44b760545030207fbd71a56fe86911c024d7763061a56429b4ca238742604051611750929190612fd6565b60405180910390a250505050505050565b60008060009054906101000a900473ffffffffffffffffffffffffffffffffffffffff1673ffffffffffffffffffffffffffffffffffffffff1663996440c6336040518263ffffffff1660e01b81526004016117bd9190612b22565b602060405180830381865afa1580156117da573d6000803e3d6000fd5b505050506040513d601f19601f820116820180604052508101906117fe9190612e19565b61183d576040517f08c379a000000000000000000000000000000000000000000000000000000000815260040161183490612eb8565b60405180910390fd5b6000600260008973ffffffffffffffffffffffffffffffffffffffff1673ffffffffffffffffffffffffffffffffffffffff168152602001908152602001600020549050600260008973ffffffffffffffffffffffffffffffffffffffff1673ffffffffffffffffffffffffffffffffffffffff16815260200190815260200160002060008154809291906118d19061308e565b9190505550600160008973ffffffffffffffffffffffffffffffffffffffff1673ffffffffffffffffffffffffffffffffffffffff1681526020019081526020016000206040518061014001604052808381526020018981526020018881526020018781526020014281526020013373ffffffffffffffffffffffffffffffffffffffff168152602001600073ffffffffffffffffffffffffffffffffffffffff1681526020018681526020018581526020016001151581525090806001815401808255809150506001900390600052602060002090600a02016000909190919091506000820151816000015560208201518160010190816119d3919061339c565b5060408201518160020190816119e9919061339c565b5060608201518160030190816119ff919061339c565b506080820151816004015560a08201518160050160006101000a81548173ffffffffffffffffffffffffffffffffffffffff021916908373ffffffffffffffffffffffffffffffffffffffff16021790555060c08201518160060160006101000a81548173ffffffffffffffffffffffffffffffffffffffff021916908373ffffffffffffffffffffffffffffffffffffffff16021790555060e08201518160070155610100820151816008019080519060200190611abf9291906120a3565b506101208201518160090160006101000a81548160ff02191690831515021790555050508773ffffffffffffffffffffffffffffffffffffffff167fa1a7f64025d019d8bc579145c62461f40f0cdd387d24faf148722009b9fe64948242604051611b2b929190612fd6565b60405180910390a2809150509695505050505050565b600460009054906101000a900473ffffffffffffffffffffffffffffffffffffffff1673ffffffffffffffffffffffffffffffffffffffff163373ffffffffffffffffffffffffffffffffffffffff1614611bd1576040517f08c379a0000000000000000000000000000000000000000000000000000000008152600401611bc890612d9e565b60405180910390fd5b60005b600380549050811015611d58578173ffffffffffffffffffffffffffffffffffffffff1660038281548110611c0c57611c0b612dbe565b5b9060005260206000200160009054906101000a900473ffffffffffffffffffffffffffffffffffffffff1673ffffffffffffffffffffffffffffffffffffffff1603611d4b5760036001600380549050611c669190613500565b81548110611c7757611c76612dbe565b5b9060005260206000200160009054906101000a900473ffffffffffffffffffffffffffffffffffffffff1660038281548110611cb657611cb5612dbe565b5b9060005260206000200160006101000a81548173ffffffffffffffffffffffffffffffffffffffff021916908373ffffffffffffffffffffffffffffffffffffffff1602179055506003805480611d1057611d0f613534565b5b6001900381819060005260206000200160006101000a81549073ffffffffffffffffffffffffffffffffffffffff0219169055905550611d5a565b8080600101915050611bd4565b505b50565b60606000805b600160008573ffffffffffffffffffffffffffffffffffffffff1673ffffffffffffffffffffffffffffffffffffffff16815260200190815260200160002080549050811015611e3e57600160008573ffffffffffffffffffffffffffffffffffffffff1673ffffffffffffffffffffffffffffffffffffffff1681526020019081526020016000208181548110611dfe57611dfd612dbe565b5b90600052602060002090600a020160090160009054906101000a900460ff1615611e31578180611e2d9061308e565b9250505b8080600101915050611d63565b5060008167ffffffffffffffff811115611e5b57611e5a6126c6565b5b604051908082528060200260200182016040528015611e895781602001602082028036833780820191505090505b5090506000805b600160008773ffffffffffffffffffffffffffffffffffffffff1673ffffffffffffffffffffffffffffffffffffffff16815260200190815260200160002080549050811015611fed57600160008773ffffffffffffffffffffffffffffffffffffffff1673ffffffffffffffffffffffffffffffffffffffff1681526020019081526020016000208181548110611f2b57611f2a612dbe565b5b90600052602060002090600a020160090160009054906101000a900460ff1615611fe057600160008773ffffffffffffffffffffffffffffffffffffffff1673ffffffffffffffffffffffffffffffffffffffff1681526020019081526020016000208181548110611fa057611f9f612dbe565b5b90600052602060002090600a020160000154838381518110611fc557611fc4612dbe565b5b6020026020010181815250508180611fdc9061308e565b9250505b8080600101915050611e90565b50819350505050919050565b600460009054906101000a900473ffffffffffffffffffffffffffffffffffffffff1681565b6040518061014001604052806000815260200160608152602001606081526020016060815260200160008152602001600073ffffffffffffffffffffffffffffffffffffffff168152602001600073ffffffffffffffffffffffffffffffffffffffff16815260200160008019168152602001606081526020016000151581525090565b8280548282559060005260206000209081019282156120eb579160200282015b828111156120ea5782518290816120da919061339c565b50916020019190600101906120c3565b5b5090506120f891906120fc565b5090565b5b8082111561211c57600081816121139190612120565b506001016120fd565b5090565b50805461212c9061302e565b6000825580601f1061213e575061215d565b601f01602090049060005260206000209081019061215c9190612160565b5b50565b5b80821115612179576000816000905550600101612161565b5090565b6000604051905090565b600080fd5b600080fd5b600073ffffffffffffffffffffffffffffffffffffffff82169050919050565b60006121bc82612191565b9050919050565b6121cc816121b1565b81146121d757600080fd5b50565b6000813590506121e9816121c3565b92915050565b60006020828403121561220557612204612187565b5b6000612213848285016121da565b91505092915050565b6000819050919050565b61222f8161221c565b82525050565b600060208201905061224a6000830184612226565b92915050565b600081519050919050565b600082825260208201905092915050565b6000819050602082019050919050565b612285816121b1565b82525050565b6000612297838361227c565b60208301905092915050565b6000602082019050919050565b60006122bb82612250565b6122c5818561225b565b93506122d08361226c565b8060005b838110156123015781516122e8888261228b565b97506122f3836122a3565b9250506001810190506122d4565b5085935050505092915050565b6000602082019050818103600083015261232881846122b0565b905092915050565b6123398161221c565b811461234457600080fd5b50565b60008135905061235681612330565b92915050565b6000806040838503121561237357612372612187565b5b6000612381858286016121da565b925050602061239285828601612347565b9150509250929050565b6123a58161221c565b82525050565b600081519050919050565b600082825260208201905092915050565b60005b838110156123e55780820151818401526020810190506123ca565b60008484015250505050565b6000601f19601f8301169050919050565b600061240d826123ab565b61241781856123b6565b93506124278185602086016123c7565b612430816123f1565b840191505092915050565b6000819050919050565b61244e8161243b565b82525050565b600081519050919050565b600082825260208201905092915050565b6000819050602082019050919050565b600061248c8383612402565b905092915050565b6000602082019050919050565b60006124ac82612454565b6124b6818561245f565b9350836020820285016124c885612470565b8060005b8581101561250457848403895281516124e58582612480565b94506124f083612494565b925060208a019950506001810190506124cc565b50829750879550505050505092915050565b60008115159050919050565b61252b81612516565b82525050565b60006101408301600083015161254a600086018261239c565b50602083015184820360208601526125628282612402565b9150506040830151848203604086015261257c8282612402565b915050606083015184820360608601526125968282612402565b91505060808301516125ab608086018261239c565b5060a08301516125be60a086018261227c565b5060c08301516125d160c086018261227c565b5060e08301516125e460e0860182612445565b506101008301518482036101008601526125fe82826124a1565b915050610120830151612615610120860182612522565b508091505092915050565b6000602082019050818103600083015261263a8184612531565b905092915050565b6000819050919050565b600061266761266261265d84612191565b612642565b612191565b9050919050565b60006126798261264c565b9050919050565b600061268b8261266e565b9050919050565b61269b81612680565b82525050565b60006020820190506126b66000830184612692565b92915050565b600080fd5b600080fd5b7f4e487b7100000000000000000000000000000000000000000000000000000000600052604160045260246000fd5b6126fe826123f1565b810181811067ffffffffffffffff8211171561271d5761271c6126c6565b5b80604052505050565b600061273061217d565b905061273c82826126f5565b919050565b600067ffffffffffffffff82111561275c5761275b6126c6565b5b612765826123f1565b9050602081019050919050565b82818337600083830152505050565b600061279461278f84612741565b612726565b9050828152602081018484840111156127b0576127af6126c1565b5b6127bb848285612772565b509392505050565b600082601f8301126127d8576127d76126bc565b5b81356127e8848260208601612781565b91505092915050565b6127fa8161243b565b811461280557600080fd5b50565b600081359050612817816127f1565b92915050565b600067ffffffffffffffff821115612838576128376126c6565b5b602082029050602081019050919050565b600080fd5b600061286161285c8461281d565b612726565b9050808382526020820190506020840283018581111561288457612883612849565b5b835b818110156128cb57803567ffffffffffffffff8111156128a9576128a86126bc565b5b8086016128b689826127c3565b85526020850194505050602081019050612886565b5050509392505050565b600082601f8301126128ea576128e96126bc565b5b81356128fa84826020860161284e565b91505092915050565b600080600080600080600060e0888a03121561292257612921612187565b5b60006129308a828b016121da565b97505060206129418a828b016121da565b965050604088013567ffffffffffffffff8111156129625761296161218c565b5b61296e8a828b016127c3565b955050606088013567ffffffffffffffff81111561298f5761298e61218c565b5b61299b8a828b016127c3565b945050608088013567ffffffffffffffff8111156129bc576129bb61218c565b5b6129c88a828b016127c3565b93505060a06129d98a828b01612808565b92505060c088013567ffffffffffffffff8111156129fa576129f961218c565b5b612a068a828b016128d5565b91505092959891949750929550565b600081519050919050565b600082825260208201905092915050565b6000819050602082019050919050565b6000612a4d838361239c565b60208301905092915050565b6000602082019050919050565b6000612a7182612a15565b612a7b8185612a20565b9350612a8683612a31565b8060005b83811015612ab7578151612a9e8882612a41565b9750612aa983612a59565b925050600181019050612a8a565b5085935050505092915050565b60006020820190508181036000830152612ade8184612a66565b905092915050565b600060208284031215612afc57612afb612187565b5b6000612b0a84828501612347565b91505092915050565b612b1c816121b1565b82525050565b6000602082019050612b376000830184612b13565b92915050565b60008060008060008060c08789031215612b5a57612b59612187565b5b6000612b6889828a016121da565b9650506020612b7989828a01612347565b955050604087013567ffffffffffffffff811115612b9a57612b9961218c565b5b612ba689828a016127c3565b945050606087013567ffffffffffffffff811115612bc757612bc661218c565b5b612bd389828a016127c3565b9350506080612be489828a01612808565b92505060a087013567ffffffffffffffff811115612c0557612c0461218c565b5b612c1189828a016128d5565b9150509295509295509295565b60008060008060008060c08789031215612c3b57612c3a612187565b5b6000612c4989828a016121da565b965050602087013567ffffffffffffffff811115612c6a57612c6961218c565b5b612c7689828a016127c3565b955050604087013567ffffffffffffffff811115612c9757612c9661218c565b5b612ca389828a016127c3565b945050606087013567ffffffffffffffff811115612cc457612cc361218c565b5b612cd089828a016127c3565b9350506080612ce189828a01612808565b92505060a087013567ffffffffffffffff811115612d0257612d0161218c565b5b612d0e89828a016128d5565b9150509295509295509295565b600082825260208201905092915050565b7f4f6e6c792061646d696e2063616e2063616c6c20746869732066756e6374696f60008201527f6e00000000000000000000000000000000000000000000000000000000000000602082015250565b6000612d88602183612d1b565b9150612d9382612d2c565b604082019050919050565b60006020820190508181036000830152612db781612d7b565b9050919050565b7f4e487b7100000000000000000000000000000000000000000000000000000000600052603260045260246000fd5b612df681612516565b8114612e0157600080fd5b50565b600081519050612e1381612ded565b92915050565b600060208284031215612e2f57612e2e612187565b5b6000612e3d84828501612e04565b91505092915050565b7f4f6e6c7920646f63746f722063616e2063616c6c20746869732066756e63746960008201527f6f6e000000000000000000000000000000000000000000000000000000000000602082015250565b6000612ea2602283612d1b565b9150612ead82612e46565b604082019050919050565b60006020820190508181036000830152612ed181612e95565b9050919050565b7f5265636f7264204944206e6f7420666f756e6400000000000000000000000000600082015250565b6000612f0e601383612d1b565b9150612f1982612ed8565b602082019050919050565b60006020820190508181036000830152612f3d81612f01565b9050919050565b7f4f6e6c792074686520646f63746f722077686f2063726561746564207468652060008201527f7265636f72642063616e2064656c657465206974000000000000000000000000602082015250565b6000612fa0603483612d1b565b9150612fab82612f44565b604082019050919050565b60006020820190508181036000830152612fcf81612f93565b9050919050565b6000604082019050612feb6000830185612226565b612ff86020830184612226565b9392505050565b7f4e487b7100000000000000000000000000000000000000000000000000000000600052602260045260246000fd5b6000600282049050600182168061304657607f821691505b60208210810361305957613058612fff565b5b50919050565b7f4e487b7100000000000000000000000000000000000000000000000000000000600052601160045260246000fd5b60006130998261221c565b91507fffffffffffffffffffffffffffffffffffffffffffffffffffffffffffffffff82036130cb576130ca61305f565b5b600182019050919050565b7f4f6e6c7920686f73706974616c2063616e2063616c6c20746869732066756e6360008201527f74696f6e00000000000000000000000000000000000000000000000000000000602082015250565b6000613132602483612d1b565b915061313d826130d6565b604082019050919050565b6000602082019050818103600083015261316181613125565b9050919050565b7f5370656369666965642061646472657373206973206e6f74206120646f63746f60008201527f7200000000000000000000000000000000000000000000000000000000000000602082015250565b60006131c4602183612d1b565b91506131cf82613168565b604082019050919050565b600060208201905081810360008301526131f3816131b7565b9050919050565b60008190508160005260206000209050919050565b60006020601f8301049050919050565b600082821b905092915050565b60006008830261325c7fffffffffffffffffffffffffffffffffffffffffffffffffffffffffffffffff8261321f565b613266868361321f565b95508019841693508086168417925050509392505050565b600061329961329461328f8461221c565b612642565b61221c565b9050919050565b6000819050919050565b6132b38361327e565b6132c76132bf826132a0565b84845461322c565b825550505050565b600090565b6132dc6132cf565b6132e78184846132aa565b505050565b5b8181101561330b576133006000826132d4565b6001810190506132ed565b5050565b601f82111561335057613321816131fa565b61332a8461320f565b81016020851015613339578190505b61334d6133458561320f565b8301826132ec565b50505b505050565b600082821c905092915050565b600061337360001984600802613355565b1980831691505092915050565b600061338c8383613362565b9150826002028217905092915050565b6133a5826123ab565b67ffffffffffffffff8111156133be576133bd6126c6565b5b6133c8825461302e565b6133d382828561330f565b600060209050601f83116001811461340657600084156133f4578287015190505b6133fe8582613380565b865550613466565b601f198416613414866131fa565b60005b8281101561343c57848901518255600182019150602085019450602081019050613417565b868310156134595784890151613455601f891682613362565b8355505b6001600288020188555050505b505050505050565b7f4f6e6c792074686520646f63746f722077686f2063726561746564207468652060008201527f7265636f72642063616e20757064617465206974000000000000000000000000602082015250565b60006134ca603483612d1b565b91506134d58261346e565b604082019050919050565b600060208201905081810360008301526134f9816134bd565b9050919050565b600061350b8261221c565b91506135168361221c565b925082820390508181111561352e5761352d61305f565b5b92915050565b7f4e487b7100000000000000000000000000000000000000000000000000000000600052603160045260246000fdfea2646970667358221220be4030866fab2babb2859a1103fda60c90dd2a22511effa06ab1bcbb64913b6864736f6c634300081c0033",
  "linkReferences": {},
  "deployedLinkReferences": {}
}