{
  "_format": "hh-sol-artifact-1",
  "contractName": "EncryptedMedicalRecord",
  "sourceName": "contracts/EncryptedMedicalRecord.sol",
  "abi": [
    {
      "inputs": [
        {
          "internalType": "address",
          "name": "_keyRegistryAddress",
          "type": "address"
        }
      ],
      "stateMutability": "nonpayable",
      "type": "constructor"
    },
    {
      "inputs": [
        {
          "internalType": "address",
          "name": "owner",
          "type": "address"
        }
      ],
      "name": "OwnableInvalidOwner",
      "type": "error"
    },
    {
      "inputs": [
        {
          "internalType": "address",
          "name": "account",
          "type": "address"
        }
      ],
      "name": "OwnableUnauthorizedAccount",
      "type": "error"
    },
    {
      "anonymous": false,
      "inputs": [
        {
          "indexed": true,
          "internalType": "address",
          "name": "patient",
          "type": "address"
        },
        {
          "indexed": true,
          "internalType": "address",
          "name": "doctor",
          "type": "address"
        },
        {
          "indexed": true,
          "internalType": "uint256",
          "name": "recordId",
          "type": "uint256"
        }
      ],
      "name": "MedicalRecordAdded",
      "type": "event"
    },
    {
      "anonymous": false,
      "inputs": [
        {
          "indexed": true,
          "internalType": "address",
          "name": "previousOwner",
          "type": "address"
        },
        {
          "indexed": true,
          "internalType": "address",
          "name": "newOwner",
          "type": "address"
        }
      ],
      "name": "OwnershipTransferred",
      "type": "event"
    },
    {
      "anonymous": false,
      "inputs": [
        {
          "indexed": true,
          "internalType": "address",
          "name": "patient",
          "type": "address"
        },
        {
          "indexed": false,
          "internalType": "string",
          "name": "name",
          "type": "string"
        }
      ],
      "name": "PatientRegistered",
      "type": "event"
    },
    {
      "inputs": [
        {
          "internalType": "address",
          "name": "_patient",
          "type": "address"
        },
        {
          "internalType": "string",
          "name": "_encryptedData",
          "type": "string"
        },
        {
          "internalType": "string",
          "name": "_encryptedDoctorKey",
          "type": "string"
        },
        {
          "internalType": "string",
          "name": "_encryptedPatientKey",
          "type": "string"
        }
      ],
      "name": "addMedicalRecord",
      "outputs": [],
      "stateMutability": "nonpayable",
      "type": "function"
    },
    {
      "inputs": [
        {
          "internalType": "address",
          "name": "_patient",
          "type": "address"
        },
        {
          "internalType": "uint256",
          "name": "_recordId",
          "type": "uint256"
        }
      ],
      "name": "getMedicalRecord",
      "outputs": [
        {
          "internalType": "string",
          "name": "encryptedData",
          "type": "string"
        },
        {
          "internalType": "string",
          "name": "encryptedDoctorKey",
          "type": "string"
        },
        {
          "internalType": "string",
          "name": "encryptedPatientKey",
          "type": "string"
        },
        {
          "internalType": "address",
          "name": "doctor",
          "type": "address"
        },
        {
          "internalType": "uint256",
          "name": "timestamp",
          "type": "uint256"
        }
      ],
      "stateMutability": "view",
      "type": "function"
    },
    {
      "inputs": [
        {
          "internalType": "address",
          "name": "_patient",
          "type": "address"
        }
      ],
      "name": "getPatientInfo",
      "outputs": [
        {
          "internalType": "string",
          "name": "name",
          "type": "string"
        },
        {
          "internalType": "string",
          "name": "encryptedBasicInfo",
          "type": "string"
        },
        {
          "internalType": "string",
          "name": "encryptedDoctorKey",
          "type": "string"
        },
        {
          "internalType": "string",
          "name": "encryptedPatientKey",
          "type": "string"
        },
        {
          "internalType": "uint256",
          "name": "timestamp",
          "type": "uint256"
        },
        {
          "internalType": "bool",
          "name": "isRegistered",
          "type": "bool"
        }
      ],
      "stateMutability": "view",
      "type": "function"
    },
    {
      "inputs": [
        {
          "internalType": "address",
          "name": "_patient",
          "type": "address"
        }
      ],
      "name": "getRecordCount",
      "outputs": [
        {
          "internalType": "uint256",
          "name": "",
          "type": "uint256"
        }
      ],
      "stateMutability": "view",
      "type": "function"
    },
    {
      "inputs": [
        {
          "internalType": "address",
          "name": "_patient",
          "type": "address"
        }
      ],
      "name": "isPatientPublicKeyRegistered",
      "outputs": [
        {
          "internalType": "bool",
          "name": "",
          "type": "bool"
        }
      ],
      "stateMutability": "view",
      "type": "function"
    },
    {
      "inputs": [
        {
          "internalType": "address",
          "name": "_patient",
          "type": "address"
        }
      ],
      "name": "isPatientRegistered",
      "outputs": [
        {
          "internalType": "bool",
          "name": "",
          "type": "bool"
        }
      ],
      "stateMutability": "view",
      "type": "function"
    },
    {
      "inputs": [],
      "name": "keyRegistry",
      "outputs": [
        {
          "internalType": "contract KeyRegistry",
          "name": "",
          "type": "address"
        }
      ],
      "stateMutability": "view",
      "type": "function"
    },
    {
      "inputs": [],
      "name": "owner",
      "outputs": [
        {
          "internalType": "address",
          "name": "",
          "type": "address"
        }
      ],
      "stateMutability": "view",
      "type": "function"
    },
    {
      "inputs": [
        {
          "internalType": "address",
          "name": "_patient",
          "type": "address"
        },
        {
          "internalType": "string",
          "name": "_name",
          "type": "string"
        },
        {
          "internalType": "string",
          "name": "_encryptedBasicInfo",
          "type": "string"
        },
        {
          "internalType": "string",
          "name": "_encryptedDoctorKey",
          "type": "string"
        },
        {
          "internalType": "string",
          "name": "_encryptedPatientKey",
          "type": "string"
        }
      ],
      "name": "registerPatient",
      "outputs": [],
      "stateMutability": "nonpayable",
      "type": "function"
    },
    {
      "inputs": [],
      "name": "renounceOwnership",
      "outputs": [],
      "stateMutability": "nonpayable",
      "type": "function"
    },
    {
      "inputs": [
        {
          "internalType": "address",
          "name": "newOwner",
          "type": "address"
        }
      ],
      "name": "transferOwnership",
      "outputs": [],
      "stateMutability": "nonpayable",
      "type": "function"
    }
  ],
  "bytecode": "0x608060405234801561001057600080fd5b5060405161270838038061270883398181016040528101906100329190610223565b33600073ffffffffffffffffffffffffffffffffffffffff168173ffffffffffffffffffffffffffffffffffffffff16036100a55760006040517f1e4fbdf700000000000000000000000000000000000000000000000000000000815260040161009c919061025f565b60405180910390fd5b6100b4816100fc60201b60201c565b5080600160006101000a81548173ffffffffffffffffffffffffffffffffffffffff021916908373ffffffffffffffffffffffffffffffffffffffff1602179055505061027a565b60008060009054906101000a900473ffffffffffffffffffffffffffffffffffffffff169050816000806101000a81548173ffffffffffffffffffffffffffffffffffffffff021916908373ffffffffffffffffffffffffffffffffffffffff1602179055508173ffffffffffffffffffffffffffffffffffffffff168173ffffffffffffffffffffffffffffffffffffffff167f8be0079c531659141344cd1fd0a4f28419497f9722a3daafe3b4186f6b6457e060405160405180910390a35050565b600080fd5b600073ffffffffffffffffffffffffffffffffffffffff82169050919050565b60006101f0826101c5565b9050919050565b610200816101e5565b811461020b57600080fd5b50565b60008151905061021d816101f7565b92915050565b600060208284031215610239576102386101c0565b5b60006102478482850161020e565b91505092915050565b610259816101e5565b82525050565b60006020820190506102746000830184610250565b92915050565b61247f806102896000396000f3fe608060405234801561001057600080fd5b50600436106100a95760003560e01c806380b6b1b81161007157806380b6b1b8146101575780638c09e01d146101875780638da5cb5b146101a3578063d7a9a563146101c1578063eea9c37b146101f1578063f2fde38b14610225576100a9565b8063086b5198146100ae5780633370a18e146100cc5780634b426178146100e8578063582143081461011d578063715018a61461014d575b600080fd5b6100b6610241565b6040516100c3919061167b565b60405180910390f35b6100e660048036038101906100e1919061182e565b610267565b005b61010260048036038101906100fd91906118e9565b6106ca565b604051610114969594939291906119c9565b60405180910390f35b610137600480360381019061013291906118e9565b610ad3565b6040516101449190611a46565b60405180910390f35b610155610b1c565b005b610171600480360381019061016c91906118e9565b610b30565b60405161017e9190611a61565b60405180910390f35b6101a1600480360381019061019c9190611a7c565b610b89565b005b6101ab610f18565b6040516101b89190611b76565b60405180910390f35b6101db60048036038101906101d691906118e9565b610f41565b6040516101e89190611a61565b60405180910390f35b61020b60048036038101906102069190611bbd565b610fe6565b60405161021c959493929190611bfd565b60405180910390f35b61023f600480360381019061023a91906118e9565b611423565b005b600160009054906101000a900473ffffffffffffffffffffffffffffffffffffffff1681565b600160009054906101000a900473ffffffffffffffffffffffffffffffffffffffff1673ffffffffffffffffffffffffffffffffffffffff1663996440c6336040518263ffffffff1660e01b81526004016102c29190611b76565b602060405180830381865afa1580156102df573d6000803e3d6000fd5b505050506040513d601f19601f820116820180604052508101906103039190611c91565b610342576040517f08c379a000000000000000000000000000000000000000000000000000000000815260040161033990611d30565b60405180910390fd5b600160009054906101000a900473ffffffffffffffffffffffffffffffffffffffff1673ffffffffffffffffffffffffffffffffffffffff1663ee437bed856040518263ffffffff1660e01b815260040161039d9190611b76565b602060405180830381865afa1580156103ba573d6000803e3d6000fd5b505050506040513d601f19601f820116820180604052508101906103de9190611c91565b61041d576040517f08c379a000000000000000000000000000000000000000000000000000000000815260040161041490611dc2565b60405180910390fd5b600260008573ffffffffffffffffffffffffffffffffffffffff1673ffffffffffffffffffffffffffffffffffffffff16815260200190815260200160002060050160009054906101000a900460ff166104ac576040517f08c379a00000000000000000000000000000000000000000000000000000000081526004016104a390611e2e565b60405180910390fd5b6000600460008673ffffffffffffffffffffffffffffffffffffffff1673ffffffffffffffffffffffffffffffffffffffff1681526020019081526020016000205490506040518060a001604052808581526020018481526020018381526020013373ffffffffffffffffffffffffffffffffffffffff16815260200142815250600360008773ffffffffffffffffffffffffffffffffffffffff1673ffffffffffffffffffffffffffffffffffffffff168152602001908152602001600020600083815260200190815260200160002060008201518160000190816105929190612050565b5060208201518160010190816105a89190612050565b5060408201518160020190816105be9190612050565b5060608201518160030160006101000a81548173ffffffffffffffffffffffffffffffffffffffff021916908373ffffffffffffffffffffffffffffffffffffffff16021790555060808201518160040155905050600460008673ffffffffffffffffffffffffffffffffffffffff1673ffffffffffffffffffffffffffffffffffffffff168152602001908152602001600020600081548092919061066390612151565b9190505550803373ffffffffffffffffffffffffffffffffffffffff168673ffffffffffffffffffffffffffffffffffffffff167f711302f0962f6215290a1f13e924c7a6182c0ff87a130374a229b43a3359ea4860405160405180910390a45050505050565b6060806060806000808673ffffffffffffffffffffffffffffffffffffffff163373ffffffffffffffffffffffffffffffffffffffff1614806107a55750600160009054906101000a900473ffffffffffffffffffffffffffffffffffffffff1673ffffffffffffffffffffffffffffffffffffffff1663996440c6336040518263ffffffff1660e01b81526004016107639190611b76565b602060405180830381865afa158015610780573d6000803e3d6000fd5b505050506040513d601f19601f820116820180604052508101906107a49190611c91565b5b6107e4576040517f08c379a00000000000000000000000000000000000000000000000000000000081526004016107db9061220b565b60405180910390fd5b6000600260008973ffffffffffffffffffffffffffffffffffffffff1673ffffffffffffffffffffffffffffffffffffffff1681526020019081526020016000206040518060c001604052908160008201805461084090611e7d565b80601f016020809104026020016040519081016040528092919081815260200182805461086c90611e7d565b80156108b95780601f1061088e576101008083540402835291602001916108b9565b820191906000526020600020905b81548152906001019060200180831161089c57829003601f168201915b505050505081526020016001820180546108d290611e7d565b80601f01602080910402602001604051908101604052809291908181526020018280546108fe90611e7d565b801561094b5780601f106109205761010080835404028352916020019161094b565b820191906000526020600020905b81548152906001019060200180831161092e57829003601f168201915b5050505050815260200160028201805461096490611e7d565b80601f016020809104026020016040519081016040528092919081815260200182805461099090611e7d565b80156109dd5780601f106109b2576101008083540402835291602001916109dd565b820191906000526020600020905b8154815290600101906020018083116109c057829003601f168201915b505050505081526020016003820180546109f690611e7d565b80601f0160208091040260200160405190810160405280929190818152602001828054610a2290611e7d565b8015610a6f5780601f10610a4457610100808354040283529160200191610a6f565b820191906000526020600020905b815481529060010190602001808311610a5257829003601f168201915b50505050508152602001600482015481526020016005820160009054906101000a900460ff1615151515815250509050806000015181602001518260400151836060015184608001518560a001519650965096509650965096505091939550919395565b6000600460008373ffffffffffffffffffffffffffffffffffffffff1673ffffffffffffffffffffffffffffffffffffffff168152602001908152602001600020549050919050565b610b246114a9565b610b2e6000611530565b565b6000600260008373ffffffffffffffffffffffffffffffffffffffff1673ffffffffffffffffffffffffffffffffffffffff16815260200190815260200160002060050160009054906101000a900460ff169050919050565b600160009054906101000a900473ffffffffffffffffffffffffffffffffffffffff1673ffffffffffffffffffffffffffffffffffffffff1663996440c6336040518263ffffffff1660e01b8152600401610be49190611b76565b602060405180830381865afa158015610c01573d6000803e3d6000fd5b505050506040513d601f19601f82011682018060405250810190610c259190611c91565b610c64576040517f08c379a0000000000000000000000000000000000000000000000000000000008152600401610c5b9061229d565b60405180910390fd5b600160009054906101000a900473ffffffffffffffffffffffffffffffffffffffff1673ffffffffffffffffffffffffffffffffffffffff1663ee437bed866040518263ffffffff1660e01b8152600401610cbf9190611b76565b602060405180830381865afa158015610cdc573d6000803e3d6000fd5b505050506040513d601f19601f82011682018060405250810190610d009190611c91565b610d3f576040517f08c379a0000000000000000000000000000000000000000000000000000000008152600401610d3690611dc2565b60405180910390fd5b600260008673ffffffffffffffffffffffffffffffffffffffff1673ffffffffffffffffffffffffffffffffffffffff16815260200190815260200160002060050160009054906101000a900460ff1615610dcf576040517f08c379a0000000000000000000000000000000000000000000000000000000008152600401610dc690612309565b60405180910390fd5b6040518060c0016040528085815260200184815260200183815260200182815260200142815260200160011515815250600260008773ffffffffffffffffffffffffffffffffffffffff1673ffffffffffffffffffffffffffffffffffffffff1681526020019081526020016000206000820151816000019081610e539190612050565b506020820151816001019081610e699190612050565b506040820151816002019081610e7f9190612050565b506060820151816003019081610e959190612050565b506080820151816004015560a08201518160050160006101000a81548160ff0219169083151502179055509050508473ffffffffffffffffffffffffffffffffffffffff167fc85b128388b9c331a2a5485dce4cd0f3db9f7c279d327ce95d6d39d6c94644c785604051610f099190612329565b60405180910390a25050505050565b60008060009054906101000a900473ffffffffffffffffffffffffffffffffffffffff16905090565b6000600160009054906101000a900473ffffffffffffffffffffffffffffffffffffffff1673ffffffffffffffffffffffffffffffffffffffff1663ee437bed836040518263ffffffff1660e01b8152600401610f9e9190611b76565b602060405180830381865afa158015610fbb573d6000803e3d6000fd5b505050506040513d601f19601f82011682018060405250810190610fdf9190611c91565b9050919050565b60608060606000808673ffffffffffffffffffffffffffffffffffffffff163373ffffffffffffffffffffffffffffffffffffffff1614806110c05750600160009054906101000a900473ffffffffffffffffffffffffffffffffffffffff1673ffffffffffffffffffffffffffffffffffffffff1663996440c6336040518263ffffffff1660e01b815260040161107e9190611b76565b602060405180830381865afa15801561109b573d6000803e3d6000fd5b505050506040513d601f19601f820116820180604052508101906110bf9190611c91565b5b6110ff576040517f08c379a00000000000000000000000000000000000000000000000000000000081526004016110f6906123bd565b60405180910390fd5b600460008873ffffffffffffffffffffffffffffffffffffffff1673ffffffffffffffffffffffffffffffffffffffff168152602001908152602001600020548610611180576040517f08c379a000000000000000000000000000000000000000000000000000000000815260040161117790612429565b60405180910390fd5b6000600360008973ffffffffffffffffffffffffffffffffffffffff1673ffffffffffffffffffffffffffffffffffffffff16815260200190815260200160002060008881526020019081526020016000206040518060a00160405290816000820180546111ed90611e7d565b80601f016020809104026020016040519081016040528092919081815260200182805461121990611e7d565b80156112665780601f1061123b57610100808354040283529160200191611266565b820191906000526020600020905b81548152906001019060200180831161124957829003601f168201915b5050505050815260200160018201805461127f90611e7d565b80601f01602080910402602001604051908101604052809291908181526020018280546112ab90611e7d565b80156112f85780601f106112cd576101008083540402835291602001916112f8565b820191906000526020600020905b8154815290600101906020018083116112db57829003601f168201915b5050505050815260200160028201805461131190611e7d565b80601f016020809104026020016040519081016040528092919081815260200182805461133d90611e7d565b801561138a5780601f1061135f5761010080835404028352916020019161138a565b820191906000526020600020905b81548152906001019060200180831161136d57829003601f168201915b505050505081526020016003820160009054906101000a900473ffffffffffffffffffffffffffffffffffffffff1673ffffffffffffffffffffffffffffffffffffffff1673ffffffffffffffffffffffffffffffffffffffff16815260200160048201548152505090508060000151816020015182604001518360600151846080015195509550955095509550509295509295909350565b61142b6114a9565b600073ffffffffffffffffffffffffffffffffffffffff168173ffffffffffffffffffffffffffffffffffffffff160361149d5760006040517f1e4fbdf70000000000000000000000000000000000000000000000000000000081526004016114949190611b76565b60405180910390fd5b6114a681611530565b50565b6114b16115f4565b73ffffffffffffffffffffffffffffffffffffffff166114cf610f18565b73ffffffffffffffffffffffffffffffffffffffff161461152e576114f26115f4565b6040517f118cdaa70000000000000000000000000000000000000000000000000000000081526004016115259190611b76565b60405180910390fd5b565b60008060009054906101000a900473ffffffffffffffffffffffffffffffffffffffff169050816000806101000a81548173ffffffffffffffffffffffffffffffffffffffff021916908373ffffffffffffffffffffffffffffffffffffffff1602179055508173ffffffffffffffffffffffffffffffffffffffff168173ffffffffffffffffffffffffffffffffffffffff167f8be0079c531659141344cd1fd0a4f28419497f9722a3daafe3b4186f6b6457e060405160405180910390a35050565b600033905090565b600073ffffffffffffffffffffffffffffffffffffffff82169050919050565b6000819050919050565b600061164161163c611637846115fc565b61161c565b6115fc565b9050919050565b600061165382611626565b9050919050565b600061166582611648565b9050919050565b6116758161165a565b82525050565b6000602082019050611690600083018461166c565b92915050565b6000604051905090565b600080fd5b600080fd5b60006116b5826115fc565b9050919050565b6116c5816116aa565b81146116d057600080fd5b50565b6000813590506116e2816116bc565b92915050565b600080fd5b600080fd5b6000601f19601f8301169050919050565b7f4e487b7100000000000000000000000000000000000000000000000000000000600052604160045260246000fd5b61173b826116f2565b810181811067ffffffffffffffff8211171561175a57611759611703565b5b80604052505050565b600061176d611696565b90506117798282611732565b919050565b600067ffffffffffffffff82111561179957611798611703565b5b6117a2826116f2565b9050602081019050919050565b82818337600083830152505050565b60006117d16117cc8461177e565b611763565b9050828152602081018484840111156117ed576117ec6116ed565b5b6117f88482856117af565b509392505050565b600082601f830112611815576118146116e8565b5b81356118258482602086016117be565b91505092915050565b60008060008060808587031215611848576118476116a0565b5b6000611856878288016116d3565b945050602085013567ffffffffffffffff811115611877576118766116a5565b5b61188387828801611800565b935050604085013567ffffffffffffffff8111156118a4576118a36116a5565b5b6118b087828801611800565b925050606085013567ffffffffffffffff8111156118d1576118d06116a5565b5b6118dd87828801611800565b91505092959194509250565b6000602082840312156118ff576118fe6116a0565b5b600061190d848285016116d3565b91505092915050565b600081519050919050565b600082825260208201905092915050565b60005b83811015611950578082015181840152602081019050611935565b60008484015250505050565b600061196782611916565b6119718185611921565b9350611981818560208601611932565b61198a816116f2565b840191505092915050565b6000819050919050565b6119a881611995565b82525050565b60008115159050919050565b6119c3816119ae565b82525050565b600060c08201905081810360008301526119e3818961195c565b905081810360208301526119f7818861195c565b90508181036040830152611a0b818761195c565b90508181036060830152611a1f818661195c565b9050611a2e608083018561199f565b611a3b60a08301846119ba565b979650505050505050565b6000602082019050611a5b600083018461199f565b92915050565b6000602082019050611a7660008301846119ba565b92915050565b600080600080600060a08688031215611a9857611a976116a0565b5b6000611aa6888289016116d3565b955050602086013567ffffffffffffffff811115611ac757611ac66116a5565b5b611ad388828901611800565b945050604086013567ffffffffffffffff811115611af457611af36116a5565b5b611b0088828901611800565b935050606086013567ffffffffffffffff811115611b2157611b206116a5565b5b611b2d88828901611800565b925050608086013567ffffffffffffffff811115611b4e57611b4d6116a5565b5b611b5a88828901611800565b9150509295509295909350565b611b70816116aa565b82525050565b6000602082019050611b8b6000830184611b67565b92915050565b611b9a81611995565b8114611ba557600080fd5b50565b600081359050611bb781611b91565b92915050565b60008060408385031215611bd457611bd36116a0565b5b6000611be2858286016116d3565b9250506020611bf385828601611ba8565b9150509250929050565b600060a0820190508181036000830152611c17818861195c565b90508181036020830152611c2b818761195c565b90508181036040830152611c3f818661195c565b9050611c4e6060830185611b67565b611c5b608083018461199f565b9695505050505050565b611c6e816119ae565b8114611c7957600080fd5b50565b600081519050611c8b81611c65565b92915050565b600060208284031215611ca757611ca66116a0565b5b6000611cb584828501611c7c565b91505092915050565b7f4f6e6c7920646f63746f72732063616e20616464206d65646963616c2072656360008201527f6f72647300000000000000000000000000000000000000000000000000000000602082015250565b6000611d1a602483611921565b9150611d2582611cbe565b604082019050919050565b60006020820190508181036000830152611d4981611d0d565b9050919050565b7f50617469656e74207075626c6963206b6579206e6f742072656769737465726560008201527f6400000000000000000000000000000000000000000000000000000000000000602082015250565b6000611dac602183611921565b9150611db782611d50565b604082019050919050565b60006020820190508181036000830152611ddb81611d9f565b9050919050565b7f50617469656e74206e6f74207265676973746572656400000000000000000000600082015250565b6000611e18601683611921565b9150611e2382611de2565b602082019050919050565b60006020820190508181036000830152611e4781611e0b565b9050919050565b7f4e487b7100000000000000000000000000000000000000000000000000000000600052602260045260246000fd5b60006002820490506001821680611e9557607f821691505b602082108103611ea857611ea7611e4e565b5b50919050565b60008190508160005260206000209050919050565b60006020601f8301049050919050565b600082821b905092915050565b600060088302611f107fffffffffffffffffffffffffffffffffffffffffffffffffffffffffffffffff82611ed3565b611f1a8683611ed3565b95508019841693508086168417925050509392505050565b6000611f4d611f48611f4384611995565b61161c565b611995565b9050919050565b6000819050919050565b611f6783611f32565b611f7b611f7382611f54565b848454611ee0565b825550505050565b600090565b611f90611f83565b611f9b818484611f5e565b505050565b5b81811015611fbf57611fb4600082611f88565b600181019050611fa1565b5050565b601f82111561200457611fd581611eae565b611fde84611ec3565b81016020851015611fed578190505b612001611ff985611ec3565b830182611fa0565b50505b505050565b600082821c905092915050565b600061202760001984600802612009565b1980831691505092915050565b60006120408383612016565b9150826002028217905092915050565b61205982611916565b67ffffffffffffffff81111561207257612071611703565b5b61207c8254611e7d565b612087828285611fc3565b600060209050601f8311600181146120ba57600084156120a8578287015190505b6120b28582612034565b86555061211a565b601f1984166120c886611eae565b60005b828110156120f0578489015182556001820191506020850194506020810190506120cb565b8683101561210d5784890151612109601f891682612016565b8355505b6001600288020188555050505b505050505050565b7f4e487b7100000000000000000000000000000000000000000000000000000000600052601160045260246000fd5b600061215c82611995565b91507fffffffffffffffffffffffffffffffffffffffffffffffffffffffffffffffff820361218e5761218d612122565b5b600182019050919050565b7f4f6e6c792070617469656e74206f7220646f63746f722063616e20766965772060008201527f70617469656e7420696e666f0000000000000000000000000000000000000000602082015250565b60006121f5602c83611921565b915061220082612199565b604082019050919050565b60006020820190508181036000830152612224816121e8565b9050919050565b7f4f6e6c7920646f63746f72732063616e2072656769737465722070617469656e60008201527f7473000000000000000000000000000000000000000000000000000000000000602082015250565b6000612287602283611921565b91506122928261222b565b604082019050919050565b600060208201905081810360008301526122b68161227a565b9050919050565b7f50617469656e7420616c72656164792072656769737465726564000000000000600082015250565b60006122f3601a83611921565b91506122fe826122bd565b602082019050919050565b60006020820190508181036000830152612322816122e6565b9050919050565b60006020820190508181036000830152612343818461195c565b905092915050565b7f4f6e6c792070617469656e74206f7220646f63746f722063616e20766965772060008201527f6d65646963616c207265636f7264000000000000000000000000000000000000602082015250565b60006123a7602e83611921565b91506123b28261234b565b604082019050919050565b600060208201905081810360008301526123d68161239a565b9050919050565b7f5265636f726420646f6573206e6f742065786973740000000000000000000000600082015250565b6000612413601583611921565b915061241e826123dd565b602082019050919050565b6000602082019050818103600083015261244281612406565b905091905056fea2646970667358221220839c9d724f7d903bc94a0763dfcbd3b31b669efbe545f6400c54173216e8d90d64736f6c634300081c0033",
  "linkReferences": {},
  "deployedLinkReferences": {}
}