{
  "_format": "hh-sol-artifact-1",
  "contractName": "EncryptedMedicalRecord",
  "sourceName": "contracts/EncryptedMedicalRecord.sol",
  "abi": [
    {
      "inputs": [
        {
          "internalType": "address",
          "name": "_keyRegistryAddress",
          "type": "address"
        }
      ],
      "stateMutability": "nonpayable",
      "type": "constructor"
    },
    {
      "inputs": [
        {
          "internalType": "address",
          "name": "owner",
          "type": "address"
        }
      ],
      "name": "OwnableInvalidOwner",
      "type": "error"
    },
    {
      "inputs": [
        {
          "internalType": "address",
          "name": "account",
          "type": "address"
        }
      ],
      "name": "OwnableUnauthorizedAccount",
      "type": "error"
    },
    {
      "anonymous": false,
      "inputs": [
        {
          "indexed": true,
          "internalType": "address",
          "name": "patient",
          "type": "address"
        },
        {
          "indexed": true,
          "internalType": "address",
          "name": "doctor",
          "type": "address"
        },
        {
          "indexed": true,
          "internalType": "uint256",
          "name": "recordId",
          "type": "uint256"
        }
      ],
      "name": "MedicalRecordAdded",
      "type": "event"
    },
    {
      "anonymous": false,
      "inputs": [
        {
          "indexed": true,
          "internalType": "address",
          "name": "previousOwner",
          "type": "address"
        },
        {
          "indexed": true,
          "internalType": "address",
          "name": "newOwner",
          "type": "address"
        }
      ],
      "name": "OwnershipTransferred",
      "type": "event"
    },
    {
      "anonymous": false,
      "inputs": [
        {
          "indexed": true,
          "internalType": "address",
          "name": "patient",
          "type": "address"
        },
        {
          "indexed": false,
          "internalType": "string",
          "name": "name",
          "type": "string"
        }
      ],
      "name": "PatientRegistered",
      "type": "event"
    },
    {
      "inputs": [
        {
          "internalType": "address",
          "name": "_patient",
          "type": "address"
        },
        {
          "internalType": "string",
          "name": "_ipfsCid",
          "type": "string"
        },
        {
          "internalType": "string",
          "name": "_dataHash",
          "type": "string"
        },
        {
          "internalType": "string",
          "name": "_encryptedDoctorKey",
          "type": "string"
        },
        {
          "internalType": "string",
          "name": "_encryptedPatientKey",
          "type": "string"
        },
        {
          "internalType": "string",
          "name": "_encryptedMasterKey",
          "type": "string"
        }
      ],
      "name": "addMedicalRecord",
      "outputs": [],
      "stateMutability": "nonpayable",
      "type": "function"
    },
    {
      "inputs": [
        {
          "internalType": "address",
          "name": "_patient",
          "type": "address"
        },
        {
          "internalType": "uint256",
          "name": "_recordId",
          "type": "uint256"
        }
      ],
      "name": "getMedicalRecord",
      "outputs": [
        {
          "internalType": "string",
          "name": "ipfsCid",
          "type": "string"
        },
        {
          "internalType": "string",
          "name": "dataHash",
          "type": "string"
        },
        {
          "internalType": "string",
          "name": "encryptedDoctorKey",
          "type": "string"
        },
        {
          "internalType": "string",
          "name": "encryptedPatientKey",
          "type": "string"
        },
        {
          "internalType": "string",
          "name": "encryptedMasterKey",
          "type": "string"
        },
        {
          "internalType": "address",
          "name": "doctor",
          "type": "address"
        },
        {
          "internalType": "uint256",
          "name": "timestamp",
          "type": "uint256"
        }
      ],
      "stateMutability": "view",
      "type": "function"
    },
    {
      "inputs": [
        {
          "internalType": "address",
          "name": "_patient",
          "type": "address"
        }
      ],
      "name": "getPatientInfo",
      "outputs": [
        {
          "internalType": "string",
          "name": "name",
          "type": "string"
        },
        {
          "internalType": "string",
          "name": "ipfsCid",
          "type": "string"
        },
        {
          "internalType": "string",
          "name": "dataHash",
          "type": "string"
        },
        {
          "internalType": "string",
          "name": "encryptedDoctorKey",
          "type": "string"
        },
        {
          "internalType": "string",
          "name": "encryptedPatientKey",
          "type": "string"
        },
        {
          "internalType": "string",
          "name": "encryptedMasterKey",
          "type": "string"
        },
        {
          "internalType": "uint256",
          "name": "timestamp",
          "type": "uint256"
        },
        {
          "internalType": "bool",
          "name": "isRegistered",
          "type": "bool"
        }
      ],
      "stateMutability": "view",
      "type": "function"
    },
    {
      "inputs": [
        {
          "internalType": "address",
          "name": "_patient",
          "type": "address"
        }
      ],
      "name": "getRecordCount",
      "outputs": [
        {
          "internalType": "uint256",
          "name": "",
          "type": "uint256"
        }
      ],
      "stateMutability": "view",
      "type": "function"
    },
    {
      "inputs": [
        {
          "internalType": "address",
          "name": "_patient",
          "type": "address"
        }
      ],
      "name": "isPatientPublicKeyRegistered",
      "outputs": [
        {
          "internalType": "bool",
          "name": "",
          "type": "bool"
        }
      ],
      "stateMutability": "view",
      "type": "function"
    },
    {
      "inputs": [
        {
          "internalType": "address",
          "name": "_patient",
          "type": "address"
        }
      ],
      "name": "isPatientRegistered",
      "outputs": [
        {
          "internalType": "bool",
          "name": "",
          "type": "bool"
        }
      ],
      "stateMutability": "view",
      "type": "function"
    },
    {
      "inputs": [],
      "name": "keyRegistry",
      "outputs": [
        {
          "internalType": "contract KeyRegistry",
          "name": "",
          "type": "address"
        }
      ],
      "stateMutability": "view",
      "type": "function"
    },
    {
      "inputs": [],
      "name": "owner",
      "outputs": [
        {
          "internalType": "address",
          "name": "",
          "type": "address"
        }
      ],
      "stateMutability": "view",
      "type": "function"
    },
    {
      "inputs": [
        {
          "internalType": "address",
          "name": "_patient",
          "type": "address"
        },
        {
          "internalType": "string",
          "name": "_name",
          "type": "string"
        },
        {
          "internalType": "string",
          "name": "_ipfsCid",
          "type": "string"
        },
        {
          "internalType": "string",
          "name": "_dataHash",
          "type": "string"
        },
        {
          "internalType": "string",
          "name": "_encryptedDoctorKey",
          "type": "string"
        },
        {
          "internalType": "string",
          "name": "_encryptedPatientKey",
          "type": "string"
        },
        {
          "internalType": "string",
          "name": "_encryptedMasterKey",
          "type": "string"
        }
      ],
      "name": "registerPatient",
      "outputs": [],
      "stateMutability": "nonpayable",
      "type": "function"
    },
    {
      "inputs": [],
      "name": "renounceOwnership",
      "outputs": [],
      "stateMutability": "nonpayable",
      "type": "function"
    },
    {
      "inputs": [
        {
          "internalType": "address",
          "name": "newOwner",
          "type": "address"
        }
      ],
      "name": "transferOwnership",
      "outputs": [],
      "stateMutability": "nonpayable",
      "type": "function"
    }
  ],
  "bytecode": "0x608060405234801561001057600080fd5b50604051612d0e380380612d0e83398181016040528101906100329190610223565b33600073ffffffffffffffffffffffffffffffffffffffff168173ffffffffffffffffffffffffffffffffffffffff16036100a55760006040517f1e4fbdf700000000000000000000000000000000000000000000000000000000815260040161009c919061025f565b60405180910390fd5b6100b4816100fc60201b60201c565b5080600160006101000a81548173ffffffffffffffffffffffffffffffffffffffff021916908373ffffffffffffffffffffffffffffffffffffffff1602179055505061027a565b60008060009054906101000a900473ffffffffffffffffffffffffffffffffffffffff169050816000806101000a81548173ffffffffffffffffffffffffffffffffffffffff021916908373ffffffffffffffffffffffffffffffffffffffff1602179055508173ffffffffffffffffffffffffffffffffffffffff168173ffffffffffffffffffffffffffffffffffffffff167f8be0079c531659141344cd1fd0a4f28419497f9722a3daafe3b4186f6b6457e060405160405180910390a35050565b600080fd5b600073ffffffffffffffffffffffffffffffffffffffff82169050919050565b60006101f0826101c5565b9050919050565b610200816101e5565b811461020b57600080fd5b50565b60008151905061021d816101f7565b92915050565b600060208284031215610239576102386101c0565b5b60006102478482850161020e565b91505092915050565b610259816101e5565b82525050565b60006020820190506102746000830184610250565b92915050565b612a85806102896000396000f3fe608060405234801561001057600080fd5b50600436106100a95760003560e01c8063715018a611610071578063715018a61461016b57806380b6b1b8146101755780638da5cb5b146101a5578063d7a9a563146101c3578063eea9c37b146101f3578063f2fde38b14610229576100a9565b8063086b5198146100ae57806337b7f4f5146100cc5780634b426178146100e8578063582143081461011f5780636126a38e1461014f575b600080fd5b6100b6610245565b6040516100c39190611b03565b60405180910390f35b6100e660048036038101906100e19190611cb6565b61026b565b005b61010260048036038101906100fd9190611e00565b610705565b604051610116989796959493929190611ee0565b60405180910390f35b61013960048036038101906101349190611e00565b610c46565b6040516101469190611f88565b60405180910390f35b61016960048036038101906101649190611fa3565b610c8f565b005b6101736111fc565b005b61018f600480360381019061018a9190611e00565b611210565b60405161019c91906120bc565b60405180910390f35b6101ad611269565b6040516101ba91906120e6565b60405180910390f35b6101dd60048036038101906101d89190611e00565b611292565b6040516101ea91906120bc565b60405180910390f35b61020d6004803603810190610208919061212d565b611337565b604051610220979695949392919061216d565b60405180910390f35b610243600480360381019061023e9190611e00565b6118ab565b005b600160009054906101000a900473ffffffffffffffffffffffffffffffffffffffff1681565b600160009054906101000a900473ffffffffffffffffffffffffffffffffffffffff1673ffffffffffffffffffffffffffffffffffffffff1663996440c6336040518263ffffffff1660e01b81526004016102c691906120e6565b602060405180830381865afa1580156102e3573d6000803e3d6000fd5b505050506040513d601f19601f82011682018060405250810190610307919061222b565b610346576040517f08c379a000000000000000000000000000000000000000000000000000000000815260040161033d906122ca565b60405180910390fd5b600160009054906101000a900473ffffffffffffffffffffffffffffffffffffffff1673ffffffffffffffffffffffffffffffffffffffff1663ee437bed886040518263ffffffff1660e01b81526004016103a191906120e6565b602060405180830381865afa1580156103be573d6000803e3d6000fd5b505050506040513d601f19601f820116820180604052508101906103e2919061222b565b610421576040517f08c379a00000000000000000000000000000000000000000000000000000000081526004016104189061235c565b60405180910390fd5b600260008873ffffffffffffffffffffffffffffffffffffffff1673ffffffffffffffffffffffffffffffffffffffff16815260200190815260200160002060070160009054906101000a900460ff16156104b1576040517f08c379a00000000000000000000000000000000000000000000000000000000081526004016104a8906123c8565b60405180910390fd5b600160009054906101000a900473ffffffffffffffffffffffffffffffffffffffff1673ffffffffffffffffffffffffffffffffffffffff16638f243e586040518163ffffffff1660e01b8152600401602060405180830381865afa15801561051e573d6000803e3d6000fd5b505050506040513d601f19601f82011682018060405250810190610542919061222b565b610581576040517f08c379a000000000000000000000000000000000000000000000000000000000815260040161057890612434565b60405180910390fd5b60405180610100016040528087815260200186815260200185815260200184815260200183815260200182815260200142815260200160011515815250600260008973ffffffffffffffffffffffffffffffffffffffff1673ffffffffffffffffffffffffffffffffffffffff16815260200190815260200160002060008201518160000190816106129190612656565b5060208201518160010190816106289190612656565b50604082015181600201908161063e9190612656565b5060608201518160030190816106549190612656565b50608082015181600401908161066a9190612656565b5060a08201518160050190816106809190612656565b5060c0820151816006015560e08201518160070160006101000a81548160ff0219169083151502179055509050508673ffffffffffffffffffffffffffffffffffffffff167fc85b128388b9c331a2a5485dce4cd0f3db9f7c279d327ce95d6d39d6c94644c7876040516106f49190612728565b60405180910390a250505050505050565b6060806060806060806000808873ffffffffffffffffffffffffffffffffffffffff163373ffffffffffffffffffffffffffffffffffffffff1614806107e35750600160009054906101000a900473ffffffffffffffffffffffffffffffffffffffff1673ffffffffffffffffffffffffffffffffffffffff1663996440c6336040518263ffffffff1660e01b81526004016107a191906120e6565b602060405180830381865afa1580156107be573d6000803e3d6000fd5b505050506040513d601f19601f820116820180604052508101906107e2919061222b565b5b610822576040517f08c379a0000000000000000000000000000000000000000000000000000000008152600401610819906127bc565b60405180910390fd5b6000600260008b73ffffffffffffffffffffffffffffffffffffffff1673ffffffffffffffffffffffffffffffffffffffff1681526020019081526020016000206040518061010001604052908160008201805461087f90612483565b80601f01602080910402602001604051908101604052809291908181526020018280546108ab90612483565b80156108f85780601f106108cd576101008083540402835291602001916108f8565b820191906000526020600020905b8154815290600101906020018083116108db57829003601f168201915b5050505050815260200160018201805461091190612483565b80601f016020809104026020016040519081016040528092919081815260200182805461093d90612483565b801561098a5780601f1061095f5761010080835404028352916020019161098a565b820191906000526020600020905b81548152906001019060200180831161096d57829003601f168201915b505050505081526020016002820180546109a390612483565b80601f01602080910402602001604051908101604052809291908181526020018280546109cf90612483565b8015610a1c5780601f106109f157610100808354040283529160200191610a1c565b820191906000526020600020905b8154815290600101906020018083116109ff57829003601f168201915b50505050508152602001600382018054610a3590612483565b80601f0160208091040260200160405190810160405280929190818152602001828054610a6190612483565b8015610aae5780601f10610a8357610100808354040283529160200191610aae565b820191906000526020600020905b815481529060010190602001808311610a9157829003601f168201915b50505050508152602001600482018054610ac790612483565b80601f0160208091040260200160405190810160405280929190818152602001828054610af390612483565b8015610b405780601f10610b1557610100808354040283529160200191610b40565b820191906000526020600020905b815481529060010190602001808311610b2357829003601f168201915b50505050508152602001600582018054610b5990612483565b80601f0160208091040260200160405190810160405280929190818152602001828054610b8590612483565b8015610bd25780601f10610ba757610100808354040283529160200191610bd2565b820191906000526020600020905b815481529060010190602001808311610bb557829003601f168201915b50505050508152602001600682015481526020016007820160009054906101000a900460ff1615151515815250509050806000015181602001518260400151836060015184608001518560a001518660c001518760e001519850985098509850985098509850985050919395975091939597565b6000600460008373ffffffffffffffffffffffffffffffffffffffff1673ffffffffffffffffffffffffffffffffffffffff168152602001908152602001600020549050919050565b600160009054906101000a900473ffffffffffffffffffffffffffffffffffffffff1673ffffffffffffffffffffffffffffffffffffffff1663996440c6336040518263ffffffff1660e01b8152600401610cea91906120e6565b602060405180830381865afa158015610d07573d6000803e3d6000fd5b505050506040513d601f19601f82011682018060405250810190610d2b919061222b565b610d6a576040517f08c379a0000000000000000000000000000000000000000000000000000000008152600401610d619061284e565b60405180910390fd5b600160009054906101000a900473ffffffffffffffffffffffffffffffffffffffff1673ffffffffffffffffffffffffffffffffffffffff1663ee437bed876040518263ffffffff1660e01b8152600401610dc591906120e6565b602060405180830381865afa158015610de2573d6000803e3d6000fd5b505050506040513d601f19601f82011682018060405250810190610e06919061222b565b610e45576040517f08c379a0000000000000000000000000000000000000000000000000000000008152600401610e3c9061235c565b60405180910390fd5b600260008773ffffffffffffffffffffffffffffffffffffffff1673ffffffffffffffffffffffffffffffffffffffff16815260200190815260200160002060070160009054906101000a900460ff16610ed4576040517f08c379a0000000000000000000000000000000000000000000000000000000008152600401610ecb906128ba565b60405180910390fd5b600160009054906101000a900473ffffffffffffffffffffffffffffffffffffffff1673ffffffffffffffffffffffffffffffffffffffff16638f243e586040518163ffffffff1660e01b8152600401602060405180830381865afa158015610f41573d6000803e3d6000fd5b505050506040513d601f19601f82011682018060405250810190610f65919061222b565b610fa4576040517f08c379a0000000000000000000000000000000000000000000000000000000008152600401610f9b90612434565b60405180910390fd5b6000600460008873ffffffffffffffffffffffffffffffffffffffff1673ffffffffffffffffffffffffffffffffffffffff1681526020019081526020016000205490506040518060e001604052808781526020018681526020018581526020018481526020018381526020013373ffffffffffffffffffffffffffffffffffffffff16815260200142815250600360008973ffffffffffffffffffffffffffffffffffffffff1673ffffffffffffffffffffffffffffffffffffffff168152602001908152602001600020600083815260200190815260200160002060008201518160000190816110969190612656565b5060208201518160010190816110ac9190612656565b5060408201518160020190816110c29190612656565b5060608201518160030190816110d89190612656565b5060808201518160040190816110ee9190612656565b5060a08201518160050160006101000a81548173ffffffffffffffffffffffffffffffffffffffff021916908373ffffffffffffffffffffffffffffffffffffffff16021790555060c08201518160060155905050600460008873ffffffffffffffffffffffffffffffffffffffff1673ffffffffffffffffffffffffffffffffffffffff168152602001908152602001600020600081548092919061119390612909565b9190505550803373ffffffffffffffffffffffffffffffffffffffff168873ffffffffffffffffffffffffffffffffffffffff167f711302f0962f6215290a1f13e924c7a6182c0ff87a130374a229b43a3359ea4860405160405180910390a450505050505050565b611204611931565b61120e60006119b8565b565b6000600260008373ffffffffffffffffffffffffffffffffffffffff1673ffffffffffffffffffffffffffffffffffffffff16815260200190815260200160002060070160009054906101000a900460ff169050919050565b60008060009054906101000a900473ffffffffffffffffffffffffffffffffffffffff16905090565b6000600160009054906101000a900473ffffffffffffffffffffffffffffffffffffffff1673ffffffffffffffffffffffffffffffffffffffff1663ee437bed836040518263ffffffff1660e01b81526004016112ef91906120e6565b602060405180830381865afa15801561130c573d6000803e3d6000fd5b505050506040513d601f19601f82011682018060405250810190611330919061222b565b9050919050565b60608060608060606000808873ffffffffffffffffffffffffffffffffffffffff163373ffffffffffffffffffffffffffffffffffffffff1614806114145750600160009054906101000a900473ffffffffffffffffffffffffffffffffffffffff1673ffffffffffffffffffffffffffffffffffffffff1663996440c6336040518263ffffffff1660e01b81526004016113d291906120e6565b602060405180830381865afa1580156113ef573d6000803e3d6000fd5b505050506040513d601f19601f82011682018060405250810190611413919061222b565b5b611453576040517f08c379a000000000000000000000000000000000000000000000000000000000815260040161144a906129c3565b60405180910390fd5b600460008a73ffffffffffffffffffffffffffffffffffffffff1673ffffffffffffffffffffffffffffffffffffffff1681526020019081526020016000205488106114d4576040517f08c379a00000000000000000000000000000000000000000000000000000000081526004016114cb90612a2f565b60405180910390fd5b6000600360008b73ffffffffffffffffffffffffffffffffffffffff1673ffffffffffffffffffffffffffffffffffffffff16815260200190815260200160002060008a81526020019081526020016000206040518060e001604052908160008201805461154190612483565b80601f016020809104026020016040519081016040528092919081815260200182805461156d90612483565b80156115ba5780601f1061158f576101008083540402835291602001916115ba565b820191906000526020600020905b81548152906001019060200180831161159d57829003601f168201915b505050505081526020016001820180546115d390612483565b80601f01602080910402602001604051908101604052809291908181526020018280546115ff90612483565b801561164c5780601f106116215761010080835404028352916020019161164c565b820191906000526020600020905b81548152906001019060200180831161162f57829003601f168201915b5050505050815260200160028201805461166590612483565b80601f016020809104026020016040519081016040528092919081815260200182805461169190612483565b80156116de5780601f106116b3576101008083540402835291602001916116de565b820191906000526020600020905b8154815290600101906020018083116116c157829003601f168201915b505050505081526020016003820180546116f790612483565b80601f016020809104026020016040519081016040528092919081815260200182805461172390612483565b80156117705780601f1061174557610100808354040283529160200191611770565b820191906000526020600020905b81548152906001019060200180831161175357829003601f168201915b5050505050815260200160048201805461178990612483565b80601f01602080910402602001604051908101604052809291908181526020018280546117b590612483565b80156118025780601f106117d757610100808354040283529160200191611802565b820191906000526020600020905b8154815290600101906020018083116117e557829003601f168201915b505050505081526020016005820160009054906101000a900473ffffffffffffffffffffffffffffffffffffffff1673ffffffffffffffffffffffffffffffffffffffff1673ffffffffffffffffffffffffffffffffffffffff1681526020016006820154815250509050806000015181602001518260400151836060015184608001518560a001518660c0015197509750975097509750975097505092959891949750929550565b6118b3611931565b600073ffffffffffffffffffffffffffffffffffffffff168173ffffffffffffffffffffffffffffffffffffffff16036119255760006040517f1e4fbdf700000000000000000000000000000000000000000000000000000000815260040161191c91906120e6565b60405180910390fd5b61192e816119b8565b50565b611939611a7c565b73ffffffffffffffffffffffffffffffffffffffff16611957611269565b73ffffffffffffffffffffffffffffffffffffffff16146119b65761197a611a7c565b6040517f118cdaa70000000000000000000000000000000000000000000000000000000081526004016119ad91906120e6565b60405180910390fd5b565b60008060009054906101000a900473ffffffffffffffffffffffffffffffffffffffff169050816000806101000a81548173ffffffffffffffffffffffffffffffffffffffff021916908373ffffffffffffffffffffffffffffffffffffffff1602179055508173ffffffffffffffffffffffffffffffffffffffff168173ffffffffffffffffffffffffffffffffffffffff167f8be0079c531659141344cd1fd0a4f28419497f9722a3daafe3b4186f6b6457e060405160405180910390a35050565b600033905090565b600073ffffffffffffffffffffffffffffffffffffffff82169050919050565b6000819050919050565b6000611ac9611ac4611abf84611a84565b611aa4565b611a84565b9050919050565b6000611adb82611aae565b9050919050565b6000611aed82611ad0565b9050919050565b611afd81611ae2565b82525050565b6000602082019050611b186000830184611af4565b92915050565b6000604051905090565b600080fd5b600080fd5b6000611b3d82611a84565b9050919050565b611b4d81611b32565b8114611b5857600080fd5b50565b600081359050611b6a81611b44565b92915050565b600080fd5b600080fd5b6000601f19601f8301169050919050565b7f4e487b7100000000000000000000000000000000000000000000000000000000600052604160045260246000fd5b611bc382611b7a565b810181811067ffffffffffffffff82111715611be257611be1611b8b565b5b80604052505050565b6000611bf5611b1e565b9050611c018282611bba565b919050565b600067ffffffffffffffff821115611c2157611c20611b8b565b5b611c2a82611b7a565b9050602081019050919050565b82818337600083830152505050565b6000611c59611c5484611c06565b611beb565b905082815260208101848484011115611c7557611c74611b75565b5b611c80848285611c37565b509392505050565b600082601f830112611c9d57611c9c611b70565b5b8135611cad848260208601611c46565b91505092915050565b600080600080600080600060e0888a031215611cd557611cd4611b28565b5b6000611ce38a828b01611b5b565b975050602088013567ffffffffffffffff811115611d0457611d03611b2d565b5b611d108a828b01611c88565b965050604088013567ffffffffffffffff811115611d3157611d30611b2d565b5b611d3d8a828b01611c88565b955050606088013567ffffffffffffffff811115611d5e57611d5d611b2d565b5b611d6a8a828b01611c88565b945050608088013567ffffffffffffffff811115611d8b57611d8a611b2d565b5b611d978a828b01611c88565b93505060a088013567ffffffffffffffff811115611db857611db7611b2d565b5b611dc48a828b01611c88565b92505060c088013567ffffffffffffffff811115611de557611de4611b2d565b5b611df18a828b01611c88565b91505092959891949750929550565b600060208284031215611e1657611e15611b28565b5b6000611e2484828501611b5b565b91505092915050565b600081519050919050565b600082825260208201905092915050565b60005b83811015611e67578082015181840152602081019050611e4c565b60008484015250505050565b6000611e7e82611e2d565b611e888185611e38565b9350611e98818560208601611e49565b611ea181611b7a565b840191505092915050565b6000819050919050565b611ebf81611eac565b82525050565b60008115159050919050565b611eda81611ec5565b82525050565b6000610100820190508181036000830152611efb818b611e73565b90508181036020830152611f0f818a611e73565b90508181036040830152611f238189611e73565b90508181036060830152611f378188611e73565b90508181036080830152611f4b8187611e73565b905081810360a0830152611f5f8186611e73565b9050611f6e60c0830185611eb6565b611f7b60e0830184611ed1565b9998505050505050505050565b6000602082019050611f9d6000830184611eb6565b92915050565b60008060008060008060c08789031215611fc057611fbf611b28565b5b6000611fce89828a01611b5b565b965050602087013567ffffffffffffffff811115611fef57611fee611b2d565b5b611ffb89828a01611c88565b955050604087013567ffffffffffffffff81111561201c5761201b611b2d565b5b61202889828a01611c88565b945050606087013567ffffffffffffffff81111561204957612048611b2d565b5b61205589828a01611c88565b935050608087013567ffffffffffffffff81111561207657612075611b2d565b5b61208289828a01611c88565b92505060a087013567ffffffffffffffff8111156120a3576120a2611b2d565b5b6120af89828a01611c88565b9150509295509295509295565b60006020820190506120d16000830184611ed1565b92915050565b6120e081611b32565b82525050565b60006020820190506120fb60008301846120d7565b92915050565b61210a81611eac565b811461211557600080fd5b50565b60008135905061212781612101565b92915050565b6000806040838503121561214457612143611b28565b5b600061215285828601611b5b565b925050602061216385828601612118565b9150509250929050565b600060e0820190508181036000830152612187818a611e73565b9050818103602083015261219b8189611e73565b905081810360408301526121af8188611e73565b905081810360608301526121c38187611e73565b905081810360808301526121d78186611e73565b90506121e660a08301856120d7565b6121f360c0830184611eb6565b98975050505050505050565b61220881611ec5565b811461221357600080fd5b50565b600081519050612225816121ff565b92915050565b60006020828403121561224157612240611b28565b5b600061224f84828501612216565b91505092915050565b7f4f6e6c7920646f63746f72732063616e2072656769737465722070617469656e60008201527f7473000000000000000000000000000000000000000000000000000000000000602082015250565b60006122b4602283611e38565b91506122bf82612258565b604082019050919050565b600060208201905081810360008301526122e3816122a7565b9050919050565b7f50617469656e74207075626c6963206b6579206e6f742072656769737465726560008201527f6400000000000000000000000000000000000000000000000000000000000000602082015250565b6000612346602183611e38565b9150612351826122ea565b604082019050919050565b6000602082019050818103600083015261237581612339565b9050919050565b7f50617469656e7420616c72656164792072656769737465726564000000000000600082015250565b60006123b2601a83611e38565b91506123bd8261237c565b602082019050919050565b600060208201905081810360008301526123e1816123a5565b9050919050565b7f4d6173746572206b6579206e6f74207265676973746572656400000000000000600082015250565b600061241e601983611e38565b9150612429826123e8565b602082019050919050565b6000602082019050818103600083015261244d81612411565b9050919050565b7f4e487b7100000000000000000000000000000000000000000000000000000000600052602260045260246000fd5b6000600282049050600182168061249b57607f821691505b6020821081036124ae576124ad612454565b5b50919050565b60008190508160005260206000209050919050565b60006020601f8301049050919050565b600082821b905092915050565b6000600883026125167fffffffffffffffffffffffffffffffffffffffffffffffffffffffffffffffff826124d9565b61252086836124d9565b95508019841693508086168417925050509392505050565b600061255361254e61254984611eac565b611aa4565b611eac565b9050919050565b6000819050919050565b61256d83612538565b6125816125798261255a565b8484546124e6565b825550505050565b600090565b612596612589565b6125a1818484612564565b505050565b5b818110156125c5576125ba60008261258e565b6001810190506125a7565b5050565b601f82111561260a576125db816124b4565b6125e4846124c9565b810160208510156125f3578190505b6126076125ff856124c9565b8301826125a6565b50505b505050565b600082821c905092915050565b600061262d6000198460080261260f565b1980831691505092915050565b6000612646838361261c565b9150826002028217905092915050565b61265f82611e2d565b67ffffffffffffffff81111561267857612677611b8b565b5b6126828254612483565b61268d8282856125c9565b600060209050601f8311600181146126c057600084156126ae578287015190505b6126b8858261263a565b865550612720565b601f1984166126ce866124b4565b60005b828110156126f6578489015182556001820191506020850194506020810190506126d1565b86831015612713578489015161270f601f89168261261c565b8355505b6001600288020188555050505b505050505050565b600060208201905081810360008301526127428184611e73565b905092915050565b7f4f6e6c792070617469656e74206f7220646f63746f722063616e20766965772060008201527f70617469656e7420696e666f0000000000000000000000000000000000000000602082015250565b60006127a6602c83611e38565b91506127b18261274a565b604082019050919050565b600060208201905081810360008301526127d581612799565b9050919050565b7f4f6e6c7920646f63746f72732063616e20616464206d65646963616c2072656360008201527f6f72647300000000000000000000000000000000000000000000000000000000602082015250565b6000612838602483611e38565b9150612843826127dc565b604082019050919050565b600060208201905081810360008301526128678161282b565b9050919050565b7f50617469656e74206e6f74207265676973746572656400000000000000000000600082015250565b60006128a4601683611e38565b91506128af8261286e565b602082019050919050565b600060208201905081810360008301526128d381612897565b9050919050565b7f4e487b7100000000000000000000000000000000000000000000000000000000600052601160045260246000fd5b600061291482611eac565b91507fffffffffffffffffffffffffffffffffffffffffffffffffffffffffffffffff8203612946576129456128da565b5b600182019050919050565b7f4f6e6c792070617469656e74206f7220646f63746f722063616e20766965772060008201527f6d65646963616c207265636f7264000000000000000000000000000000000000602082015250565b60006129ad602e83611e38565b91506129b882612951565b604082019050919050565b600060208201905081810360008301526129dc816129a0565b9050919050565b7f5265636f726420646f6573206e6f742065786973740000000000000000000000600082015250565b6000612a19601583611e38565b9150612a24826129e3565b602082019050919050565b60006020820190508181036000830152612a4881612a0c565b905091905056fea26469706673582212207fd007969828c57af42da748f02954f966beb93ec9b8186c889fc584eaa136a864736f6c634300081c0033",
  "linkReferences": {},
  "deployedLinkReferences": {}
}