{
  "_format": "hh-sol-artifact-1",
  "contractName": "EncryptedMedicalRecord",
  "sourceName": "contracts/EncryptedMedicalRecord.sol",
  "abi": [
    {
      "inputs": [
        {
          "internalType": "address",
          "name": "_keyRegistryAddress",
          "type": "address"
        }
      ],
      "stateMutability": "nonpayable",
      "type": "constructor"
    },
    {
      "inputs": [
        {
          "internalType": "address",
          "name": "owner",
          "type": "address"
        }
      ],
      "name": "OwnableInvalidOwner",
      "type": "error"
    },
    {
      "inputs": [
        {
          "internalType": "address",
          "name": "account",
          "type": "address"
        }
      ],
      "name": "OwnableUnauthorizedAccount",
      "type": "error"
    },
    {
      "anonymous": false,
      "inputs": [
        {
          "indexed": true,
          "internalType": "address",
          "name": "patient",
          "type": "address"
        },
        {
          "indexed": true,
          "internalType": "address",
          "name": "doctor",
          "type": "address"
        },
        {
          "indexed": true,
          "internalType": "uint256",
          "name": "recordId",
          "type": "uint256"
        }
      ],
      "name": "MedicalRecordAdded",
      "type": "event"
    },
    {
      "anonymous": false,
      "inputs": [
        {
          "indexed": true,
          "internalType": "address",
          "name": "previousOwner",
          "type": "address"
        },
        {
          "indexed": true,
          "internalType": "address",
          "name": "newOwner",
          "type": "address"
        }
      ],
      "name": "OwnershipTransferred",
      "type": "event"
    },
    {
      "anonymous": false,
      "inputs": [
        {
          "indexed": true,
          "internalType": "address",
          "name": "patient",
          "type": "address"
        },
        {
          "indexed": false,
          "internalType": "string",
          "name": "name",
          "type": "string"
        }
      ],
      "name": "PatientRegistered",
      "type": "event"
    },
    {
      "inputs": [
        {
          "internalType": "address",
          "name": "_patient",
          "type": "address"
        },
        {
          "internalType": "string",
          "name": "_ipfsCid",
          "type": "string"
        },
        {
          "internalType": "string",
          "name": "_dataHash",
          "type": "string"
        },
        {
          "internalType": "string",
          "name": "_encryptedDoctorKey",
          "type": "string"
        },
        {
          "internalType": "string",
          "name": "_encryptedPatientKey",
          "type": "string"
        }
      ],
      "name": "addMedicalRecord",
      "outputs": [],
      "stateMutability": "nonpayable",
      "type": "function"
    },
    {
      "inputs": [
        {
          "internalType": "address",
          "name": "_patient",
          "type": "address"
        },
        {
          "internalType": "uint256",
          "name": "_recordId",
          "type": "uint256"
        }
      ],
      "name": "getMedicalRecord",
      "outputs": [
        {
          "internalType": "string",
          "name": "ipfsCid",
          "type": "string"
        },
        {
          "internalType": "string",
          "name": "dataHash",
          "type": "string"
        },
        {
          "internalType": "string",
          "name": "encryptedDoctorKey",
          "type": "string"
        },
        {
          "internalType": "string",
          "name": "encryptedPatientKey",
          "type": "string"
        },
        {
          "internalType": "address",
          "name": "doctor",
          "type": "address"
        },
        {
          "internalType": "uint256",
          "name": "timestamp",
          "type": "uint256"
        }
      ],
      "stateMutability": "view",
      "type": "function"
    },
    {
      "inputs": [
        {
          "internalType": "address",
          "name": "_patient",
          "type": "address"
        }
      ],
      "name": "getPatientInfo",
      "outputs": [
        {
          "internalType": "string",
          "name": "name",
          "type": "string"
        },
        {
          "internalType": "string",
          "name": "ipfsCid",
          "type": "string"
        },
        {
          "internalType": "string",
          "name": "dataHash",
          "type": "string"
        },
        {
          "internalType": "string",
          "name": "encryptedDoctorKey",
          "type": "string"
        },
        {
          "internalType": "string",
          "name": "encryptedPatientKey",
          "type": "string"
        },
        {
          "internalType": "uint256",
          "name": "timestamp",
          "type": "uint256"
        },
        {
          "internalType": "bool",
          "name": "isRegistered",
          "type": "bool"
        }
      ],
      "stateMutability": "view",
      "type": "function"
    },
    {
      "inputs": [
        {
          "internalType": "address",
          "name": "_patient",
          "type": "address"
        }
      ],
      "name": "getRecordCount",
      "outputs": [
        {
          "internalType": "uint256",
          "name": "",
          "type": "uint256"
        }
      ],
      "stateMutability": "view",
      "type": "function"
    },
    {
      "inputs": [
        {
          "internalType": "address",
          "name": "_patient",
          "type": "address"
        }
      ],
      "name": "isPatientPublicKeyRegistered",
      "outputs": [
        {
          "internalType": "bool",
          "name": "",
          "type": "bool"
        }
      ],
      "stateMutability": "view",
      "type": "function"
    },
    {
      "inputs": [
        {
          "internalType": "address",
          "name": "_patient",
          "type": "address"
        }
      ],
      "name": "isPatientRegistered",
      "outputs": [
        {
          "internalType": "bool",
          "name": "",
          "type": "bool"
        }
      ],
      "stateMutability": "view",
      "type": "function"
    },
    {
      "inputs": [],
      "name": "keyRegistry",
      "outputs": [
        {
          "internalType": "contract KeyRegistry",
          "name": "",
          "type": "address"
        }
      ],
      "stateMutability": "view",
      "type": "function"
    },
    {
      "inputs": [],
      "name": "owner",
      "outputs": [
        {
          "internalType": "address",
          "name": "",
          "type": "address"
        }
      ],
      "stateMutability": "view",
      "type": "function"
    },
    {
      "inputs": [
        {
          "internalType": "address",
          "name": "_patient",
          "type": "address"
        },
        {
          "internalType": "string",
          "name": "_name",
          "type": "string"
        },
        {
          "internalType": "string",
          "name": "_ipfsCid",
          "type": "string"
        },
        {
          "internalType": "string",
          "name": "_dataHash",
          "type": "string"
        },
        {
          "internalType": "string",
          "name": "_encryptedDoctorKey",
          "type": "string"
        },
        {
          "internalType": "string",
          "name": "_encryptedPatientKey",
          "type": "string"
        }
      ],
      "name": "registerPatient",
      "outputs": [],
      "stateMutability": "nonpayable",
      "type": "function"
    },
    {
      "inputs": [],
      "name": "renounceOwnership",
      "outputs": [],
      "stateMutability": "nonpayable",
      "type": "function"
    },
    {
      "inputs": [
        {
          "internalType": "address",
          "name": "newOwner",
          "type": "address"
        }
      ],
      "name": "transferOwnership",
      "outputs": [],
      "stateMutability": "nonpayable",
      "type": "function"
    }
  ],
  "bytecode": "0x608060405234801561001057600080fd5b5060405161290338038061290383398181016040528101906100329190610223565b33600073ffffffffffffffffffffffffffffffffffffffff168173ffffffffffffffffffffffffffffffffffffffff16036100a55760006040517f1e4fbdf700000000000000000000000000000000000000000000000000000000815260040161009c919061025f565b60405180910390fd5b6100b4816100fc60201b60201c565b5080600160006101000a81548173ffffffffffffffffffffffffffffffffffffffff021916908373ffffffffffffffffffffffffffffffffffffffff1602179055505061027a565b60008060009054906101000a900473ffffffffffffffffffffffffffffffffffffffff169050816000806101000a81548173ffffffffffffffffffffffffffffffffffffffff021916908373ffffffffffffffffffffffffffffffffffffffff1602179055508173ffffffffffffffffffffffffffffffffffffffff168173ffffffffffffffffffffffffffffffffffffffff167f8be0079c531659141344cd1fd0a4f28419497f9722a3daafe3b4186f6b6457e060405160405180910390a35050565b600080fd5b600073ffffffffffffffffffffffffffffffffffffffff82169050919050565b60006101f0826101c5565b9050919050565b610200816101e5565b811461020b57600080fd5b50565b60008151905061021d816101f7565b92915050565b600060208284031215610239576102386101c0565b5b60006102478482850161020e565b91505092915050565b610259816101e5565b82525050565b60006020820190506102746000830184610250565b92915050565b61267a806102896000396000f3fe608060405234801561001057600080fd5b50600436106100a95760003560e01c806380b6b1b81161007157806380b6b1b8146101585780638da5cb5b14610188578063afbf6a7b146101a6578063d7a9a563146101c2578063eea9c37b146101f2578063f2fde38b14610227576100a9565b8063086b5198146100ae5780634b426178146100cc5780635821430814610102578063715018a6146101325780637c2807241461013c575b600080fd5b6100b6610243565b6040516100c391906117ee565b60405180910390f35b6100e660048036038101906100e1919061185b565b610269565b6040516100f9979695949392919061194c565b60405180910390f35b61011c6004803603810190610117919061185b565b61070f565b60405161012991906119de565b60405180910390f35b61013a610758565b005b61015660048036038101906101519190611b2e565b61076c565b005b610172600480360381019061016d919061185b565b610b18565b60405161017f9190611c47565b60405180910390f35b610190610b71565b60405161019d9190611c71565b60405180910390f35b6101c060048036038101906101bb9190611c8c565b610b9a565b005b6101dc60048036038101906101d7919061185b565b61101a565b6040516101e99190611c47565b60405180910390f35b61020c60048036038101906102079190611da3565b6110bf565b60405161021e96959493929190611de3565b60405180910390f35b610241600480360381019061023c919061185b565b611596565b005b600160009054906101000a900473ffffffffffffffffffffffffffffffffffffffff1681565b60608060608060606000808773ffffffffffffffffffffffffffffffffffffffff163373ffffffffffffffffffffffffffffffffffffffff1614806103465750600160009054906101000a900473ffffffffffffffffffffffffffffffffffffffff1673ffffffffffffffffffffffffffffffffffffffff1663996440c6336040518263ffffffff1660e01b81526004016103049190611c71565b602060405180830381865afa158015610321573d6000803e3d6000fd5b505050506040513d601f19601f820116820180604052508101906103459190611e8c565b5b610385576040517f08c379a000000000000000000000000000000000000000000000000000000000815260040161037c90611f2b565b60405180910390fd5b6000600260008a73ffffffffffffffffffffffffffffffffffffffff1673ffffffffffffffffffffffffffffffffffffffff1681526020019081526020016000206040518060e00160405290816000820180546103e190611f7a565b80601f016020809104026020016040519081016040528092919081815260200182805461040d90611f7a565b801561045a5780601f1061042f5761010080835404028352916020019161045a565b820191906000526020600020905b81548152906001019060200180831161043d57829003601f168201915b5050505050815260200160018201805461047390611f7a565b80601f016020809104026020016040519081016040528092919081815260200182805461049f90611f7a565b80156104ec5780601f106104c1576101008083540402835291602001916104ec565b820191906000526020600020905b8154815290600101906020018083116104cf57829003601f168201915b5050505050815260200160028201805461050590611f7a565b80601f016020809104026020016040519081016040528092919081815260200182805461053190611f7a565b801561057e5780601f106105535761010080835404028352916020019161057e565b820191906000526020600020905b81548152906001019060200180831161056157829003601f168201915b5050505050815260200160038201805461059790611f7a565b80601f01602080910402602001604051908101604052809291908181526020018280546105c390611f7a565b80156106105780601f106105e557610100808354040283529160200191610610565b820191906000526020600020905b8154815290600101906020018083116105f357829003601f168201915b5050505050815260200160048201805461062990611f7a565b80601f016020809104026020016040519081016040528092919081815260200182805461065590611f7a565b80156106a25780601f10610677576101008083540402835291602001916106a2565b820191906000526020600020905b81548152906001019060200180831161068557829003601f168201915b50505050508152602001600582015481526020016006820160009054906101000a900460ff1615151515815250509050806000015181602001518260400151836060015184608001518560a001518660c00151975097509750975097509750975050919395979092949650565b6000600460008373ffffffffffffffffffffffffffffffffffffffff1673ffffffffffffffffffffffffffffffffffffffff168152602001908152602001600020549050919050565b61076061161c565b61076a60006116a3565b565b600160009054906101000a900473ffffffffffffffffffffffffffffffffffffffff1673ffffffffffffffffffffffffffffffffffffffff1663996440c6336040518263ffffffff1660e01b81526004016107c79190611c71565b602060405180830381865afa1580156107e4573d6000803e3d6000fd5b505050506040513d601f19601f820116820180604052508101906108089190611e8c565b610847576040517f08c379a000000000000000000000000000000000000000000000000000000000815260040161083e9061201d565b60405180910390fd5b600160009054906101000a900473ffffffffffffffffffffffffffffffffffffffff1673ffffffffffffffffffffffffffffffffffffffff1663ee437bed876040518263ffffffff1660e01b81526004016108a29190611c71565b602060405180830381865afa1580156108bf573d6000803e3d6000fd5b505050506040513d601f19601f820116820180604052508101906108e39190611e8c565b610922576040517f08c379a0000000000000000000000000000000000000000000000000000000008152600401610919906120af565b60405180910390fd5b600260008773ffffffffffffffffffffffffffffffffffffffff1673ffffffffffffffffffffffffffffffffffffffff16815260200190815260200160002060060160009054906101000a900460ff16156109b2576040517f08c379a00000000000000000000000000000000000000000000000000000000081526004016109a99061211b565b60405180910390fd5b6040518060e0016040528086815260200185815260200184815260200183815260200182815260200142815260200160011515815250600260008873ffffffffffffffffffffffffffffffffffffffff1673ffffffffffffffffffffffffffffffffffffffff1681526020019081526020016000206000820151816000019081610a3c91906122dd565b506020820151816001019081610a5291906122dd565b506040820151816002019081610a6891906122dd565b506060820151816003019081610a7e91906122dd565b506080820151816004019081610a9491906122dd565b5060a0820151816005015560c08201518160060160006101000a81548160ff0219169083151502179055509050508573ffffffffffffffffffffffffffffffffffffffff167fc85b128388b9c331a2a5485dce4cd0f3db9f7c279d327ce95d6d39d6c94644c786604051610b0891906123af565b60405180910390a2505050505050565b6000600260008373ffffffffffffffffffffffffffffffffffffffff1673ffffffffffffffffffffffffffffffffffffffff16815260200190815260200160002060060160009054906101000a900460ff169050919050565b60008060009054906101000a900473ffffffffffffffffffffffffffffffffffffffff16905090565b600160009054906101000a900473ffffffffffffffffffffffffffffffffffffffff1673ffffffffffffffffffffffffffffffffffffffff1663996440c6336040518263ffffffff1660e01b8152600401610bf59190611c71565b602060405180830381865afa158015610c12573d6000803e3d6000fd5b505050506040513d601f19601f82011682018060405250810190610c369190611e8c565b610c75576040517f08c379a0000000000000000000000000000000000000000000000000000000008152600401610c6c90612443565b60405180910390fd5b600160009054906101000a900473ffffffffffffffffffffffffffffffffffffffff1673ffffffffffffffffffffffffffffffffffffffff1663ee437bed866040518263ffffffff1660e01b8152600401610cd09190611c71565b602060405180830381865afa158015610ced573d6000803e3d6000fd5b505050506040513d601f19601f82011682018060405250810190610d119190611e8c565b610d50576040517f08c379a0000000000000000000000000000000000000000000000000000000008152600401610d47906120af565b60405180910390fd5b600260008673ffffffffffffffffffffffffffffffffffffffff1673ffffffffffffffffffffffffffffffffffffffff16815260200190815260200160002060060160009054906101000a900460ff16610ddf576040517f08c379a0000000000000000000000000000000000000000000000000000000008152600401610dd6906124af565b60405180910390fd5b6000600460008773ffffffffffffffffffffffffffffffffffffffff1673ffffffffffffffffffffffffffffffffffffffff1681526020019081526020016000205490506040518060c001604052808681526020018581526020018481526020018381526020013373ffffffffffffffffffffffffffffffffffffffff16815260200142815250600360008873ffffffffffffffffffffffffffffffffffffffff1673ffffffffffffffffffffffffffffffffffffffff16815260200190815260200160002060008381526020019081526020016000206000820151816000019081610ecb91906122dd565b506020820151816001019081610ee191906122dd565b506040820151816002019081610ef791906122dd565b506060820151816003019081610f0d91906122dd565b5060808201518160040160006101000a81548173ffffffffffffffffffffffffffffffffffffffff021916908373ffffffffffffffffffffffffffffffffffffffff16021790555060a08201518160050155905050600460008773ffffffffffffffffffffffffffffffffffffffff1673ffffffffffffffffffffffffffffffffffffffff1681526020019081526020016000206000815480929190610fb2906124fe565b9190505550803373ffffffffffffffffffffffffffffffffffffffff168773ffffffffffffffffffffffffffffffffffffffff167f711302f0962f6215290a1f13e924c7a6182c0ff87a130374a229b43a3359ea4860405160405180910390a4505050505050565b6000600160009054906101000a900473ffffffffffffffffffffffffffffffffffffffff1673ffffffffffffffffffffffffffffffffffffffff1663ee437bed836040518263ffffffff1660e01b81526004016110779190611c71565b602060405180830381865afa158015611094573d6000803e3d6000fd5b505050506040513d601f19601f820116820180604052508101906110b89190611e8c565b9050919050565b6060806060806000808773ffffffffffffffffffffffffffffffffffffffff163373ffffffffffffffffffffffffffffffffffffffff16148061119a5750600160009054906101000a900473ffffffffffffffffffffffffffffffffffffffff1673ffffffffffffffffffffffffffffffffffffffff1663996440c6336040518263ffffffff1660e01b81526004016111589190611c71565b602060405180830381865afa158015611175573d6000803e3d6000fd5b505050506040513d601f19601f820116820180604052508101906111999190611e8c565b5b6111d9576040517f08c379a00000000000000000000000000000000000000000000000000000000081526004016111d0906125b8565b60405180910390fd5b600460008973ffffffffffffffffffffffffffffffffffffffff1673ffffffffffffffffffffffffffffffffffffffff16815260200190815260200160002054871061125a576040517f08c379a000000000000000000000000000000000000000000000000000000000815260040161125190612624565b60405180910390fd5b6000600360008a73ffffffffffffffffffffffffffffffffffffffff1673ffffffffffffffffffffffffffffffffffffffff16815260200190815260200160002060008981526020019081526020016000206040518060c00160405290816000820180546112c790611f7a565b80601f01602080910402602001604051908101604052809291908181526020018280546112f390611f7a565b80156113405780601f1061131557610100808354040283529160200191611340565b820191906000526020600020905b81548152906001019060200180831161132357829003601f168201915b5050505050815260200160018201805461135990611f7a565b80601f016020809104026020016040519081016040528092919081815260200182805461138590611f7a565b80156113d25780601f106113a7576101008083540402835291602001916113d2565b820191906000526020600020905b8154815290600101906020018083116113b557829003601f168201915b505050505081526020016002820180546113eb90611f7a565b80601f016020809104026020016040519081016040528092919081815260200182805461141790611f7a565b80156114645780601f1061143957610100808354040283529160200191611464565b820191906000526020600020905b81548152906001019060200180831161144757829003601f168201915b5050505050815260200160038201805461147d90611f7a565b80601f01602080910402602001604051908101604052809291908181526020018280546114a990611f7a565b80156114f65780601f106114cb576101008083540402835291602001916114f6565b820191906000526020600020905b8154815290600101906020018083116114d957829003601f168201915b505050505081526020016004820160009054906101000a900473ffffffffffffffffffffffffffffffffffffffff1673ffffffffffffffffffffffffffffffffffffffff1673ffffffffffffffffffffffffffffffffffffffff1681526020016005820154815250509050806000015181602001518260400151836060015184608001518560a00151965096509650965096509650509295509295509295565b61159e61161c565b600073ffffffffffffffffffffffffffffffffffffffff168173ffffffffffffffffffffffffffffffffffffffff16036116105760006040517f1e4fbdf70000000000000000000000000000000000000000000000000000000081526004016116079190611c71565b60405180910390fd5b611619816116a3565b50565b611624611767565b73ffffffffffffffffffffffffffffffffffffffff16611642610b71565b73ffffffffffffffffffffffffffffffffffffffff16146116a157611665611767565b6040517f118cdaa70000000000000000000000000000000000000000000000000000000081526004016116989190611c71565b60405180910390fd5b565b60008060009054906101000a900473ffffffffffffffffffffffffffffffffffffffff169050816000806101000a81548173ffffffffffffffffffffffffffffffffffffffff021916908373ffffffffffffffffffffffffffffffffffffffff1602179055508173ffffffffffffffffffffffffffffffffffffffff168173ffffffffffffffffffffffffffffffffffffffff167f8be0079c531659141344cd1fd0a4f28419497f9722a3daafe3b4186f6b6457e060405160405180910390a35050565b600033905090565b600073ffffffffffffffffffffffffffffffffffffffff82169050919050565b6000819050919050565b60006117b46117af6117aa8461176f565b61178f565b61176f565b9050919050565b60006117c682611799565b9050919050565b60006117d8826117bb565b9050919050565b6117e8816117cd565b82525050565b600060208201905061180360008301846117df565b92915050565b6000604051905090565b600080fd5b600080fd5b60006118288261176f565b9050919050565b6118388161181d565b811461184357600080fd5b50565b6000813590506118558161182f565b92915050565b60006020828403121561187157611870611813565b5b600061187f84828501611846565b91505092915050565b600081519050919050565b600082825260208201905092915050565b60005b838110156118c25780820151818401526020810190506118a7565b60008484015250505050565b6000601f19601f8301169050919050565b60006118ea82611888565b6118f48185611893565b93506119048185602086016118a4565b61190d816118ce565b840191505092915050565b6000819050919050565b61192b81611918565b82525050565b60008115159050919050565b61194681611931565b82525050565b600060e0820190508181036000830152611966818a6118df565b9050818103602083015261197a81896118df565b9050818103604083015261198e81886118df565b905081810360608301526119a281876118df565b905081810360808301526119b681866118df565b90506119c560a0830185611922565b6119d260c083018461193d565b98975050505050505050565b60006020820190506119f36000830184611922565b92915050565b600080fd5b600080fd5b7f4e487b7100000000000000000000000000000000000000000000000000000000600052604160045260246000fd5b611a3b826118ce565b810181811067ffffffffffffffff82111715611a5a57611a59611a03565b5b80604052505050565b6000611a6d611809565b9050611a798282611a32565b919050565b600067ffffffffffffffff821115611a9957611a98611a03565b5b611aa2826118ce565b9050602081019050919050565b82818337600083830152505050565b6000611ad1611acc84611a7e565b611a63565b905082815260208101848484011115611aed57611aec6119fe565b5b611af8848285611aaf565b509392505050565b600082601f830112611b1557611b146119f9565b5b8135611b25848260208601611abe565b91505092915050565b60008060008060008060c08789031215611b4b57611b4a611813565b5b6000611b5989828a01611846565b965050602087013567ffffffffffffffff811115611b7a57611b79611818565b5b611b8689828a01611b00565b955050604087013567ffffffffffffffff811115611ba757611ba6611818565b5b611bb389828a01611b00565b945050606087013567ffffffffffffffff811115611bd457611bd3611818565b5b611be089828a01611b00565b935050608087013567ffffffffffffffff811115611c0157611c00611818565b5b611c0d89828a01611b00565b92505060a087013567ffffffffffffffff811115611c2e57611c2d611818565b5b611c3a89828a01611b00565b9150509295509295509295565b6000602082019050611c5c600083018461193d565b92915050565b611c6b8161181d565b82525050565b6000602082019050611c866000830184611c62565b92915050565b600080600080600060a08688031215611ca857611ca7611813565b5b6000611cb688828901611846565b955050602086013567ffffffffffffffff811115611cd757611cd6611818565b5b611ce388828901611b00565b945050604086013567ffffffffffffffff811115611d0457611d03611818565b5b611d1088828901611b00565b935050606086013567ffffffffffffffff811115611d3157611d30611818565b5b611d3d88828901611b00565b925050608086013567ffffffffffffffff811115611d5e57611d5d611818565b5b611d6a88828901611b00565b9150509295509295909350565b611d8081611918565b8114611d8b57600080fd5b50565b600081359050611d9d81611d77565b92915050565b60008060408385031215611dba57611db9611813565b5b6000611dc885828601611846565b9250506020611dd985828601611d8e565b9150509250929050565b600060c0820190508181036000830152611dfd81896118df565b90508181036020830152611e1181886118df565b90508181036040830152611e2581876118df565b90508181036060830152611e3981866118df565b9050611e486080830185611c62565b611e5560a0830184611922565b979650505050505050565b611e6981611931565b8114611e7457600080fd5b50565b600081519050611e8681611e60565b92915050565b600060208284031215611ea257611ea1611813565b5b6000611eb084828501611e77565b91505092915050565b7f4f6e6c792070617469656e74206f7220646f63746f722063616e20766965772060008201527f70617469656e7420696e666f0000000000000000000000000000000000000000602082015250565b6000611f15602c83611893565b9150611f2082611eb9565b604082019050919050565b60006020820190508181036000830152611f4481611f08565b9050919050565b7f4e487b7100000000000000000000000000000000000000000000000000000000600052602260045260246000fd5b60006002820490506001821680611f9257607f821691505b602082108103611fa557611fa4611f4b565b5b50919050565b7f4f6e6c7920646f63746f72732063616e2072656769737465722070617469656e60008201527f7473000000000000000000000000000000000000000000000000000000000000602082015250565b6000612007602283611893565b915061201282611fab565b604082019050919050565b6000602082019050818103600083015261203681611ffa565b9050919050565b7f50617469656e74207075626c6963206b6579206e6f742072656769737465726560008201527f6400000000000000000000000000000000000000000000000000000000000000602082015250565b6000612099602183611893565b91506120a48261203d565b604082019050919050565b600060208201905081810360008301526120c88161208c565b9050919050565b7f50617469656e7420616c72656164792072656769737465726564000000000000600082015250565b6000612105601a83611893565b9150612110826120cf565b602082019050919050565b60006020820190508181036000830152612134816120f8565b9050919050565b60008190508160005260206000209050919050565b60006020601f8301049050919050565b600082821b905092915050565b60006008830261219d7fffffffffffffffffffffffffffffffffffffffffffffffffffffffffffffffff82612160565b6121a78683612160565b95508019841693508086168417925050509392505050565b60006121da6121d56121d084611918565b61178f565b611918565b9050919050565b6000819050919050565b6121f4836121bf565b612208612200826121e1565b84845461216d565b825550505050565b600090565b61221d612210565b6122288184846121eb565b505050565b5b8181101561224c57612241600082612215565b60018101905061222e565b5050565b601f821115612291576122628161213b565b61226b84612150565b8101602085101561227a578190505b61228e61228685612150565b83018261222d565b50505b505050565b600082821c905092915050565b60006122b460001984600802612296565b1980831691505092915050565b60006122cd83836122a3565b9150826002028217905092915050565b6122e682611888565b67ffffffffffffffff8111156122ff576122fe611a03565b5b6123098254611f7a565b612314828285612250565b600060209050601f8311600181146123475760008415612335578287015190505b61233f85826122c1565b8655506123a7565b601f1984166123558661213b565b60005b8281101561237d57848901518255600182019150602085019450602081019050612358565b8683101561239a5784890151612396601f8916826122a3565b8355505b6001600288020188555050505b505050505050565b600060208201905081810360008301526123c981846118df565b905092915050565b7f4f6e6c7920646f63746f72732063616e20616464206d65646963616c2072656360008201527f6f72647300000000000000000000000000000000000000000000000000000000602082015250565b600061242d602483611893565b9150612438826123d1565b604082019050919050565b6000602082019050818103600083015261245c81612420565b9050919050565b7f50617469656e74206e6f74207265676973746572656400000000000000000000600082015250565b6000612499601683611893565b91506124a482612463565b602082019050919050565b600060208201905081810360008301526124c88161248c565b9050919050565b7f4e487b7100000000000000000000000000000000000000000000000000000000600052601160045260246000fd5b600061250982611918565b91507fffffffffffffffffffffffffffffffffffffffffffffffffffffffffffffffff820361253b5761253a6124cf565b5b600182019050919050565b7f4f6e6c792070617469656e74206f7220646f63746f722063616e20766965772060008201527f6d65646963616c207265636f7264000000000000000000000000000000000000602082015250565b60006125a2602e83611893565b91506125ad82612546565b604082019050919050565b600060208201905081810360008301526125d181612595565b9050919050565b7f5265636f726420646f6573206e6f742065786973740000000000000000000000600082015250565b600061260e601583611893565b9150612619826125d8565b602082019050919050565b6000602082019050818103600083015261263d81612601565b905091905056fea26469706673582212205f1685c06b4646fba3e7107cce418b79b5b70edc8a5a199b8526ed82c074640664736f6c634300081c0033",
  "linkReferences": {},
  "deployedLinkReferences": {}
}