{
  "_format": "hh-sol-artifact-1",
  "contractName": "KeyRegistry",
  "sourceName": "contracts/KeyRegistry.sol",
  "abi": [
    {
      "inputs": [],
      "stateMutability": "nonpayable",
      "type": "constructor"
    },
    {
      "inputs": [
        {
          "internalType": "address",
          "name": "owner",
          "type": "address"
        }
      ],
      "name": "OwnableInvalidOwner",
      "type": "error"
    },
    {
      "inputs": [
        {
          "internalType": "address",
          "name": "account",
          "type": "address"
        }
      ],
      "name": "OwnableUnauthorizedAccount",
      "type": "error"
    },
    {
      "anonymous": false,
      "inputs": [
        {
          "indexed": true,
          "internalType": "address",
          "name": "doctor",
          "type": "address"
        }
      ],
      "name": "DoctorCertified",
      "type": "event"
    },
    {
      "anonymous": false,
      "inputs": [
        {
          "indexed": true,
          "internalType": "address",
          "name": "previousOwner",
          "type": "address"
        },
        {
          "indexed": true,
          "internalType": "address",
          "name": "newOwner",
          "type": "address"
        }
      ],
      "name": "OwnershipTransferred",
      "type": "event"
    },
    {
      "anonymous": false,
      "inputs": [
        {
          "indexed": true,
          "internalType": "address",
          "name": "patient",
          "type": "address"
        }
      ],
      "name": "PatientRegistered",
      "type": "event"
    },
    {
      "anonymous": false,
      "inputs": [
        {
          "indexed": true,
          "internalType": "address",
          "name": "user",
          "type": "address"
        },
        {
          "indexed": false,
          "internalType": "string",
          "name": "publicKey",
          "type": "string"
        }
      ],
      "name": "PublicKeyRegistered",
      "type": "event"
    },
    {
      "anonymous": false,
      "inputs": [
        {
          "indexed": true,
          "internalType": "address",
          "name": "user",
          "type": "address"
        },
        {
          "indexed": false,
          "internalType": "string",
          "name": "newPublicKey",
          "type": "string"
        }
      ],
      "name": "PublicKeyUpdated",
      "type": "event"
    },
    {
      "anonymous": false,
      "inputs": [
        {
          "indexed": true,
          "internalType": "address",
          "name": "contractAddress",
          "type": "address"
        }
      ],
      "name": "TrustedContractAdded",
      "type": "event"
    },
    {
      "anonymous": false,
      "inputs": [
        {
          "indexed": true,
          "internalType": "address",
          "name": "contractAddress",
          "type": "address"
        }
      ],
      "name": "TrustedContractRemoved",
      "type": "event"
    },
    {
      "inputs": [
        {
          "internalType": "address",
          "name": "_contract",
          "type": "address"
        }
      ],
      "name": "addTrustedContract",
      "outputs": [],
      "stateMutability": "nonpayable",
      "type": "function"
    },
    {
      "inputs": [
        {
          "internalType": "address",
          "name": "_doctor",
          "type": "address"
        }
      ],
      "name": "certifyDoctor",
      "outputs": [],
      "stateMutability": "nonpayable",
      "type": "function"
    },
    {
      "inputs": [
        {
          "internalType": "address",
          "name": "_user",
          "type": "address"
        }
      ],
      "name": "getPublicKey",
      "outputs": [
        {
          "internalType": "string",
          "name": "",
          "type": "string"
        },
        {
          "internalType": "uint256",
          "name": "",
          "type": "uint256"
        },
        {
          "internalType": "bool",
          "name": "",
          "type": "bool"
        }
      ],
      "stateMutability": "view",
      "type": "function"
    },
    {
      "inputs": [
        {
          "internalType": "address",
          "name": "_user",
          "type": "address"
        }
      ],
      "name": "isDoctor",
      "outputs": [
        {
          "internalType": "bool",
          "name": "",
          "type": "bool"
        }
      ],
      "stateMutability": "view",
      "type": "function"
    },
    {
      "inputs": [
        {
          "internalType": "address",
          "name": "_user",
          "type": "address"
        }
      ],
      "name": "isPatient",
      "outputs": [
        {
          "internalType": "bool",
          "name": "",
          "type": "bool"
        }
      ],
      "stateMutability": "view",
      "type": "function"
    },
    {
      "inputs": [
        {
          "internalType": "address",
          "name": "_user",
          "type": "address"
        }
      ],
      "name": "isPublicKeyRegistered",
      "outputs": [
        {
          "internalType": "bool",
          "name": "",
          "type": "bool"
        }
      ],
      "stateMutability": "view",
      "type": "function"
    },
    {
      "inputs": [
        {
          "internalType": "address",
          "name": "_contract",
          "type": "address"
        }
      ],
      "name": "isTrustedContract",
      "outputs": [
        {
          "internalType": "bool",
          "name": "",
          "type": "bool"
        }
      ],
      "stateMutability": "view",
      "type": "function"
    },
    {
      "inputs": [],
      "name": "owner",
      "outputs": [
        {
          "internalType": "address",
          "name": "",
          "type": "address"
        }
      ],
      "stateMutability": "view",
      "type": "function"
    },
    {
      "inputs": [
        {
          "internalType": "string",
          "name": "_publicKey",
          "type": "string"
        },
        {
          "internalType": "bool",
          "name": "_isDoctor",
          "type": "bool"
        }
      ],
      "name": "registerPublicKey",
      "outputs": [],
      "stateMutability": "nonpayable",
      "type": "function"
    },
    {
      "inputs": [
        {
          "internalType": "address",
          "name": "_contract",
          "type": "address"
        }
      ],
      "name": "removeTrustedContract",
      "outputs": [],
      "stateMutability": "nonpayable",
      "type": "function"
    },
    {
      "inputs": [],
      "name": "renounceOwnership",
      "outputs": [],
      "stateMutability": "nonpayable",
      "type": "function"
    },
    {
      "inputs": [
        {
          "internalType": "address",
          "name": "_doctor",
          "type": "address"
        }
      ],
      "name": "revokeDoctorCertification",
      "outputs": [],
      "stateMutability": "nonpayable",
      "type": "function"
    },
    {
      "inputs": [
        {
          "internalType": "address",
          "name": "newOwner",
          "type": "address"
        }
      ],
      "name": "transferOwnership",
      "outputs": [],
      "stateMutability": "nonpayable",
      "type": "function"
    },
    {
      "inputs": [
        {
          "internalType": "string",
          "name": "_newPublicKey",
          "type": "string"
        }
      ],
      "name": "updatePublicKey",
      "outputs": [],
      "stateMutability": "nonpayable",
      "type": "function"
    },
    {
      "inputs": [
        {
          "internalType": "address",
          "name": "_user",
          "type": "address"
        },
        {
          "internalType": "string",
          "name": "_newPublicKey",
          "type": "string"
        }
      ],
      "name": "updatePublicKeyFor",
      "outputs": [],
      "stateMutability": "nonpayable",
      "type": "function"
    }
  ],
  "bytecode": "0x608060405234801561001057600080fd5b5033600073ffffffffffffffffffffffffffffffffffffffff168173ffffffffffffffffffffffffffffffffffffffff16036100845760006040517f1e4fbdf700000000000000000000000000000000000000000000000000000000815260040161007b919061019e565b60405180910390fd5b6100938161009960201b60201c565b506101b9565b60008060009054906101000a900473ffffffffffffffffffffffffffffffffffffffff169050816000806101000a81548173ffffffffffffffffffffffffffffffffffffffff021916908373ffffffffffffffffffffffffffffffffffffffff1602179055508173ffffffffffffffffffffffffffffffffffffffff168173ffffffffffffffffffffffffffffffffffffffff167f8be0079c531659141344cd1fd0a4f28419497f9722a3daafe3b4186f6b6457e060405160405180910390a35050565b600073ffffffffffffffffffffffffffffffffffffffff82169050919050565b60006101888261015d565b9050919050565b6101988161017d565b82525050565b60006020820190506101b3600083018461018f565b92915050565b611b87806101c86000396000f3fe608060405234801561001057600080fd5b50600436106100f55760003560e01c8063996440c611610097578063d60544d111610066578063d60544d114610270578063ee437bed1461028c578063f0314df0146102bc578063f2fde38b146102d8576100f5565b8063996440c6146101ec578063b81dc1591461021c578063bd0f542a14610238578063bf892eaa14610254576100f5565b806375fa4556116100d357806375fa455614610150578063857cdbb81461016c5780638da5cb5b1461019e5780638f9c79ed146101bc576100f5565b80631dc6fa5e146100fa5780635bf3a31514610116578063715018a614610146575b600080fd5b610114600480360381019061010f91906112b5565b6102f4565b005b610130600480360381019061012b919061135c565b6104af565b60405161013d91906113a4565b60405180910390f35b61014e610505565b005b61016a6004803603810190610165919061135c565b610519565b005b6101866004803603810190610181919061135c565b6105bf565b60405161019593929190611457565b60405180910390f35b6101a66106e6565b6040516101b391906114a4565b60405180910390f35b6101d660048036038101906101d1919061135c565b61070f565b6040516101e391906113a4565b60405180910390f35b6102066004803603810190610201919061135c565b610765565b60405161021391906113a4565b60405180910390f35b6102366004803603810190610231919061135c565b6107bb565b005b610252600480360381019061024d91906114bf565b61081e565b005b61026e6004803603810190610269919061135c565b610a66565b005b61028a60048036038101906102859190611547565b610b0c565b005b6102a660048036038101906102a1919061135c565b610e14565b6040516102b391906113a4565b60405180910390f35b6102d660048036038101906102d1919061135c565b610e6d565b005b6102f260048036038101906102ed919061135c565b610f82565b005b6000815111610338576040517f08c379a000000000000000000000000000000000000000000000000000000000815260040161032f906115ef565b60405180910390fd5b600160003373ffffffffffffffffffffffffffffffffffffffff1673ffffffffffffffffffffffffffffffffffffffff16815260200190815260200160002060020160009054906101000a900460ff166103c7576040517f08c379a00000000000000000000000000000000000000000000000000000000081526004016103be9061165b565b60405180910390fd5b80600160003373ffffffffffffffffffffffffffffffffffffffff1673ffffffffffffffffffffffffffffffffffffffff16815260200190815260200160002060000190816104169190611887565b5042600160003373ffffffffffffffffffffffffffffffffffffffff1673ffffffffffffffffffffffffffffffffffffffff168152602001908152602001600020600101819055503373ffffffffffffffffffffffffffffffffffffffff167fa850082d2fb101274de37494dc864e9277de33c04415c7ad9db57592c60511a5826040516104a49190611959565b60405180910390a250565b6000600460008373ffffffffffffffffffffffffffffffffffffffff1673ffffffffffffffffffffffffffffffffffffffff16815260200190815260200160002060009054906101000a900460ff169050919050565b61050d611008565b610517600061108f565b565b610521611008565b6001600260008373ffffffffffffffffffffffffffffffffffffffff1673ffffffffffffffffffffffffffffffffffffffff16815260200190815260200160002060006101000a81548160ff0219169083151502179055508073ffffffffffffffffffffffffffffffffffffffff167fbb3d2b212e2bd0cf1c22e775e1e886fb737ce1710b35abf6beed29b60ed66ddf60405160405180910390a250565b60606000806000600160008673ffffffffffffffffffffffffffffffffffffffff1673ffffffffffffffffffffffffffffffffffffffff168152602001908152602001600020604051806060016040529081600082018054610620906116aa565b80601f016020809104026020016040519081016040528092919081815260200182805461064c906116aa565b80156106995780601f1061066e57610100808354040283529160200191610699565b820191906000526020600020905b81548152906001019060200180831161067c57829003601f168201915b50505050508152602001600182015481526020016002820160009054906101000a900460ff1615151515815250509050806000015181602001518260400151935093509350509193909250565b60008060009054906101000a900473ffffffffffffffffffffffffffffffffffffffff16905090565b6000600360008373ffffffffffffffffffffffffffffffffffffffff1673ffffffffffffffffffffffffffffffffffffffff16815260200190815260200160002060009054906101000a900460ff169050919050565b6000600260008373ffffffffffffffffffffffffffffffffffffffff1673ffffffffffffffffffffffffffffffffffffffff16815260200190815260200160002060009054906101000a900460ff169050919050565b6107c3611008565b6000600260008373ffffffffffffffffffffffffffffffffffffffff1673ffffffffffffffffffffffffffffffffffffffff16815260200190815260200160002060006101000a81548160ff02191690831515021790555050565b600460003373ffffffffffffffffffffffffffffffffffffffff1673ffffffffffffffffffffffffffffffffffffffff16815260200190815260200160002060009054906101000a900460ff166108aa576040517f08c379a00000000000000000000000000000000000000000000000000000000081526004016108a1906119ed565b60405180910390fd5b60008151116108ee576040517f08c379a00000000000000000000000000000000000000000000000000000000081526004016108e5906115ef565b60405180910390fd5b600160008373ffffffffffffffffffffffffffffffffffffffff1673ffffffffffffffffffffffffffffffffffffffff16815260200190815260200160002060020160009054906101000a900460ff1661097d576040517f08c379a00000000000000000000000000000000000000000000000000000000081526004016109749061165b565b60405180910390fd5b80600160008473ffffffffffffffffffffffffffffffffffffffff1673ffffffffffffffffffffffffffffffffffffffff16815260200190815260200160002060000190816109cc9190611887565b5042600160008473ffffffffffffffffffffffffffffffffffffffff1673ffffffffffffffffffffffffffffffffffffffff168152602001908152602001600020600101819055508173ffffffffffffffffffffffffffffffffffffffff167fa850082d2fb101274de37494dc864e9277de33c04415c7ad9db57592c60511a582604051610a5a9190611959565b60405180910390a25050565b610a6e611008565b6000600460008373ffffffffffffffffffffffffffffffffffffffff1673ffffffffffffffffffffffffffffffffffffffff16815260200190815260200160002060006101000a81548160ff0219169083151502179055508073ffffffffffffffffffffffffffffffffffffffff167fe077e45f89f0635acaf766ec2ea56cb9579a33b8732ecdc656fe2e7bdf7cac4160405160405180910390a250565b6000825111610b50576040517f08c379a0000000000000000000000000000000000000000000000000000000008152600401610b4790611a59565b60405180910390fd5b600160003373ffffffffffffffffffffffffffffffffffffffff1673ffffffffffffffffffffffffffffffffffffffff16815260200190815260200160002060020160009054906101000a900460ff1615610be0576040517f08c379a0000000000000000000000000000000000000000000000000000000008152600401610bd790611ac5565b60405180910390fd5b604051806060016040528083815260200142815260200160011515815250600160003373ffffffffffffffffffffffffffffffffffffffff1673ffffffffffffffffffffffffffffffffffffffff1681526020019081526020016000206000820151816000019081610c529190611887565b506020820151816001015560408201518160020160006101000a81548160ff0219169083151502179055509050508015610d26576001600260003373ffffffffffffffffffffffffffffffffffffffff1673ffffffffffffffffffffffffffffffffffffffff16815260200190815260200160002060006101000a81548160ff0219169083151502179055503373ffffffffffffffffffffffffffffffffffffffff167fbb3d2b212e2bd0cf1c22e775e1e886fb737ce1710b35abf6beed29b60ed66ddf60405160405180910390a2610dc2565b6001600360003373ffffffffffffffffffffffffffffffffffffffff1673ffffffffffffffffffffffffffffffffffffffff16815260200190815260200160002060006101000a81548160ff0219169083151502179055503373ffffffffffffffffffffffffffffffffffffffff167fc9fa2003fca4ce0dfc8cb0deae32266b715536df6685365b05b5be96ede8e49c60405160405180910390a25b3373ffffffffffffffffffffffffffffffffffffffff167fe6ba8490d82d58e83a08a0bfc5814e885bad83c28c703c75bcbf5ed6054300f683604051610e089190611959565b60405180910390a25050565b6000600160008373ffffffffffffffffffffffffffffffffffffffff1673ffffffffffffffffffffffffffffffffffffffff16815260200190815260200160002060020160009054906101000a900460ff169050919050565b610e75611008565b600073ffffffffffffffffffffffffffffffffffffffff168173ffffffffffffffffffffffffffffffffffffffff1603610ee4576040517f08c379a0000000000000000000000000000000000000000000000000000000008152600401610edb90611b31565b60405180910390fd5b6001600460008373ffffffffffffffffffffffffffffffffffffffff1673ffffffffffffffffffffffffffffffffffffffff16815260200190815260200160002060006101000a81548160ff0219169083151502179055508073ffffffffffffffffffffffffffffffffffffffff167f4e87357acd951c4831877b6015585c4a7e20204cadf07178081e9929b3a13b5d60405160405180910390a250565b610f8a611008565b600073ffffffffffffffffffffffffffffffffffffffff168173ffffffffffffffffffffffffffffffffffffffff1603610ffc5760006040517f1e4fbdf7000000000000000000000000000000000000000000000000000000008152600401610ff391906114a4565b60405180910390fd5b6110058161108f565b50565b611010611153565b73ffffffffffffffffffffffffffffffffffffffff1661102e6106e6565b73ffffffffffffffffffffffffffffffffffffffff161461108d57611051611153565b6040517f118cdaa700000000000000000000000000000000000000000000000000000000815260040161108491906114a4565b60405180910390fd5b565b60008060009054906101000a900473ffffffffffffffffffffffffffffffffffffffff169050816000806101000a81548173ffffffffffffffffffffffffffffffffffffffff021916908373ffffffffffffffffffffffffffffffffffffffff1602179055508173ffffffffffffffffffffffffffffffffffffffff168173ffffffffffffffffffffffffffffffffffffffff167f8be0079c531659141344cd1fd0a4f28419497f9722a3daafe3b4186f6b6457e060405160405180910390a35050565b600033905090565b6000604051905090565b600080fd5b600080fd5b600080fd5b600080fd5b6000601f19601f8301169050919050565b7f4e487b7100000000000000000000000000000000000000000000000000000000600052604160045260246000fd5b6111c282611179565b810181811067ffffffffffffffff821117156111e1576111e061118a565b5b80604052505050565b60006111f461115b565b905061120082826111b9565b919050565b600067ffffffffffffffff8211156112205761121f61118a565b5b61122982611179565b9050602081019050919050565b82818337600083830152505050565b600061125861125384611205565b6111ea565b90508281526020810184848401111561127457611273611174565b5b61127f848285611236565b509392505050565b600082601f83011261129c5761129b61116f565b5b81356112ac848260208601611245565b91505092915050565b6000602082840312156112cb576112ca611165565b5b600082013567ffffffffffffffff8111156112e9576112e861116a565b5b6112f584828501611287565b91505092915050565b600073ffffffffffffffffffffffffffffffffffffffff82169050919050565b6000611329826112fe565b9050919050565b6113398161131e565b811461134457600080fd5b50565b60008135905061135681611330565b92915050565b60006020828403121561137257611371611165565b5b600061138084828501611347565b91505092915050565b60008115159050919050565b61139e81611389565b82525050565b60006020820190506113b96000830184611395565b92915050565b600081519050919050565b600082825260208201905092915050565b60005b838110156113f95780820151818401526020810190506113de565b60008484015250505050565b6000611410826113bf565b61141a81856113ca565b935061142a8185602086016113db565b61143381611179565b840191505092915050565b6000819050919050565b6114518161143e565b82525050565b600060608201905081810360008301526114718186611405565b90506114806020830185611448565b61148d6040830184611395565b949350505050565b61149e8161131e565b82525050565b60006020820190506114b96000830184611495565b92915050565b600080604083850312156114d6576114d5611165565b5b60006114e485828601611347565b925050602083013567ffffffffffffffff8111156115055761150461116a565b5b61151185828601611287565b9150509250929050565b61152481611389565b811461152f57600080fd5b50565b6000813590506115418161151b565b92915050565b6000806040838503121561155e5761155d611165565b5b600083013567ffffffffffffffff81111561157c5761157b61116a565b5b61158885828601611287565b925050602061159985828601611532565b9150509250929050565b7f4e6577207075626c6963206b65792063616e6e6f7420626520656d7074790000600082015250565b60006115d9601e836113ca565b91506115e4826115a3565b602082019050919050565b60006020820190508181036000830152611608816115cc565b9050919050565b7f55736572206e6f74207265676973746572656400000000000000000000000000600082015250565b60006116456013836113ca565b91506116508261160f565b602082019050919050565b6000602082019050818103600083015261167481611638565b9050919050565b7f4e487b7100000000000000000000000000000000000000000000000000000000600052602260045260246000fd5b600060028204905060018216806116c257607f821691505b6020821081036116d5576116d461167b565b5b50919050565b60008190508160005260206000209050919050565b60006020601f8301049050919050565b600082821b905092915050565b60006008830261173d7fffffffffffffffffffffffffffffffffffffffffffffffffffffffffffffffff82611700565b6117478683611700565b95508019841693508086168417925050509392505050565b6000819050919050565b600061178461177f61177a8461143e565b61175f565b61143e565b9050919050565b6000819050919050565b61179e83611769565b6117b26117aa8261178b565b84845461170d565b825550505050565b600090565b6117c76117ba565b6117d2818484611795565b505050565b5b818110156117f6576117eb6000826117bf565b6001810190506117d8565b5050565b601f82111561183b5761180c816116db565b611815846116f0565b81016020851015611824578190505b611838611830856116f0565b8301826117d7565b50505b505050565b600082821c905092915050565b600061185e60001984600802611840565b1980831691505092915050565b6000611877838361184d565b9150826002028217905092915050565b611890826113bf565b67ffffffffffffffff8111156118a9576118a861118a565b5b6118b382546116aa565b6118be8282856117fa565b600060209050601f8311600181146118f157600084156118df578287015190505b6118e9858261186b565b865550611951565b601f1984166118ff866116db565b60005b8281101561192757848901518255600182019150602085019450602081019050611902565b868310156119445784890151611940601f89168261184d565b8355505b6001600288020188555050505b505050505050565b600060208201905081810360008301526119738184611405565b905092915050565b7f4f6e6c79207472757374656420636f6e7472616374732063616e2063616c6c2060008201527f7468697300000000000000000000000000000000000000000000000000000000602082015250565b60006119d76024836113ca565b91506119e28261197b565b604082019050919050565b60006020820190508181036000830152611a06816119ca565b9050919050565b7f5075626c6963206b65792063616e6e6f7420626520656d707479000000000000600082015250565b6000611a43601a836113ca565b9150611a4e82611a0d565b602082019050919050565b60006020820190508181036000830152611a7281611a36565b9050919050565b7f5075626c6963206b657920616c72656164792072656769737465726564000000600082015250565b6000611aaf601d836113ca565b9150611aba82611a79565b602082019050919050565b60006020820190508181036000830152611ade81611aa2565b9050919050565b7f496e76616c696420636f6e747261637420616464726573730000000000000000600082015250565b6000611b1b6018836113ca565b9150611b2682611ae5565b602082019050919050565b60006020820190508181036000830152611b4a81611b0e565b905091905056fea2646970667358221220248d9f8c12d489704c52ba55f319de37dbf9e8ed8a28c1f72a78b6384f3f19bc64736f6c634300081c0033",
  "linkReferences": {},
  "deployedLinkReferences": {}
}