{
  "_format": "hh-sol-artifact-1",
  "contractName": "KeyRecovery",
  "sourceName": "contracts/KeyRecovery.sol",
  "abi": [
    {
      "inputs": [
        {
          "internalType": "address",
          "name": "_keyRegistryAddress",
          "type": "address"
        }
      ],
      "stateMutability": "nonpayable",
      "type": "constructor"
    },
    {
      "anonymous": false,
      "inputs": [
        {
          "indexed": true,
          "internalType": "address",
          "name": "user",
          "type": "address"
        },
        {
          "indexed": false,
          "internalType": "address[3]",
          "name": "guardians",
          "type": "address[3]"
        },
        {
          "indexed": false,
          "internalType": "string[3]",
          "name": "names",
          "type": "string[3]"
        }
      ],
      "name": "GuardiansSet",
      "type": "event"
    },
    {
      "anonymous": false,
      "inputs": [
        {
          "indexed": true,
          "internalType": "address",
          "name": "user",
          "type": "address"
        },
        {
          "indexed": false,
          "internalType": "address[3]",
          "name": "guardians",
          "type": "address[3]"
        },
        {
          "indexed": false,
          "internalType": "string[3]",
          "name": "names",
          "type": "string[3]"
        }
      ],
      "name": "GuardiansSetWithShares",
      "type": "event"
    },
    {
      "anonymous": false,
      "inputs": [
        {
          "indexed": true,
          "internalType": "bytes32",
          "name": "requestId",
          "type": "bytes32"
        },
        {
          "indexed": true,
          "internalType": "address",
          "name": "guardian",
          "type": "address"
        }
      ],
      "name": "RecoveryApproved",
      "type": "event"
    },
    {
      "anonymous": false,
      "inputs": [
        {
          "indexed": true,
          "internalType": "address",
          "name": "user",
          "type": "address"
        },
        {
          "indexed": true,
          "internalType": "bytes32",
          "name": "requestId",
          "type": "bytes32"
        }
      ],
      "name": "RecoveryCancelled",
      "type": "event"
    },
    {
      "anonymous": false,
      "inputs": [
        {
          "indexed": true,
          "internalType": "address",
          "name": "user",
          "type": "address"
        },
        {
          "indexed": true,
          "internalType": "bytes32",
          "name": "requestId",
          "type": "bytes32"
        },
        {
          "indexed": false,
          "internalType": "string",
          "name": "newPublicKey",
          "type": "string"
        }
      ],
      "name": "RecoveryCompleted",
      "type": "event"
    },
    {
      "anonymous": false,
      "inputs": [
        {
          "indexed": true,
          "internalType": "bytes32",
          "name": "requestId",
          "type": "bytes32"
        },
        {
          "indexed": true,
          "internalType": "address",
          "name": "guardian",
          "type": "address"
        }
      ],
      "name": "RecoveryRejected",
      "type": "event"
    },
    {
      "anonymous": false,
      "inputs": [
        {
          "indexed": true,
          "internalType": "address",
          "name": "user",
          "type": "address"
        },
        {
          "indexed": true,
          "internalType": "bytes32",
          "name": "requestId",
          "type": "bytes32"
        },
        {
          "indexed": false,
          "internalType": "uint256",
          "name": "expiryTime",
          "type": "uint256"
        }
      ],
      "name": "RecoveryRequested",
      "type": "event"
    },
    {
      "inputs": [],
      "name": "MAX_GUARDIANS",
      "outputs": [
        {
          "internalType": "uint256",
          "name": "",
          "type": "uint256"
        }
      ],
      "stateMutability": "view",
      "type": "function"
    },
    {
      "inputs": [],
      "name": "RECOVERY_DURATION",
      "outputs": [
        {
          "internalType": "uint256",
          "name": "",
          "type": "uint256"
        }
      ],
      "stateMutability": "view",
      "type": "function"
    },
    {
      "inputs": [],
      "name": "REQUIRED_APPROVALS",
      "outputs": [
        {
          "internalType": "uint256",
          "name": "",
          "type": "uint256"
        }
      ],
      "stateMutability": "view",
      "type": "function"
    },
    {
      "inputs": [
        {
          "internalType": "address",
          "name": "",
          "type": "address"
        }
      ],
      "name": "activeRecoveryRequest",
      "outputs": [
        {
          "internalType": "bytes32",
          "name": "",
          "type": "bytes32"
        }
      ],
      "stateMutability": "view",
      "type": "function"
    },
    {
      "inputs": [
        {
          "internalType": "bytes32",
          "name": "_requestId",
          "type": "bytes32"
        },
        {
          "internalType": "string",
          "name": "_decryptedShare",
          "type": "string"
        }
      ],
      "name": "approveRecovery",
      "outputs": [],
      "stateMutability": "nonpayable",
      "type": "function"
    },
    {
      "inputs": [
        {
          "internalType": "bytes32",
          "name": "_requestId",
          "type": "bytes32"
        }
      ],
      "name": "canCompleteRecovery",
      "outputs": [
        {
          "internalType": "bool",
          "name": "",
          "type": "bool"
        }
      ],
      "stateMutability": "view",
      "type": "function"
    },
    {
      "inputs": [
        {
          "internalType": "bytes32",
          "name": "_requestId",
          "type": "bytes32"
        }
      ],
      "name": "cancelRecovery",
      "outputs": [],
      "stateMutability": "nonpayable",
      "type": "function"
    },
    {
      "inputs": [
        {
          "internalType": "bytes32",
          "name": "_requestId",
          "type": "bytes32"
        }
      ],
      "name": "completeRecovery",
      "outputs": [],
      "stateMutability": "nonpayable",
      "type": "function"
    },
    {
      "inputs": [
        {
          "internalType": "address",
          "name": "_user",
          "type": "address"
        }
      ],
      "name": "getActiveRecoveryRequest",
      "outputs": [
        {
          "internalType": "bytes32",
          "name": "",
          "type": "bytes32"
        }
      ],
      "stateMutability": "view",
      "type": "function"
    },
    {
      "inputs": [
        {
          "internalType": "bytes32",
          "name": "_requestId",
          "type": "bytes32"
        }
      ],
      "name": "getDecryptedShares",
      "outputs": [
        {
          "internalType": "address[3]",
          "name": "guardianAddresses",
          "type": "address[3]"
        },
        {
          "internalType": "string[3]",
          "name": "decryptedShares",
          "type": "string[3]"
        }
      ],
      "stateMutability": "view",
      "type": "function"
    },
    {
      "inputs": [
        {
          "internalType": "bytes32",
          "name": "_requestId",
          "type": "bytes32"
        },
        {
          "internalType": "address",
          "name": "_guardian",
          "type": "address"
        }
      ],
      "name": "getGuardianResponse",
      "outputs": [
        {
          "internalType": "bool",
          "name": "hasApproved",
          "type": "bool"
        },
        {
          "internalType": "bool",
          "name": "hasRejected",
          "type": "bool"
        }
      ],
      "stateMutability": "view",
      "type": "function"
    },
    {
      "inputs": [
        {
          "internalType": "address",
          "name": "_user",
          "type": "address"
        }
      ],
      "name": "getGuardians",
      "outputs": [
        {
          "internalType": "address[3]",
          "name": "addresses",
          "type": "address[3]"
        },
        {
          "internalType": "string[3]",
          "name": "names",
          "type": "string[3]"
        },
        {
          "internalType": "string[3]",
          "name": "contacts",
          "type": "string[3]"
        },
        {
          "internalType": "bool[3]",
          "name": "isActive",
          "type": "bool[3]"
        }
      ],
      "stateMutability": "view",
      "type": "function"
    },
    {
      "inputs": [
        {
          "internalType": "bytes32",
          "name": "_requestId",
          "type": "bytes32"
        }
      ],
      "name": "getMyShare",
      "outputs": [
        {
          "internalType": "string",
          "name": "",
          "type": "string"
        }
      ],
      "stateMutability": "view",
      "type": "function"
    },
    {
      "inputs": [
        {
          "internalType": "bytes32",
          "name": "_requestId",
          "type": "bytes32"
        }
      ],
      "name": "getRecoveryData",
      "outputs": [
        {
          "internalType": "string",
          "name": "encryptedPrivateKey",
          "type": "string"
        },
        {
          "internalType": "string",
          "name": "iv",
          "type": "string"
        }
      ],
      "stateMutability": "view",
      "type": "function"
    },
    {
      "inputs": [
        {
          "internalType": "bytes32",
          "name": "_requestId",
          "type": "bytes32"
        }
      ],
      "name": "getRecoveryStatus",
      "outputs": [
        {
          "internalType": "address",
          "name": "user",
          "type": "address"
        },
        {
          "internalType": "uint256",
          "name": "timestamp",
          "type": "uint256"
        },
        {
          "internalType": "uint256",
          "name": "expiryTime",
          "type": "uint256"
        },
        {
          "internalType": "uint256",
          "name": "approvalCount",
          "type": "uint256"
        },
        {
          "internalType": "bool",
          "name": "isCompleted",
          "type": "bool"
        },
        {
          "internalType": "bool",
          "name": "isCancelled",
          "type": "bool"
        }
      ],
      "stateMutability": "view",
      "type": "function"
    },
    {
      "inputs": [
        {
          "internalType": "address",
          "name": "",
          "type": "address"
        }
      ],
      "name": "guardianCount",
      "outputs": [
        {
          "internalType": "uint256",
          "name": "",
          "type": "uint256"
        }
      ],
      "stateMutability": "view",
      "type": "function"
    },
    {
      "inputs": [
        {
          "internalType": "address",
          "name": "_user",
          "type": "address"
        }
      ],
      "name": "hasGuardians",
      "outputs": [
        {
          "internalType": "bool",
          "name": "",
          "type": "bool"
        }
      ],
      "stateMutability": "view",
      "type": "function"
    },
    {
      "inputs": [
        {
          "internalType": "address",
          "name": "_user",
          "type": "address"
        }
      ],
      "name": "hasUserData",
      "outputs": [
        {
          "internalType": "bool",
          "name": "",
          "type": "bool"
        }
      ],
      "stateMutability": "view",
      "type": "function"
    },
    {
      "inputs": [],
      "name": "keyRegistry",
      "outputs": [
        {
          "internalType": "contract KeyRegistry",
          "name": "",
          "type": "address"
        }
      ],
      "stateMutability": "view",
      "type": "function"
    },
    {
      "inputs": [
        {
          "internalType": "bytes32",
          "name": "",
          "type": "bytes32"
        }
      ],
      "name": "recoveryRequests",
      "outputs": [
        {
          "internalType": "address",
          "name": "user",
          "type": "address"
        },
        {
          "internalType": "uint256",
          "name": "timestamp",
          "type": "uint256"
        },
        {
          "internalType": "uint256",
          "name": "expiryTime",
          "type": "uint256"
        },
        {
          "internalType": "uint256",
          "name": "approvalCount",
          "type": "uint256"
        },
        {
          "internalType": "bool",
          "name": "isCompleted",
          "type": "bool"
        },
        {
          "internalType": "bool",
          "name": "isCancelled",
          "type": "bool"
        }
      ],
      "stateMutability": "view",
      "type": "function"
    },
    {
      "inputs": [
        {
          "internalType": "bytes32",
          "name": "_requestId",
          "type": "bytes32"
        }
      ],
      "name": "rejectRecovery",
      "outputs": [],
      "stateMutability": "nonpayable",
      "type": "function"
    },
    {
      "inputs": [],
      "name": "requestRecovery",
      "outputs": [
        {
          "internalType": "bytes32",
          "name": "",
          "type": "bytes32"
        }
      ],
      "stateMutability": "nonpayable",
      "type": "function"
    },
    {
      "inputs": [
        {
          "internalType": "address[3]",
          "name": "_guardianAddresses",
          "type": "address[3]"
        },
        {
          "internalType": "string[3]",
          "name": "_guardianNames",
          "type": "string[3]"
        },
        {
          "internalType": "string[3]",
          "name": "_guardianContacts",
          "type": "string[3]"
        }
      ],
      "name": "setGuardians",
      "outputs": [],
      "stateMutability": "nonpayable",
      "type": "function"
    },
    {
      "inputs": [
        {
          "internalType": "address[3]",
          "name": "_guardianAddresses",
          "type": "address[3]"
        },
        {
          "internalType": "string[3]",
          "name": "_guardianNames",
          "type": "string[3]"
        },
        {
          "internalType": "string[3]",
          "name": "_guardianContacts",
          "type": "string[3]"
        },
        {
          "internalType": "string",
          "name": "_encryptedPrivateKey",
          "type": "string"
        },
        {
          "internalType": "string",
          "name": "_iv",
          "type": "string"
        },
        {
          "internalType": "string[3]",
          "name": "_guardianShares",
          "type": "string[3]"
        }
      ],
      "name": "setGuardiansWithShares",
      "outputs": [],
      "stateMutability": "nonpayable",
      "type": "function"
    },
    {
      "inputs": [
        {
          "internalType": "address",
          "name": "",
          "type": "address"
        },
        {
          "internalType": "uint256",
          "name": "",
          "type": "uint256"
        }
      ],
      "name": "userGuardians",
      "outputs": [
        {
          "internalType": "address",
          "name": "walletAddress",
          "type": "address"
        },
        {
          "internalType": "string",
          "name": "name",
          "type": "string"
        },
        {
          "internalType": "string",
          "name": "contact",
          "type": "string"
        },
        {
          "internalType": "bool",
          "name": "isActive",
          "type": "bool"
        }
      ],
      "stateMutability": "view",
      "type": "function"
    }
  ],
  "bytecode": "0x608060405234801561001057600080fd5b506040516155c73803806155c7833981810160405281019061003291906100db565b806000806101000a81548173ffffffffffffffffffffffffffffffffffffffff021916908373ffffffffffffffffffffffffffffffffffffffff16021790555050610108565b600080fd5b600073ffffffffffffffffffffffffffffffffffffffff82169050919050565b60006100a88261007d565b9050919050565b6100b88161009d565b81146100c357600080fd5b50565b6000815190506100d5816100af565b92915050565b6000602082840312156100f1576100f0610078565b5b60006100ff848285016100c6565b91505092915050565b6154b0806101176000396000f3fe608060405234801561001057600080fd5b50600436106101725760003560e01c8063640c518c116100de57806397f5a97111610097578063cebd680f11610071578063cebd680f146104b8578063ddd02fd5146104d4578063f18858ab14610505578063f8eee5631461053857610172565b806397f5a971146104205780639cbb551314610450578063c69281121461048357610172565b8063640c518c1461034657806367a046a9146103625780636ce04db91461037e57806371a9f8f5146103af5780637682c3e3146103cd57806395ad3b4b146103eb57610172565b806347692c151161013057806347692c151461024b5780634fca68231461027b5780635040fb76146102ac578063599c5533146102dc5780636009b0d8146102fa578063631fec7f1461032a57610172565b8062a5c19d14610177578063086b5198146101935780631272c596146101b15780631501fa76146101cd5780633e037901146101fd578063422c1d371461022d575b600080fd5b610191600480360381019061018c919061386c565b610568565b005b61019b610a84565b6040516101a89190613918565b60405180910390f35b6101cb60048036038101906101c6919061386c565b610aa8565b005b6101e760048036038101906101e29190613971565b610d39565b6040516101f491906139ad565b60405180910390f35b6102176004803603810190610212919061386c565b610d82565b60405161022491906139e3565b60405180910390f35b610235610e4e565b6040516102429190613a17565b60405180910390f35b61026560048036038101906102609190613971565b610e53565b60405161027291906139e3565b60405180910390f35b6102956004803603810190610290919061386c565b610e9e565b6040516102a3929190613ac2565b60405180910390f35b6102c660048036038101906102c19190613971565b61123c565b6040516102d39190613a17565b60405180910390f35b6102e4611254565b6040516102f19190613a17565b60405180910390f35b610314600480360381019061030f9190613971565b611259565b60405161032191906139e3565b60405180910390f35b610344600480360381019061033f919061386c565b6112b2565b005b610360600480360381019061035b9190613c2e565b6114ab565b005b61037c60048036038101906103779190613e0f565b611a75565b005b61039860048036038101906103939190613e9a565b612018565b6040516103a6929190613eda565b60405180910390f35b6103b76120dc565b6040516103c49190613a17565b60405180910390f35b6103d56120e3565b6040516103e291906139ad565b60405180910390f35b6104056004803603810190610400919061386c565b612384565b60405161041796959493929190613f12565b60405180910390f35b61043a6004803603810190610435919061386c565b612412565b6040516104479190613f73565b60405180910390f35b61046a60048036038101906104659190613fc1565b612752565b60405161047a9493929190614001565b60405180910390f35b61049d6004803603810190610498919061386c565b6128d2565b6040516104af96959493929190613f12565b60405180910390f35b6104d260048036038101906104cd9190614054565b612948565b005b6104ee60048036038101906104e9919061386c565b6131d6565b6040516104fc929190614319565b60405180910390f35b61051f600480360381019061051a9190613971565b6134ae565b60405161052f94939291906143f4565b60405180910390f35b610552600480360381019061054d9190613971565b61379f565b60405161055f91906139ad565b60405180910390f35b6000600460008381526020019081526020016000209050600073ffffffffffffffffffffffffffffffffffffffff168160000160009054906101000a900473ffffffffffffffffffffffffffffffffffffffff1673ffffffffffffffffffffffffffffffffffffffff1603610612576040517f08c379a000000000000000000000000000000000000000000000000000000000815260040161060990614494565b60405180910390fd5b8060020154421115610659576040517f08c379a000000000000000000000000000000000000000000000000000000000815260040161065090614500565b60405180910390fd5b8060040160009054906101000a900460ff16156106ab576040517f08c379a00000000000000000000000000000000000000000000000000000000081526004016106a29061456c565b60405180910390fd5b8060040160019054906101000a900460ff16156106fd576040517f08c379a00000000000000000000000000000000000000000000000000000000081526004016106f4906145d8565b60405180910390fd5b8060050160003373ffffffffffffffffffffffffffffffffffffffff1673ffffffffffffffffffffffffffffffffffffffff16815260200190815260200160002060009054906101000a900460ff161561078c576040517f08c379a000000000000000000000000000000000000000000000000000000000815260040161078390614644565b60405180910390fd5b8060060160003373ffffffffffffffffffffffffffffffffffffffff1673ffffffffffffffffffffffffffffffffffffffff16815260200190815260200160002060009054906101000a900460ff161561081b576040517f08c379a0000000000000000000000000000000000000000000000000000000008152600401610812906146b0565b60405180910390fd5b6000805b60038110156109a0573373ffffffffffffffffffffffffffffffffffffffff16600260008560000160009054906101000a900473ffffffffffffffffffffffffffffffffffffffff1673ffffffffffffffffffffffffffffffffffffffff1673ffffffffffffffffffffffffffffffffffffffff16815260200190815260200160002082600381106108b4576108b36146d0565b5b6004020160000160009054906101000a900473ffffffffffffffffffffffffffffffffffffffff1673ffffffffffffffffffffffffffffffffffffffff161480156109855750600260008460000160009054906101000a900473ffffffffffffffffffffffffffffffffffffffff1673ffffffffffffffffffffffffffffffffffffffff1673ffffffffffffffffffffffffffffffffffffffff168152602001908152602001600020816003811061096f5761096e6146d0565b5b6004020160030160009054906101000a900460ff165b1561099357600191506109a0565b808060010191505061081f565b50806109e1576040517f08c379a00000000000000000000000000000000000000000000000000000000081526004016109d89061474b565b60405180910390fd5b60018260060160003373ffffffffffffffffffffffffffffffffffffffff1673ffffffffffffffffffffffffffffffffffffffff16815260200190815260200160002060006101000a81548160ff0219169083151502179055503373ffffffffffffffffffffffffffffffffffffffff16837f1576f946762d7310dd831848199554fde91aa1bbc3bc2e8854f4f75c0a0d45f560405160405180910390a3505050565b60008054906101000a900473ffffffffffffffffffffffffffffffffffffffff1681565b60006004600083815260200190815260200160002090503373ffffffffffffffffffffffffffffffffffffffff168160000160009054906101000a900473ffffffffffffffffffffffffffffffffffffffff1673ffffffffffffffffffffffffffffffffffffffff1614610b51576040517f08c379a0000000000000000000000000000000000000000000000000000000008152600401610b48906147b7565b60405180910390fd5b600281600301541015610b99576040517f08c379a0000000000000000000000000000000000000000000000000000000008152600401610b9090614823565b60405180910390fd5b8060020154421115610be0576040517f08c379a0000000000000000000000000000000000000000000000000000000008152600401610bd790614500565b60405180910390fd5b8060040160009054906101000a900460ff1615610c32576040517f08c379a0000000000000000000000000000000000000000000000000000000008152600401610c299061456c565b60405180910390fd5b8060040160019054906101000a900460ff1615610c84576040517f08c379a0000000000000000000000000000000000000000000000000000000008152600401610c7b906145d8565b60405180910390fd5b60018160040160006101000a81548160ff0219169083151502179055506000801b600560003373ffffffffffffffffffffffffffffffffffffffff1673ffffffffffffffffffffffffffffffffffffffff16815260200190815260200160002081905550813373ffffffffffffffffffffffffffffffffffffffff167fa67d4ddb8fd5421b6545be86f660ea26809d6f47fe916c729df2f21bce3abed3604051610d2d9061488f565b60405180910390a35050565b6000600560008373ffffffffffffffffffffffffffffffffffffffff1673ffffffffffffffffffffffffffffffffffffffff168152602001908152602001600020549050919050565b600080600460008481526020019081526020016000209050600073ffffffffffffffffffffffffffffffffffffffff168160000160009054906101000a900473ffffffffffffffffffffffffffffffffffffffff1673ffffffffffffffffffffffffffffffffffffffff1614158015610e0057506002816003015410155b8015610e10575080600201544211155b8015610e2b57508060040160009054906101000a900460ff16155b8015610e4657508060040160019054906101000a900460ff16155b915050919050565b600381565b600060038060008473ffffffffffffffffffffffffffffffffffffffff1673ffffffffffffffffffffffffffffffffffffffff16815260200190815260200160002054149050919050565b60608060006004600085815260200190815260200160002090503373ffffffffffffffffffffffffffffffffffffffff168160000160009054906101000a900473ffffffffffffffffffffffffffffffffffffffff1673ffffffffffffffffffffffffffffffffffffffff1614610f4a576040517f08c379a0000000000000000000000000000000000000000000000000000000008152600401610f41906147b7565b60405180910390fd5b600281600301541015610f92576040517f08c379a0000000000000000000000000000000000000000000000000000000008152600401610f8990614823565b60405180910390fd5b8060020154421115610fd9576040517f08c379a0000000000000000000000000000000000000000000000000000000008152600401610fd090614500565b60405180910390fd5b8060040160009054906101000a900460ff161561102b576040517f08c379a00000000000000000000000000000000000000000000000000000000081526004016110229061456c565b60405180910390fd5b8060040160019054906101000a900460ff161561107d576040517f08c379a0000000000000000000000000000000000000000000000000000000008152600401611074906145d8565b60405180910390fd5b6000600160003373ffffffffffffffffffffffffffffffffffffffff1673ffffffffffffffffffffffffffffffffffffffff168152602001908152602001600020905080600f0160009054906101000a900460ff16611111576040517f08c379a0000000000000000000000000000000000000000000000000000000008152600401611108906148fb565b60405180910390fd5b80600c0181600d018180546111259061494a565b80601f01602080910402602001604051908101604052809291908181526020018280546111519061494a565b801561119e5780601f106111735761010080835404028352916020019161119e565b820191906000526020600020905b81548152906001019060200180831161118157829003601f168201915b505050505091508080546111b19061494a565b80601f01602080910402602001604051908101604052809291908181526020018280546111dd9061494a565b801561122a5780601f106111ff5761010080835404028352916020019161122a565b820191906000526020600020905b81548152906001019060200180831161120d57829003601f168201915b50505050509050935093505050915091565b60036020528060005260406000206000915090505481565b600281565b6000600160008373ffffffffffffffffffffffffffffffffffffffff1673ffffffffffffffffffffffffffffffffffffffff168152602001908152602001600020600f0160009054906101000a900460ff169050919050565b60006004600083815260200190815260200160002090503373ffffffffffffffffffffffffffffffffffffffff168160000160009054906101000a900473ffffffffffffffffffffffffffffffffffffffff1673ffffffffffffffffffffffffffffffffffffffff161461135b576040517f08c379a0000000000000000000000000000000000000000000000000000000008152600401611352906147b7565b60405180910390fd5b8060040160009054906101000a900460ff16156113ad576040517f08c379a00000000000000000000000000000000000000000000000000000000081526004016113a49061456c565b60405180910390fd5b8060040160019054906101000a900460ff16156113ff576040517f08c379a00000000000000000000000000000000000000000000000000000000081526004016113f6906149c7565b60405180910390fd5b60018160040160016101000a81548160ff0219169083151502179055506000801b600560003373ffffffffffffffffffffffffffffffffffffffff1673ffffffffffffffffffffffffffffffffffffffff16815260200190815260200160002081905550813373ffffffffffffffffffffffffffffffffffffffff167f5ec34f3f384538319a5eb81bc3f45fb37b28d5e456474f7a62318ef7a713094960405160405180910390a35050565b6000600460008481526020019081526020016000209050600073ffffffffffffffffffffffffffffffffffffffff168160000160009054906101000a900473ffffffffffffffffffffffffffffffffffffffff1673ffffffffffffffffffffffffffffffffffffffff1603611555576040517f08c379a000000000000000000000000000000000000000000000000000000000815260040161154c90614494565b60405180910390fd5b806002015442111561159c576040517f08c379a000000000000000000000000000000000000000000000000000000000815260040161159390614500565b60405180910390fd5b8060040160009054906101000a900460ff16156115ee576040517f08c379a00000000000000000000000000000000000000000000000000000000081526004016115e59061456c565b60405180910390fd5b8060040160019054906101000a900460ff1615611640576040517f08c379a0000000000000000000000000000000000000000000000000000000008152600401611637906145d8565b60405180910390fd5b8060050160003373ffffffffffffffffffffffffffffffffffffffff1673ffffffffffffffffffffffffffffffffffffffff16815260200190815260200160002060009054906101000a900460ff16156116cf576040517f08c379a00000000000000000000000000000000000000000000000000000000081526004016116c690614644565b60405180910390fd5b8060060160003373ffffffffffffffffffffffffffffffffffffffff1673ffffffffffffffffffffffffffffffffffffffff16815260200190815260200160002060009054906101000a900460ff161561175e576040517f08c379a0000000000000000000000000000000000000000000000000000000008152600401611755906146b0565b60405180910390fd5b60008251116117a2576040517f08c379a000000000000000000000000000000000000000000000000000000000815260040161179990614a33565b60405180910390fd5b6000805b6003811015611927573373ffffffffffffffffffffffffffffffffffffffff16600260008560000160009054906101000a900473ffffffffffffffffffffffffffffffffffffffff1673ffffffffffffffffffffffffffffffffffffffff1673ffffffffffffffffffffffffffffffffffffffff168152602001908152602001600020826003811061183b5761183a6146d0565b5b6004020160000160009054906101000a900473ffffffffffffffffffffffffffffffffffffffff1673ffffffffffffffffffffffffffffffffffffffff1614801561190c5750600260008460000160009054906101000a900473ffffffffffffffffffffffffffffffffffffffff1673ffffffffffffffffffffffffffffffffffffffff1673ffffffffffffffffffffffffffffffffffffffff16815260200190815260200160002081600381106118f6576118f56146d0565b5b6004020160030160009054906101000a900460ff165b1561191a5760019150611927565b80806001019150506117a6565b5080611968576040517f08c379a000000000000000000000000000000000000000000000000000000000815260040161195f9061474b565b60405180910390fd5b60018260050160003373ffffffffffffffffffffffffffffffffffffffff1673ffffffffffffffffffffffffffffffffffffffff16815260200190815260200160002060006101000a81548160ff0219169083151502179055508160030160008154809291906119d790614a82565b9190505550828260070160003373ffffffffffffffffffffffffffffffffffffffff1673ffffffffffffffffffffffffffffffffffffffff1681526020019081526020016000209081611a2a9190614c6c565b503373ffffffffffffffffffffffffffffffffffffffff16847f78293d4a1e4c76feb9d00d3130897b8c7551050d29e0438c00ffa122bfc51b2960405160405180910390a350505050565b6000600360003373ffffffffffffffffffffffffffffffffffffffff1673ffffffffffffffffffffffffffffffffffffffff1681526020019081526020016000205414611af7576040517f08c379a0000000000000000000000000000000000000000000000000000000008152600401611aee90614d8a565b60405180910390fd5b60008054906101000a900473ffffffffffffffffffffffffffffffffffffffff1673ffffffffffffffffffffffffffffffffffffffff1663ee437bed336040518263ffffffff1660e01b8152600401611b509190614daa565b602060405180830381865afa158015611b6d573d6000803e3d6000fd5b505050506040513d601f19601f82011682018060405250810190611b919190614df1565b611bd0576040517f08c379a0000000000000000000000000000000000000000000000000000000008152600401611bc790614e90565b60405180910390fd5b60005b6003811015611f7e57600073ffffffffffffffffffffffffffffffffffffffff16848260038110611c0757611c066146d0565b5b602002015173ffffffffffffffffffffffffffffffffffffffff1603611c62576040517f08c379a0000000000000000000000000000000000000000000000000000000008152600401611c5990614efc565b60405180910390fd5b3373ffffffffffffffffffffffffffffffffffffffff16848260038110611c8c57611c8b6146d0565b5b602002015173ffffffffffffffffffffffffffffffffffffffff1603611ce7576040517f08c379a0000000000000000000000000000000000000000000000000000000008152600401611cde90614f68565b60405180910390fd5b6000838260038110611cfc57611cfb6146d0565b5b60200201515111611d42576040517f08c379a0000000000000000000000000000000000000000000000000000000008152600401611d3990614fd4565b60405180910390fd5b6000600182611d519190614ff4565b90505b6003811015611e0657848160038110611d7057611d6f6146d0565b5b602002015173ffffffffffffffffffffffffffffffffffffffff16858360038110611d9e57611d9d6146d0565b5b602002015173ffffffffffffffffffffffffffffffffffffffff1603611df9576040517f08c379a0000000000000000000000000000000000000000000000000000000008152600401611df090615074565b60405180910390fd5b8080600101915050611d54565b506040518060800160405280858360038110611e2557611e246146d0565b5b602002015173ffffffffffffffffffffffffffffffffffffffff168152602001848360038110611e5857611e576146d0565b5b60200201518152602001838360038110611e7557611e746146d0565b5b6020020151815260200160011515815250600260003373ffffffffffffffffffffffffffffffffffffffff1673ffffffffffffffffffffffffffffffffffffffff1681526020019081526020016000208260038110611ed757611ed66146d0565b5b6004020160008201518160000160006101000a81548173ffffffffffffffffffffffffffffffffffffffff021916908373ffffffffffffffffffffffffffffffffffffffff1602179055506020820151816001019081611f379190614c6c565b506040820151816002019081611f4d9190614c6c565b5060608201518160030160006101000a81548160ff0219169083151502179055509050508080600101915050611bd3565b5060038060003373ffffffffffffffffffffffffffffffffffffffff1673ffffffffffffffffffffffffffffffffffffffff168152602001908152602001600020819055503373ffffffffffffffffffffffffffffffffffffffff167f7889dff8c28ef1f3177a1be3dbd12a78f220537f9a1c854a0cd23fc4c90c7592848460405161200b929190614319565b60405180910390a2505050565b60008060006004600086815260200190815260200160002090508060050160008573ffffffffffffffffffffffffffffffffffffffff1673ffffffffffffffffffffffffffffffffffffffff16815260200190815260200160002060009054906101000a900460ff168160060160008673ffffffffffffffffffffffffffffffffffffffff1673ffffffffffffffffffffffffffffffffffffffff16815260200190815260200160002060009054906101000a900460ff1692509250509250929050565b6201518081565b6000600160003373ffffffffffffffffffffffffffffffffffffffff1673ffffffffffffffffffffffffffffffffffffffff168152602001908152602001600020600f0160009054906101000a900460ff16612174576040517f08c379a000000000000000000000000000000000000000000000000000000000815260040161216b906148fb565b60405180910390fd5b6000801b600560003373ffffffffffffffffffffffffffffffffffffffff1673ffffffffffffffffffffffffffffffffffffffff16815260200190815260200160002054146121f8576040517f08c379a00000000000000000000000000000000000000000000000000000000081526004016121ef906150e0565b60405180910390fd5b600033424360405160200161220f93929190615169565b6040516020818303038152906040528051906020012090506000600460008381526020019081526020016000209050338160000160006101000a81548173ffffffffffffffffffffffffffffffffffffffff021916908373ffffffffffffffffffffffffffffffffffffffff16021790555042816001018190555062015180426122999190614ff4565b81600201819055506000816003018190555060008160040160006101000a81548160ff02191690831515021790555060008160040160016101000a81548160ff02191690831515021790555081600560003373ffffffffffffffffffffffffffffffffffffffff1673ffffffffffffffffffffffffffffffffffffffff16815260200190815260200160002081905550813373ffffffffffffffffffffffffffffffffffffffff167f4a98ee08ba9a21d0c343ebc04472ef935e634609b3dd008baf4a0f3aa41b3c9283600201546040516123749190613a17565b60405180910390a3819250505090565b60008060008060008060006004600089815260200190815260200160002090508060000160009054906101000a900473ffffffffffffffffffffffffffffffffffffffff168160010154826002015483600301548460040160009054906101000a900460ff168560040160019054906101000a900460ff169650965096509650965096505091939550919395565b60606000600460008481526020019081526020016000209050600073ffffffffffffffffffffffffffffffffffffffff168160000160009054906101000a900473ffffffffffffffffffffffffffffffffffffffff1673ffffffffffffffffffffffffffffffffffffffff16036124be576040517f08c379a00000000000000000000000000000000000000000000000000000000081526004016124b590614494565b60405180910390fd5b6000600160008360000160009054906101000a900473ffffffffffffffffffffffffffffffffffffffff1673ffffffffffffffffffffffffffffffffffffffff1673ffffffffffffffffffffffffffffffffffffffff168152602001908152602001600020905080600f0160009054906101000a900460ff16612576576040517f08c379a000000000000000000000000000000000000000000000000000000000815260040161256d906148fb565b60405180910390fd5b6000805b600381101561263d573373ffffffffffffffffffffffffffffffffffffffff168360000182600381106125b0576125af6146d0565b5b6004020160000160009054906101000a900473ffffffffffffffffffffffffffffffffffffffff1673ffffffffffffffffffffffffffffffffffffffff16148015612622575082600001816003811061260c5761260b6146d0565b5b6004020160030160009054906101000a900460ff165b15612630576001915061263d565b808060010191505061257a565b508061267e576040517f08c379a00000000000000000000000000000000000000000000000000000000081526004016126759061474b565b60405180910390fd5b81600e0160003373ffffffffffffffffffffffffffffffffffffffff1673ffffffffffffffffffffffffffffffffffffffff16815260200190815260200160002080546126ca9061494a565b80601f01602080910402602001604051908101604052809291908181526020018280546126f69061494a565b80156127435780601f1061271857610100808354040283529160200191612743565b820191906000526020600020905b81548152906001019060200180831161272657829003601f168201915b50505050509350505050919050565b6002602052816000526040600020816003811061276e57600080fd5b60040201600091509150508060000160009054906101000a900473ffffffffffffffffffffffffffffffffffffffff16908060010180546127ae9061494a565b80601f01602080910402602001604051908101604052809291908181526020018280546127da9061494a565b80156128275780601f106127fc57610100808354040283529160200191612827565b820191906000526020600020905b81548152906001019060200180831161280a57829003601f168201915b50505050509080600201805461283c9061494a565b80601f01602080910402602001604051908101604052809291908181526020018280546128689061494a565b80156128b55780601f1061288a576101008083540402835291602001916128b5565b820191906000526020600020905b81548152906001019060200180831161289857829003601f168201915b5050505050908060030160009054906101000a900460ff16905084565b60046020528060005260406000206000915090508060000160009054906101000a900473ffffffffffffffffffffffffffffffffffffffff16908060010154908060020154908060030154908060040160009054906101000a900460ff16908060040160019054906101000a900460ff16905086565b600160003373ffffffffffffffffffffffffffffffffffffffff1673ffffffffffffffffffffffffffffffffffffffff168152602001908152602001600020600f0160009054906101000a900460ff16156129d8576040517f08c379a00000000000000000000000000000000000000000000000000000000081526004016129cf906151f2565b60405180910390fd5b60008054906101000a900473ffffffffffffffffffffffffffffffffffffffff1673ffffffffffffffffffffffffffffffffffffffff1663ee437bed336040518263ffffffff1660e01b8152600401612a319190614daa565b602060405180830381865afa158015612a4e573d6000803e3d6000fd5b505050506040513d601f19601f82011682018060405250810190612a729190614df1565b612ab1576040517f08c379a0000000000000000000000000000000000000000000000000000000008152600401612aa890614e90565b60405180910390fd5b6000835111612af5576040517f08c379a0000000000000000000000000000000000000000000000000000000008152600401612aec90615284565b60405180910390fd5b6000825111612b39576040517f08c379a0000000000000000000000000000000000000000000000000000000008152600401612b30906152f0565b60405180910390fd5b6000600160003373ffffffffffffffffffffffffffffffffffffffff1673ffffffffffffffffffffffffffffffffffffffff168152602001908152602001600020905060005b60038110156130f757600073ffffffffffffffffffffffffffffffffffffffff16888260038110612bb357612bb26146d0565b5b602002015173ffffffffffffffffffffffffffffffffffffffff1603612c0e576040517f08c379a0000000000000000000000000000000000000000000000000000000008152600401612c0590614efc565b60405180910390fd5b3373ffffffffffffffffffffffffffffffffffffffff16888260038110612c3857612c376146d0565b5b602002015173ffffffffffffffffffffffffffffffffffffffff1603612c93576040517f08c379a0000000000000000000000000000000000000000000000000000000008152600401612c8a90614f68565b60405180910390fd5b6000878260038110612ca857612ca76146d0565b5b60200201515111612cee576040517f08c379a0000000000000000000000000000000000000000000000000000000008152600401612ce590614fd4565b60405180910390fd5b6000838260038110612d0357612d026146d0565b5b60200201515111612d49576040517f08c379a0000000000000000000000000000000000000000000000000000000008152600401612d409061535c565b60405180910390fd5b6000600182612d589190614ff4565b90505b6003811015612e0d57888160038110612d7757612d766146d0565b5b602002015173ffffffffffffffffffffffffffffffffffffffff16898360038110612da557612da46146d0565b5b602002015173ffffffffffffffffffffffffffffffffffffffff1603612e00576040517f08c379a0000000000000000000000000000000000000000000000000000000008152600401612df790615074565b60405180910390fd5b8080600101915050612d5b565b506040518060800160405280898360038110612e2c57612e2b6146d0565b5b602002015173ffffffffffffffffffffffffffffffffffffffff168152602001888360038110612e5f57612e5e6146d0565b5b60200201518152602001878360038110612e7c57612e7b6146d0565b5b6020020151815260200160011515815250826000018260038110612ea357612ea26146d0565b5b6004020160008201518160000160006101000a81548173ffffffffffffffffffffffffffffffffffffffff021916908373ffffffffffffffffffffffffffffffffffffffff1602179055506020820151816001019081612f039190614c6c565b506040820151816002019081612f199190614c6c565b5060608201518160030160006101000a81548160ff021916908315150217905550905050828160038110612f5057612f4f6146d0565b5b602002015182600e0160008a8460038110612f6e57612f6d6146d0565b5b602002015173ffffffffffffffffffffffffffffffffffffffff1673ffffffffffffffffffffffffffffffffffffffff1681526020019081526020016000209081612fb99190614c6c565b50816000018160038110612fd057612fcf6146d0565b5b60040201600260003373ffffffffffffffffffffffffffffffffffffffff1673ffffffffffffffffffffffffffffffffffffffff1681526020019081526020016000208260038110613025576130246146d0565b5b600402016000820160009054906101000a900473ffffffffffffffffffffffffffffffffffffffff168160000160006101000a81548173ffffffffffffffffffffffffffffffffffffffff021916908373ffffffffffffffffffffffffffffffffffffffff160217905550600182018160010190816130a49190615392565b50600282018160020190816130b99190615392565b506003820160009054906101000a900460ff168160030160006101000a81548160ff0219169083151502179055509050508080600101915050612b7f565b508381600c0190816131099190614c6c565b508281600d01908161311b9190614c6c565b50600181600f0160006101000a81548160ff02191690831515021790555060038060003373ffffffffffffffffffffffffffffffffffffffff1673ffffffffffffffffffffffffffffffffffffffff168152602001908152602001600020819055503373ffffffffffffffffffffffffffffffffffffffff167f547d9a3aecf15fa3dc041f70b5d0468e499d65e0f8790d14ce2a5515827ce06d88886040516131c5929190614319565b60405180910390a250505050505050565b6131de6137b7565b6131e66137d9565b60006004600085815260200190815260200160002090503373ffffffffffffffffffffffffffffffffffffffff168160000160009054906101000a900473ffffffffffffffffffffffffffffffffffffffff1673ffffffffffffffffffffffffffffffffffffffff161461328f576040517f08c379a0000000000000000000000000000000000000000000000000000000008152600401613286906147b7565b60405180910390fd5b6002816003015410156132d7576040517f08c379a00000000000000000000000000000000000000000000000000000000081526004016132ce90614823565b60405180910390fd5b6000600160003373ffffffffffffffffffffffffffffffffffffffff1673ffffffffffffffffffffffffffffffffffffffff168152602001908152602001600020905060005b60038110156134a657600082600001826003811061333e5761333d6146d0565b5b6004020160000160009054906101000a900473ffffffffffffffffffffffffffffffffffffffff1690508086836003811061337c5761337b6146d0565b5b602002019073ffffffffffffffffffffffffffffffffffffffff16908173ffffffffffffffffffffffffffffffffffffffff16815250508360070160008273ffffffffffffffffffffffffffffffffffffffff1673ffffffffffffffffffffffffffffffffffffffff16815260200190815260200160002080546133ff9061494a565b80601f016020809104026020016040519081016040528092919081815260200182805461342b9061494a565b80156134785780601f1061344d57610100808354040283529160200191613478565b820191906000526020600020905b81548152906001019060200180831161345b57829003601f168201915b50505050508583600381106134905761348f6146d0565b5b602002018190525050808060010191505061331d565b505050915091565b6134b66137b7565b6134be6137d9565b6134c66137d9565b6134ce613800565b60005b6003811015613797576000600260008873ffffffffffffffffffffffffffffffffffffffff1673ffffffffffffffffffffffffffffffffffffffff168152602001908152602001600020826003811061352d5761352c6146d0565b5b600402016040518060800160405290816000820160009054906101000a900473ffffffffffffffffffffffffffffffffffffffff1673ffffffffffffffffffffffffffffffffffffffff1673ffffffffffffffffffffffffffffffffffffffff1681526020016001820180546135a29061494a565b80601f01602080910402602001604051908101604052809291908181526020018280546135ce9061494a565b801561361b5780601f106135f05761010080835404028352916020019161361b565b820191906000526020600020905b8154815290600101906020018083116135fe57829003601f168201915b505050505081526020016002820180546136349061494a565b80601f01602080910402602001604051908101604052809291908181526020018280546136609061494a565b80156136ad5780601f10613682576101008083540402835291602001916136ad565b820191906000526020600020905b81548152906001019060200180831161369057829003601f168201915b505050505081526020016003820160009054906101000a900460ff161515151581525050905080600001518683600381106136eb576136ea6146d0565b5b602002019073ffffffffffffffffffffffffffffffffffffffff16908173ffffffffffffffffffffffffffffffffffffffff1681525050806020015185836003811061373a576137396146d0565b5b6020020181905250806040015184836003811061375a576137596146d0565b5b6020020181905250806060015183836003811061377a576137796146d0565b5b6020020190151590811515815250505080806001019150506134d1565b509193509193565b60056020528060005260406000206000915090505481565b6040518060600160405280600390602082028036833780820191505090505090565b60405180606001604052806003905b60608152602001906001900390816137e85790505090565b6040518060600160405280600390602082028036833780820191505090505090565b6000604051905090565b600080fd5b600080fd5b6000819050919050565b61384981613836565b811461385457600080fd5b50565b60008135905061386681613840565b92915050565b6000602082840312156138825761388161382c565b5b600061389084828501613857565b91505092915050565b600073ffffffffffffffffffffffffffffffffffffffff82169050919050565b6000819050919050565b60006138de6138d96138d484613899565b6138b9565b613899565b9050919050565b60006138f0826138c3565b9050919050565b6000613902826138e5565b9050919050565b613912816138f7565b82525050565b600060208201905061392d6000830184613909565b92915050565b600061393e82613899565b9050919050565b61394e81613933565b811461395957600080fd5b50565b60008135905061396b81613945565b92915050565b6000602082840312156139875761398661382c565b5b60006139958482850161395c565b91505092915050565b6139a781613836565b82525050565b60006020820190506139c2600083018461399e565b92915050565b60008115159050919050565b6139dd816139c8565b82525050565b60006020820190506139f860008301846139d4565b92915050565b6000819050919050565b613a11816139fe565b82525050565b6000602082019050613a2c6000830184613a08565b92915050565b600081519050919050565b600082825260208201905092915050565b60005b83811015613a6c578082015181840152602081019050613a51565b60008484015250505050565b6000601f19601f8301169050919050565b6000613a9482613a32565b613a9e8185613a3d565b9350613aae818560208601613a4e565b613ab781613a78565b840191505092915050565b60006040820190508181036000830152613adc8185613a89565b90508181036020830152613af08184613a89565b90509392505050565b600080fd5b600080fd5b7f4e487b7100000000000000000000000000000000000000000000000000000000600052604160045260246000fd5b613b3b82613a78565b810181811067ffffffffffffffff82111715613b5a57613b59613b03565b5b80604052505050565b6000613b6d613822565b9050613b798282613b32565b919050565b600067ffffffffffffffff821115613b9957613b98613b03565b5b613ba282613a78565b9050602081019050919050565b82818337600083830152505050565b6000613bd1613bcc84613b7e565b613b63565b905082815260208101848484011115613bed57613bec613afe565b5b613bf8848285613baf565b509392505050565b600082601f830112613c1557613c14613af9565b5b8135613c25848260208601613bbe565b91505092915050565b60008060408385031215613c4557613c4461382c565b5b6000613c5385828601613857565b925050602083013567ffffffffffffffff811115613c7457613c73613831565b5b613c8085828601613c00565b9150509250929050565b600067ffffffffffffffff821115613ca557613ca4613b03565b5b602082029050919050565b600080fd5b6000613cc8613cc384613c8a565b613b63565b90508060208402830185811115613ce257613ce1613cb0565b5b835b81811015613d0b5780613cf7888261395c565b845260208401935050602081019050613ce4565b5050509392505050565b600082601f830112613d2a57613d29613af9565b5b6003613d37848285613cb5565b91505092915050565b600067ffffffffffffffff821115613d5b57613d5a613b03565b5b602082029050919050565b6000613d79613d7484613d40565b613b63565b90508060208402830185811115613d9357613d92613cb0565b5b835b81811015613dda57803567ffffffffffffffff811115613db857613db7613af9565b5b808601613dc58982613c00565b85526020850194505050602081019050613d95565b5050509392505050565b600082601f830112613df957613df8613af9565b5b6003613e06848285613d66565b91505092915050565b600080600060a08486031215613e2857613e2761382c565b5b6000613e3686828701613d15565b935050606084013567ffffffffffffffff811115613e5757613e56613831565b5b613e6386828701613de4565b925050608084013567ffffffffffffffff811115613e8457613e83613831565b5b613e9086828701613de4565b9150509250925092565b60008060408385031215613eb157613eb061382c565b5b6000613ebf85828601613857565b9250506020613ed08582860161395c565b9150509250929050565b6000604082019050613eef60008301856139d4565b613efc60208301846139d4565b9392505050565b613f0c81613933565b82525050565b600060c082019050613f276000830189613f03565b613f346020830188613a08565b613f416040830187613a08565b613f4e6060830186613a08565b613f5b60808301856139d4565b613f6860a08301846139d4565b979650505050505050565b60006020820190508181036000830152613f8d8184613a89565b905092915050565b613f9e816139fe565b8114613fa957600080fd5b50565b600081359050613fbb81613f95565b92915050565b60008060408385031215613fd857613fd761382c565b5b6000613fe68582860161395c565b9250506020613ff785828601613fac565b9150509250929050565b60006080820190506140166000830187613f03565b81810360208301526140288186613a89565b9050818103604083015261403c8185613a89565b905061404b60608301846139d4565b95945050505050565b60008060008060008061010087890312156140725761407161382c565b5b600061408089828a01613d15565b965050606087013567ffffffffffffffff8111156140a1576140a0613831565b5b6140ad89828a01613de4565b955050608087013567ffffffffffffffff8111156140ce576140cd613831565b5b6140da89828a01613de4565b94505060a087013567ffffffffffffffff8111156140fb576140fa613831565b5b61410789828a01613c00565b93505060c087013567ffffffffffffffff81111561412857614127613831565b5b61413489828a01613c00565b92505060e087013567ffffffffffffffff81111561415557614154613831565b5b61416189828a01613de4565b9150509295509295509295565b600060039050919050565b600081905092915050565b6000819050919050565b61419781613933565b82525050565b60006141a9838361418e565b60208301905092915050565b6000602082019050919050565b6141cb8161416e565b6141d58184614179565b92506141e082614184565b8060005b838110156142115781516141f8878261419d565b9650614203836141b5565b9250506001810190506141e4565b505050505050565b600060039050919050565b600081905092915050565b6000819050919050565b600082825260208201905092915050565b600061425582613a32565b61425f8185614239565b935061426f818560208601613a4e565b61427881613a78565b840191505092915050565b600061428f838361424a565b905092915050565b6000602082019050919050565b60006142af82614219565b6142b98185614224565b9350836020820285016142cb8561422f565b8060005b8581101561430757848403895281516142e88582614283565b94506142f383614297565b925060208a019950506001810190506142cf565b50829750879550505050505092915050565b600060808201905061432e60008301856141c2565b818103606083015261434081846142a4565b90509392505050565b600060039050919050565b600081905092915050565b6000819050919050565b614372816139c8565b82525050565b60006143848383614369565b60208301905092915050565b6000602082019050919050565b6143a681614349565b6143b08184614354565b92506143bb8261435f565b8060005b838110156143ec5781516143d38782614378565b96506143de83614390565b9250506001810190506143bf565b505050505050565b60006101008201905061440a60008301876141c2565b818103606083015261441c81866142a4565b9050818103608083015261443081856142a4565b905061443f60a083018461439d565b95945050505050565b7f496e76616c6964207265636f7665727920726571756573740000000000000000600082015250565b600061447e601883613a3d565b915061448982614448565b602082019050919050565b600060208201905081810360008301526144ad81614471565b9050919050565b7f5265636f76657279207265717565737420657870697265640000000000000000600082015250565b60006144ea601883613a3d565b91506144f5826144b4565b602082019050919050565b60006020820190508181036000830152614519816144dd565b9050919050565b7f5265636f7665727920616c726561647920636f6d706c65746564000000000000600082015250565b6000614556601a83613a3d565b915061456182614520565b602082019050919050565b6000602082019050818103600083015261458581614549565b9050919050565b7f5265636f7665727920726571756573742063616e63656c6c6564000000000000600082015250565b60006145c2601a83613a3d565b91506145cd8261458c565b602082019050919050565b600060208201905081810360008301526145f1816145b5565b9050919050565b7f416c726561647920617070726f76656400000000000000000000000000000000600082015250565b600061462e601083613a3d565b9150614639826145f8565b602082019050919050565b6000602082019050818103600083015261465d81614621565b9050919050565b7f416c72656164792072656a656374656400000000000000000000000000000000600082015250565b600061469a601083613a3d565b91506146a582614664565b602082019050919050565b600060208201905081810360008301526146c98161468d565b9050919050565b7f4e487b7100000000000000000000000000000000000000000000000000000000600052603260045260246000fd5b7f4e6f742061207265676973746572656420677561726469616e00000000000000600082015250565b6000614735601983613a3d565b9150614740826146ff565b602082019050919050565b6000602082019050818103600083015261476481614728565b9050919050565b7f4e6f742072657175657374206f776e6572000000000000000000000000000000600082015250565b60006147a1601183613a3d565b91506147ac8261476b565b602082019050919050565b600060208201905081810360008301526147d081614794565b9050919050565b7f4e6f7420656e6f75676820617070726f76616c73000000000000000000000000600082015250565b600061480d601483613a3d565b9150614818826147d7565b602082019050919050565b6000602082019050818103600083015261483c81614800565b9050919050565b7f5353535f5245434f564552595f434f4d504c4554450000000000000000000000600082015250565b6000614879601583613a3d565b915061488482614843565b602082019050919050565b600060208201905081810360008301526148a88161486c565b9050919050565b7f4e6f20677561726469616e206461746120736574000000000000000000000000600082015250565b60006148e5601483613a3d565b91506148f0826148af565b602082019050919050565b60006020820190508181036000830152614914816148d8565b9050919050565b7f4e487b7100000000000000000000000000000000000000000000000000000000600052602260045260246000fd5b6000600282049050600182168061496257607f821691505b6020821081036149755761497461491b565b5b50919050565b7f5265636f7665727920616c72656164792063616e63656c6c6564000000000000600082015250565b60006149b1601a83613a3d565b91506149bc8261497b565b602082019050919050565b600060208201905081810360008301526149e0816149a4565b9050919050565b7f4465637279707465642073686172652063616e6e6f7420626520656d70747900600082015250565b6000614a1d601f83613a3d565b9150614a28826149e7565b602082019050919050565b60006020820190508181036000830152614a4c81614a10565b9050919050565b7f4e487b7100000000000000000000000000000000000000000000000000000000600052601160045260246000fd5b6000614a8d826139fe565b91507fffffffffffffffffffffffffffffffffffffffffffffffffffffffffffffffff8203614abf57614abe614a53565b5b600182019050919050565b60008190508160005260206000209050919050565b60006020601f8301049050919050565b600082821b905092915050565b600060088302614b2c7fffffffffffffffffffffffffffffffffffffffffffffffffffffffffffffffff82614aef565b614b368683614aef565b95508019841693508086168417925050509392505050565b6000614b69614b64614b5f846139fe565b6138b9565b6139fe565b9050919050565b6000819050919050565b614b8383614b4e565b614b97614b8f82614b70565b848454614afc565b825550505050565b600090565b614bac614b9f565b614bb7818484614b7a565b505050565b5b81811015614bdb57614bd0600082614ba4565b600181019050614bbd565b5050565b601f821115614c2057614bf181614aca565b614bfa84614adf565b81016020851015614c09578190505b614c1d614c1585614adf565b830182614bbc565b50505b505050565b600082821c905092915050565b6000614c4360001984600802614c25565b1980831691505092915050565b6000614c5c8383614c32565b9150826002028217905092915050565b614c7582613a32565b67ffffffffffffffff811115614c8e57614c8d613b03565b5b614c98825461494a565b614ca3828285614bdf565b600060209050601f831160018114614cd65760008415614cc4578287015190505b614cce8582614c50565b865550614d36565b601f198416614ce486614aca565b60005b82811015614d0c57848901518255600182019150602085019450602081019050614ce7565b86831015614d295784890151614d25601f891682614c32565b8355505b6001600288020188555050505b505050505050565b7f477561726469616e7320616c7265616479207365740000000000000000000000600082015250565b6000614d74601583613a3d565b9150614d7f82614d3e565b602082019050919050565b60006020820190508181036000830152614da381614d67565b9050919050565b6000602082019050614dbf6000830184613f03565b92915050565b614dce816139c8565b8114614dd957600080fd5b50565b600081519050614deb81614dc5565b92915050565b600060208284031215614e0757614e0661382c565b5b6000614e1584828501614ddc565b91505092915050565b7f55736572206d757374207265676973746572207075626c6963206b657920666960008201527f7273740000000000000000000000000000000000000000000000000000000000602082015250565b6000614e7a602383613a3d565b9150614e8582614e1e565b604082019050919050565b60006020820190508181036000830152614ea981614e6d565b9050919050565b7f496e76616c696420677561726469616e20616464726573730000000000000000600082015250565b6000614ee6601883613a3d565b9150614ef182614eb0565b602082019050919050565b60006020820190508181036000830152614f1581614ed9565b9050919050565b7f43616e6e6f74207365742073656c6620617320677561726469616e0000000000600082015250565b6000614f52601b83613a3d565b9150614f5d82614f1c565b602082019050919050565b60006020820190508181036000830152614f8181614f45565b9050919050565b7f477561726469616e206e616d652063616e6e6f7420626520656d707479000000600082015250565b6000614fbe601d83613a3d565b9150614fc982614f88565b602082019050919050565b60006020820190508181036000830152614fed81614fb1565b9050919050565b6000614fff826139fe565b915061500a836139fe565b925082820190508082111561502257615021614a53565b5b92915050565b7f4475706c696361746520677561726469616e2061646472657373000000000000600082015250565b600061505e601a83613a3d565b915061506982615028565b602082019050919050565b6000602082019050818103600083015261508d81615051565b9050919050565b7f5265636f7665727920616c726561647920696e2070726f677265737300000000600082015250565b60006150ca601c83613a3d565b91506150d582615094565b602082019050919050565b600060208201905081810360008301526150f9816150bd565b9050919050565b60008160601b9050919050565b600061511882615100565b9050919050565b600061512a8261510d565b9050919050565b61514261513d82613933565b61511f565b82525050565b6000819050919050565b61516361515e826139fe565b615148565b82525050565b60006151758286615131565b6014820191506151858285615152565b6020820191506151958284615152565b602082019150819050949350505050565b7f477561726469616e206461746120616c72656164792073657400000000000000600082015250565b60006151dc601983613a3d565b91506151e7826151a6565b602082019050919050565b6000602082019050818103600083015261520b816151cf565b9050919050565b7f456e637279707465642070726976617465206b65792063616e6e6f742062652060008201527f656d707479000000000000000000000000000000000000000000000000000000602082015250565b600061526e602583613a3d565b915061527982615212565b604082019050919050565b6000602082019050818103600083015261529d81615261565b9050919050565b7f49562063616e6e6f7420626520656d7074790000000000000000000000000000600082015250565b60006152da601283613a3d565b91506152e5826152a4565b602082019050919050565b60006020820190508181036000830152615309816152cd565b9050919050565b7f477561726469616e2073686172652063616e6e6f7420626520656d7074790000600082015250565b6000615346601e83613a3d565b915061535182615310565b602082019050919050565b6000602082019050818103600083015261537581615339565b9050919050565b60008154905061538b8161494a565b9050919050565b8181036153a0575050615478565b6153a98261537c565b67ffffffffffffffff8111156153c2576153c1613b03565b5b6153cc825461494a565b6153d7828285614bdf565b6000601f83116001811461540657600084156153f4578287015490505b6153fe8582614c50565b865550615471565b601f19841661541487614aca565b965061541f86614aca565b60005b8281101561544757848901548255600182019150600185019450602081019050615422565b868310156154645784890154615460601f891682614c32565b8355505b6001600288020188555050505b5050505050505b56fea26469706673582212208df04f26098b129359d83d5da3262678e5720277a79ebdd310b54efbeae447e064736f6c634300081c0033",
  "linkReferences": {},
  "deployedLinkReferences": {}
}