{
  "_format": "hh-sol-artifact-1",
  "contractName": "KeyRecovery",
  "sourceName": "contracts/KeyRecovery.sol",
  "abi": [
    {
      "inputs": [
        {
          "internalType": "address",
          "name": "_keyRegistryAddress",
          "type": "address"
        }
      ],
      "stateMutability": "nonpayable",
      "type": "constructor"
    },
    {
      "anonymous": false,
      "inputs": [
        {
          "indexed": true,
          "internalType": "address",
          "name": "user",
          "type": "address"
        },
        {
          "indexed": false,
          "internalType": "address[3]",
          "name": "guardians",
          "type": "address[3]"
        },
        {
          "indexed": false,
          "internalType": "string[3]",
          "name": "names",
          "type": "string[3]"
        }
      ],
      "name": "GuardiansSet",
      "type": "event"
    },
    {
      "anonymous": false,
      "inputs": [
        {
          "indexed": true,
          "internalType": "bytes32",
          "name": "requestId",
          "type": "bytes32"
        },
        {
          "indexed": true,
          "internalType": "address",
          "name": "guardian",
          "type": "address"
        }
      ],
      "name": "RecoveryApproved",
      "type": "event"
    },
    {
      "anonymous": false,
      "inputs": [
        {
          "indexed": true,
          "internalType": "address",
          "name": "user",
          "type": "address"
        },
        {
          "indexed": true,
          "internalType": "bytes32",
          "name": "requestId",
          "type": "bytes32"
        }
      ],
      "name": "RecoveryCancelled",
      "type": "event"
    },
    {
      "anonymous": false,
      "inputs": [
        {
          "indexed": true,
          "internalType": "address",
          "name": "user",
          "type": "address"
        },
        {
          "indexed": true,
          "internalType": "bytes32",
          "name": "requestId",
          "type": "bytes32"
        },
        {
          "indexed": false,
          "internalType": "string",
          "name": "newPublicKey",
          "type": "string"
        }
      ],
      "name": "RecoveryCompleted",
      "type": "event"
    },
    {
      "anonymous": false,
      "inputs": [
        {
          "indexed": true,
          "internalType": "bytes32",
          "name": "requestId",
          "type": "bytes32"
        },
        {
          "indexed": true,
          "internalType": "address",
          "name": "guardian",
          "type": "address"
        }
      ],
      "name": "RecoveryRejected",
      "type": "event"
    },
    {
      "anonymous": false,
      "inputs": [
        {
          "indexed": true,
          "internalType": "address",
          "name": "user",
          "type": "address"
        },
        {
          "indexed": true,
          "internalType": "bytes32",
          "name": "requestId",
          "type": "bytes32"
        },
        {
          "indexed": false,
          "internalType": "uint256",
          "name": "expiryTime",
          "type": "uint256"
        }
      ],
      "name": "RecoveryRequested",
      "type": "event"
    },
    {
      "inputs": [],
      "name": "MAX_GUARDIANS",
      "outputs": [
        {
          "internalType": "uint256",
          "name": "",
          "type": "uint256"
        }
      ],
      "stateMutability": "view",
      "type": "function"
    },
    {
      "inputs": [],
      "name": "RECOVERY_DURATION",
      "outputs": [
        {
          "internalType": "uint256",
          "name": "",
          "type": "uint256"
        }
      ],
      "stateMutability": "view",
      "type": "function"
    },
    {
      "inputs": [],
      "name": "REQUIRED_APPROVALS",
      "outputs": [
        {
          "internalType": "uint256",
          "name": "",
          "type": "uint256"
        }
      ],
      "stateMutability": "view",
      "type": "function"
    },
    {
      "inputs": [
        {
          "internalType": "address",
          "name": "",
          "type": "address"
        }
      ],
      "name": "activeRecoveryRequest",
      "outputs": [
        {
          "internalType": "bytes32",
          "name": "",
          "type": "bytes32"
        }
      ],
      "stateMutability": "view",
      "type": "function"
    },
    {
      "inputs": [
        {
          "internalType": "bytes32",
          "name": "_requestId",
          "type": "bytes32"
        }
      ],
      "name": "approveRecovery",
      "outputs": [],
      "stateMutability": "nonpayable",
      "type": "function"
    },
    {
      "inputs": [
        {
          "internalType": "bytes32",
          "name": "_requestId",
          "type": "bytes32"
        }
      ],
      "name": "canCompleteRecovery",
      "outputs": [
        {
          "internalType": "bool",
          "name": "",
          "type": "bool"
        }
      ],
      "stateMutability": "view",
      "type": "function"
    },
    {
      "inputs": [
        {
          "internalType": "bytes32",
          "name": "_requestId",
          "type": "bytes32"
        }
      ],
      "name": "cancelRecovery",
      "outputs": [],
      "stateMutability": "nonpayable",
      "type": "function"
    },
    {
      "inputs": [
        {
          "internalType": "bytes32",
          "name": "_requestId",
          "type": "bytes32"
        },
        {
          "internalType": "string",
          "name": "_newPublicKey",
          "type": "string"
        }
      ],
      "name": "completeRecovery",
      "outputs": [],
      "stateMutability": "nonpayable",
      "type": "function"
    },
    {
      "inputs": [
        {
          "internalType": "address",
          "name": "_user",
          "type": "address"
        }
      ],
      "name": "getActiveRecoveryRequest",
      "outputs": [
        {
          "internalType": "bytes32",
          "name": "",
          "type": "bytes32"
        }
      ],
      "stateMutability": "view",
      "type": "function"
    },
    {
      "inputs": [
        {
          "internalType": "bytes32",
          "name": "_requestId",
          "type": "bytes32"
        },
        {
          "internalType": "address",
          "name": "_guardian",
          "type": "address"
        }
      ],
      "name": "getGuardianResponse",
      "outputs": [
        {
          "internalType": "bool",
          "name": "hasApproved",
          "type": "bool"
        },
        {
          "internalType": "bool",
          "name": "hasRejected",
          "type": "bool"
        }
      ],
      "stateMutability": "view",
      "type": "function"
    },
    {
      "inputs": [
        {
          "internalType": "address",
          "name": "_user",
          "type": "address"
        }
      ],
      "name": "getGuardians",
      "outputs": [
        {
          "internalType": "address[3]",
          "name": "addresses",
          "type": "address[3]"
        },
        {
          "internalType": "string[3]",
          "name": "names",
          "type": "string[3]"
        },
        {
          "internalType": "string[3]",
          "name": "contacts",
          "type": "string[3]"
        },
        {
          "internalType": "bool[3]",
          "name": "isActive",
          "type": "bool[3]"
        }
      ],
      "stateMutability": "view",
      "type": "function"
    },
    {
      "inputs": [
        {
          "internalType": "bytes32",
          "name": "_requestId",
          "type": "bytes32"
        }
      ],
      "name": "getRecoveryStatus",
      "outputs": [
        {
          "internalType": "address",
          "name": "user",
          "type": "address"
        },
        {
          "internalType": "uint256",
          "name": "timestamp",
          "type": "uint256"
        },
        {
          "internalType": "uint256",
          "name": "expiryTime",
          "type": "uint256"
        },
        {
          "internalType": "uint256",
          "name": "approvalCount",
          "type": "uint256"
        },
        {
          "internalType": "bool",
          "name": "isCompleted",
          "type": "bool"
        },
        {
          "internalType": "bool",
          "name": "isCancelled",
          "type": "bool"
        }
      ],
      "stateMutability": "view",
      "type": "function"
    },
    {
      "inputs": [
        {
          "internalType": "address",
          "name": "",
          "type": "address"
        }
      ],
      "name": "guardianCount",
      "outputs": [
        {
          "internalType": "uint256",
          "name": "",
          "type": "uint256"
        }
      ],
      "stateMutability": "view",
      "type": "function"
    },
    {
      "inputs": [
        {
          "internalType": "address",
          "name": "_user",
          "type": "address"
        }
      ],
      "name": "hasGuardians",
      "outputs": [
        {
          "internalType": "bool",
          "name": "",
          "type": "bool"
        }
      ],
      "stateMutability": "view",
      "type": "function"
    },
    {
      "inputs": [],
      "name": "keyRegistry",
      "outputs": [
        {
          "internalType": "contract KeyRegistry",
          "name": "",
          "type": "address"
        }
      ],
      "stateMutability": "view",
      "type": "function"
    },
    {
      "inputs": [
        {
          "internalType": "bytes32",
          "name": "",
          "type": "bytes32"
        }
      ],
      "name": "recoveryRequests",
      "outputs": [
        {
          "internalType": "address",
          "name": "user",
          "type": "address"
        },
        {
          "internalType": "uint256",
          "name": "timestamp",
          "type": "uint256"
        },
        {
          "internalType": "uint256",
          "name": "expiryTime",
          "type": "uint256"
        },
        {
          "internalType": "uint256",
          "name": "approvalCount",
          "type": "uint256"
        },
        {
          "internalType": "bool",
          "name": "isCompleted",
          "type": "bool"
        },
        {
          "internalType": "bool",
          "name": "isCancelled",
          "type": "bool"
        }
      ],
      "stateMutability": "view",
      "type": "function"
    },
    {
      "inputs": [
        {
          "internalType": "bytes32",
          "name": "_requestId",
          "type": "bytes32"
        }
      ],
      "name": "rejectRecovery",
      "outputs": [],
      "stateMutability": "nonpayable",
      "type": "function"
    },
    {
      "inputs": [],
      "name": "requestRecovery",
      "outputs": [
        {
          "internalType": "bytes32",
          "name": "",
          "type": "bytes32"
        }
      ],
      "stateMutability": "nonpayable",
      "type": "function"
    },
    {
      "inputs": [
        {
          "internalType": "address[3]",
          "name": "_guardianAddresses",
          "type": "address[3]"
        },
        {
          "internalType": "string[3]",
          "name": "_guardianNames",
          "type": "string[3]"
        },
        {
          "internalType": "string[3]",
          "name": "_guardianContacts",
          "type": "string[3]"
        }
      ],
      "name": "setGuardians",
      "outputs": [],
      "stateMutability": "nonpayable",
      "type": "function"
    },
    {
      "inputs": [
        {
          "internalType": "address",
          "name": "",
          "type": "address"
        },
        {
          "internalType": "uint256",
          "name": "",
          "type": "uint256"
        }
      ],
      "name": "userGuardians",
      "outputs": [
        {
          "internalType": "address",
          "name": "walletAddress",
          "type": "address"
        },
        {
          "internalType": "string",
          "name": "name",
          "type": "string"
        },
        {
          "internalType": "string",
          "name": "contact",
          "type": "string"
        },
        {
          "internalType": "bool",
          "name": "isActive",
          "type": "bool"
        }
      ],
      "stateMutability": "view",
      "type": "function"
    }
  ],
  "bytecode": "0x608060405234801561001057600080fd5b50604051613dd9380380613dd9833981810160405281019061003291906100db565b806000806101000a81548173ffffffffffffffffffffffffffffffffffffffff021916908373ffffffffffffffffffffffffffffffffffffffff16021790555050610108565b600080fd5b600073ffffffffffffffffffffffffffffffffffffffff82169050919050565b60006100a88261007d565b9050919050565b6100b88161009d565b81146100c357600080fd5b50565b6000815190506100d5816100af565b92915050565b6000602082840312156100f1576100f0610078565b5b60006100ff848285016100c6565b91505092915050565b613cc2806101176000396000f3fe608060405234801561001057600080fd5b506004361061012b5760003560e01c8063631fec7f116100ad57806395ad3b4b1161007157806395ad3b4b146103435780639cbb551314610378578063c6928112146103ab578063f18858ab146103e0578063f8eee563146104135761012b565b8063631fec7f1461029e57806367a046a9146102ba5780636ce04db9146102d657806371a9f8f5146103075780637682c3e3146103255761012b565b8063422c1d37116100f4578063422c1d37146101e657806347692c1514610204578063484cc1d5146102345780635040fb7614610250578063599c5533146102805761012b565b8062a5c19d1461013057806302b1a10b1461014c578063086b5198146101685780631501fa76146101865780633e037901146101b6575b600080fd5b61014a600480360381019061014591906124df565b610443565b005b61016660048036038101906101619190612652565b61095f565b005b610170610cc4565b60405161017d919061272d565b60405180910390f35b6101a0600480360381019061019b9190612786565b610ce8565b6040516101ad91906127c2565b60405180910390f35b6101d060048036038101906101cb91906124df565b610d31565b6040516101dd91906127f8565b60405180910390f35b6101ee610dfd565b6040516101fb919061282c565b60405180910390f35b61021e60048036038101906102199190612786565b610e02565b60405161022b91906127f8565b60405180910390f35b61024e600480360381019061024991906124df565b610e4e565b005b61026a60048036038101906102659190612786565b611384565b604051610277919061282c565b60405180910390f35b61028861139c565b604051610295919061282c565b60405180910390f35b6102b860048036038101906102b391906124df565b6113a1565b005b6102d460048036038101906102cf91906129cc565b61159a565b005b6102f060048036038101906102eb9190612a57565b611b3e565b6040516102fe929190612a97565b60405180910390f35b61030f611c02565b60405161031c919061282c565b60405180910390f35b61032d611c09565b60405161033a91906127c2565b60405180910390f35b61035d600480360381019061035891906124df565b611e9d565b60405161036f96959493929190612acf565b60405180910390f35b610392600480360381019061038d9190612b5c565b611f2b565b6040516103a29493929190612c1b565b60405180910390f35b6103c560048036038101906103c091906124df565b6120ab565b6040516103d796959493929190612acf565b60405180910390f35b6103fa60048036038101906103f59190612786565b612121565b60405161040a9493929190612ec4565b60405180910390f35b61042d60048036038101906104289190612786565b612412565b60405161043a91906127c2565b60405180910390f35b6000600360008381526020019081526020016000209050600073ffffffffffffffffffffffffffffffffffffffff168160000160009054906101000a900473ffffffffffffffffffffffffffffffffffffffff1673ffffffffffffffffffffffffffffffffffffffff16036104ed576040517f08c379a00000000000000000000000000000000000000000000000000000000081526004016104e490612f64565b60405180910390fd5b8060020154421115610534576040517f08c379a000000000000000000000000000000000000000000000000000000000815260040161052b90612fd0565b60405180910390fd5b8060040160009054906101000a900460ff1615610586576040517f08c379a000000000000000000000000000000000000000000000000000000000815260040161057d9061303c565b60405180910390fd5b8060040160019054906101000a900460ff16156105d8576040517f08c379a00000000000000000000000000000000000000000000000000000000081526004016105cf906130a8565b60405180910390fd5b8060050160003373ffffffffffffffffffffffffffffffffffffffff1673ffffffffffffffffffffffffffffffffffffffff16815260200190815260200160002060009054906101000a900460ff1615610667576040517f08c379a000000000000000000000000000000000000000000000000000000000815260040161065e90613114565b60405180910390fd5b8060060160003373ffffffffffffffffffffffffffffffffffffffff1673ffffffffffffffffffffffffffffffffffffffff16815260200190815260200160002060009054906101000a900460ff16156106f6576040517f08c379a00000000000000000000000000000000000000000000000000000000081526004016106ed90613180565b60405180910390fd5b6000805b600381101561087b573373ffffffffffffffffffffffffffffffffffffffff16600160008560000160009054906101000a900473ffffffffffffffffffffffffffffffffffffffff1673ffffffffffffffffffffffffffffffffffffffff1673ffffffffffffffffffffffffffffffffffffffff168152602001908152602001600020826003811061078f5761078e6131a0565b5b6004020160000160009054906101000a900473ffffffffffffffffffffffffffffffffffffffff1673ffffffffffffffffffffffffffffffffffffffff161480156108605750600160008460000160009054906101000a900473ffffffffffffffffffffffffffffffffffffffff1673ffffffffffffffffffffffffffffffffffffffff1673ffffffffffffffffffffffffffffffffffffffff168152602001908152602001600020816003811061084a576108496131a0565b5b6004020160030160009054906101000a900460ff165b1561086e576001915061087b565b80806001019150506106fa565b50806108bc576040517f08c379a00000000000000000000000000000000000000000000000000000000081526004016108b39061321b565b60405180910390fd5b60018260060160003373ffffffffffffffffffffffffffffffffffffffff1673ffffffffffffffffffffffffffffffffffffffff16815260200190815260200160002060006101000a81548160ff0219169083151502179055503373ffffffffffffffffffffffffffffffffffffffff16837f1576f946762d7310dd831848199554fde91aa1bbc3bc2e8854f4f75c0a0d45f560405160405180910390a3505050565b60006003600084815260200190815260200160002090503373ffffffffffffffffffffffffffffffffffffffff168160000160009054906101000a900473ffffffffffffffffffffffffffffffffffffffff1673ffffffffffffffffffffffffffffffffffffffff1614610a08576040517f08c379a00000000000000000000000000000000000000000000000000000000081526004016109ff90613287565b60405180910390fd5b600281600301541015610a50576040517f08c379a0000000000000000000000000000000000000000000000000000000008152600401610a47906132f3565b60405180910390fd5b8060020154421115610a97576040517f08c379a0000000000000000000000000000000000000000000000000000000008152600401610a8e90612fd0565b60405180910390fd5b8060040160009054906101000a900460ff1615610ae9576040517f08c379a0000000000000000000000000000000000000000000000000000000008152600401610ae09061303c565b60405180910390fd5b8060040160019054906101000a900460ff1615610b3b576040517f08c379a0000000000000000000000000000000000000000000000000000000008152600401610b32906130a8565b60405180910390fd5b6000825111610b7f576040517f08c379a0000000000000000000000000000000000000000000000000000000008152600401610b769061335f565b60405180910390fd5b60018160040160006101000a81548160ff0219169083151502179055506000801b600460003373ffffffffffffffffffffffffffffffffffffffff1673ffffffffffffffffffffffffffffffffffffffff1681526020019081526020016000208190555060008054906101000a900473ffffffffffffffffffffffffffffffffffffffff1673ffffffffffffffffffffffffffffffffffffffff1663bd0f542a33846040518363ffffffff1660e01b8152600401610c3e92919061337f565b600060405180830381600087803b158015610c5857600080fd5b505af1158015610c6c573d6000803e3d6000fd5b50505050823373ffffffffffffffffffffffffffffffffffffffff167fa67d4ddb8fd5421b6545be86f660ea26809d6f47fe916c729df2f21bce3abed384604051610cb791906133af565b60405180910390a3505050565b60008054906101000a900473ffffffffffffffffffffffffffffffffffffffff1681565b6000600460008373ffffffffffffffffffffffffffffffffffffffff1673ffffffffffffffffffffffffffffffffffffffff168152602001908152602001600020549050919050565b600080600360008481526020019081526020016000209050600073ffffffffffffffffffffffffffffffffffffffff168160000160009054906101000a900473ffffffffffffffffffffffffffffffffffffffff1673ffffffffffffffffffffffffffffffffffffffff1614158015610daf57506002816003015410155b8015610dbf575080600201544211155b8015610dda57508060040160009054906101000a900460ff16155b8015610df557508060040160019054906101000a900460ff16155b915050919050565b600381565b60006003600260008473ffffffffffffffffffffffffffffffffffffffff1673ffffffffffffffffffffffffffffffffffffffff16815260200190815260200160002054149050919050565b6000600360008381526020019081526020016000209050600073ffffffffffffffffffffffffffffffffffffffff168160000160009054906101000a900473ffffffffffffffffffffffffffffffffffffffff1673ffffffffffffffffffffffffffffffffffffffff1603610ef8576040517f08c379a0000000000000000000000000000000000000000000000000000000008152600401610eef90612f64565b60405180910390fd5b8060020154421115610f3f576040517f08c379a0000000000000000000000000000000000000000000000000000000008152600401610f3690612fd0565b60405180910390fd5b8060040160009054906101000a900460ff1615610f91576040517f08c379a0000000000000000000000000000000000000000000000000000000008152600401610f889061303c565b60405180910390fd5b8060040160019054906101000a900460ff1615610fe3576040517f08c379a0000000000000000000000000000000000000000000000000000000008152600401610fda906130a8565b60405180910390fd5b8060050160003373ffffffffffffffffffffffffffffffffffffffff1673ffffffffffffffffffffffffffffffffffffffff16815260200190815260200160002060009054906101000a900460ff1615611072576040517f08c379a000000000000000000000000000000000000000000000000000000000815260040161106990613114565b60405180910390fd5b8060060160003373ffffffffffffffffffffffffffffffffffffffff1673ffffffffffffffffffffffffffffffffffffffff16815260200190815260200160002060009054906101000a900460ff1615611101576040517f08c379a00000000000000000000000000000000000000000000000000000000081526004016110f890613180565b60405180910390fd5b6000805b6003811015611286573373ffffffffffffffffffffffffffffffffffffffff16600160008560000160009054906101000a900473ffffffffffffffffffffffffffffffffffffffff1673ffffffffffffffffffffffffffffffffffffffff1673ffffffffffffffffffffffffffffffffffffffff168152602001908152602001600020826003811061119a576111996131a0565b5b6004020160000160009054906101000a900473ffffffffffffffffffffffffffffffffffffffff1673ffffffffffffffffffffffffffffffffffffffff1614801561126b5750600160008460000160009054906101000a900473ffffffffffffffffffffffffffffffffffffffff1673ffffffffffffffffffffffffffffffffffffffff1673ffffffffffffffffffffffffffffffffffffffff1681526020019081526020016000208160038110611255576112546131a0565b5b6004020160030160009054906101000a900460ff165b156112795760019150611286565b8080600101915050611105565b50806112c7576040517f08c379a00000000000000000000000000000000000000000000000000000000081526004016112be9061321b565b60405180910390fd5b60018260050160003373ffffffffffffffffffffffffffffffffffffffff1673ffffffffffffffffffffffffffffffffffffffff16815260200190815260200160002060006101000a81548160ff02191690831515021790555081600301600081548092919061133690613400565b91905055503373ffffffffffffffffffffffffffffffffffffffff16837f78293d4a1e4c76feb9d00d3130897b8c7551050d29e0438c00ffa122bfc51b2960405160405180910390a3505050565b60026020528060005260406000206000915090505481565b600281565b60006003600083815260200190815260200160002090503373ffffffffffffffffffffffffffffffffffffffff168160000160009054906101000a900473ffffffffffffffffffffffffffffffffffffffff1673ffffffffffffffffffffffffffffffffffffffff161461144a576040517f08c379a000000000000000000000000000000000000000000000000000000000815260040161144190613287565b60405180910390fd5b8060040160009054906101000a900460ff161561149c576040517f08c379a00000000000000000000000000000000000000000000000000000000081526004016114939061303c565b60405180910390fd5b8060040160019054906101000a900460ff16156114ee576040517f08c379a00000000000000000000000000000000000000000000000000000000081526004016114e590613494565b60405180910390fd5b60018160040160016101000a81548160ff0219169083151502179055506000801b600460003373ffffffffffffffffffffffffffffffffffffffff1673ffffffffffffffffffffffffffffffffffffffff16815260200190815260200160002081905550813373ffffffffffffffffffffffffffffffffffffffff167f5ec34f3f384538319a5eb81bc3f45fb37b28d5e456474f7a62318ef7a713094960405160405180910390a35050565b6000600260003373ffffffffffffffffffffffffffffffffffffffff1673ffffffffffffffffffffffffffffffffffffffff168152602001908152602001600020541461161c576040517f08c379a000000000000000000000000000000000000000000000000000000000815260040161161390613500565b60405180910390fd5b60008054906101000a900473ffffffffffffffffffffffffffffffffffffffff1673ffffffffffffffffffffffffffffffffffffffff1663ee437bed336040518263ffffffff1660e01b81526004016116759190613520565b602060405180830381865afa158015611692573d6000803e3d6000fd5b505050506040513d601f19601f820116820180604052508101906116b69190613567565b6116f5576040517f08c379a00000000000000000000000000000000000000000000000000000000081526004016116ec90613606565b60405180910390fd5b60005b6003811015611aa357600073ffffffffffffffffffffffffffffffffffffffff1684826003811061172c5761172b6131a0565b5b602002015173ffffffffffffffffffffffffffffffffffffffff1603611787576040517f08c379a000000000000000000000000000000000000000000000000000000000815260040161177e90613672565b60405180910390fd5b3373ffffffffffffffffffffffffffffffffffffffff168482600381106117b1576117b06131a0565b5b602002015173ffffffffffffffffffffffffffffffffffffffff160361180c576040517f08c379a0000000000000000000000000000000000000000000000000000000008152600401611803906136de565b60405180910390fd5b6000838260038110611821576118206131a0565b5b60200201515111611867576040517f08c379a000000000000000000000000000000000000000000000000000000000815260040161185e9061374a565b60405180910390fd5b6000600182611876919061376a565b90505b600381101561192b57848160038110611895576118946131a0565b5b602002015173ffffffffffffffffffffffffffffffffffffffff168583600381106118c3576118c26131a0565b5b602002015173ffffffffffffffffffffffffffffffffffffffff160361191e576040517f08c379a0000000000000000000000000000000000000000000000000000000008152600401611915906137ea565b60405180910390fd5b8080600101915050611879565b50604051806080016040528085836003811061194a576119496131a0565b5b602002015173ffffffffffffffffffffffffffffffffffffffff16815260200184836003811061197d5761197c6131a0565b5b6020020151815260200183836003811061199a576119996131a0565b5b6020020151815260200160011515815250600160003373ffffffffffffffffffffffffffffffffffffffff1673ffffffffffffffffffffffffffffffffffffffff16815260200190815260200160002082600381106119fc576119fb6131a0565b5b6004020160008201518160000160006101000a81548173ffffffffffffffffffffffffffffffffffffffff021916908373ffffffffffffffffffffffffffffffffffffffff1602179055506020820151816001019081611a5c9190613a0c565b506040820151816002019081611a729190613a0c565b5060608201518160030160006101000a81548160ff02191690831515021790555090505080806001019150506116f8565b506003600260003373ffffffffffffffffffffffffffffffffffffffff1673ffffffffffffffffffffffffffffffffffffffff168152602001908152602001600020819055503373ffffffffffffffffffffffffffffffffffffffff167f7889dff8c28ef1f3177a1be3dbd12a78f220537f9a1c854a0cd23fc4c90c75928484604051611b31929190613ade565b60405180910390a2505050565b60008060006003600086815260200190815260200160002090508060050160008573ffffffffffffffffffffffffffffffffffffffff1673ffffffffffffffffffffffffffffffffffffffff16815260200190815260200160002060009054906101000a900460ff168160060160008673ffffffffffffffffffffffffffffffffffffffff1673ffffffffffffffffffffffffffffffffffffffff16815260200190815260200160002060009054906101000a900460ff1692509250509250929050565b6201518081565b60006003600260003373ffffffffffffffffffffffffffffffffffffffff1673ffffffffffffffffffffffffffffffffffffffff1681526020019081526020016000205414611c8d576040517f08c379a0000000000000000000000000000000000000000000000000000000008152600401611c8490613b5a565b60405180910390fd5b6000801b600460003373ffffffffffffffffffffffffffffffffffffffff1673ffffffffffffffffffffffffffffffffffffffff1681526020019081526020016000205414611d11576040517f08c379a0000000000000000000000000000000000000000000000000000000008152600401611d0890613bc6565b60405180910390fd5b6000334243604051602001611d2893929190613c4f565b6040516020818303038152906040528051906020012090506000600360008381526020019081526020016000209050338160000160006101000a81548173ffffffffffffffffffffffffffffffffffffffff021916908373ffffffffffffffffffffffffffffffffffffffff1602179055504281600101819055506201518042611db2919061376a565b81600201819055506000816003018190555060008160040160006101000a81548160ff02191690831515021790555060008160040160016101000a81548160ff02191690831515021790555081600460003373ffffffffffffffffffffffffffffffffffffffff1673ffffffffffffffffffffffffffffffffffffffff16815260200190815260200160002081905550813373ffffffffffffffffffffffffffffffffffffffff167f4a98ee08ba9a21d0c343ebc04472ef935e634609b3dd008baf4a0f3aa41b3c928360020154604051611e8d919061282c565b60405180910390a3819250505090565b60008060008060008060006003600089815260200190815260200160002090508060000160009054906101000a900473ffffffffffffffffffffffffffffffffffffffff168160010154826002015483600301548460040160009054906101000a900460ff168560040160019054906101000a900460ff169650965096509650965096505091939550919395565b60016020528160005260406000208160038110611f4757600080fd5b60040201600091509150508060000160009054906101000a900473ffffffffffffffffffffffffffffffffffffffff1690806001018054611f8790613839565b80601f0160208091040260200160405190810160405280929190818152602001828054611fb390613839565b80156120005780601f10611fd557610100808354040283529160200191612000565b820191906000526020600020905b815481529060010190602001808311611fe357829003601f168201915b50505050509080600201805461201590613839565b80601f016020809104026020016040519081016040528092919081815260200182805461204190613839565b801561208e5780601f106120635761010080835404028352916020019161208e565b820191906000526020600020905b81548152906001019060200180831161207157829003601f168201915b5050505050908060030160009054906101000a900460ff16905084565b60036020528060005260406000206000915090508060000160009054906101000a900473ffffffffffffffffffffffffffffffffffffffff16908060010154908060020154908060030154908060040160009054906101000a900460ff16908060040160019054906101000a900460ff16905086565b61212961242a565b61213161244c565b61213961244c565b612141612473565b60005b600381101561240a576000600160008873ffffffffffffffffffffffffffffffffffffffff1673ffffffffffffffffffffffffffffffffffffffff16815260200190815260200160002082600381106121a05761219f6131a0565b5b600402016040518060800160405290816000820160009054906101000a900473ffffffffffffffffffffffffffffffffffffffff1673ffffffffffffffffffffffffffffffffffffffff1673ffffffffffffffffffffffffffffffffffffffff16815260200160018201805461221590613839565b80601f016020809104026020016040519081016040528092919081815260200182805461224190613839565b801561228e5780601f106122635761010080835404028352916020019161228e565b820191906000526020600020905b81548152906001019060200180831161227157829003601f168201915b505050505081526020016002820180546122a790613839565b80601f01602080910402602001604051908101604052809291908181526020018280546122d390613839565b80156123205780601f106122f557610100808354040283529160200191612320565b820191906000526020600020905b81548152906001019060200180831161230357829003601f168201915b505050505081526020016003820160009054906101000a900460ff1615151515815250509050806000015186836003811061235e5761235d6131a0565b5b602002019073ffffffffffffffffffffffffffffffffffffffff16908173ffffffffffffffffffffffffffffffffffffffff168152505080602001518583600381106123ad576123ac6131a0565b5b602002018190525080604001518483600381106123cd576123cc6131a0565b5b602002018190525080606001518383600381106123ed576123ec6131a0565b5b602002019015159081151581525050508080600101915050612144565b509193509193565b60046020528060005260406000206000915090505481565b6040518060600160405280600390602082028036833780820191505090505090565b60405180606001604052806003905b606081526020019060019003908161245b5790505090565b6040518060600160405280600390602082028036833780820191505090505090565b6000604051905090565b600080fd5b600080fd5b6000819050919050565b6124bc816124a9565b81146124c757600080fd5b50565b6000813590506124d9816124b3565b92915050565b6000602082840312156124f5576124f461249f565b5b6000612503848285016124ca565b91505092915050565b600080fd5b600080fd5b6000601f19601f8301169050919050565b7f4e487b7100000000000000000000000000000000000000000000000000000000600052604160045260246000fd5b61255f82612516565b810181811067ffffffffffffffff8211171561257e5761257d612527565b5b80604052505050565b6000612591612495565b905061259d8282612556565b919050565b600067ffffffffffffffff8211156125bd576125bc612527565b5b6125c682612516565b9050602081019050919050565b82818337600083830152505050565b60006125f56125f0846125a2565b612587565b90508281526020810184848401111561261157612610612511565b5b61261c8482856125d3565b509392505050565b600082601f8301126126395761263861250c565b5b81356126498482602086016125e2565b91505092915050565b600080604083850312156126695761266861249f565b5b6000612677858286016124ca565b925050602083013567ffffffffffffffff811115612698576126976124a4565b5b6126a485828601612624565b9150509250929050565b600073ffffffffffffffffffffffffffffffffffffffff82169050919050565b6000819050919050565b60006126f36126ee6126e9846126ae565b6126ce565b6126ae565b9050919050565b6000612705826126d8565b9050919050565b6000612717826126fa565b9050919050565b6127278161270c565b82525050565b6000602082019050612742600083018461271e565b92915050565b6000612753826126ae565b9050919050565b61276381612748565b811461276e57600080fd5b50565b6000813590506127808161275a565b92915050565b60006020828403121561279c5761279b61249f565b5b60006127aa84828501612771565b91505092915050565b6127bc816124a9565b82525050565b60006020820190506127d760008301846127b3565b92915050565b60008115159050919050565b6127f2816127dd565b82525050565b600060208201905061280d60008301846127e9565b92915050565b6000819050919050565b61282681612813565b82525050565b6000602082019050612841600083018461281d565b92915050565b600067ffffffffffffffff82111561286257612861612527565b5b602082029050919050565b600080fd5b600061288561288084612847565b612587565b9050806020840283018581111561289f5761289e61286d565b5b835b818110156128c857806128b48882612771565b8452602084019350506020810190506128a1565b5050509392505050565b600082601f8301126128e7576128e661250c565b5b60036128f4848285612872565b91505092915050565b600067ffffffffffffffff82111561291857612917612527565b5b602082029050919050565b6000612936612931846128fd565b612587565b905080602084028301858111156129505761294f61286d565b5b835b8181101561299757803567ffffffffffffffff8111156129755761297461250c565b5b8086016129828982612624565b85526020850194505050602081019050612952565b5050509392505050565b600082601f8301126129b6576129b561250c565b5b60036129c3848285612923565b91505092915050565b600080600060a084860312156129e5576129e461249f565b5b60006129f3868287016128d2565b935050606084013567ffffffffffffffff811115612a1457612a136124a4565b5b612a20868287016129a1565b925050608084013567ffffffffffffffff811115612a4157612a406124a4565b5b612a4d868287016129a1565b9150509250925092565b60008060408385031215612a6e57612a6d61249f565b5b6000612a7c858286016124ca565b9250506020612a8d85828601612771565b9150509250929050565b6000604082019050612aac60008301856127e9565b612ab960208301846127e9565b9392505050565b612ac981612748565b82525050565b600060c082019050612ae46000830189612ac0565b612af1602083018861281d565b612afe604083018761281d565b612b0b606083018661281d565b612b1860808301856127e9565b612b2560a08301846127e9565b979650505050505050565b612b3981612813565b8114612b4457600080fd5b50565b600081359050612b5681612b30565b92915050565b60008060408385031215612b7357612b7261249f565b5b6000612b8185828601612771565b9250506020612b9285828601612b47565b9150509250929050565b600081519050919050565b600082825260208201905092915050565b60005b83811015612bd6578082015181840152602081019050612bbb565b60008484015250505050565b6000612bed82612b9c565b612bf78185612ba7565b9350612c07818560208601612bb8565b612c1081612516565b840191505092915050565b6000608082019050612c306000830187612ac0565b8181036020830152612c428186612be2565b90508181036040830152612c568185612be2565b9050612c6560608301846127e9565b95945050505050565b600060039050919050565b600081905092915050565b6000819050919050565b612c9781612748565b82525050565b6000612ca98383612c8e565b60208301905092915050565b6000602082019050919050565b612ccb81612c6e565b612cd58184612c79565b9250612ce082612c84565b8060005b83811015612d11578151612cf88782612c9d565b9650612d0383612cb5565b925050600181019050612ce4565b505050505050565b600060039050919050565b600081905092915050565b6000819050919050565b600082825260208201905092915050565b6000612d5582612b9c565b612d5f8185612d39565b9350612d6f818560208601612bb8565b612d7881612516565b840191505092915050565b6000612d8f8383612d4a565b905092915050565b6000602082019050919050565b6000612daf82612d19565b612db98185612d24565b935083602082028501612dcb85612d2f565b8060005b85811015612e075784840389528151612de88582612d83565b9450612df383612d97565b925060208a01995050600181019050612dcf565b50829750879550505050505092915050565b600060039050919050565b600081905092915050565b6000819050919050565b612e42816127dd565b82525050565b6000612e548383612e39565b60208301905092915050565b6000602082019050919050565b612e7681612e19565b612e808184612e24565b9250612e8b82612e2f565b8060005b83811015612ebc578151612ea38782612e48565b9650612eae83612e60565b925050600181019050612e8f565b505050505050565b600061010082019050612eda6000830187612cc2565b8181036060830152612eec8186612da4565b90508181036080830152612f008185612da4565b9050612f0f60a0830184612e6d565b95945050505050565b7f496e76616c6964207265636f7665727920726571756573740000000000000000600082015250565b6000612f4e601883612ba7565b9150612f5982612f18565b602082019050919050565b60006020820190508181036000830152612f7d81612f41565b9050919050565b7f5265636f76657279207265717565737420657870697265640000000000000000600082015250565b6000612fba601883612ba7565b9150612fc582612f84565b602082019050919050565b60006020820190508181036000830152612fe981612fad565b9050919050565b7f5265636f7665727920616c726561647920636f6d706c65746564000000000000600082015250565b6000613026601a83612ba7565b915061303182612ff0565b602082019050919050565b6000602082019050818103600083015261305581613019565b9050919050565b7f5265636f7665727920726571756573742063616e63656c6c6564000000000000600082015250565b6000613092601a83612ba7565b915061309d8261305c565b602082019050919050565b600060208201905081810360008301526130c181613085565b9050919050565b7f416c726561647920617070726f76656400000000000000000000000000000000600082015250565b60006130fe601083612ba7565b9150613109826130c8565b602082019050919050565b6000602082019050818103600083015261312d816130f1565b9050919050565b7f416c72656164792072656a656374656400000000000000000000000000000000600082015250565b600061316a601083612ba7565b915061317582613134565b602082019050919050565b600060208201905081810360008301526131998161315d565b9050919050565b7f4e487b7100000000000000000000000000000000000000000000000000000000600052603260045260246000fd5b7f4e6f742061207265676973746572656420677561726469616e00000000000000600082015250565b6000613205601983612ba7565b9150613210826131cf565b602082019050919050565b60006020820190508181036000830152613234816131f8565b9050919050565b7f4e6f742072657175657374206f776e6572000000000000000000000000000000600082015250565b6000613271601183612ba7565b915061327c8261323b565b602082019050919050565b600060208201905081810360008301526132a081613264565b9050919050565b7f4e6f7420656e6f75676820617070726f76616c73000000000000000000000000600082015250565b60006132dd601483612ba7565b91506132e8826132a7565b602082019050919050565b6000602082019050818103600083015261330c816132d0565b9050919050565b7f4e6577207075626c6963206b65792063616e6e6f7420626520656d7074790000600082015250565b6000613349601e83612ba7565b915061335482613313565b602082019050919050565b600060208201905081810360008301526133788161333c565b9050919050565b60006040820190506133946000830185612ac0565b81810360208301526133a68184612be2565b90509392505050565b600060208201905081810360008301526133c98184612be2565b905092915050565b7f4e487b7100000000000000000000000000000000000000000000000000000000600052601160045260246000fd5b600061340b82612813565b91507fffffffffffffffffffffffffffffffffffffffffffffffffffffffffffffffff820361343d5761343c6133d1565b5b600182019050919050565b7f5265636f7665727920616c72656164792063616e63656c6c6564000000000000600082015250565b600061347e601a83612ba7565b915061348982613448565b602082019050919050565b600060208201905081810360008301526134ad81613471565b9050919050565b7f477561726469616e7320616c7265616479207365740000000000000000000000600082015250565b60006134ea601583612ba7565b91506134f5826134b4565b602082019050919050565b60006020820190508181036000830152613519816134dd565b9050919050565b60006020820190506135356000830184612ac0565b92915050565b613544816127dd565b811461354f57600080fd5b50565b6000815190506135618161353b565b92915050565b60006020828403121561357d5761357c61249f565b5b600061358b84828501613552565b91505092915050565b7f55736572206d757374207265676973746572207075626c6963206b657920666960008201527f7273740000000000000000000000000000000000000000000000000000000000602082015250565b60006135f0602383612ba7565b91506135fb82613594565b604082019050919050565b6000602082019050818103600083015261361f816135e3565b9050919050565b7f496e76616c696420677561726469616e20616464726573730000000000000000600082015250565b600061365c601883612ba7565b915061366782613626565b602082019050919050565b6000602082019050818103600083015261368b8161364f565b9050919050565b7f43616e6e6f74207365742073656c6620617320677561726469616e0000000000600082015250565b60006136c8601b83612ba7565b91506136d382613692565b602082019050919050565b600060208201905081810360008301526136f7816136bb565b9050919050565b7f477561726469616e206e616d652063616e6e6f7420626520656d707479000000600082015250565b6000613734601d83612ba7565b915061373f826136fe565b602082019050919050565b6000602082019050818103600083015261376381613727565b9050919050565b600061377582612813565b915061378083612813565b9250828201905080821115613798576137976133d1565b5b92915050565b7f4475706c696361746520677561726469616e2061646472657373000000000000600082015250565b60006137d4601a83612ba7565b91506137df8261379e565b602082019050919050565b60006020820190508181036000830152613803816137c7565b9050919050565b7f4e487b7100000000000000000000000000000000000000000000000000000000600052602260045260246000fd5b6000600282049050600182168061385157607f821691505b6020821081036138645761386361380a565b5b50919050565b60008190508160005260206000209050919050565b60006020601f8301049050919050565b600082821b905092915050565b6000600883026138cc7fffffffffffffffffffffffffffffffffffffffffffffffffffffffffffffffff8261388f565b6138d6868361388f565b95508019841693508086168417925050509392505050565b60006139096139046138ff84612813565b6126ce565b612813565b9050919050565b6000819050919050565b613923836138ee565b61393761392f82613910565b84845461389c565b825550505050565b600090565b61394c61393f565b61395781848461391a565b505050565b5b8181101561397b57613970600082613944565b60018101905061395d565b5050565b601f8211156139c0576139918161386a565b61399a8461387f565b810160208510156139a9578190505b6139bd6139b58561387f565b83018261395c565b50505b505050565b600082821c905092915050565b60006139e3600019846008026139c5565b1980831691505092915050565b60006139fc83836139d2565b9150826002028217905092915050565b613a1582612b9c565b67ffffffffffffffff811115613a2e57613a2d612527565b5b613a388254613839565b613a4382828561397f565b600060209050601f831160018114613a765760008415613a64578287015190505b613a6e85826139f0565b865550613ad6565b601f198416613a848661386a565b60005b82811015613aac57848901518255600182019150602085019450602081019050613a87565b86831015613ac95784890151613ac5601f8916826139d2565b8355505b6001600288020188555050505b505050505050565b6000608082019050613af36000830185612cc2565b8181036060830152613b058184612da4565b90509392505050565b7f477561726469616e73206e6f7420736574000000000000000000000000000000600082015250565b6000613b44601183612ba7565b9150613b4f82613b0e565b602082019050919050565b60006020820190508181036000830152613b7381613b37565b9050919050565b7f5265636f7665727920616c726561647920696e2070726f677265737300000000600082015250565b6000613bb0601c83612ba7565b9150613bbb82613b7a565b602082019050919050565b60006020820190508181036000830152613bdf81613ba3565b9050919050565b60008160601b9050919050565b6000613bfe82613be6565b9050919050565b6000613c1082613bf3565b9050919050565b613c28613c2382612748565b613c05565b82525050565b6000819050919050565b613c49613c4482612813565b613c2e565b82525050565b6000613c5b8286613c17565b601482019150613c6b8285613c38565b602082019150613c7b8284613c38565b60208201915081905094935050505056fea264697066735822122069410ee489a13146dc415e07c17c57cac5106cd4d5bf14a13ce018fe76f0e81c64736f6c634300081c0033",
  "linkReferences": {},
  "deployedLinkReferences": {}
}