{
  "_format": "hh-sol-artifact-1",
  "contractName": "KeyRegistry",
  "sourceName": "contracts/KeyRegistry.sol",
  "abi": [
    {
      "inputs": [
        {
          "internalType": "address",
          "name": "_masterAuthorityAddress",
          "type": "address"
        },
        {
          "internalType": "string",
          "name": "_masterPublicKey",
          "type": "string"
        }
      ],
      "stateMutability": "nonpayable",
      "type": "constructor"
    },
    {
      "inputs": [
        {
          "internalType": "address",
          "name": "owner",
          "type": "address"
        }
      ],
      "name": "OwnableInvalidOwner",
      "type": "error"
    },
    {
      "inputs": [
        {
          "internalType": "address",
          "name": "account",
          "type": "address"
        }
      ],
      "name": "OwnableUnauthorizedAccount",
      "type": "error"
    },
    {
      "anonymous": false,
      "inputs": [
        {
          "indexed": true,
          "internalType": "address",
          "name": "doctor",
          "type": "address"
        }
      ],
      "name": "DoctorCertified",
      "type": "event"
    },
    {
      "anonymous": false,
      "inputs": [
        {
          "indexed": true,
          "internalType": "address",
          "name": "registeredBy",
          "type": "address"
        },
        {
          "indexed": false,
          "internalType": "uint256",
          "name": "timestamp",
          "type": "uint256"
        }
      ],
      "name": "MasterKeyRegistered",
      "type": "event"
    },
    {
      "anonymous": false,
      "inputs": [
        {
          "indexed": true,
          "internalType": "address",
          "name": "updatedBy",
          "type": "address"
        },
        {
          "indexed": false,
          "internalType": "uint256",
          "name": "timestamp",
          "type": "uint256"
        }
      ],
      "name": "MasterKeyUpdated",
      "type": "event"
    },
    {
      "anonymous": false,
      "inputs": [
        {
          "indexed": true,
          "internalType": "address",
          "name": "previousOwner",
          "type": "address"
        },
        {
          "indexed": true,
          "internalType": "address",
          "name": "newOwner",
          "type": "address"
        }
      ],
      "name": "OwnershipTransferred",
      "type": "event"
    },
    {
      "anonymous": false,
      "inputs": [
        {
          "indexed": true,
          "internalType": "address",
          "name": "patient",
          "type": "address"
        }
      ],
      "name": "PatientRegistered",
      "type": "event"
    },
    {
      "anonymous": false,
      "inputs": [
        {
          "indexed": true,
          "internalType": "address",
          "name": "user",
          "type": "address"
        },
        {
          "indexed": false,
          "internalType": "string",
          "name": "publicKey",
          "type": "string"
        }
      ],
      "name": "PublicKeyRegistered",
      "type": "event"
    },
    {
      "anonymous": false,
      "inputs": [
        {
          "indexed": true,
          "internalType": "address",
          "name": "user",
          "type": "address"
        },
        {
          "indexed": false,
          "internalType": "string",
          "name": "newPublicKey",
          "type": "string"
        }
      ],
      "name": "PublicKeyUpdated",
      "type": "event"
    },
    {
      "anonymous": false,
      "inputs": [
        {
          "indexed": true,
          "internalType": "address",
          "name": "contractAddress",
          "type": "address"
        }
      ],
      "name": "TrustedContractAdded",
      "type": "event"
    },
    {
      "anonymous": false,
      "inputs": [
        {
          "indexed": true,
          "internalType": "address",
          "name": "contractAddress",
          "type": "address"
        }
      ],
      "name": "TrustedContractRemoved",
      "type": "event"
    },
    {
      "inputs": [],
      "name": "MASTER_AUTHORITY_ADDRESS",
      "outputs": [
        {
          "internalType": "address",
          "name": "",
          "type": "address"
        }
      ],
      "stateMutability": "view",
      "type": "function"
    },
    {
      "inputs": [
        {
          "internalType": "address",
          "name": "_contract",
          "type": "address"
        }
      ],
      "name": "addTrustedContract",
      "outputs": [],
      "stateMutability": "nonpayable",
      "type": "function"
    },
    {
      "inputs": [
        {
          "internalType": "address",
          "name": "_doctor",
          "type": "address"
        }
      ],
      "name": "certifyDoctor",
      "outputs": [],
      "stateMutability": "nonpayable",
      "type": "function"
    },
    {
      "inputs": [],
      "name": "getMasterKey",
      "outputs": [
        {
          "internalType": "string",
          "name": "publicKey",
          "type": "string"
        },
        {
          "internalType": "uint256",
          "name": "timestamp",
          "type": "uint256"
        },
        {
          "internalType": "bool",
          "name": "isRegistered",
          "type": "bool"
        },
        {
          "internalType": "address",
          "name": "registeredBy",
          "type": "address"
        }
      ],
      "stateMutability": "view",
      "type": "function"
    },
    {
      "inputs": [
        {
          "internalType": "address",
          "name": "_user",
          "type": "address"
        }
      ],
      "name": "getPublicKey",
      "outputs": [
        {
          "internalType": "string",
          "name": "",
          "type": "string"
        },
        {
          "internalType": "uint256",
          "name": "",
          "type": "uint256"
        },
        {
          "internalType": "bool",
          "name": "",
          "type": "bool"
        }
      ],
      "stateMutability": "view",
      "type": "function"
    },
    {
      "inputs": [
        {
          "internalType": "address",
          "name": "_user",
          "type": "address"
        }
      ],
      "name": "isDoctor",
      "outputs": [
        {
          "internalType": "bool",
          "name": "",
          "type": "bool"
        }
      ],
      "stateMutability": "view",
      "type": "function"
    },
    {
      "inputs": [],
      "name": "isMasterKeyRegistered",
      "outputs": [
        {
          "internalType": "bool",
          "name": "",
          "type": "bool"
        }
      ],
      "stateMutability": "view",
      "type": "function"
    },
    {
      "inputs": [
        {
          "internalType": "address",
          "name": "_user",
          "type": "address"
        }
      ],
      "name": "isPatient",
      "outputs": [
        {
          "internalType": "bool",
          "name": "",
          "type": "bool"
        }
      ],
      "stateMutability": "view",
      "type": "function"
    },
    {
      "inputs": [
        {
          "internalType": "address",
          "name": "_user",
          "type": "address"
        }
      ],
      "name": "isPublicKeyRegistered",
      "outputs": [
        {
          "internalType": "bool",
          "name": "",
          "type": "bool"
        }
      ],
      "stateMutability": "view",
      "type": "function"
    },
    {
      "inputs": [
        {
          "internalType": "address",
          "name": "_contract",
          "type": "address"
        }
      ],
      "name": "isTrustedContract",
      "outputs": [
        {
          "internalType": "bool",
          "name": "",
          "type": "bool"
        }
      ],
      "stateMutability": "view",
      "type": "function"
    },
    {
      "inputs": [],
      "name": "owner",
      "outputs": [
        {
          "internalType": "address",
          "name": "",
          "type": "address"
        }
      ],
      "stateMutability": "view",
      "type": "function"
    },
    {
      "inputs": [
        {
          "internalType": "string",
          "name": "_publicKey",
          "type": "string"
        },
        {
          "internalType": "bool",
          "name": "_isDoctor",
          "type": "bool"
        }
      ],
      "name": "registerPublicKey",
      "outputs": [],
      "stateMutability": "nonpayable",
      "type": "function"
    },
    {
      "inputs": [
        {
          "internalType": "address",
          "name": "_contract",
          "type": "address"
        }
      ],
      "name": "removeTrustedContract",
      "outputs": [],
      "stateMutability": "nonpayable",
      "type": "function"
    },
    {
      "inputs": [],
      "name": "renounceOwnership",
      "outputs": [],
      "stateMutability": "nonpayable",
      "type": "function"
    },
    {
      "inputs": [
        {
          "internalType": "address",
          "name": "_doctor",
          "type": "address"
        }
      ],
      "name": "revokeDoctorCertification",
      "outputs": [],
      "stateMutability": "nonpayable",
      "type": "function"
    },
    {
      "inputs": [
        {
          "internalType": "address",
          "name": "newOwner",
          "type": "address"
        }
      ],
      "name": "transferOwnership",
      "outputs": [],
      "stateMutability": "nonpayable",
      "type": "function"
    },
    {
      "inputs": [
        {
          "internalType": "string",
          "name": "_newPublicKey",
          "type": "string"
        }
      ],
      "name": "updatePublicKey",
      "outputs": [],
      "stateMutability": "nonpayable",
      "type": "function"
    },
    {
      "inputs": [
        {
          "internalType": "address",
          "name": "_user",
          "type": "address"
        },
        {
          "internalType": "string",
          "name": "_newPublicKey",
          "type": "string"
        }
      ],
      "name": "updatePublicKeyFor",
      "outputs": [],
      "stateMutability": "nonpayable",
      "type": "function"
    }
  ],
  "bytecode": "0x60a060405234801561001057600080fd5b506040516128d83803806128d883398181016040528101906100329190610515565b33600073ffffffffffffffffffffffffffffffffffffffff168173ffffffffffffffffffffffffffffffffffffffff16036100a55760006040517f1e4fbdf700000000000000000000000000000000000000000000000000000000815260040161009c9190610580565b60405180910390fd5b6100b48161027e60201b60201c565b50600073ffffffffffffffffffffffffffffffffffffffff168273ffffffffffffffffffffffffffffffffffffffff1603610124576040517f08c379a000000000000000000000000000000000000000000000000000000000815260040161011b9061061e565b60405180910390fd5b8173ffffffffffffffffffffffffffffffffffffffff1660808173ffffffffffffffffffffffffffffffffffffffff16815250506000815111156102775760405180608001604052808281526020014281526020016001151581526020013373ffffffffffffffffffffffffffffffffffffffff16815250600560008201518160000190816101b3919061085f565b506020820151816001015560408201518160020160006101000a81548160ff02191690831515021790555060608201518160020160016101000a81548173ffffffffffffffffffffffffffffffffffffffff021916908373ffffffffffffffffffffffffffffffffffffffff1602179055509050503373ffffffffffffffffffffffffffffffffffffffff167f0fa549fff5e2e67dd4d587661a6b0462d786e132da0b01612d09d1e595f0a0814260405161026e9190610940565b60405180910390a25b505061095b565b60008060009054906101000a900473ffffffffffffffffffffffffffffffffffffffff169050816000806101000a81548173ffffffffffffffffffffffffffffffffffffffff021916908373ffffffffffffffffffffffffffffffffffffffff1602179055508173ffffffffffffffffffffffffffffffffffffffff168173ffffffffffffffffffffffffffffffffffffffff167f8be0079c531659141344cd1fd0a4f28419497f9722a3daafe3b4186f6b6457e060405160405180910390a35050565b6000604051905090565b600080fd5b600080fd5b600073ffffffffffffffffffffffffffffffffffffffff82169050919050565b600061038182610356565b9050919050565b61039181610376565b811461039c57600080fd5b50565b6000815190506103ae81610388565b92915050565b600080fd5b600080fd5b6000601f19601f8301169050919050565b7f4e487b7100000000000000000000000000000000000000000000000000000000600052604160045260246000fd5b610407826103be565b810181811067ffffffffffffffff82111715610426576104256103cf565b5b80604052505050565b6000610439610342565b905061044582826103fe565b919050565b600067ffffffffffffffff821115610465576104646103cf565b5b61046e826103be565b9050602081019050919050565b60005b8381101561049957808201518184015260208101905061047e565b60008484015250505050565b60006104b86104b38461044a565b61042f565b9050828152602081018484840111156104d4576104d36103b9565b5b6104df84828561047b565b509392505050565b600082601f8301126104fc576104fb6103b4565b5b815161050c8482602086016104a5565b91505092915050565b6000806040838503121561052c5761052b61034c565b5b600061053a8582860161039f565b925050602083015167ffffffffffffffff81111561055b5761055a610351565b5b610567858286016104e7565b9150509250929050565b61057a81610376565b82525050565b60006020820190506105956000830184610571565b92915050565b600082825260208201905092915050565b7f4d617374657220617574686f7269747920616464726573732063616e6e6f742060008201527f6265207a65726f00000000000000000000000000000000000000000000000000602082015250565b600061060860278361059b565b9150610613826105ac565b604082019050919050565b60006020820190508181036000830152610637816105fb565b9050919050565b600081519050919050565b7f4e487b7100000000000000000000000000000000000000000000000000000000600052602260045260246000fd5b6000600282049050600182168061069057607f821691505b6020821081036106a3576106a2610649565b5b50919050565b60008190508160005260206000209050919050565b60006020601f8301049050919050565b600082821b905092915050565b60006008830261070b7fffffffffffffffffffffffffffffffffffffffffffffffffffffffffffffffff826106ce565b61071586836106ce565b95508019841693508086168417925050509392505050565b6000819050919050565b6000819050919050565b600061075c6107576107528461072d565b610737565b61072d565b9050919050565b6000819050919050565b61077683610741565b61078a61078282610763565b8484546106db565b825550505050565b600090565b61079f610792565b6107aa81848461076d565b505050565b5b818110156107ce576107c3600082610797565b6001810190506107b0565b5050565b601f821115610813576107e4816106a9565b6107ed846106be565b810160208510156107fc578190505b610810610808856106be565b8301826107af565b50505b505050565b600082821c905092915050565b600061083660001984600802610818565b1980831691505092915050565b600061084f8383610825565b9150826002028217905092915050565b6108688261063e565b67ffffffffffffffff811115610881576108806103cf565b5b61088b8254610678565b6108968282856107d2565b600060209050601f8311600181146108c957600084156108b7578287015190505b6108c18582610843565b865550610929565b601f1984166108d7866106a9565b60005b828110156108ff578489015182556001820191506020850194506020810190506108da565b8683101561091c5784890151610918601f891682610825565b8355505b6001600288020188555050505b505050505050565b61093a8161072d565b82525050565b60006020820190506109556000830184610931565b92915050565b608051611f5461098460003960008181610801015281816108b20152610d9b0152611f546000f3fe608060405234801561001057600080fd5b50600436106101165760003560e01c8063a617c0da116100a2578063d60544d111610071578063d60544d1146102cd578063e42d8752146102e9578063ee437bed1461030a578063f0314df01461033a578063f2fde38b1461035657610116565b8063a617c0da1461025b578063b81dc15914610279578063bd0f542a14610295578063bf892eaa146102b157610116565b8063857cdbb8116100e9578063857cdbb81461018d5780638da5cb5b146101bf5780638f243e58146101dd5780638f9c79ed146101fb578063996440c61461022b57610116565b80631dc6fa5e1461011b5780635bf3a31514610137578063715018a61461016757806375fa455614610171575b600080fd5b6101356004803603810190610130919061161b565b610372565b005b610151600480360381019061014c91906116c2565b61052d565b60405161015e919061170a565b60405180910390f35b61016f610583565b005b61018b600480360381019061018691906116c2565b610597565b005b6101a760048036038101906101a291906116c2565b61063d565b6040516101b6939291906117bd565b60405180910390f35b6101c7610764565b6040516101d4919061180a565b60405180910390f35b6101e561078d565b6040516101f2919061170a565b60405180910390f35b610215600480360381019061021091906116c2565b6107a7565b604051610222919061170a565b60405180910390f35b610245600480360381019061024091906116c2565b6107fd565b604051610252919061170a565b60405180910390f35b6102636108b0565b604051610270919061180a565b60405180910390f35b610293600480360381019061028e91906116c2565b6108d4565b005b6102af60048036038101906102aa9190611825565b610937565b005b6102cb60048036038101906102c691906116c2565b610b7f565b005b6102e760048036038101906102e291906118ad565b610c25565b005b6102f1611095565b6040516103019493929190611909565b60405180910390f35b610324600480360381019061031f91906116c2565b61117a565b604051610331919061170a565b60405180910390f35b610354600480360381019061034f91906116c2565b6111d3565b005b610370600480360381019061036b91906116c2565b6112e8565b005b60008151116103b6576040517f08c379a00000000000000000000000000000000000000000000000000000000081526004016103ad906119a1565b60405180910390fd5b600160003373ffffffffffffffffffffffffffffffffffffffff1673ffffffffffffffffffffffffffffffffffffffff16815260200190815260200160002060020160009054906101000a900460ff16610445576040517f08c379a000000000000000000000000000000000000000000000000000000000815260040161043c90611a0d565b60405180910390fd5b80600160003373ffffffffffffffffffffffffffffffffffffffff1673ffffffffffffffffffffffffffffffffffffffff16815260200190815260200160002060000190816104949190611c39565b5042600160003373ffffffffffffffffffffffffffffffffffffffff1673ffffffffffffffffffffffffffffffffffffffff168152602001908152602001600020600101819055503373ffffffffffffffffffffffffffffffffffffffff167fa850082d2fb101274de37494dc864e9277de33c04415c7ad9db57592c60511a5826040516105229190611d0b565b60405180910390a250565b6000600460008373ffffffffffffffffffffffffffffffffffffffff1673ffffffffffffffffffffffffffffffffffffffff16815260200190815260200160002060009054906101000a900460ff169050919050565b61058b61136e565b61059560006113f5565b565b61059f61136e565b6001600260008373ffffffffffffffffffffffffffffffffffffffff1673ffffffffffffffffffffffffffffffffffffffff16815260200190815260200160002060006101000a81548160ff0219169083151502179055508073ffffffffffffffffffffffffffffffffffffffff167fbb3d2b212e2bd0cf1c22e775e1e886fb737ce1710b35abf6beed29b60ed66ddf60405160405180910390a250565b60606000806000600160008673ffffffffffffffffffffffffffffffffffffffff1673ffffffffffffffffffffffffffffffffffffffff16815260200190815260200160002060405180606001604052908160008201805461069e90611a5c565b80601f01602080910402602001604051908101604052809291908181526020018280546106ca90611a5c565b80156107175780601f106106ec57610100808354040283529160200191610717565b820191906000526020600020905b8154815290600101906020018083116106fa57829003601f168201915b50505050508152602001600182015481526020016002820160009054906101000a900460ff1615151515815250509050806000015181602001518260400151935093509350509193909250565b60008060009054906101000a900473ffffffffffffffffffffffffffffffffffffffff16905090565b6000600560020160009054906101000a900460ff16905090565b6000600360008373ffffffffffffffffffffffffffffffffffffffff1673ffffffffffffffffffffffffffffffffffffffff16815260200190815260200160002060009054906101000a900460ff169050919050565b60007f000000000000000000000000000000000000000000000000000000000000000073ffffffffffffffffffffffffffffffffffffffff168273ffffffffffffffffffffffffffffffffffffffff160361085b57600190506108ab565b600260008373ffffffffffffffffffffffffffffffffffffffff1673ffffffffffffffffffffffffffffffffffffffff16815260200190815260200160002060009054906101000a900460ff1690505b919050565b7f000000000000000000000000000000000000000000000000000000000000000081565b6108dc61136e565b6000600260008373ffffffffffffffffffffffffffffffffffffffff1673ffffffffffffffffffffffffffffffffffffffff16815260200190815260200160002060006101000a81548160ff02191690831515021790555050565b600460003373ffffffffffffffffffffffffffffffffffffffff1673ffffffffffffffffffffffffffffffffffffffff16815260200190815260200160002060009054906101000a900460ff166109c3576040517f08c379a00000000000000000000000000000000000000000000000000000000081526004016109ba90611d9f565b60405180910390fd5b6000815111610a07576040517f08c379a00000000000000000000000000000000000000000000000000000000081526004016109fe906119a1565b60405180910390fd5b600160008373ffffffffffffffffffffffffffffffffffffffff1673ffffffffffffffffffffffffffffffffffffffff16815260200190815260200160002060020160009054906101000a900460ff16610a96576040517f08c379a0000000000000000000000000000000000000000000000000000000008152600401610a8d90611a0d565b60405180910390fd5b80600160008473ffffffffffffffffffffffffffffffffffffffff1673ffffffffffffffffffffffffffffffffffffffff1681526020019081526020016000206000019081610ae59190611c39565b5042600160008473ffffffffffffffffffffffffffffffffffffffff1673ffffffffffffffffffffffffffffffffffffffff168152602001908152602001600020600101819055508173ffffffffffffffffffffffffffffffffffffffff167fa850082d2fb101274de37494dc864e9277de33c04415c7ad9db57592c60511a582604051610b739190611d0b565b60405180910390a25050565b610b8761136e565b6000600460008373ffffffffffffffffffffffffffffffffffffffff1673ffffffffffffffffffffffffffffffffffffffff16815260200190815260200160002060006101000a81548160ff0219169083151502179055508073ffffffffffffffffffffffffffffffffffffffff167fe077e45f89f0635acaf766ec2ea56cb9579a33b8732ecdc656fe2e7bdf7cac4160405160405180910390a250565b6000825111610c69576040517f08c379a0000000000000000000000000000000000000000000000000000000008152600401610c6090611e0b565b60405180910390fd5b600160003373ffffffffffffffffffffffffffffffffffffffff1673ffffffffffffffffffffffffffffffffffffffff16815260200190815260200160002060020160009054906101000a900460ff1615610cf9576040517f08c379a0000000000000000000000000000000000000000000000000000000008152600401610cf090611e77565b60405180910390fd5b604051806060016040528083815260200142815260200160011515815250600160003373ffffffffffffffffffffffffffffffffffffffff1673ffffffffffffffffffffffffffffffffffffffff1681526020019081526020016000206000820151816000019081610d6b9190611c39565b506020820151816001015560408201518160020160006101000a81548160ff0219169083151502179055509050507f000000000000000000000000000000000000000000000000000000000000000073ffffffffffffffffffffffffffffffffffffffff163373ffffffffffffffffffffffffffffffffffffffff1603610f015760405180608001604052808381526020014281526020016001151581526020013373ffffffffffffffffffffffffffffffffffffffff1681525060056000820151816000019081610e3d9190611c39565b506020820151816001015560408201518160020160006101000a81548160ff02191690831515021790555060608201518160020160016101000a81548173ffffffffffffffffffffffffffffffffffffffff021916908373ffffffffffffffffffffffffffffffffffffffff1602179055509050503373ffffffffffffffffffffffffffffffffffffffff167f0fa549fff5e2e67dd4d587661a6b0462d786e132da0b01612d09d1e595f0a08142604051610ef89190611e97565b60405180910390a25b8015610fa7576001600260003373ffffffffffffffffffffffffffffffffffffffff1673ffffffffffffffffffffffffffffffffffffffff16815260200190815260200160002060006101000a81548160ff0219169083151502179055503373ffffffffffffffffffffffffffffffffffffffff167fbb3d2b212e2bd0cf1c22e775e1e886fb737ce1710b35abf6beed29b60ed66ddf60405160405180910390a2611043565b6001600360003373ffffffffffffffffffffffffffffffffffffffff1673ffffffffffffffffffffffffffffffffffffffff16815260200190815260200160002060006101000a81548160ff0219169083151502179055503373ffffffffffffffffffffffffffffffffffffffff167fc9fa2003fca4ce0dfc8cb0deae32266b715536df6685365b05b5be96ede8e49c60405160405180910390a25b3373ffffffffffffffffffffffffffffffffffffffff167fe6ba8490d82d58e83a08a0bfc5814e885bad83c28c703c75bcbf5ed6054300f6836040516110899190611d0b565b60405180910390a25050565b606060008060006005600001600560010154600560020160009054906101000a900460ff16600560020160019054906101000a900473ffffffffffffffffffffffffffffffffffffffff168380546110ec90611a5c565b80601f016020809104026020016040519081016040528092919081815260200182805461111890611a5c565b80156111655780601f1061113a57610100808354040283529160200191611165565b820191906000526020600020905b81548152906001019060200180831161114857829003601f168201915b50505050509350935093509350935090919293565b6000600160008373ffffffffffffffffffffffffffffffffffffffff1673ffffffffffffffffffffffffffffffffffffffff16815260200190815260200160002060020160009054906101000a900460ff169050919050565b6111db61136e565b600073ffffffffffffffffffffffffffffffffffffffff168173ffffffffffffffffffffffffffffffffffffffff160361124a576040517f08c379a000000000000000000000000000000000000000000000000000000000815260040161124190611efe565b60405180910390fd5b6001600460008373ffffffffffffffffffffffffffffffffffffffff1673ffffffffffffffffffffffffffffffffffffffff16815260200190815260200160002060006101000a81548160ff0219169083151502179055508073ffffffffffffffffffffffffffffffffffffffff167f4e87357acd951c4831877b6015585c4a7e20204cadf07178081e9929b3a13b5d60405160405180910390a250565b6112f061136e565b600073ffffffffffffffffffffffffffffffffffffffff168173ffffffffffffffffffffffffffffffffffffffff16036113625760006040517f1e4fbdf7000000000000000000000000000000000000000000000000000000008152600401611359919061180a565b60405180910390fd5b61136b816113f5565b50565b6113766114b9565b73ffffffffffffffffffffffffffffffffffffffff16611394610764565b73ffffffffffffffffffffffffffffffffffffffff16146113f3576113b76114b9565b6040517f118cdaa70000000000000000000000000000000000000000000000000000000081526004016113ea919061180a565b60405180910390fd5b565b60008060009054906101000a900473ffffffffffffffffffffffffffffffffffffffff169050816000806101000a81548173ffffffffffffffffffffffffffffffffffffffff021916908373ffffffffffffffffffffffffffffffffffffffff1602179055508173ffffffffffffffffffffffffffffffffffffffff168173ffffffffffffffffffffffffffffffffffffffff167f8be0079c531659141344cd1fd0a4f28419497f9722a3daafe3b4186f6b6457e060405160405180910390a35050565b600033905090565b6000604051905090565b600080fd5b600080fd5b600080fd5b600080fd5b6000601f19601f8301169050919050565b7f4e487b7100000000000000000000000000000000000000000000000000000000600052604160045260246000fd5b611528826114df565b810181811067ffffffffffffffff82111715611547576115466114f0565b5b80604052505050565b600061155a6114c1565b9050611566828261151f565b919050565b600067ffffffffffffffff821115611586576115856114f0565b5b61158f826114df565b9050602081019050919050565b82818337600083830152505050565b60006115be6115b98461156b565b611550565b9050828152602081018484840111156115da576115d96114da565b5b6115e584828561159c565b509392505050565b600082601f830112611602576116016114d5565b5b81356116128482602086016115ab565b91505092915050565b600060208284031215611631576116306114cb565b5b600082013567ffffffffffffffff81111561164f5761164e6114d0565b5b61165b848285016115ed565b91505092915050565b600073ffffffffffffffffffffffffffffffffffffffff82169050919050565b600061168f82611664565b9050919050565b61169f81611684565b81146116aa57600080fd5b50565b6000813590506116bc81611696565b92915050565b6000602082840312156116d8576116d76114cb565b5b60006116e6848285016116ad565b91505092915050565b60008115159050919050565b611704816116ef565b82525050565b600060208201905061171f60008301846116fb565b92915050565b600081519050919050565b600082825260208201905092915050565b60005b8381101561175f578082015181840152602081019050611744565b60008484015250505050565b600061177682611725565b6117808185611730565b9350611790818560208601611741565b611799816114df565b840191505092915050565b6000819050919050565b6117b7816117a4565b82525050565b600060608201905081810360008301526117d7818661176b565b90506117e660208301856117ae565b6117f360408301846116fb565b949350505050565b61180481611684565b82525050565b600060208201905061181f60008301846117fb565b92915050565b6000806040838503121561183c5761183b6114cb565b5b600061184a858286016116ad565b925050602083013567ffffffffffffffff81111561186b5761186a6114d0565b5b611877858286016115ed565b9150509250929050565b61188a816116ef565b811461189557600080fd5b50565b6000813590506118a781611881565b92915050565b600080604083850312156118c4576118c36114cb565b5b600083013567ffffffffffffffff8111156118e2576118e16114d0565b5b6118ee858286016115ed565b92505060206118ff85828601611898565b9150509250929050565b60006080820190508181036000830152611923818761176b565b905061193260208301866117ae565b61193f60408301856116fb565b61194c60608301846117fb565b95945050505050565b7f4e6577207075626c6963206b65792063616e6e6f7420626520656d7074790000600082015250565b600061198b601e83611730565b915061199682611955565b602082019050919050565b600060208201905081810360008301526119ba8161197e565b9050919050565b7f55736572206e6f74207265676973746572656400000000000000000000000000600082015250565b60006119f7601383611730565b9150611a02826119c1565b602082019050919050565b60006020820190508181036000830152611a26816119ea565b9050919050565b7f4e487b7100000000000000000000000000000000000000000000000000000000600052602260045260246000fd5b60006002820490506001821680611a7457607f821691505b602082108103611a8757611a86611a2d565b5b50919050565b60008190508160005260206000209050919050565b60006020601f8301049050919050565b600082821b905092915050565b600060088302611aef7fffffffffffffffffffffffffffffffffffffffffffffffffffffffffffffffff82611ab2565b611af98683611ab2565b95508019841693508086168417925050509392505050565b6000819050919050565b6000611b36611b31611b2c846117a4565b611b11565b6117a4565b9050919050565b6000819050919050565b611b5083611b1b565b611b64611b5c82611b3d565b848454611abf565b825550505050565b600090565b611b79611b6c565b611b84818484611b47565b505050565b5b81811015611ba857611b9d600082611b71565b600181019050611b8a565b5050565b601f821115611bed57611bbe81611a8d565b611bc784611aa2565b81016020851015611bd6578190505b611bea611be285611aa2565b830182611b89565b50505b505050565b600082821c905092915050565b6000611c1060001984600802611bf2565b1980831691505092915050565b6000611c298383611bff565b9150826002028217905092915050565b611c4282611725565b67ffffffffffffffff811115611c5b57611c5a6114f0565b5b611c658254611a5c565b611c70828285611bac565b600060209050601f831160018114611ca35760008415611c91578287015190505b611c9b8582611c1d565b865550611d03565b601f198416611cb186611a8d565b60005b82811015611cd957848901518255600182019150602085019450602081019050611cb4565b86831015611cf65784890151611cf2601f891682611bff565b8355505b6001600288020188555050505b505050505050565b60006020820190508181036000830152611d25818461176b565b905092915050565b7f4f6e6c79207472757374656420636f6e7472616374732063616e2063616c6c2060008201527f7468697300000000000000000000000000000000000000000000000000000000602082015250565b6000611d89602483611730565b9150611d9482611d2d565b604082019050919050565b60006020820190508181036000830152611db881611d7c565b9050919050565b7f5075626c6963206b65792063616e6e6f7420626520656d707479000000000000600082015250565b6000611df5601a83611730565b9150611e0082611dbf565b602082019050919050565b60006020820190508181036000830152611e2481611de8565b9050919050565b7f5075626c6963206b657920616c72656164792072656769737465726564000000600082015250565b6000611e61601d83611730565b9150611e6c82611e2b565b602082019050919050565b60006020820190508181036000830152611e9081611e54565b9050919050565b6000602082019050611eac60008301846117ae565b92915050565b7f496e76616c696420636f6e747261637420616464726573730000000000000000600082015250565b6000611ee8601883611730565b9150611ef382611eb2565b602082019050919050565b60006020820190508181036000830152611f1781611edb565b905091905056fea264697066735822122089b443c95dbddb5f0b8a42d58b98e69d0e36d043e5cb58e11044c6e0624feef964736f6c634300081c0033",
  "linkReferences": {},
  "deployedLinkReferences": {}
}