{
  "_format": "hh-sol-artifact-1",
  "contractName": "KeyRegistry",
  "sourceName": "contracts/KeyRegistry.sol",
  "abi": [
    {
      "inputs": [
        {
          "internalType": "string",
          "name": "_masterPublicKey",
          "type": "string"
        }
      ],
      "stateMutability": "nonpayable",
      "type": "constructor"
    },
    {
      "inputs": [
        {
          "internalType": "address",
          "name": "owner",
          "type": "address"
        }
      ],
      "name": "OwnableInvalidOwner",
      "type": "error"
    },
    {
      "inputs": [
        {
          "internalType": "address",
          "name": "account",
          "type": "address"
        }
      ],
      "name": "OwnableUnauthorizedAccount",
      "type": "error"
    },
    {
      "anonymous": false,
      "inputs": [
        {
          "indexed": true,
          "internalType": "address",
          "name": "doctor",
          "type": "address"
        }
      ],
      "name": "DoctorCertified",
      "type": "event"
    },
    {
      "anonymous": false,
      "inputs": [
        {
          "indexed": true,
          "internalType": "address",
          "name": "registeredBy",
          "type": "address"
        },
        {
          "indexed": false,
          "internalType": "uint256",
          "name": "timestamp",
          "type": "uint256"
        }
      ],
      "name": "MasterKeyRegistered",
      "type": "event"
    },
    {
      "anonymous": false,
      "inputs": [
        {
          "indexed": true,
          "internalType": "address",
          "name": "updatedBy",
          "type": "address"
        },
        {
          "indexed": false,
          "internalType": "uint256",
          "name": "timestamp",
          "type": "uint256"
        }
      ],
      "name": "MasterKeyUpdated",
      "type": "event"
    },
    {
      "anonymous": false,
      "inputs": [
        {
          "indexed": true,
          "internalType": "address",
          "name": "previousOwner",
          "type": "address"
        },
        {
          "indexed": true,
          "internalType": "address",
          "name": "newOwner",
          "type": "address"
        }
      ],
      "name": "OwnershipTransferred",
      "type": "event"
    },
    {
      "anonymous": false,
      "inputs": [
        {
          "indexed": true,
          "internalType": "address",
          "name": "patient",
          "type": "address"
        }
      ],
      "name": "PatientRegistered",
      "type": "event"
    },
    {
      "anonymous": false,
      "inputs": [
        {
          "indexed": true,
          "internalType": "address",
          "name": "user",
          "type": "address"
        },
        {
          "indexed": false,
          "internalType": "string",
          "name": "publicKey",
          "type": "string"
        }
      ],
      "name": "PublicKeyRegistered",
      "type": "event"
    },
    {
      "anonymous": false,
      "inputs": [
        {
          "indexed": true,
          "internalType": "address",
          "name": "user",
          "type": "address"
        },
        {
          "indexed": false,
          "internalType": "string",
          "name": "newPublicKey",
          "type": "string"
        }
      ],
      "name": "PublicKeyUpdated",
      "type": "event"
    },
    {
      "anonymous": false,
      "inputs": [
        {
          "indexed": true,
          "internalType": "address",
          "name": "contractAddress",
          "type": "address"
        }
      ],
      "name": "TrustedContractAdded",
      "type": "event"
    },
    {
      "anonymous": false,
      "inputs": [
        {
          "indexed": true,
          "internalType": "address",
          "name": "contractAddress",
          "type": "address"
        }
      ],
      "name": "TrustedContractRemoved",
      "type": "event"
    },
    {
      "inputs": [],
      "name": "MASTER_AUTHORITY_ADDRESS",
      "outputs": [
        {
          "internalType": "address",
          "name": "",
          "type": "address"
        }
      ],
      "stateMutability": "view",
      "type": "function"
    },
    {
      "inputs": [
        {
          "internalType": "address",
          "name": "_contract",
          "type": "address"
        }
      ],
      "name": "addTrustedContract",
      "outputs": [],
      "stateMutability": "nonpayable",
      "type": "function"
    },
    {
      "inputs": [
        {
          "internalType": "address",
          "name": "_doctor",
          "type": "address"
        }
      ],
      "name": "certifyDoctor",
      "outputs": [],
      "stateMutability": "nonpayable",
      "type": "function"
    },
    {
      "inputs": [],
      "name": "getMasterKey",
      "outputs": [
        {
          "internalType": "string",
          "name": "publicKey",
          "type": "string"
        },
        {
          "internalType": "uint256",
          "name": "timestamp",
          "type": "uint256"
        },
        {
          "internalType": "bool",
          "name": "isRegistered",
          "type": "bool"
        },
        {
          "internalType": "address",
          "name": "registeredBy",
          "type": "address"
        }
      ],
      "stateMutability": "view",
      "type": "function"
    },
    {
      "inputs": [
        {
          "internalType": "address",
          "name": "_user",
          "type": "address"
        }
      ],
      "name": "getPublicKey",
      "outputs": [
        {
          "internalType": "string",
          "name": "",
          "type": "string"
        },
        {
          "internalType": "uint256",
          "name": "",
          "type": "uint256"
        },
        {
          "internalType": "bool",
          "name": "",
          "type": "bool"
        }
      ],
      "stateMutability": "view",
      "type": "function"
    },
    {
      "inputs": [
        {
          "internalType": "address",
          "name": "_user",
          "type": "address"
        }
      ],
      "name": "isDoctor",
      "outputs": [
        {
          "internalType": "bool",
          "name": "",
          "type": "bool"
        }
      ],
      "stateMutability": "view",
      "type": "function"
    },
    {
      "inputs": [],
      "name": "isMasterKeyRegistered",
      "outputs": [
        {
          "internalType": "bool",
          "name": "",
          "type": "bool"
        }
      ],
      "stateMutability": "view",
      "type": "function"
    },
    {
      "inputs": [
        {
          "internalType": "address",
          "name": "_user",
          "type": "address"
        }
      ],
      "name": "isPatient",
      "outputs": [
        {
          "internalType": "bool",
          "name": "",
          "type": "bool"
        }
      ],
      "stateMutability": "view",
      "type": "function"
    },
    {
      "inputs": [
        {
          "internalType": "address",
          "name": "_user",
          "type": "address"
        }
      ],
      "name": "isPublicKeyRegistered",
      "outputs": [
        {
          "internalType": "bool",
          "name": "",
          "type": "bool"
        }
      ],
      "stateMutability": "view",
      "type": "function"
    },
    {
      "inputs": [
        {
          "internalType": "address",
          "name": "_contract",
          "type": "address"
        }
      ],
      "name": "isTrustedContract",
      "outputs": [
        {
          "internalType": "bool",
          "name": "",
          "type": "bool"
        }
      ],
      "stateMutability": "view",
      "type": "function"
    },
    {
      "inputs": [],
      "name": "owner",
      "outputs": [
        {
          "internalType": "address",
          "name": "",
          "type": "address"
        }
      ],
      "stateMutability": "view",
      "type": "function"
    },
    {
      "inputs": [
        {
          "internalType": "string",
          "name": "_publicKey",
          "type": "string"
        },
        {
          "internalType": "bool",
          "name": "_isDoctor",
          "type": "bool"
        }
      ],
      "name": "registerPublicKey",
      "outputs": [],
      "stateMutability": "nonpayable",
      "type": "function"
    },
    {
      "inputs": [
        {
          "internalType": "address",
          "name": "_contract",
          "type": "address"
        }
      ],
      "name": "removeTrustedContract",
      "outputs": [],
      "stateMutability": "nonpayable",
      "type": "function"
    },
    {
      "inputs": [],
      "name": "renounceOwnership",
      "outputs": [],
      "stateMutability": "nonpayable",
      "type": "function"
    },
    {
      "inputs": [
        {
          "internalType": "address",
          "name": "_doctor",
          "type": "address"
        }
      ],
      "name": "revokeDoctorCertification",
      "outputs": [],
      "stateMutability": "nonpayable",
      "type": "function"
    },
    {
      "inputs": [
        {
          "internalType": "address",
          "name": "newOwner",
          "type": "address"
        }
      ],
      "name": "transferOwnership",
      "outputs": [],
      "stateMutability": "nonpayable",
      "type": "function"
    },
    {
      "inputs": [
        {
          "internalType": "string",
          "name": "_newPublicKey",
          "type": "string"
        }
      ],
      "name": "updatePublicKey",
      "outputs": [],
      "stateMutability": "nonpayable",
      "type": "function"
    },
    {
      "inputs": [
        {
          "internalType": "address",
          "name": "_user",
          "type": "address"
        },
        {
          "internalType": "string",
          "name": "_newPublicKey",
          "type": "string"
        }
      ],
      "name": "updatePublicKeyFor",
      "outputs": [],
      "stateMutability": "nonpayable",
      "type": "function"
    }
  ],
  "bytecode": "0x608060405234801561001057600080fd5b5060405161271438038061271483398181016040528101906100329190610413565b33600073ffffffffffffffffffffffffffffffffffffffff168173ffffffffffffffffffffffffffffffffffffffff16036100a55760006040517f1e4fbdf700000000000000000000000000000000000000000000000000000000815260040161009c919061049d565b60405180910390fd5b6100b4816101da60201b60201c565b506000815111156101d45760405180608001604052808281526020014281526020016001151581526020013373ffffffffffffffffffffffffffffffffffffffff168152506005600082015181600001908161011091906106d9565b506020820151816001015560408201518160020160006101000a81548160ff02191690831515021790555060608201518160020160016101000a81548173ffffffffffffffffffffffffffffffffffffffff021916908373ffffffffffffffffffffffffffffffffffffffff1602179055509050503373ffffffffffffffffffffffffffffffffffffffff167f0fa549fff5e2e67dd4d587661a6b0462d786e132da0b01612d09d1e595f0a081426040516101cb91906107ba565b60405180910390a25b506107d5565b60008060009054906101000a900473ffffffffffffffffffffffffffffffffffffffff169050816000806101000a81548173ffffffffffffffffffffffffffffffffffffffff021916908373ffffffffffffffffffffffffffffffffffffffff1602179055508173ffffffffffffffffffffffffffffffffffffffff168173ffffffffffffffffffffffffffffffffffffffff167f8be0079c531659141344cd1fd0a4f28419497f9722a3daafe3b4186f6b6457e060405160405180910390a35050565b6000604051905090565b600080fd5b600080fd5b600080fd5b600080fd5b6000601f19601f8301169050919050565b7f4e487b7100000000000000000000000000000000000000000000000000000000600052604160045260246000fd5b610305826102bc565b810181811067ffffffffffffffff82111715610324576103236102cd565b5b80604052505050565b600061033761029e565b905061034382826102fc565b919050565b600067ffffffffffffffff821115610363576103626102cd565b5b61036c826102bc565b9050602081019050919050565b60005b8381101561039757808201518184015260208101905061037c565b60008484015250505050565b60006103b66103b184610348565b61032d565b9050828152602081018484840111156103d2576103d16102b7565b5b6103dd848285610379565b509392505050565b600082601f8301126103fa576103f96102b2565b5b815161040a8482602086016103a3565b91505092915050565b600060208284031215610429576104286102a8565b5b600082015167ffffffffffffffff811115610447576104466102ad565b5b610453848285016103e5565b91505092915050565b600073ffffffffffffffffffffffffffffffffffffffff82169050919050565b60006104878261045c565b9050919050565b6104978161047c565b82525050565b60006020820190506104b2600083018461048e565b92915050565b600081519050919050565b7f4e487b7100000000000000000000000000000000000000000000000000000000600052602260045260246000fd5b6000600282049050600182168061050a57607f821691505b60208210810361051d5761051c6104c3565b5b50919050565b60008190508160005260206000209050919050565b60006020601f8301049050919050565b600082821b905092915050565b6000600883026105857fffffffffffffffffffffffffffffffffffffffffffffffffffffffffffffffff82610548565b61058f8683610548565b95508019841693508086168417925050509392505050565b6000819050919050565b6000819050919050565b60006105d66105d16105cc846105a7565b6105b1565b6105a7565b9050919050565b6000819050919050565b6105f0836105bb565b6106046105fc826105dd565b848454610555565b825550505050565b600090565b61061961060c565b6106248184846105e7565b505050565b5b818110156106485761063d600082610611565b60018101905061062a565b5050565b601f82111561068d5761065e81610523565b61066784610538565b81016020851015610676578190505b61068a61068285610538565b830182610629565b50505b505050565b600082821c905092915050565b60006106b060001984600802610692565b1980831691505092915050565b60006106c9838361069f565b9150826002028217905092915050565b6106e2826104b8565b67ffffffffffffffff8111156106fb576106fa6102cd565b5b61070582546104f2565b61071082828561064c565b600060209050601f8311600181146107435760008415610731578287015190505b61073b85826106bd565b8655506107a3565b601f19841661075186610523565b60005b8281101561077957848901518255600182019150602085019450602081019050610754565b868310156107965784890151610792601f89168261069f565b8355505b6001600288020188555050505b505050505050565b6107b4816105a7565b82525050565b60006020820190506107cf60008301846107ab565b92915050565b611f30806107e46000396000f3fe608060405234801561001057600080fd5b50600436106101165760003560e01c8063a617c0da116100a2578063d60544d111610071578063d60544d1146102cd578063e42d8752146102e9578063ee437bed1461030a578063f0314df01461033a578063f2fde38b1461035657610116565b8063a617c0da1461025b578063b81dc15914610279578063bd0f542a14610295578063bf892eaa146102b157610116565b8063857cdbb8116100e9578063857cdbb81461018d5780638da5cb5b146101bf5780638f243e58146101dd5780638f9c79ed146101fb578063996440c61461022b57610116565b80631dc6fa5e1461011b5780635bf3a31514610137578063715018a61461016757806375fa455614610171575b600080fd5b610135600480360381019061013091906115f7565b610372565b005b610151600480360381019061014c919061169e565b61052d565b60405161015e91906116e6565b60405180910390f35b61016f610583565b005b61018b6004803603810190610186919061169e565b610597565b005b6101a760048036038101906101a2919061169e565b61063d565b6040516101b693929190611799565b60405180910390f35b6101c7610764565b6040516101d491906117e6565b60405180910390f35b6101e561078d565b6040516101f291906116e6565b60405180910390f35b6102156004803603810190610210919061169e565b6107a7565b60405161022291906116e6565b60405180910390f35b6102456004803603810190610240919061169e565b6107fd565b60405161025291906116e6565b60405180910390f35b6102636108a4565b60405161027091906117e6565b60405180910390f35b610293600480360381019061028e919061169e565b6108bc565b005b6102af60048036038101906102aa9190611801565b61091f565b005b6102cb60048036038101906102c6919061169e565b610b67565b005b6102e760048036038101906102e29190611889565b610c0d565b005b6102f1611071565b60405161030194939291906118e5565b60405180910390f35b610324600480360381019061031f919061169e565b611156565b60405161033191906116e6565b60405180910390f35b610354600480360381019061034f919061169e565b6111af565b005b610370600480360381019061036b919061169e565b6112c4565b005b60008151116103b6576040517f08c379a00000000000000000000000000000000000000000000000000000000081526004016103ad9061197d565b60405180910390fd5b600160003373ffffffffffffffffffffffffffffffffffffffff1673ffffffffffffffffffffffffffffffffffffffff16815260200190815260200160002060020160009054906101000a900460ff16610445576040517f08c379a000000000000000000000000000000000000000000000000000000000815260040161043c906119e9565b60405180910390fd5b80600160003373ffffffffffffffffffffffffffffffffffffffff1673ffffffffffffffffffffffffffffffffffffffff16815260200190815260200160002060000190816104949190611c15565b5042600160003373ffffffffffffffffffffffffffffffffffffffff1673ffffffffffffffffffffffffffffffffffffffff168152602001908152602001600020600101819055503373ffffffffffffffffffffffffffffffffffffffff167fa850082d2fb101274de37494dc864e9277de33c04415c7ad9db57592c60511a5826040516105229190611ce7565b60405180910390a250565b6000600460008373ffffffffffffffffffffffffffffffffffffffff1673ffffffffffffffffffffffffffffffffffffffff16815260200190815260200160002060009054906101000a900460ff169050919050565b61058b61134a565b61059560006113d1565b565b61059f61134a565b6001600260008373ffffffffffffffffffffffffffffffffffffffff1673ffffffffffffffffffffffffffffffffffffffff16815260200190815260200160002060006101000a81548160ff0219169083151502179055508073ffffffffffffffffffffffffffffffffffffffff167fbb3d2b212e2bd0cf1c22e775e1e886fb737ce1710b35abf6beed29b60ed66ddf60405160405180910390a250565b60606000806000600160008673ffffffffffffffffffffffffffffffffffffffff1673ffffffffffffffffffffffffffffffffffffffff16815260200190815260200160002060405180606001604052908160008201805461069e90611a38565b80601f01602080910402602001604051908101604052809291908181526020018280546106ca90611a38565b80156107175780601f106106ec57610100808354040283529160200191610717565b820191906000526020600020905b8154815290600101906020018083116106fa57829003601f168201915b50505050508152602001600182015481526020016002820160009054906101000a900460ff1615151515815250509050806000015181602001518260400151935093509350509193909250565b60008060009054906101000a900473ffffffffffffffffffffffffffffffffffffffff16905090565b6000600560020160009054906101000a900460ff16905090565b6000600360008373ffffffffffffffffffffffffffffffffffffffff1673ffffffffffffffffffffffffffffffffffffffff16815260200190815260200160002060009054906101000a900460ff169050919050565b600073bcd4042de499d14e55001ccbb24a551f3b95409673ffffffffffffffffffffffffffffffffffffffff168273ffffffffffffffffffffffffffffffffffffffff160361084f576001905061089f565b600260008373ffffffffffffffffffffffffffffffffffffffff1673ffffffffffffffffffffffffffffffffffffffff16815260200190815260200160002060009054906101000a900460ff1690505b919050565b73bcd4042de499d14e55001ccbb24a551f3b95409681565b6108c461134a565b6000600260008373ffffffffffffffffffffffffffffffffffffffff1673ffffffffffffffffffffffffffffffffffffffff16815260200190815260200160002060006101000a81548160ff02191690831515021790555050565b600460003373ffffffffffffffffffffffffffffffffffffffff1673ffffffffffffffffffffffffffffffffffffffff16815260200190815260200160002060009054906101000a900460ff166109ab576040517f08c379a00000000000000000000000000000000000000000000000000000000081526004016109a290611d7b565b60405180910390fd5b60008151116109ef576040517f08c379a00000000000000000000000000000000000000000000000000000000081526004016109e69061197d565b60405180910390fd5b600160008373ffffffffffffffffffffffffffffffffffffffff1673ffffffffffffffffffffffffffffffffffffffff16815260200190815260200160002060020160009054906101000a900460ff16610a7e576040517f08c379a0000000000000000000000000000000000000000000000000000000008152600401610a75906119e9565b60405180910390fd5b80600160008473ffffffffffffffffffffffffffffffffffffffff1673ffffffffffffffffffffffffffffffffffffffff1681526020019081526020016000206000019081610acd9190611c15565b5042600160008473ffffffffffffffffffffffffffffffffffffffff1673ffffffffffffffffffffffffffffffffffffffff168152602001908152602001600020600101819055508173ffffffffffffffffffffffffffffffffffffffff167fa850082d2fb101274de37494dc864e9277de33c04415c7ad9db57592c60511a582604051610b5b9190611ce7565b60405180910390a25050565b610b6f61134a565b6000600460008373ffffffffffffffffffffffffffffffffffffffff1673ffffffffffffffffffffffffffffffffffffffff16815260200190815260200160002060006101000a81548160ff0219169083151502179055508073ffffffffffffffffffffffffffffffffffffffff167fe077e45f89f0635acaf766ec2ea56cb9579a33b8732ecdc656fe2e7bdf7cac4160405160405180910390a250565b6000825111610c51576040517f08c379a0000000000000000000000000000000000000000000000000000000008152600401610c4890611de7565b60405180910390fd5b600160003373ffffffffffffffffffffffffffffffffffffffff1673ffffffffffffffffffffffffffffffffffffffff16815260200190815260200160002060020160009054906101000a900460ff1615610ce1576040517f08c379a0000000000000000000000000000000000000000000000000000000008152600401610cd890611e53565b60405180910390fd5b604051806060016040528083815260200142815260200160011515815250600160003373ffffffffffffffffffffffffffffffffffffffff1673ffffffffffffffffffffffffffffffffffffffff1681526020019081526020016000206000820151816000019081610d539190611c15565b506020820151816001015560408201518160020160006101000a81548160ff02191690831515021790555090505073bcd4042de499d14e55001ccbb24a551f3b95409673ffffffffffffffffffffffffffffffffffffffff163373ffffffffffffffffffffffffffffffffffffffff1603610edd5760405180608001604052808381526020014281526020016001151581526020013373ffffffffffffffffffffffffffffffffffffffff1681525060056000820151816000019081610e199190611c15565b506020820151816001015560408201518160020160006101000a81548160ff02191690831515021790555060608201518160020160016101000a81548173ffffffffffffffffffffffffffffffffffffffff021916908373ffffffffffffffffffffffffffffffffffffffff1602179055509050503373ffffffffffffffffffffffffffffffffffffffff167f0fa549fff5e2e67dd4d587661a6b0462d786e132da0b01612d09d1e595f0a08142604051610ed49190611e73565b60405180910390a25b8015610f83576001600260003373ffffffffffffffffffffffffffffffffffffffff1673ffffffffffffffffffffffffffffffffffffffff16815260200190815260200160002060006101000a81548160ff0219169083151502179055503373ffffffffffffffffffffffffffffffffffffffff167fbb3d2b212e2bd0cf1c22e775e1e886fb737ce1710b35abf6beed29b60ed66ddf60405160405180910390a261101f565b6001600360003373ffffffffffffffffffffffffffffffffffffffff1673ffffffffffffffffffffffffffffffffffffffff16815260200190815260200160002060006101000a81548160ff0219169083151502179055503373ffffffffffffffffffffffffffffffffffffffff167fc9fa2003fca4ce0dfc8cb0deae32266b715536df6685365b05b5be96ede8e49c60405160405180910390a25b3373ffffffffffffffffffffffffffffffffffffffff167fe6ba8490d82d58e83a08a0bfc5814e885bad83c28c703c75bcbf5ed6054300f6836040516110659190611ce7565b60405180910390a25050565b606060008060006005600001600560010154600560020160009054906101000a900460ff16600560020160019054906101000a900473ffffffffffffffffffffffffffffffffffffffff168380546110c890611a38565b80601f01602080910402602001604051908101604052809291908181526020018280546110f490611a38565b80156111415780601f1061111657610100808354040283529160200191611141565b820191906000526020600020905b81548152906001019060200180831161112457829003601f168201915b50505050509350935093509350935090919293565b6000600160008373ffffffffffffffffffffffffffffffffffffffff1673ffffffffffffffffffffffffffffffffffffffff16815260200190815260200160002060020160009054906101000a900460ff169050919050565b6111b761134a565b600073ffffffffffffffffffffffffffffffffffffffff168173ffffffffffffffffffffffffffffffffffffffff1603611226576040517f08c379a000000000000000000000000000000000000000000000000000000000815260040161121d90611eda565b60405180910390fd5b6001600460008373ffffffffffffffffffffffffffffffffffffffff1673ffffffffffffffffffffffffffffffffffffffff16815260200190815260200160002060006101000a81548160ff0219169083151502179055508073ffffffffffffffffffffffffffffffffffffffff167f4e87357acd951c4831877b6015585c4a7e20204cadf07178081e9929b3a13b5d60405160405180910390a250565b6112cc61134a565b600073ffffffffffffffffffffffffffffffffffffffff168173ffffffffffffffffffffffffffffffffffffffff160361133e5760006040517f1e4fbdf700000000000000000000000000000000000000000000000000000000815260040161133591906117e6565b60405180910390fd5b611347816113d1565b50565b611352611495565b73ffffffffffffffffffffffffffffffffffffffff16611370610764565b73ffffffffffffffffffffffffffffffffffffffff16146113cf57611393611495565b6040517f118cdaa70000000000000000000000000000000000000000000000000000000081526004016113c691906117e6565b60405180910390fd5b565b60008060009054906101000a900473ffffffffffffffffffffffffffffffffffffffff169050816000806101000a81548173ffffffffffffffffffffffffffffffffffffffff021916908373ffffffffffffffffffffffffffffffffffffffff1602179055508173ffffffffffffffffffffffffffffffffffffffff168173ffffffffffffffffffffffffffffffffffffffff167f8be0079c531659141344cd1fd0a4f28419497f9722a3daafe3b4186f6b6457e060405160405180910390a35050565b600033905090565b6000604051905090565b600080fd5b600080fd5b600080fd5b600080fd5b6000601f19601f8301169050919050565b7f4e487b7100000000000000000000000000000000000000000000000000000000600052604160045260246000fd5b611504826114bb565b810181811067ffffffffffffffff82111715611523576115226114cc565b5b80604052505050565b600061153661149d565b905061154282826114fb565b919050565b600067ffffffffffffffff821115611562576115616114cc565b5b61156b826114bb565b9050602081019050919050565b82818337600083830152505050565b600061159a61159584611547565b61152c565b9050828152602081018484840111156115b6576115b56114b6565b5b6115c1848285611578565b509392505050565b600082601f8301126115de576115dd6114b1565b5b81356115ee848260208601611587565b91505092915050565b60006020828403121561160d5761160c6114a7565b5b600082013567ffffffffffffffff81111561162b5761162a6114ac565b5b611637848285016115c9565b91505092915050565b600073ffffffffffffffffffffffffffffffffffffffff82169050919050565b600061166b82611640565b9050919050565b61167b81611660565b811461168657600080fd5b50565b60008135905061169881611672565b92915050565b6000602082840312156116b4576116b36114a7565b5b60006116c284828501611689565b91505092915050565b60008115159050919050565b6116e0816116cb565b82525050565b60006020820190506116fb60008301846116d7565b92915050565b600081519050919050565b600082825260208201905092915050565b60005b8381101561173b578082015181840152602081019050611720565b60008484015250505050565b600061175282611701565b61175c818561170c565b935061176c81856020860161171d565b611775816114bb565b840191505092915050565b6000819050919050565b61179381611780565b82525050565b600060608201905081810360008301526117b38186611747565b90506117c2602083018561178a565b6117cf60408301846116d7565b949350505050565b6117e081611660565b82525050565b60006020820190506117fb60008301846117d7565b92915050565b60008060408385031215611818576118176114a7565b5b600061182685828601611689565b925050602083013567ffffffffffffffff811115611847576118466114ac565b5b611853858286016115c9565b9150509250929050565b611866816116cb565b811461187157600080fd5b50565b6000813590506118838161185d565b92915050565b600080604083850312156118a05761189f6114a7565b5b600083013567ffffffffffffffff8111156118be576118bd6114ac565b5b6118ca858286016115c9565b92505060206118db85828601611874565b9150509250929050565b600060808201905081810360008301526118ff8187611747565b905061190e602083018661178a565b61191b60408301856116d7565b61192860608301846117d7565b95945050505050565b7f4e6577207075626c6963206b65792063616e6e6f7420626520656d7074790000600082015250565b6000611967601e8361170c565b915061197282611931565b602082019050919050565b600060208201905081810360008301526119968161195a565b9050919050565b7f55736572206e6f74207265676973746572656400000000000000000000000000600082015250565b60006119d360138361170c565b91506119de8261199d565b602082019050919050565b60006020820190508181036000830152611a02816119c6565b9050919050565b7f4e487b7100000000000000000000000000000000000000000000000000000000600052602260045260246000fd5b60006002820490506001821680611a5057607f821691505b602082108103611a6357611a62611a09565b5b50919050565b60008190508160005260206000209050919050565b60006020601f8301049050919050565b600082821b905092915050565b600060088302611acb7fffffffffffffffffffffffffffffffffffffffffffffffffffffffffffffffff82611a8e565b611ad58683611a8e565b95508019841693508086168417925050509392505050565b6000819050919050565b6000611b12611b0d611b0884611780565b611aed565b611780565b9050919050565b6000819050919050565b611b2c83611af7565b611b40611b3882611b19565b848454611a9b565b825550505050565b600090565b611b55611b48565b611b60818484611b23565b505050565b5b81811015611b8457611b79600082611b4d565b600181019050611b66565b5050565b601f821115611bc957611b9a81611a69565b611ba384611a7e565b81016020851015611bb2578190505b611bc6611bbe85611a7e565b830182611b65565b50505b505050565b600082821c905092915050565b6000611bec60001984600802611bce565b1980831691505092915050565b6000611c058383611bdb565b9150826002028217905092915050565b611c1e82611701565b67ffffffffffffffff811115611c3757611c366114cc565b5b611c418254611a38565b611c4c828285611b88565b600060209050601f831160018114611c7f5760008415611c6d578287015190505b611c778582611bf9565b865550611cdf565b601f198416611c8d86611a69565b60005b82811015611cb557848901518255600182019150602085019450602081019050611c90565b86831015611cd25784890151611cce601f891682611bdb565b8355505b6001600288020188555050505b505050505050565b60006020820190508181036000830152611d018184611747565b905092915050565b7f4f6e6c79207472757374656420636f6e7472616374732063616e2063616c6c2060008201527f7468697300000000000000000000000000000000000000000000000000000000602082015250565b6000611d6560248361170c565b9150611d7082611d09565b604082019050919050565b60006020820190508181036000830152611d9481611d58565b9050919050565b7f5075626c6963206b65792063616e6e6f7420626520656d707479000000000000600082015250565b6000611dd1601a8361170c565b9150611ddc82611d9b565b602082019050919050565b60006020820190508181036000830152611e0081611dc4565b9050919050565b7f5075626c6963206b657920616c72656164792072656769737465726564000000600082015250565b6000611e3d601d8361170c565b9150611e4882611e07565b602082019050919050565b60006020820190508181036000830152611e6c81611e30565b9050919050565b6000602082019050611e88600083018461178a565b92915050565b7f496e76616c696420636f6e747261637420616464726573730000000000000000600082015250565b6000611ec460188361170c565b9150611ecf82611e8e565b602082019050919050565b60006020820190508181036000830152611ef381611eb7565b905091905056fea26469706673582212200492cac72e563c00ba522df23956d74e2ab852ae72478189f810930ff5573b6e64736f6c634300081c0033",
  "linkReferences": {},
  "deployedLinkReferences": {}
}