{
  "_format": "hh-sol-artifact-1",
  "contractName": "MedicalRecord",
  "sourceName": "contracts/MedicalRecord.sol",
  "abi": [
    {
      "inputs": [],
      "stateMutability": "nonpayable",
      "type": "constructor"
    },
    {
      "inputs": [],
      "name": "ECDSAInvalidSignature",
      "type": "error"
    },
    {
      "inputs": [
        {
          "internalType": "uint256",
          "name": "length",
          "type": "uint256"
        }
      ],
      "name": "ECDSAInvalidSignatureLength",
      "type": "error"
    },
    {
      "inputs": [
        {
          "internalType": "bytes32",
          "name": "s",
          "type": "bytes32"
        }
      ],
      "name": "ECDSAInvalidSignatureS",
      "type": "error"
    },
    {
      "inputs": [
        {
          "internalType": "address",
          "name": "owner",
          "type": "address"
        }
      ],
      "name": "OwnableInvalidOwner",
      "type": "error"
    },
    {
      "inputs": [
        {
          "internalType": "address",
          "name": "account",
          "type": "address"
        }
      ],
      "name": "OwnableUnauthorizedAccount",
      "type": "error"
    },
    {
      "anonymous": false,
      "inputs": [
        {
          "indexed": true,
          "internalType": "address",
          "name": "doctor",
          "type": "address"
        }
      ],
      "name": "DoctorAdded",
      "type": "event"
    },
    {
      "anonymous": false,
      "inputs": [
        {
          "indexed": true,
          "internalType": "address",
          "name": "doctor",
          "type": "address"
        }
      ],
      "name": "DoctorRemoved",
      "type": "event"
    },
    {
      "anonymous": false,
      "inputs": [
        {
          "indexed": true,
          "internalType": "address",
          "name": "previousOwner",
          "type": "address"
        },
        {
          "indexed": true,
          "internalType": "address",
          "name": "newOwner",
          "type": "address"
        }
      ],
      "name": "OwnershipTransferred",
      "type": "event"
    },
    {
      "anonymous": false,
      "inputs": [
        {
          "indexed": true,
          "internalType": "address",
          "name": "patient",
          "type": "address"
        },
        {
          "indexed": true,
          "internalType": "uint256",
          "name": "recordId",
          "type": "uint256"
        },
        {
          "indexed": false,
          "internalType": "string",
          "name": "data",
          "type": "string"
        }
      ],
      "name": "RecordAdded",
      "type": "event"
    },
    {
      "inputs": [
        {
          "internalType": "address",
          "name": "doctor",
          "type": "address"
        }
      ],
      "name": "addDoctor",
      "outputs": [],
      "stateMutability": "nonpayable",
      "type": "function"
    },
    {
      "inputs": [
        {
          "internalType": "address",
          "name": "patient",
          "type": "address"
        },
        {
          "internalType": "string",
          "name": "data",
          "type": "string"
        },
        {
          "internalType": "bytes",
          "name": "signature",
          "type": "bytes"
        },
        {
          "internalType": "address",
          "name": "hospital",
          "type": "address"
        }
      ],
      "name": "addMedicalRecord",
      "outputs": [],
      "stateMutability": "nonpayable",
      "type": "function"
    },
    {
      "inputs": [
        {
          "internalType": "address",
          "name": "patient",
          "type": "address"
        },
        {
          "internalType": "uint256",
          "name": "recordId",
          "type": "uint256"
        }
      ],
      "name": "getMedicalRecord",
      "outputs": [
        {
          "internalType": "string",
          "name": "data",
          "type": "string"
        },
        {
          "internalType": "bytes",
          "name": "signature",
          "type": "bytes"
        },
        {
          "internalType": "address",
          "name": "hospital",
          "type": "address"
        },
        {
          "internalType": "uint256",
          "name": "timestamp",
          "type": "uint256"
        }
      ],
      "stateMutability": "view",
      "type": "function"
    },
    {
      "inputs": [
        {
          "internalType": "address",
          "name": "patient",
          "type": "address"
        }
      ],
      "name": "getRecordCount",
      "outputs": [
        {
          "internalType": "uint256",
          "name": "",
          "type": "uint256"
        }
      ],
      "stateMutability": "view",
      "type": "function"
    },
    {
      "inputs": [
        {
          "internalType": "address",
          "name": "doctor",
          "type": "address"
        }
      ],
      "name": "isDoctor",
      "outputs": [
        {
          "internalType": "bool",
          "name": "",
          "type": "bool"
        }
      ],
      "stateMutability": "view",
      "type": "function"
    },
    {
      "inputs": [],
      "name": "owner",
      "outputs": [
        {
          "internalType": "address",
          "name": "",
          "type": "address"
        }
      ],
      "stateMutability": "view",
      "type": "function"
    },
    {
      "inputs": [
        {
          "internalType": "address",
          "name": "doctor",
          "type": "address"
        }
      ],
      "name": "removeDoctor",
      "outputs": [],
      "stateMutability": "nonpayable",
      "type": "function"
    },
    {
      "inputs": [],
      "name": "renounceOwnership",
      "outputs": [],
      "stateMutability": "nonpayable",
      "type": "function"
    },
    {
      "inputs": [
        {
          "internalType": "address",
          "name": "newOwner",
          "type": "address"
        }
      ],
      "name": "transferOwnership",
      "outputs": [],
      "stateMutability": "nonpayable",
      "type": "function"
    },
    {
      "inputs": [
        {
          "internalType": "string",
          "name": "data",
          "type": "string"
        },
        {
          "internalType": "bytes",
          "name": "signature",
          "type": "bytes"
        },
        {
          "internalType": "address",
          "name": "hospital",
          "type": "address"
        }
      ],
      "name": "verifySignature",
      "outputs": [
        {
          "internalType": "bool",
          "name": "",
          "type": "bool"
        }
      ],
      "stateMutability": "pure",
      "type": "function"
    }
  ],
  "bytecode": "0x608060405234801561001057600080fd5b5033600073ffffffffffffffffffffffffffffffffffffffff168173ffffffffffffffffffffffffffffffffffffffff16036100845760006040517f1e4fbdf700000000000000000000000000000000000000000000000000000000815260040161007b919061019e565b60405180910390fd5b6100938161009960201b60201c565b506101b9565b60008060009054906101000a900473ffffffffffffffffffffffffffffffffffffffff169050816000806101000a81548173ffffffffffffffffffffffffffffffffffffffff021916908373ffffffffffffffffffffffffffffffffffffffff1602179055508173ffffffffffffffffffffffffffffffffffffffff168173ffffffffffffffffffffffffffffffffffffffff167f8be0079c531659141344cd1fd0a4f28419497f9722a3daafe3b4186f6b6457e060405160405180910390a35050565b600073ffffffffffffffffffffffffffffffffffffffff82169050919050565b60006101888261015d565b9050919050565b6101988161017d565b82525050565b60006020820190506101b3600083018461018f565b92915050565b611d7d806101c86000396000f3fe608060405234801561001057600080fd5b506004361061009e5760003560e01c806398fc90e91161006657806398fc90e914610133578063996440c61461014f578063c95571a41461017f578063eea9c37b146101af578063f2fde38b146101e25761009e565b80634780468f146100a357806354acb133146100bf57806358214308146100db578063715018a61461010b5780638da5cb5b14610115575b600080fd5b6100bd60048036038101906100b891906110de565b6101fe565b005b6100d960048036038101906100d491906112f2565b6102a4565b005b6100f560048036038101906100f091906110de565b610570565b60405161010291906113aa565b60405180910390f35b6101136105b9565b005b61011d6105cd565b60405161012a91906113d4565b60405180910390f35b61014d600480360381019061014891906110de565b6105f6565b005b610169600480360381019061016491906110de565b61069c565b604051610176919061140a565b60405180910390f35b61019960048036038101906101949190611425565b6106f2565b6040516101a6919061140a565b60405180910390f35b6101c960048036038101906101c491906114dc565b610748565b6040516101d994939291906115f0565b60405180910390f35b6101fc60048036038101906101f791906110de565b610957565b005b6102066109dd565b6001600360008373ffffffffffffffffffffffffffffffffffffffff1673ffffffffffffffffffffffffffffffffffffffff16815260200190815260200160002060006101000a81548160ff0219169083151502179055508073ffffffffffffffffffffffffffffffffffffffff167f69908b2e63170aa89ef89719bbe3b4c92cccc38653968ab25f4464eff7c28ac860405160405180910390a250565b600360003373ffffffffffffffffffffffffffffffffffffffff1673ffffffffffffffffffffffffffffffffffffffff16815260200190815260200160002060009054906101000a900460ff16610330576040517f08c379a00000000000000000000000000000000000000000000000000000000081526004016103279061168f565b60405180910390fd5b61033b8383836106f2565b61037a576040517f08c379a0000000000000000000000000000000000000000000000000000000008152600401610371906116fb565b60405180910390fd5b6000600260008673ffffffffffffffffffffffffffffffffffffffff1673ffffffffffffffffffffffffffffffffffffffff16815260200190815260200160002054905060405180608001604052808581526020018481526020018373ffffffffffffffffffffffffffffffffffffffff16815260200142815250600160008773ffffffffffffffffffffffffffffffffffffffff1673ffffffffffffffffffffffffffffffffffffffff1681526020019081526020016000206000838152602001908152602001600020600082015181600001908161045a9190611927565b5060208201518160010190816104709190611a54565b5060408201518160020160006101000a81548173ffffffffffffffffffffffffffffffffffffffff021916908373ffffffffffffffffffffffffffffffffffffffff16021790555060608201518160030155905050600260008673ffffffffffffffffffffffffffffffffffffffff1673ffffffffffffffffffffffffffffffffffffffff168152602001908152602001600020600081548092919061051590611b55565b9190505550808573ffffffffffffffffffffffffffffffffffffffff167fa9ad46db2c884e6e6299f7bb4005897a4368a2f8a56ddd645874bb9498a03bab866040516105619190611b9d565b60405180910390a35050505050565b6000600260008373ffffffffffffffffffffffffffffffffffffffff1673ffffffffffffffffffffffffffffffffffffffff168152602001908152602001600020549050919050565b6105c16109dd565b6105cb6000610a64565b565b60008060009054906101000a900473ffffffffffffffffffffffffffffffffffffffff16905090565b6105fe6109dd565b6000600360008373ffffffffffffffffffffffffffffffffffffffff1673ffffffffffffffffffffffffffffffffffffffff16815260200190815260200160002060006101000a81548160ff0219169083151502179055508073ffffffffffffffffffffffffffffffffffffffff167f493d7cf6a7c880406a55654d6727464ea088bd01d40498e1987a327e68961ab860405160405180910390a250565b6000600360008373ffffffffffffffffffffffffffffffffffffffff1673ffffffffffffffffffffffffffffffffffffffff16815260200190815260200160002060009054906101000a900460ff169050919050565b6000806106fe85610b28565b9050600061070c8286610b63565b90508373ffffffffffffffffffffffffffffffffffffffff168173ffffffffffffffffffffffffffffffffffffffff1614925050509392505050565b6060806000806000600160008873ffffffffffffffffffffffffffffffffffffffff1673ffffffffffffffffffffffffffffffffffffffff16815260200190815260200160002060008781526020019081526020016000206040518060800160405290816000820180546107bb9061174a565b80601f01602080910402602001604051908101604052809291908181526020018280546107e79061174a565b80156108345780601f1061080957610100808354040283529160200191610834565b820191906000526020600020905b81548152906001019060200180831161081757829003601f168201915b5050505050815260200160018201805461084d9061174a565b80601f01602080910402602001604051908101604052809291908181526020018280546108799061174a565b80156108c65780601f1061089b576101008083540402835291602001916108c6565b820191906000526020600020905b8154815290600101906020018083116108a957829003601f168201915b505050505081526020016002820160009054906101000a900473ffffffffffffffffffffffffffffffffffffffff1673ffffffffffffffffffffffffffffffffffffffff1673ffffffffffffffffffffffffffffffffffffffff1681526020016003820154815250509050806000015181602001518260400151836060015194509450945094505092959194509250565b61095f6109dd565b600073ffffffffffffffffffffffffffffffffffffffff168173ffffffffffffffffffffffffffffffffffffffff16036109d15760006040517f1e4fbdf70000000000000000000000000000000000000000000000000000000081526004016109c891906113d4565b60405180910390fd5b6109da81610a64565b50565b6109e5610b8f565b73ffffffffffffffffffffffffffffffffffffffff16610a036105cd565b73ffffffffffffffffffffffffffffffffffffffff1614610a6257610a26610b8f565b6040517f118cdaa7000000000000000000000000000000000000000000000000000000008152600401610a5991906113d4565b60405180910390fd5b565b60008060009054906101000a900473ffffffffffffffffffffffffffffffffffffffff169050816000806101000a81548173ffffffffffffffffffffffffffffffffffffffff021916908373ffffffffffffffffffffffffffffffffffffffff1602179055508173ffffffffffffffffffffffffffffffffffffffff168173ffffffffffffffffffffffffffffffffffffffff167f8be0079c531659141344cd1fd0a4f28419497f9722a3daafe3b4186f6b6457e060405160405180910390a35050565b6000610b348251610b97565b82604051602001610b46929190611c21565b604051602081830303815290604052805190602001209050919050565b600080600080610b738686610c65565b925092509250610b838282610cc1565b82935050505092915050565b600033905090565b606060006001610ba684610e25565b01905060008167ffffffffffffffff811115610bc557610bc4611126565b5b6040519080825280601f01601f191660200182016040528015610bf75781602001600182028036833780820191505090505b509050600082602001820190505b600115610c5a578080600190039150507f3031323334353637383961626364656600000000000000000000000000000000600a86061a8153600a8581610c4e57610c4d611c54565b5b04945060008503610c05575b819350505050919050565b60008060006041845103610caa5760008060006020870151925060408701519150606087015160001a9050610c9c88828585610f78565b955095509550505050610cba565b60006002855160001b9250925092505b9250925092565b60006003811115610cd557610cd4611c83565b5b826003811115610ce857610ce7611c83565b5b0315610e215760016003811115610d0257610d01611c83565b5b826003811115610d1557610d14611c83565b5b03610d4c576040517ff645eedf00000000000000000000000000000000000000000000000000000000815260040160405180910390fd5b60026003811115610d6057610d5f611c83565b5b826003811115610d7357610d72611c83565b5b03610db8578060001c6040517ffce698f7000000000000000000000000000000000000000000000000000000008152600401610daf91906113aa565b60405180910390fd5b600380811115610dcb57610dca611c83565b5b826003811115610dde57610ddd611c83565b5b03610e2057806040517fd78bce0c000000000000000000000000000000000000000000000000000000008152600401610e179190611ccb565b60405180910390fd5b5b5050565b600080600090507a184f03e93ff9f4daa797ed6e38ed64bf6a1f0100000000000000008310610e83577a184f03e93ff9f4daa797ed6e38ed64bf6a1f0100000000000000008381610e7957610e78611c54565b5b0492506040810190505b6d04ee2d6d415b85acef81000000008310610ec0576d04ee2d6d415b85acef81000000008381610eb657610eb5611c54565b5b0492506020810190505b662386f26fc100008310610eef57662386f26fc100008381610ee557610ee4611c54565b5b0492506010810190505b6305f5e1008310610f18576305f5e1008381610f0e57610f0d611c54565b5b0492506008810190505b6127108310610f3d576127108381610f3357610f32611c54565b5b0492506004810190505b60648310610f605760648381610f5657610f55611c54565b5b0492506002810190505b600a8310610f6f576001810190505b80915050919050565b60008060007f7fffffffffffffffffffffffffffffff5d576e7357a4501ddfe92f46681b20a08460001c1115610fb8576000600385925092509250611062565b600060018888888860405160008152602001604052604051610fdd9493929190611d02565b6020604051602081039080840390855afa158015610fff573d6000803e3d6000fd5b505050602060405103519050600073ffffffffffffffffffffffffffffffffffffffff168173ffffffffffffffffffffffffffffffffffffffff160361105357600060016000801b93509350935050611062565b8060008060001b935093509350505b9450945094915050565b6000604051905090565b600080fd5b600080fd5b600073ffffffffffffffffffffffffffffffffffffffff82169050919050565b60006110ab82611080565b9050919050565b6110bb816110a0565b81146110c657600080fd5b50565b6000813590506110d8816110b2565b92915050565b6000602082840312156110f4576110f3611076565b5b6000611102848285016110c9565b91505092915050565b600080fd5b600080fd5b6000601f19601f8301169050919050565b7f4e487b7100000000000000000000000000000000000000000000000000000000600052604160045260246000fd5b61115e82611115565b810181811067ffffffffffffffff8211171561117d5761117c611126565b5b80604052505050565b600061119061106c565b905061119c8282611155565b919050565b600067ffffffffffffffff8211156111bc576111bb611126565b5b6111c582611115565b9050602081019050919050565b82818337600083830152505050565b60006111f46111ef846111a1565b611186565b9050828152602081018484840111156112105761120f611110565b5b61121b8482856111d2565b509392505050565b600082601f8301126112385761123761110b565b5b81356112488482602086016111e1565b91505092915050565b600067ffffffffffffffff82111561126c5761126b611126565b5b61127582611115565b9050602081019050919050565b600061129561129084611251565b611186565b9050828152602081018484840111156112b1576112b0611110565b5b6112bc8482856111d2565b509392505050565b600082601f8301126112d9576112d861110b565b5b81356112e9848260208601611282565b91505092915050565b6000806000806080858703121561130c5761130b611076565b5b600061131a878288016110c9565b945050602085013567ffffffffffffffff81111561133b5761133a61107b565b5b61134787828801611223565b935050604085013567ffffffffffffffff8111156113685761136761107b565b5b611374878288016112c4565b9250506060611385878288016110c9565b91505092959194509250565b6000819050919050565b6113a481611391565b82525050565b60006020820190506113bf600083018461139b565b92915050565b6113ce816110a0565b82525050565b60006020820190506113e960008301846113c5565b92915050565b60008115159050919050565b611404816113ef565b82525050565b600060208201905061141f60008301846113fb565b92915050565b60008060006060848603121561143e5761143d611076565b5b600084013567ffffffffffffffff81111561145c5761145b61107b565b5b61146886828701611223565b935050602084013567ffffffffffffffff8111156114895761148861107b565b5b611495868287016112c4565b92505060406114a6868287016110c9565b9150509250925092565b6114b981611391565b81146114c457600080fd5b50565b6000813590506114d6816114b0565b92915050565b600080604083850312156114f3576114f2611076565b5b6000611501858286016110c9565b9250506020611512858286016114c7565b9150509250929050565b600081519050919050565b600082825260208201905092915050565b60005b8381101561155657808201518184015260208101905061153b565b60008484015250505050565b600061156d8261151c565b6115778185611527565b9350611587818560208601611538565b61159081611115565b840191505092915050565b600081519050919050565b600082825260208201905092915050565b60006115c28261159b565b6115cc81856115a6565b93506115dc818560208601611538565b6115e581611115565b840191505092915050565b6000608082019050818103600083015261160a8187611562565b9050818103602083015261161e81866115b7565b905061162d60408301856113c5565b61163a606083018461139b565b95945050505050565b7f4f6e6c7920646f63746f72732063616e20616464207265636f72647300000000600082015250565b6000611679601c83611527565b915061168482611643565b602082019050919050565b600060208201905081810360008301526116a88161166c565b9050919050565b7f496e76616c6964207369676e6174757265000000000000000000000000000000600082015250565b60006116e5601183611527565b91506116f0826116af565b602082019050919050565b60006020820190508181036000830152611714816116d8565b9050919050565b7f4e487b7100000000000000000000000000000000000000000000000000000000600052602260045260246000fd5b6000600282049050600182168061176257607f821691505b6020821081036117755761177461171b565b5b50919050565b60008190508160005260206000209050919050565b60006020601f8301049050919050565b600082821b905092915050565b6000600883026117dd7fffffffffffffffffffffffffffffffffffffffffffffffffffffffffffffffff826117a0565b6117e786836117a0565b95508019841693508086168417925050509392505050565b6000819050919050565b600061182461181f61181a84611391565b6117ff565b611391565b9050919050565b6000819050919050565b61183e83611809565b61185261184a8261182b565b8484546117ad565b825550505050565b600090565b61186761185a565b611872818484611835565b505050565b5b818110156118965761188b60008261185f565b600181019050611878565b5050565b601f8211156118db576118ac8161177b565b6118b584611790565b810160208510156118c4578190505b6118d86118d085611790565b830182611877565b50505b505050565b600082821c905092915050565b60006118fe600019846008026118e0565b1980831691505092915050565b600061191783836118ed565b9150826002028217905092915050565b6119308261151c565b67ffffffffffffffff81111561194957611948611126565b5b611953825461174a565b61195e82828561189a565b600060209050601f831160018114611991576000841561197f578287015190505b611989858261190b565b8655506119f1565b601f19841661199f8661177b565b60005b828110156119c7578489015182556001820191506020850194506020810190506119a2565b868310156119e457848901516119e0601f8916826118ed565b8355505b6001600288020188555050505b505050505050565b60008190508160005260206000209050919050565b601f821115611a4f57611a20816119f9565b611a2984611790565b81016020851015611a38578190505b611a4c611a4485611790565b830182611877565b50505b505050565b611a5d8261159b565b67ffffffffffffffff811115611a7657611a75611126565b5b611a80825461174a565b611a8b828285611a0e565b600060209050601f831160018114611abe5760008415611aac578287015190505b611ab6858261190b565b865550611b1e565b601f198416611acc866119f9565b60005b82811015611af457848901518255600182019150602085019450602081019050611acf565b86831015611b115784890151611b0d601f8916826118ed565b8355505b6001600288020188555050505b505050505050565b7f4e487b7100000000000000000000000000000000000000000000000000000000600052601160045260246000fd5b6000611b6082611391565b91507fffffffffffffffffffffffffffffffffffffffffffffffffffffffffffffffff8203611b9257611b91611b26565b5b600182019050919050565b60006020820190508181036000830152611bb78184611562565b905092915050565b7f19457468657265756d205369676e6564204d6573736167653a0a000000000000815250565b600081905092915050565b6000611bfb8261159b565b611c058185611be5565b9350611c15818560208601611538565b80840191505092915050565b6000611c2c82611bbf565b601a82019150611c3c8285611bf0565b9150611c488284611bf0565b91508190509392505050565b7f4e487b7100000000000000000000000000000000000000000000000000000000600052601260045260246000fd5b7f4e487b7100000000000000000000000000000000000000000000000000000000600052602160045260246000fd5b6000819050919050565b611cc581611cb2565b82525050565b6000602082019050611ce06000830184611cbc565b92915050565b600060ff82169050919050565b611cfc81611ce6565b82525050565b6000608082019050611d176000830187611cbc565b611d246020830186611cf3565b611d316040830185611cbc565b611d3e6060830184611cbc565b9594505050505056fea2646970667358221220f3490d4d34c12b38a9140ba9994911cff5dc79b63229c374f735604b0abf739664736f6c634300081c0033",
  "linkReferences": {},
  "deployedLinkReferences": {}
}