{
  "_format": "hh-sol-artifact-1",
  "contractName": "MedicalRecord",
  "sourceName": "contracts/MedicalRecord.sol",
  "abi": [
    {
      "inputs": [],
      "stateMutability": "nonpayable",
      "type": "constructor"
    },
    {
      "anonymous": false,
      "inputs": [
        {
          "indexed": true,
          "internalType": "address",
          "name": "doctor",
          "type": "address"
        }
      ],
      "name": "DoctorAdded",
      "type": "event"
    },
    {
      "anonymous": false,
      "inputs": [
        {
          "indexed": true,
          "internalType": "address",
          "name": "doctor",
          "type": "address"
        }
      ],
      "name": "DoctorRemoved",
      "type": "event"
    },
    {
      "anonymous": false,
      "inputs": [
        {
          "indexed": true,
          "internalType": "address",
          "name": "patient",
          "type": "address"
        },
        {
          "indexed": true,
          "internalType": "uint256",
          "name": "recordId",
          "type": "uint256"
        },
        {
          "indexed": false,
          "internalType": "string",
          "name": "recordHash",
          "type": "string"
        },
        {
          "indexed": false,
          "internalType": "address",
          "name": "doctor",
          "type": "address"
        }
      ],
      "name": "RecordAdded",
      "type": "event"
    },
    {
      "anonymous": false,
      "inputs": [
        {
          "indexed": true,
          "internalType": "address",
          "name": "patient",
          "type": "address"
        },
        {
          "indexed": true,
          "internalType": "uint256",
          "name": "recordId",
          "type": "uint256"
        }
      ],
      "name": "RecordInvalidated",
      "type": "event"
    },
    {
      "inputs": [
        {
          "internalType": "address",
          "name": "_doctor",
          "type": "address"
        }
      ],
      "name": "addDoctor",
      "outputs": [],
      "stateMutability": "nonpayable",
      "type": "function"
    },
    {
      "inputs": [
        {
          "internalType": "address",
          "name": "_patient",
          "type": "address"
        },
        {
          "internalType": "string",
          "name": "_recordHash",
          "type": "string"
        }
      ],
      "name": "addRecord",
      "outputs": [],
      "stateMutability": "nonpayable",
      "type": "function"
    },
    {
      "inputs": [
        {
          "internalType": "address",
          "name": "_patient",
          "type": "address"
        },
        {
          "internalType": "uint256",
          "name": "_recordId",
          "type": "uint256"
        }
      ],
      "name": "getRecord",
      "outputs": [
        {
          "internalType": "string",
          "name": "recordHash",
          "type": "string"
        },
        {
          "internalType": "uint256",
          "name": "timestamp",
          "type": "uint256"
        },
        {
          "internalType": "address",
          "name": "doctor",
          "type": "address"
        },
        {
          "internalType": "bool",
          "name": "isValid",
          "type": "bool"
        }
      ],
      "stateMutability": "view",
      "type": "function"
    },
    {
      "inputs": [
        {
          "internalType": "address",
          "name": "_patient",
          "type": "address"
        }
      ],
      "name": "getRecordCount",
      "outputs": [
        {
          "internalType": "uint256",
          "name": "",
          "type": "uint256"
        }
      ],
      "stateMutability": "view",
      "type": "function"
    },
    {
      "inputs": [
        {
          "internalType": "address",
          "name": "_patient",
          "type": "address"
        },
        {
          "internalType": "uint256",
          "name": "_recordId",
          "type": "uint256"
        }
      ],
      "name": "invalidateRecord",
      "outputs": [],
      "stateMutability": "nonpayable",
      "type": "function"
    },
    {
      "inputs": [
        {
          "internalType": "address",
          "name": "",
          "type": "address"
        }
      ],
      "name": "isDoctor",
      "outputs": [
        {
          "internalType": "bool",
          "name": "",
          "type": "bool"
        }
      ],
      "stateMutability": "view",
      "type": "function"
    },
    {
      "inputs": [],
      "name": "owner",
      "outputs": [
        {
          "internalType": "address",
          "name": "",
          "type": "address"
        }
      ],
      "stateMutability": "view",
      "type": "function"
    },
    {
      "inputs": [
        {
          "internalType": "address",
          "name": "",
          "type": "address"
        }
      ],
      "name": "recordCount",
      "outputs": [
        {
          "internalType": "uint256",
          "name": "",
          "type": "uint256"
        }
      ],
      "stateMutability": "view",
      "type": "function"
    },
    {
      "inputs": [
        {
          "internalType": "address",
          "name": "",
          "type": "address"
        },
        {
          "internalType": "uint256",
          "name": "",
          "type": "uint256"
        }
      ],
      "name": "records",
      "outputs": [
        {
          "internalType": "string",
          "name": "recordHash",
          "type": "string"
        },
        {
          "internalType": "uint256",
          "name": "timestamp",
          "type": "uint256"
        },
        {
          "internalType": "address",
          "name": "doctor",
          "type": "address"
        },
        {
          "internalType": "bool",
          "name": "isValid",
          "type": "bool"
        }
      ],
      "stateMutability": "view",
      "type": "function"
    },
    {
      "inputs": [
        {
          "internalType": "address",
          "name": "_doctor",
          "type": "address"
        }
      ],
      "name": "removeDoctor",
      "outputs": [],
      "stateMutability": "nonpayable",
      "type": "function"
    }
  ],
  "bytecode": "0x6080604052348015600f57600080fd5b5033600360006101000a81548173ffffffffffffffffffffffffffffffffffffffff021916908373ffffffffffffffffffffffffffffffffffffffff1602179055506118d5806100606000396000f3fe608060405234801561001057600080fd5b506004361061009e5760003560e01c806398fc90e91161006657806398fc90e91461015c578063996440c614610178578063ba63245d146101a8578063cdb8acf0146101d8578063fb0047f01461020b5761009e565b80634780468f146100a357806358214308146100bf57806366858ec8146100ef57806382a6c0ac1461010b5780638da5cb5b1461013e575b600080fd5b6100bd60048036038101906100b89190610eac565b610227565b005b6100d960048036038101906100d49190610eac565b6103e2565b6040516100e69190610ef2565b60405180910390f35b61010960048036038101906101049190611053565b61042b565b005b610125600480360381019061012091906110db565b6106b8565b60405161013594939291906111c4565b60405180910390f35b6101466107aa565b6040516101539190611210565b60405180910390f35b61017660048036038101906101719190610eac565b6107d0565b005b610192600480360381019061018d9190610eac565b61098a565b60405161019f919061122b565b60405180910390f35b6101c260048036038101906101bd9190610eac565b6109aa565b6040516101cf9190610ef2565b60405180910390f35b6101f260048036038101906101ed91906110db565b6109c2565b60405161020294939291906111c4565b60405180910390f35b610225600480360381019061022091906110db565b610bdb565b005b600360009054906101000a900473ffffffffffffffffffffffffffffffffffffffff1673ffffffffffffffffffffffffffffffffffffffff163373ffffffffffffffffffffffffffffffffffffffff16146102b7576040517f08c379a00000000000000000000000000000000000000000000000000000000081526004016102ae906112b8565b60405180910390fd5b600260008273ffffffffffffffffffffffffffffffffffffffff1673ffffffffffffffffffffffffffffffffffffffff16815260200190815260200160002060009054906101000a900460ff1615610344576040517f08c379a000000000000000000000000000000000000000000000000000000000815260040161033b90611324565b60405180910390fd5b6001600260008373ffffffffffffffffffffffffffffffffffffffff1673ffffffffffffffffffffffffffffffffffffffff16815260200190815260200160002060006101000a81548160ff0219169083151502179055508073ffffffffffffffffffffffffffffffffffffffff167f69908b2e63170aa89ef89719bbe3b4c92cccc38653968ab25f4464eff7c28ac860405160405180910390a250565b6000600160008373ffffffffffffffffffffffffffffffffffffffff1673ffffffffffffffffffffffffffffffffffffffff168152602001908152602001600020549050919050565b600260003373ffffffffffffffffffffffffffffffffffffffff1673ffffffffffffffffffffffffffffffffffffffff16815260200190815260200160002060009054906101000a900460ff166104b7576040517f08c379a00000000000000000000000000000000000000000000000000000000081526004016104ae906113b6565b60405180910390fd5b6000600160008473ffffffffffffffffffffffffffffffffffffffff1673ffffffffffffffffffffffffffffffffffffffff16815260200190815260200160002054905060405180608001604052808381526020014281526020013373ffffffffffffffffffffffffffffffffffffffff168152602001600115158152506000808573ffffffffffffffffffffffffffffffffffffffff1673ffffffffffffffffffffffffffffffffffffffff1681526020019081526020016000206000838152602001908152602001600020600082015181600001908161059991906115e2565b506020820151816001015560408201518160020160006101000a81548173ffffffffffffffffffffffffffffffffffffffff021916908373ffffffffffffffffffffffffffffffffffffffff16021790555060608201518160020160146101000a81548160ff021916908315150217905550905050600160008473ffffffffffffffffffffffffffffffffffffffff1673ffffffffffffffffffffffffffffffffffffffff168152602001908152602001600020600081548092919061065e906116e3565b9190505550808373ffffffffffffffffffffffffffffffffffffffff167ef54c8f790bd394cbe4b9102b04e757be79c107200527b390b5245db6e2b3b384336040516106ab92919061172b565b60405180910390a3505050565b6000602052816000526040600020602052806000526040600020600091509150508060000180546106e890611405565b80601f016020809104026020016040519081016040528092919081815260200182805461071490611405565b80156107615780601f1061073657610100808354040283529160200191610761565b820191906000526020600020905b81548152906001019060200180831161074457829003601f168201915b5050505050908060010154908060020160009054906101000a900473ffffffffffffffffffffffffffffffffffffffff16908060020160149054906101000a900460ff16905084565b600360009054906101000a900473ffffffffffffffffffffffffffffffffffffffff1681565b600360009054906101000a900473ffffffffffffffffffffffffffffffffffffffff1673ffffffffffffffffffffffffffffffffffffffff163373ffffffffffffffffffffffffffffffffffffffff1614610860576040517f08c379a0000000000000000000000000000000000000000000000000000000008152600401610857906112b8565b60405180910390fd5b600260008273ffffffffffffffffffffffffffffffffffffffff1673ffffffffffffffffffffffffffffffffffffffff16815260200190815260200160002060009054906101000a900460ff166108ec576040517f08c379a00000000000000000000000000000000000000000000000000000000081526004016108e3906117a7565b60405180910390fd5b6000600260008373ffffffffffffffffffffffffffffffffffffffff1673ffffffffffffffffffffffffffffffffffffffff16815260200190815260200160002060006101000a81548160ff0219169083151502179055508073ffffffffffffffffffffffffffffffffffffffff167f493d7cf6a7c880406a55654d6727464ea088bd01d40498e1987a327e68961ab860405160405180910390a250565b60026020528060005260406000206000915054906101000a900460ff1681565b60016020528060005260406000206000915090505481565b60606000806000600160008773ffffffffffffffffffffffffffffffffffffffff1673ffffffffffffffffffffffffffffffffffffffff168152602001908152602001600020548510610a4a576040517f08c379a0000000000000000000000000000000000000000000000000000000008152600401610a4190611813565b60405180910390fd5b60008060008873ffffffffffffffffffffffffffffffffffffffff1673ffffffffffffffffffffffffffffffffffffffff1681526020019081526020016000206000878152602001908152602001600020604051806080016040529081600082018054610ab690611405565b80601f0160208091040260200160405190810160405280929190818152602001828054610ae290611405565b8015610b2f5780601f10610b0457610100808354040283529160200191610b2f565b820191906000526020600020905b815481529060010190602001808311610b1257829003601f168201915b50505050508152602001600182015481526020016002820160009054906101000a900473ffffffffffffffffffffffffffffffffffffffff1673ffffffffffffffffffffffffffffffffffffffff1673ffffffffffffffffffffffffffffffffffffffff1681526020016002820160149054906101000a900460ff1615151515815250509050806000015181602001518260400151836060015194509450945094505092959194509250565b600260003373ffffffffffffffffffffffffffffffffffffffff1673ffffffffffffffffffffffffffffffffffffffff16815260200190815260200160002060009054906101000a900460ff16610c67576040517f08c379a0000000000000000000000000000000000000000000000000000000008152600401610c5e906113b6565b60405180910390fd5b600160008373ffffffffffffffffffffffffffffffffffffffff1673ffffffffffffffffffffffffffffffffffffffff168152602001908152602001600020548110610ce8576040517f08c379a0000000000000000000000000000000000000000000000000000000008152600401610cdf90611813565b60405180910390fd5b6000808373ffffffffffffffffffffffffffffffffffffffff1673ffffffffffffffffffffffffffffffffffffffff168152602001908152602001600020600082815260200190815260200160002060020160149054906101000a900460ff16610d87576040517f08c379a0000000000000000000000000000000000000000000000000000000008152600401610d7e9061187f565b60405180910390fd5b60008060008473ffffffffffffffffffffffffffffffffffffffff1673ffffffffffffffffffffffffffffffffffffffff168152602001908152602001600020600083815260200190815260200160002060020160146101000a81548160ff021916908315150217905550808273ffffffffffffffffffffffffffffffffffffffff167ff5982f7dbbf561715071f4c5d1139fc9472d020cd1bd81c7204c6b360ed2fc1160405160405180910390a35050565b6000604051905090565b600080fd5b600080fd5b600073ffffffffffffffffffffffffffffffffffffffff82169050919050565b6000610e7982610e4e565b9050919050565b610e8981610e6e565b8114610e9457600080fd5b50565b600081359050610ea681610e80565b92915050565b600060208284031215610ec257610ec1610e44565b5b6000610ed084828501610e97565b91505092915050565b6000819050919050565b610eec81610ed9565b82525050565b6000602082019050610f076000830184610ee3565b92915050565b600080fd5b600080fd5b6000601f19601f8301169050919050565b7f4e487b7100000000000000000000000000000000000000000000000000000000600052604160045260246000fd5b610f6082610f17565b810181811067ffffffffffffffff82111715610f7f57610f7e610f28565b5b80604052505050565b6000610f92610e3a565b9050610f9e8282610f57565b919050565b600067ffffffffffffffff821115610fbe57610fbd610f28565b5b610fc782610f17565b9050602081019050919050565b82818337600083830152505050565b6000610ff6610ff184610fa3565b610f88565b90508281526020810184848401111561101257611011610f12565b5b61101d848285610fd4565b509392505050565b600082601f83011261103a57611039610f0d565b5b813561104a848260208601610fe3565b91505092915050565b6000806040838503121561106a57611069610e44565b5b600061107885828601610e97565b925050602083013567ffffffffffffffff81111561109957611098610e49565b5b6110a585828601611025565b9150509250929050565b6110b881610ed9565b81146110c357600080fd5b50565b6000813590506110d5816110af565b92915050565b600080604083850312156110f2576110f1610e44565b5b600061110085828601610e97565b9250506020611111858286016110c6565b9150509250929050565b600081519050919050565b600082825260208201905092915050565b60005b8381101561115557808201518184015260208101905061113a565b60008484015250505050565b600061116c8261111b565b6111768185611126565b9350611186818560208601611137565b61118f81610f17565b840191505092915050565b6111a381610e6e565b82525050565b60008115159050919050565b6111be816111a9565b82525050565b600060808201905081810360008301526111de8187611161565b90506111ed6020830186610ee3565b6111fa604083018561119a565b61120760608301846111b5565b95945050505050565b6000602082019050611225600083018461119a565b92915050565b600060208201905061124060008301846111b5565b92915050565b7f4f6e6c79206f776e65722063616e2063616c6c20746869732066756e6374696f60008201527f6e00000000000000000000000000000000000000000000000000000000000000602082015250565b60006112a2602183611126565b91506112ad82611246565b604082019050919050565b600060208201905081810360008301526112d181611295565b9050919050565b7f4164647265737320697320616c7265616479206120646f63746f720000000000600082015250565b600061130e601b83611126565b9150611319826112d8565b602082019050919050565b6000602082019050818103600083015261133d81611301565b9050919050565b7f4f6e6c7920646f63746f722063616e2063616c6c20746869732066756e63746960008201527f6f6e000000000000000000000000000000000000000000000000000000000000602082015250565b60006113a0602283611126565b91506113ab82611344565b604082019050919050565b600060208201905081810360008301526113cf81611393565b9050919050565b7f4e487b7100000000000000000000000000000000000000000000000000000000600052602260045260246000fd5b6000600282049050600182168061141d57607f821691505b6020821081036114305761142f6113d6565b5b50919050565b60008190508160005260206000209050919050565b60006020601f8301049050919050565b600082821b905092915050565b6000600883026114987fffffffffffffffffffffffffffffffffffffffffffffffffffffffffffffffff8261145b565b6114a2868361145b565b95508019841693508086168417925050509392505050565b6000819050919050565b60006114df6114da6114d584610ed9565b6114ba565b610ed9565b9050919050565b6000819050919050565b6114f9836114c4565b61150d611505826114e6565b848454611468565b825550505050565b600090565b611522611515565b61152d8184846114f0565b505050565b5b818110156115515761154660008261151a565b600181019050611533565b5050565b601f8211156115965761156781611436565b6115708461144b565b8101602085101561157f578190505b61159361158b8561144b565b830182611532565b50505b505050565b600082821c905092915050565b60006115b96000198460080261159b565b1980831691505092915050565b60006115d283836115a8565b9150826002028217905092915050565b6115eb8261111b565b67ffffffffffffffff81111561160457611603610f28565b5b61160e8254611405565b611619828285611555565b600060209050601f83116001811461164c576000841561163a578287015190505b61164485826115c6565b8655506116ac565b601f19841661165a86611436565b60005b828110156116825784890151825560018201915060208501945060208101905061165d565b8683101561169f578489015161169b601f8916826115a8565b8355505b6001600288020188555050505b505050505050565b7f4e487b7100000000000000000000000000000000000000000000000000000000600052601160045260246000fd5b60006116ee82610ed9565b91507fffffffffffffffffffffffffffffffffffffffffffffffffffffffffffffffff82036117205761171f6116b4565b5b600182019050919050565b600060408201905081810360008301526117458185611161565b9050611754602083018461119a565b9392505050565b7f41646472657373206973206e6f74206120646f63746f72000000000000000000600082015250565b6000611791601783611126565b915061179c8261175b565b602082019050919050565b600060208201905081810360008301526117c081611784565b9050919050565b7f5265636f726420646f6573206e6f742065786973740000000000000000000000600082015250565b60006117fd601583611126565b9150611808826117c7565b602082019050919050565b6000602082019050818103600083015261182c816117f0565b9050919050565b7f5265636f726420697320616c726561647920696e76616c696400000000000000600082015250565b6000611869601983611126565b915061187482611833565b602082019050919050565b600060208201905081810360008301526118988161185c565b905091905056fea26469706673582212209e04844579ea61c5f9ee3425e5c2bdabe6f2c69d88a8062d8bc8cdbfa1c3d03c64736f6c634300081c0033",
  "linkReferences": {},
  "deployedLinkReferences": {}
}