{
  "_format": "hh-sol-artifact-1",
  "contractName": "MedicalDataVerifier",
  "sourceName": "contracts/MedicalDataVerifier.sol",
  "abi": [
    {
      "inputs": [
        {
          "internalType": "address",
          "name": "_zkareContract",
          "type": "address"
        },
        {
          "internalType": "address",
          "name": "_groth16Verifier",
          "type": "address"
        }
      ],
      "stateMutability": "nonpayable",
      "type": "constructor"
    },
    {
      "anonymous": false,
      "inputs": [
        {
          "indexed": true,
          "internalType": "address",
          "name": "patient",
          "type": "address"
        },
        {
          "indexed": false,
          "internalType": "uint256",
          "name": "bloodTypeCode",
          "type": "uint256"
        }
      ],
      "name": "BloodTypeRegistered",
      "type": "event"
    },
    {
      "anonymous": false,
      "inputs": [
        {
          "indexed": true,
          "internalType": "address",
          "name": "requester",
          "type": "address"
        },
        {
          "indexed": true,
          "internalType": "address",
          "name": "patient",
          "type": "address"
        },
        {
          "indexed": false,
          "internalType": "bool",
          "name": "isMatch",
          "type": "bool"
        }
      ],
      "name": "BloodTypeVerified",
      "type": "event"
    },
    {
      "anonymous": false,
      "inputs": [
        {
          "indexed": true,
          "internalType": "address",
          "name": "patient",
          "type": "address"
        },
        {
          "indexed": false,
          "internalType": "string",
          "name": "dataType",
          "type": "string"
        }
      ],
      "name": "PatientDataRegistered",
      "type": "event"
    },
    {
      "anonymous": false,
      "inputs": [
        {
          "indexed": true,
          "internalType": "address",
          "name": "patient",
          "type": "address"
        },
        {
          "indexed": false,
          "internalType": "uint256",
          "name": "requestId",
          "type": "uint256"
        },
        {
          "indexed": false,
          "internalType": "bool",
          "name": "approved",
          "type": "bool"
        }
      ],
      "name": "VerificationApproved",
      "type": "event"
    },
    {
      "anonymous": false,
      "inputs": [
        {
          "indexed": true,
          "internalType": "address",
          "name": "requester",
          "type": "address"
        },
        {
          "indexed": true,
          "internalType": "address",
          "name": "patient",
          "type": "address"
        },
        {
          "indexed": false,
          "internalType": "string",
          "name": "verificationType",
          "type": "string"
        },
        {
          "indexed": false,
          "internalType": "uint256",
          "name": "requestId",
          "type": "uint256"
        }
      ],
      "name": "VerificationRequested",
      "type": "event"
    },
    {
      "anonymous": false,
      "inputs": [
        {
          "indexed": true,
          "internalType": "address",
          "name": "requester",
          "type": "address"
        },
        {
          "indexed": true,
          "internalType": "address",
          "name": "patient",
          "type": "address"
        },
        {
          "indexed": false,
          "internalType": "string",
          "name": "verificationType",
          "type": "string"
        },
        {
          "indexed": false,
          "internalType": "bool",
          "name": "isValid",
          "type": "bool"
        }
      ],
      "name": "VerificationResult",
      "type": "event"
    },
    {
      "anonymous": false,
      "inputs": [
        {
          "indexed": false,
          "internalType": "string",
          "name": "verificationType",
          "type": "string"
        },
        {
          "indexed": false,
          "internalType": "address",
          "name": "verifierAddress",
          "type": "address"
        }
      ],
      "name": "VerifierUpdated",
      "type": "event"
    },
    {
      "inputs": [],
      "name": "admin",
      "outputs": [
        {
          "internalType": "address",
          "name": "",
          "type": "address"
        }
      ],
      "stateMutability": "view",
      "type": "function"
    },
    {
      "inputs": [
        {
          "internalType": "address",
          "name": "patient",
          "type": "address"
        },
        {
          "internalType": "uint256",
          "name": "guessedBloodType",
          "type": "uint256"
        }
      ],
      "name": "checkBloodType",
      "outputs": [
        {
          "internalType": "bool",
          "name": "",
          "type": "bool"
        }
      ],
      "stateMutability": "view",
      "type": "function"
    },
    {
      "inputs": [
        {
          "internalType": "address",
          "name": "patient",
          "type": "address"
        },
        {
          "internalType": "string",
          "name": "dataType",
          "type": "string"
        }
      ],
      "name": "getPatientData",
      "outputs": [
        {
          "internalType": "uint256",
          "name": "",
          "type": "uint256"
        }
      ],
      "stateMutability": "view",
      "type": "function"
    },
    {
      "inputs": [
        {
          "internalType": "address",
          "name": "patient",
          "type": "address"
        }
      ],
      "name": "getPendingRequestCount",
      "outputs": [
        {
          "internalType": "uint256",
          "name": "",
          "type": "uint256"
        }
      ],
      "stateMutability": "view",
      "type": "function"
    },
    {
      "inputs": [
        {
          "internalType": "address",
          "name": "patient",
          "type": "address"
        },
        {
          "internalType": "uint256",
          "name": "requestId",
          "type": "uint256"
        }
      ],
      "name": "getRequestDetails",
      "outputs": [
        {
          "internalType": "address",
          "name": "requester",
          "type": "address"
        },
        {
          "internalType": "string",
          "name": "verificationType",
          "type": "string"
        },
        {
          "internalType": "uint256",
          "name": "requestedValue",
          "type": "uint256"
        },
        {
          "internalType": "bool",
          "name": "isPending",
          "type": "bool"
        },
        {
          "internalType": "bool",
          "name": "isApproved",
          "type": "bool"
        }
      ],
      "stateMutability": "view",
      "type": "function"
    },
    {
      "inputs": [
        {
          "internalType": "address",
          "name": "patient",
          "type": "address"
        },
        {
          "internalType": "string",
          "name": "dataType",
          "type": "string"
        },
        {
          "internalType": "uint256",
          "name": "value",
          "type": "uint256"
        }
      ],
      "name": "registerPatientData",
      "outputs": [],
      "stateMutability": "nonpayable",
      "type": "function"
    },
    {
      "inputs": [
        {
          "internalType": "address",
          "name": "patient",
          "type": "address"
        },
        {
          "internalType": "string",
          "name": "verificationType",
          "type": "string"
        },
        {
          "internalType": "uint256",
          "name": "guessedValue",
          "type": "uint256"
        }
      ],
      "name": "requestVerification",
      "outputs": [
        {
          "internalType": "uint256",
          "name": "",
          "type": "uint256"
        }
      ],
      "stateMutability": "nonpayable",
      "type": "function"
    },
    {
      "inputs": [
        {
          "internalType": "uint256",
          "name": "requestId",
          "type": "uint256"
        },
        {
          "internalType": "bool",
          "name": "approved",
          "type": "bool"
        }
      ],
      "name": "respondToVerification",
      "outputs": [],
      "stateMutability": "nonpayable",
      "type": "function"
    },
    {
      "inputs": [
        {
          "internalType": "string",
          "name": "verificationType",
          "type": "string"
        },
        {
          "internalType": "address",
          "name": "verifierAddress",
          "type": "address"
        }
      ],
      "name": "setVerifier",
      "outputs": [],
      "stateMutability": "nonpayable",
      "type": "function"
    },
    {
      "inputs": [
        {
          "internalType": "address",
          "name": "patient",
          "type": "address"
        },
        {
          "internalType": "uint256",
          "name": "requestId",
          "type": "uint256"
        },
        {
          "internalType": "uint256[2]",
          "name": "a",
          "type": "uint256[2]"
        },
        {
          "internalType": "uint256[2][2]",
          "name": "b",
          "type": "uint256[2][2]"
        },
        {
          "internalType": "uint256[2]",
          "name": "c",
          "type": "uint256[2]"
        },
        {
          "internalType": "uint256[]",
          "name": "input",
          "type": "uint256[]"
        }
      ],
      "name": "submitProof",
      "outputs": [
        {
          "internalType": "bool",
          "name": "",
          "type": "bool"
        }
      ],
      "stateMutability": "nonpayable",
      "type": "function"
    },
    {
      "inputs": [
        {
          "internalType": "address",
          "name": "",
          "type": "address"
        },
        {
          "internalType": "uint256",
          "name": "",
          "type": "uint256"
        }
      ],
      "name": "verificationRequests",
      "outputs": [
        {
          "internalType": "address",
          "name": "requester",
          "type": "address"
        },
        {
          "internalType": "string",
          "name": "verificationType",
          "type": "string"
        },
        {
          "internalType": "uint256",
          "name": "requestedValue",
          "type": "uint256"
        },
        {
          "internalType": "bool",
          "name": "isPending",
          "type": "bool"
        },
        {
          "internalType": "bool",
          "name": "isApproved",
          "type": "bool"
        }
      ],
      "stateMutability": "view",
      "type": "function"
    },
    {
      "inputs": [
        {
          "internalType": "string",
          "name": "",
          "type": "string"
        }
      ],
      "name": "verifiers",
      "outputs": [
        {
          "internalType": "address",
          "name": "",
          "type": "address"
        }
      ],
      "stateMutability": "view",
      "type": "function"
    },
    {
      "inputs": [
        {
          "internalType": "address",
          "name": "patient",
          "type": "address"
        },
        {
          "internalType": "uint256",
          "name": "guessedBloodType",
          "type": "uint256"
        },
        {
          "internalType": "uint256[2]",
          "name": "a",
          "type": "uint256[2]"
        },
        {
          "internalType": "uint256[2][2]",
          "name": "b",
          "type": "uint256[2][2]"
        },
        {
          "internalType": "uint256[2]",
          "name": "c",
          "type": "uint256[2]"
        }
      ],
      "name": "verifyBloodType",
      "outputs": [
        {
          "internalType": "bool",
          "name": "",
          "type": "bool"
        }
      ],
      "stateMutability": "nonpayable",
      "type": "function"
    },
    {
      "inputs": [],
      "name": "zkareContract",
      "outputs": [
        {
          "internalType": "contract Zkare",
          "name": "",
          "type": "address"
        }
      ],
      "stateMutability": "view",
      "type": "function"
    }
  ],
  "bytecode": "0x608060405234801561001057600080fd5b506040516137d33803806137d3833981810160405281019061003291906101af565b816000806101000a81548173ffffffffffffffffffffffffffffffffffffffff021916908373ffffffffffffffffffffffffffffffffffffffff16021790555033600560006101000a81548173ffffffffffffffffffffffffffffffffffffffff021916908373ffffffffffffffffffffffffffffffffffffffff1602179055508060016040516100c290610246565b908152602001604051809103902060006101000a81548173ffffffffffffffffffffffffffffffffffffffff021916908373ffffffffffffffffffffffffffffffffffffffff1602179055507f3b3bce7d23bc0b93a76a122bc1b04f3fccfb8518ae2e4b5d24c639bf5460e0608160405161013d919061029e565b60405180910390a150506102cc565b600080fd5b600073ffffffffffffffffffffffffffffffffffffffff82169050919050565b600061017c82610151565b9050919050565b61018c81610171565b811461019757600080fd5b50565b6000815190506101a981610183565b92915050565b600080604083850312156101c6576101c561014c565b5b60006101d48582860161019a565b92505060206101e58582860161019a565b9150509250929050565b600081905092915050565b7f626c6f6f64547970650000000000000000000000000000000000000000000000600082015250565b60006102306009836101ef565b915061023b826101fa565b600982019050919050565b600061025182610223565b9150819050919050565b600082825260208201905092915050565b600061027960098361025b565b9150610284826101fa565b602082019050919050565b61029881610171565b82525050565b600060408201905081810360008301526102b78161026c565b90506102c6602083018461028f565b92915050565b6134f8806102db6000396000f3fe608060405234801561001057600080fd5b50600436106100ea5760003560e01c80637f5bb04d1161008c578063c7ac3ffd11610066578063c7ac3ffd14610289578063ce09b62a146102b9578063db455173146102e9578063f851a44014610319576100ea565b80637f5bb04d146101f5578063ac205deb14610225578063b03d07e014610255576100ea565b806326cc19fd116100c857806326cc19fd1461015b5780633a2037391461018b5780635892ff5b146101a957806376fa58a4146101c5576100ea565b8063130c8ce6146100ef5780631c0cfd29146101235780632052023d1461013f575b600080fd5b61010960048036038101906101049190611d84565b610337565b60405161011a959493929190611e8d565b60405180910390f35b61013d6004803603810190610138919061201c565b61044c565b005b6101596004803603810190610154919061208b565b6106c9565b005b6101756004803603810190610170919061201c565b610862565b60405161018291906120e7565b60405180910390f35b610193610c0d565b6040516101a09190612161565b60405180910390f35b6101c360048036038101906101be91906121a8565b610c31565b005b6101df60048036038101906101da919061234f565b610df7565b6040516101ec91906123cc565b60405180910390f35b61020f600480360381019061020a91906124aa565b611197565b60405161021c91906123cc565b60405180910390f35b61023f600480360381019061023a9190612556565b6116b5565b60405161024c919061259f565b60405180910390f35b61026f600480360381019061026a9190611d84565b6116fe565b604051610280959493929190611e8d565b60405180910390f35b6102a3600480360381019061029e9190611d84565b61194f565b6040516102b091906123cc565b60405180910390f35b6102d360048036038101906102ce91906125ba565b611a50565b6040516102e091906120e7565b60405180910390f35b61030360048036038101906102fe91906125e7565b611b3f565b60405161031091906120e7565b60405180910390f35b610321611cb6565b60405161032e919061259f565b60405180910390f35b6003602052816000526040600020818154811061035357600080fd5b9060005260206000209060040201600091509150508060000160009054906101000a900473ffffffffffffffffffffffffffffffffffffffff169080600101805461039d90612672565b80601f01602080910402602001604051908101604052809291908181526020018280546103c990612672565b80156104165780601f106103eb57610100808354040283529160200191610416565b820191906000526020600020905b8154815290600101906020018083116103f957829003601f168201915b5050505050908060020154908060030160009054906101000a900460ff16908060030160019054906101000a900460ff16905085565b60008054906101000a900473ffffffffffffffffffffffffffffffffffffffff1673ffffffffffffffffffffffffffffffffffffffff1663996440c6336040518263ffffffff1660e01b81526004016104a5919061259f565b602060405180830381865afa1580156104c2573d6000803e3d6000fd5b505050506040513d601f19601f820116820180604052508101906104e691906126b8565b610525576040517f08c379a000000000000000000000000000000000000000000000000000000000815260040161051c90612757565b60405180910390fd5b604051602001610534906127ce565b604051602081830303815290604052805190602001208260405160200161055b9190612814565b60405160208183030381529060405280519060200120036106165760018110158015610588575060048111155b6105c7576040517f08c379a00000000000000000000000000000000000000000000000000000000081526004016105be90612877565b60405180910390fd5b8273ffffffffffffffffffffffffffffffffffffffff167f0894cf43d66031aed0414ca3284907e46c0af74c9ade1c2f037110785221acfd8260405161060d91906120e7565b60405180910390a25b80600260008573ffffffffffffffffffffffffffffffffffffffff1673ffffffffffffffffffffffffffffffffffffffff168152602001908152602001600020836040516106649190612814565b9081526020016040518091039020819055508273ffffffffffffffffffffffffffffffffffffffff167f3be3a6c66c5a670dee1d6837a68dae66d5cb5ff8f0c13e3a023c535e9281179c836040516106bc9190612897565b60405180910390a2505050565b600560009054906101000a900473ffffffffffffffffffffffffffffffffffffffff1673ffffffffffffffffffffffffffffffffffffffff163373ffffffffffffffffffffffffffffffffffffffff1614610759576040517f08c379a00000000000000000000000000000000000000000000000000000000081526004016107509061292b565b60405180910390fd5b600073ffffffffffffffffffffffffffffffffffffffff168173ffffffffffffffffffffffffffffffffffffffff16036107c8576040517f08c379a00000000000000000000000000000000000000000000000000000000081526004016107bf90612997565b60405180910390fd5b806001836040516107d99190612814565b908152602001604051809103902060006101000a81548173ffffffffffffffffffffffffffffffffffffffff021916908373ffffffffffffffffffffffffffffffffffffffff1602179055507f3b3bce7d23bc0b93a76a122bc1b04f3fccfb8518ae2e4b5d24c639bf5460e06082826040516108569291906129b7565b60405180910390a15050565b60008073ffffffffffffffffffffffffffffffffffffffff1660018460405161088b9190612814565b908152602001604051809103902060009054906101000a900473ffffffffffffffffffffffffffffffffffffffff1673ffffffffffffffffffffffffffffffffffffffff1603610910576040517f08c379a000000000000000000000000000000000000000000000000000000000815260040161090790612a33565b60405180910390fd5b6000600260008673ffffffffffffffffffffffffffffffffffffffff1673ffffffffffffffffffffffffffffffffffffffff1681526020019081526020016000208460405161095f9190612814565b908152602001604051809103902054036109ae576040517f08c379a00000000000000000000000000000000000000000000000000000000081526004016109a590612a9f565b60405180910390fd5b6000600460008673ffffffffffffffffffffffffffffffffffffffff1673ffffffffffffffffffffffffffffffffffffffff168152602001908152602001600020549050600460008673ffffffffffffffffffffffffffffffffffffffff1673ffffffffffffffffffffffffffffffffffffffff1681526020019081526020016000206000815480929190610a4290612aee565b9190505550600360008673ffffffffffffffffffffffffffffffffffffffff1673ffffffffffffffffffffffffffffffffffffffff1681526020019081526020016000206040518060a001604052803373ffffffffffffffffffffffffffffffffffffffff16815260200186815260200185815260200160011515815260200160001515815250908060018154018082558091505060019003906000526020600020906004020160009091909190915060008201518160000160006101000a81548173ffffffffffffffffffffffffffffffffffffffff021916908373ffffffffffffffffffffffffffffffffffffffff1602179055506020820151816001019081610b4e9190612cd8565b506040820151816002015560608201518160030160006101000a81548160ff02191690831515021790555060808201518160030160016101000a81548160ff02191690831515021790555050508473ffffffffffffffffffffffffffffffffffffffff163373ffffffffffffffffffffffffffffffffffffffff167f0dfd665e42e285ea410b5c1b2527115f838aadaec5e789c4a50b57c99357ceca8684604051610bfa929190612daa565b60405180910390a3809150509392505050565b60008054906101000a900473ffffffffffffffffffffffffffffffffffffffff1681565b600360003373ffffffffffffffffffffffffffffffffffffffff1673ffffffffffffffffffffffffffffffffffffffff168152602001908152602001600020805490508210610cb5576040517f08c379a0000000000000000000000000000000000000000000000000000000008152600401610cac90612e26565b60405180910390fd5b6000600360003373ffffffffffffffffffffffffffffffffffffffff1673ffffffffffffffffffffffffffffffffffffffff1681526020019081526020016000208381548110610d0857610d07612e46565b5b906000526020600020906004020190508060030160009054906101000a900460ff16610d69576040517f08c379a0000000000000000000000000000000000000000000000000000000008152600401610d6090612ec1565b60405180910390fd5b60008160030160006101000a81548160ff021916908315150217905550818160030160016101000a81548160ff0219169083151502179055503373ffffffffffffffffffffffffffffffffffffffff167f14d2c7e78a0a021c9a57f8fab0d1b283e9a5d28781aeaa23f12548656cf94a608484604051610dea929190612ee1565b60405180910390a2505050565b600080600260008873ffffffffffffffffffffffffffffffffffffffff1673ffffffffffffffffffffffffffffffffffffffff168152602001908152602001600020604051610e45906127ce565b90815260200160405180910390205411610e94576040517f08c379a0000000000000000000000000000000000000000000000000000000008152600401610e8b90612f7c565b60405180910390fd5b6000600267ffffffffffffffff811115610eb157610eb0611ef1565b5b604051908082528060200260200182016040528015610edf5781602001602082028036833780820191505090505b5090508581600081518110610ef757610ef6612e46565b5b602002602001018181525050600260008873ffffffffffffffffffffffffffffffffffffffff1673ffffffffffffffffffffffffffffffffffffffff168152602001908152602001600020604051610f4e906127ce565b90815260200160405180910390205481600181518110610f7157610f70612e46565b5b60200260200101818152505060006001604051610f8d906127ce565b908152602001604051809103902060009054906101000a900473ffffffffffffffffffffffffffffffffffffffff169050600073ffffffffffffffffffffffffffffffffffffffff168173ffffffffffffffffffffffffffffffffffffffff160361102d576040517f08c379a00000000000000000000000000000000000000000000000000000000081526004016110249061300e565b60405180910390fd5b600081905060008173ffffffffffffffffffffffffffffffffffffffff1663c32e370e898989886040518563ffffffff1660e01b8152600401611073949392919061326e565b6020604051808303816000875af1158015611092573d6000803e3d6000fd5b505050506040513d601f19601f820116820180604052508101906110b691906126b8565b9050600081801561111f5750600260008c73ffffffffffffffffffffffffffffffffffffffff1673ffffffffffffffffffffffffffffffffffffffff16815260200190815260200160002060405161110d906127ce565b9081526020016040518091039020548a145b90508a73ffffffffffffffffffffffffffffffffffffffff163373ffffffffffffffffffffffffffffffffffffffff167f8126627cba75b5794747716e13d174f7da92bac2b5610fc0cccdd517096864d68360405161117e91906123cc565b60405180910390a3809550505050505095945050505050565b6000600360008873ffffffffffffffffffffffffffffffffffffffff1673ffffffffffffffffffffffffffffffffffffffff16815260200190815260200160002080549050861061121d576040517f08c379a000000000000000000000000000000000000000000000000000000000815260040161121490612e26565b60405180910390fd5b6000600360008973ffffffffffffffffffffffffffffffffffffffff1673ffffffffffffffffffffffffffffffffffffffff16815260200190815260200160002087815481106112705761126f612e46565b5b90600052602060002090600402016040518060a00160405290816000820160009054906101000a900473ffffffffffffffffffffffffffffffffffffffff1673ffffffffffffffffffffffffffffffffffffffff1673ffffffffffffffffffffffffffffffffffffffff1681526020016001820180546112ef90612672565b80601f016020809104026020016040519081016040528092919081815260200182805461131b90612672565b80156113685780601f1061133d57610100808354040283529160200191611368565b820191906000526020600020905b81548152906001019060200180831161134b57829003601f168201915b50505050508152602001600282015481526020016003820160009054906101000a900460ff161515151581526020016003820160019054906101000a900460ff16151515158152505090508060600151156113f8576040517f08c379a00000000000000000000000000000000000000000000000000000000081526004016113ef90613308565b60405180910390fd5b806080015161143c576040517f08c379a000000000000000000000000000000000000000000000000000000000815260040161143390613374565b60405180910390fd5b806000015173ffffffffffffffffffffffffffffffffffffffff163373ffffffffffffffffffffffffffffffffffffffff16146114ae576040517f08c379a00000000000000000000000000000000000000000000000000000000081526004016114a5906133e0565b60405180910390fd5b60008160200151905060006001826040516114c99190612814565b908152602001604051809103902060009054906101000a900473ffffffffffffffffffffffffffffffffffffffff169050600081905060008173ffffffffffffffffffffffffffffffffffffffff1663c32e370e8b8b8b8b6040518563ffffffff1660e01b8152600401611540949392919061326e565b6020604051808303816000875af115801561155f573d6000803e3d6000fd5b505050506040513d601f19601f8201168201806040525081019061158391906126b8565b9050604051602001611594906127ce565b60405160208183030381529060405280519060200120846040516020016115bb9190612814565b604051602081830303815290604052805190602001200361163c578b73ffffffffffffffffffffffffffffffffffffffff163373ffffffffffffffffffffffffffffffffffffffff167f8126627cba75b5794747716e13d174f7da92bac2b5610fc0cccdd517096864d68360405161163391906123cc565b60405180910390a35b8b73ffffffffffffffffffffffffffffffffffffffff163373ffffffffffffffffffffffffffffffffffffffff167f93efe0741de8cd1486bf4da48ca806d55751e51ea9dfba6192869b4898d9af08868460405161169b929190613400565b60405180910390a380955050505050509695505050505050565b6001818051602081018201805184825260208301602085012081835280955050505050506000915054906101000a900473ffffffffffffffffffffffffffffffffffffffff1681565b600060606000806000600360008873ffffffffffffffffffffffffffffffffffffffff1673ffffffffffffffffffffffffffffffffffffffff16815260200190815260200160002080549050861061178b576040517f08c379a000000000000000000000000000000000000000000000000000000000815260040161178290612e26565b60405180910390fd5b6000600360008973ffffffffffffffffffffffffffffffffffffffff1673ffffffffffffffffffffffffffffffffffffffff16815260200190815260200160002087815481106117de576117dd612e46565b5b90600052602060002090600402016040518060a00160405290816000820160009054906101000a900473ffffffffffffffffffffffffffffffffffffffff1673ffffffffffffffffffffffffffffffffffffffff1673ffffffffffffffffffffffffffffffffffffffff16815260200160018201805461185d90612672565b80601f016020809104026020016040519081016040528092919081815260200182805461188990612672565b80156118d65780601f106118ab576101008083540402835291602001916118d6565b820191906000526020600020905b8154815290600101906020018083116118b957829003601f168201915b50505050508152602001600282015481526020016003820160009054906101000a900460ff161515151581526020016003820160019054906101000a900460ff16151515158152505090508060000151816020015182604001518360600151846080015195509550955095509550509295509295909350565b600080600260008573ffffffffffffffffffffffffffffffffffffffff1673ffffffffffffffffffffffffffffffffffffffff16815260200190815260200160002060405161199d906127ce565b908152602001604051809103902054116119ec576040517f08c379a00000000000000000000000000000000000000000000000000000000081526004016119e390612f7c565b60405180910390fd5b600260008473ffffffffffffffffffffffffffffffffffffffff1673ffffffffffffffffffffffffffffffffffffffff168152602001908152602001600020604051611a37906127ce565b9081526020016040518091039020548214905092915050565b6000806000905060005b600360008573ffffffffffffffffffffffffffffffffffffffff1673ffffffffffffffffffffffffffffffffffffffff16815260200190815260200160002080549050811015611b3557600360008573ffffffffffffffffffffffffffffffffffffffff1673ffffffffffffffffffffffffffffffffffffffff1681526020019081526020016000208181548110611af557611af4612e46565b5b906000526020600020906004020160030160009054906101000a900460ff1615611b28578180611b2490612aee565b9250505b8080600101915050611a5a565b5080915050919050565b6000828073ffffffffffffffffffffffffffffffffffffffff163373ffffffffffffffffffffffffffffffffffffffff161480611c12575060008054906101000a900473ffffffffffffffffffffffffffffffffffffffff1673ffffffffffffffffffffffffffffffffffffffff1663996440c6336040518263ffffffff1660e01b8152600401611bd0919061259f565b602060405180830381865afa158015611bed573d6000803e3d6000fd5b505050506040513d601f19601f82011682018060405250810190611c1191906126b8565b5b611c51576040517f08c379a0000000000000000000000000000000000000000000000000000000008152600401611c48906134a2565b60405180910390fd5b600260008573ffffffffffffffffffffffffffffffffffffffff1673ffffffffffffffffffffffffffffffffffffffff16815260200190815260200160002083604051611c9e9190612814565b90815260200160405180910390205491505092915050565b600560009054906101000a900473ffffffffffffffffffffffffffffffffffffffff1681565b6000604051905090565b600080fd5b600080fd5b600073ffffffffffffffffffffffffffffffffffffffff82169050919050565b6000611d1b82611cf0565b9050919050565b611d2b81611d10565b8114611d3657600080fd5b50565b600081359050611d4881611d22565b92915050565b6000819050919050565b611d6181611d4e565b8114611d6c57600080fd5b50565b600081359050611d7e81611d58565b92915050565b60008060408385031215611d9b57611d9a611ce6565b5b6000611da985828601611d39565b9250506020611dba85828601611d6f565b9150509250929050565b611dcd81611d10565b82525050565b600081519050919050565b600082825260208201905092915050565b60005b83811015611e0d578082015181840152602081019050611df2565b60008484015250505050565b6000601f19601f8301169050919050565b6000611e3582611dd3565b611e3f8185611dde565b9350611e4f818560208601611def565b611e5881611e19565b840191505092915050565b611e6c81611d4e565b82525050565b60008115159050919050565b611e8781611e72565b82525050565b600060a082019050611ea26000830188611dc4565b8181036020830152611eb48187611e2a565b9050611ec36040830186611e63565b611ed06060830185611e7e565b611edd6080830184611e7e565b9695505050505050565b600080fd5b600080fd5b7f4e487b7100000000000000000000000000000000000000000000000000000000600052604160045260246000fd5b611f2982611e19565b810181811067ffffffffffffffff82111715611f4857611f47611ef1565b5b80604052505050565b6000611f5b611cdc565b9050611f678282611f20565b919050565b600067ffffffffffffffff821115611f8757611f86611ef1565b5b611f9082611e19565b9050602081019050919050565b82818337600083830152505050565b6000611fbf611fba84611f6c565b611f51565b905082815260208101848484011115611fdb57611fda611eec565b5b611fe6848285611f9d565b509392505050565b600082601f83011261200357612002611ee7565b5b8135612013848260208601611fac565b91505092915050565b60008060006060848603121561203557612034611ce6565b5b600061204386828701611d39565b935050602084013567ffffffffffffffff81111561206457612063611ceb565b5b61207086828701611fee565b925050604061208186828701611d6f565b9150509250925092565b600080604083850312156120a2576120a1611ce6565b5b600083013567ffffffffffffffff8111156120c0576120bf611ceb565b5b6120cc85828601611fee565b92505060206120dd85828601611d39565b9150509250929050565b60006020820190506120fc6000830184611e63565b92915050565b6000819050919050565b600061212761212261211d84611cf0565b612102565b611cf0565b9050919050565b60006121398261210c565b9050919050565b600061214b8261212e565b9050919050565b61215b81612140565b82525050565b60006020820190506121766000830184612152565b92915050565b61218581611e72565b811461219057600080fd5b50565b6000813590506121a28161217c565b92915050565b600080604083850312156121bf576121be611ce6565b5b60006121cd85828601611d6f565b92505060206121de85828601612193565b9150509250929050565b600067ffffffffffffffff82111561220357612202611ef1565b5b602082029050919050565b600080fd5b6000612226612221846121e8565b611f51565b905080602084028301858111156122405761223f61220e565b5b835b8181101561226957806122558882611d6f565b845260208401935050602081019050612242565b5050509392505050565b600082601f83011261228857612287611ee7565b5b6002612295848285612213565b91505092915050565b600067ffffffffffffffff8211156122b9576122b8611ef1565b5b602082029050919050565b60006122d76122d28461229e565b611f51565b905080604084028301858111156122f1576122f061220e565b5b835b8181101561231a57806123068882612273565b8452602084019350506040810190506122f3565b5050509392505050565b600082601f83011261233957612338611ee7565b5b60026123468482856122c4565b91505092915050565b6000806000806000610140868803121561236c5761236b611ce6565b5b600061237a88828901611d39565b955050602061238b88828901611d6f565b945050604061239c88828901612273565b93505060806123ad88828901612324565b9250506101006123bf88828901612273565b9150509295509295909350565b60006020820190506123e16000830184611e7e565b92915050565b600067ffffffffffffffff82111561240257612401611ef1565b5b602082029050602081019050919050565b6000612426612421846123e7565b611f51565b905080838252602082019050602084028301858111156124495761244861220e565b5b835b81811015612472578061245e8882611d6f565b84526020840193505060208101905061244b565b5050509392505050565b600082601f83011261249157612490611ee7565b5b81356124a1848260208601612413565b91505092915050565b60008060008060008061016087890312156124c8576124c7611ce6565b5b60006124d689828a01611d39565b96505060206124e789828a01611d6f565b95505060406124f889828a01612273565b945050608061250989828a01612324565b93505061010061251b89828a01612273565b92505061014087013567ffffffffffffffff81111561253d5761253c611ceb565b5b61254989828a0161247c565b9150509295509295509295565b60006020828403121561256c5761256b611ce6565b5b600082013567ffffffffffffffff81111561258a57612589611ceb565b5b61259684828501611fee565b91505092915050565b60006020820190506125b46000830184611dc4565b92915050565b6000602082840312156125d0576125cf611ce6565b5b60006125de84828501611d39565b91505092915050565b600080604083850312156125fe576125fd611ce6565b5b600061260c85828601611d39565b925050602083013567ffffffffffffffff81111561262d5761262c611ceb565b5b61263985828601611fee565b9150509250929050565b7f4e487b7100000000000000000000000000000000000000000000000000000000600052602260045260246000fd5b6000600282049050600182168061268a57607f821691505b60208210810361269d5761269c612643565b5b50919050565b6000815190506126b28161217c565b92915050565b6000602082840312156126ce576126cd611ce6565b5b60006126dc848285016126a3565b91505092915050565b7f4f6e6c7920646f63746f722063616e2063616c6c20746869732066756e63746960008201527f6f6e000000000000000000000000000000000000000000000000000000000000602082015250565b6000612741602283611dde565b915061274c826126e5565b604082019050919050565b6000602082019050818103600083015261277081612734565b9050919050565b600081905092915050565b7f626c6f6f64547970650000000000000000000000000000000000000000000000600082015250565b60006127b8600983612777565b91506127c382612782565b600982019050919050565b60006127d9826127ab565b9150819050919050565b60006127ee82611dd3565b6127f88185612777565b9350612808818560208601611def565b80840191505092915050565b600061282082846127e3565b915081905092915050565b7f496e76616c696420626c6f6f64207479706520636f6465000000000000000000600082015250565b6000612861601783611dde565b915061286c8261282b565b602082019050919050565b6000602082019050818103600083015261289081612854565b9050919050565b600060208201905081810360008301526128b18184611e2a565b905092915050565b7f4f6e6c792061646d696e2063616e2063616c6c20746869732066756e6374696f60008201527f6e00000000000000000000000000000000000000000000000000000000000000602082015250565b6000612915602183611dde565b9150612920826128b9565b604082019050919050565b6000602082019050818103600083015261294481612908565b9050919050565b7f496e76616c696420766572696669657220616464726573730000000000000000600082015250565b6000612981601883611dde565b915061298c8261294b565b602082019050919050565b600060208201905081810360008301526129b081612974565b9050919050565b600060408201905081810360008301526129d18185611e2a565b90506129e06020830184611dc4565b9392505050565b7f566572696669636174696f6e2074797065206e6f7420737570706f7274656400600082015250565b6000612a1d601f83611dde565b9150612a28826129e7565b602082019050919050565b60006020820190508181036000830152612a4c81612a10565b9050919050565b7f50617469656e742064617461206e6f7420726567697374657265640000000000600082015250565b6000612a89601b83611dde565b9150612a9482612a53565b602082019050919050565b60006020820190508181036000830152612ab881612a7c565b9050919050565b7f4e487b7100000000000000000000000000000000000000000000000000000000600052601160045260246000fd5b6000612af982611d4e565b91507fffffffffffffffffffffffffffffffffffffffffffffffffffffffffffffffff8203612b2b57612b2a612abf565b5b600182019050919050565b60008190508160005260206000209050919050565b60006020601f8301049050919050565b600082821b905092915050565b600060088302612b987fffffffffffffffffffffffffffffffffffffffffffffffffffffffffffffffff82612b5b565b612ba28683612b5b565b95508019841693508086168417925050509392505050565b6000612bd5612bd0612bcb84611d4e565b612102565b611d4e565b9050919050565b6000819050919050565b612bef83612bba565b612c03612bfb82612bdc565b848454612b68565b825550505050565b600090565b612c18612c0b565b612c23818484612be6565b505050565b5b81811015612c4757612c3c600082612c10565b600181019050612c29565b5050565b601f821115612c8c57612c5d81612b36565b612c6684612b4b565b81016020851015612c75578190505b612c89612c8185612b4b565b830182612c28565b50505b505050565b600082821c905092915050565b6000612caf60001984600802612c91565b1980831691505092915050565b6000612cc88383612c9e565b9150826002028217905092915050565b612ce182611dd3565b67ffffffffffffffff811115612cfa57612cf9611ef1565b5b612d048254612672565b612d0f828285612c4b565b600060209050601f831160018114612d425760008415612d30578287015190505b612d3a8582612cbc565b865550612da2565b601f198416612d5086612b36565b60005b82811015612d7857848901518255600182019150602085019450602081019050612d53565b86831015612d955784890151612d91601f891682612c9e565b8355505b6001600288020188555050505b505050505050565b60006040820190508181036000830152612dc48185611e2a565b9050612dd36020830184611e63565b9392505050565b7f52657175657374204944206e6f7420666f756e64000000000000000000000000600082015250565b6000612e10601483611dde565b9150612e1b82612dda565b602082019050919050565b60006020820190508181036000830152612e3f81612e03565b9050919050565b7f4e487b7100000000000000000000000000000000000000000000000000000000600052603260045260246000fd5b7f5265717565737420616c72656164792070726f63657373656400000000000000600082015250565b6000612eab601983611dde565b9150612eb682612e75565b602082019050919050565b60006020820190508181036000830152612eda81612e9e565b9050919050565b6000604082019050612ef66000830185611e63565b612f036020830184611e7e565b9392505050565b7f50617469656e7420626c6f6f642074797065206e6f742072656769737465726560008201527f6400000000000000000000000000000000000000000000000000000000000000602082015250565b6000612f66602183611dde565b9150612f7182612f0a565b604082019050919050565b60006020820190508181036000830152612f9581612f59565b9050919050565b7f426c6f6f642074797065207665726966696572206e6f7420726567697374657260008201527f6564000000000000000000000000000000000000000000000000000000000000602082015250565b6000612ff8602283611dde565b915061300382612f9c565b604082019050919050565b6000602082019050818103600083015261302781612feb565b9050919050565b600060029050919050565b600081905092915050565b6000819050919050565b61305781611d4e565b82525050565b6000613069838361304e565b60208301905092915050565b6000602082019050919050565b61308b8161302e565b6130958184613039565b92506130a082613044565b8060005b838110156130d15781516130b8878261305d565b96506130c383613075565b9250506001810190506130a4565b505050505050565b600060029050919050565b600081905092915050565b6000819050919050565b600081905092915050565b61310d8161302e565b61311781846130f9565b925061312282613044565b8060005b8381101561315357815161313a878261305d565b965061314583613075565b925050600181019050613126565b505050505050565b60006131678383613104565b60408301905092915050565b6000602082019050919050565b613189816130d9565b61319381846130e4565b925061319e826130ef565b8060005b838110156131cf5781516131b6878261315b565b96506131c183613173565b9250506001810190506131a2565b505050505050565b600081519050919050565b600082825260208201905092915050565b6000819050602082019050919050565b6000602082019050919050565b600061321b826131d7565b61322581856131e2565b9350613230836131f3565b8060005b83811015613261578151613248888261305d565b975061325383613203565b925050600181019050613234565b5085935050505092915050565b6000610120820190506132846000830187613082565b6132916040830186613180565b61329e60c0830185613082565b8181036101008301526132b18184613210565b905095945050505050565b7f52657175657374207374696c6c2070656e64696e670000000000000000000000600082015250565b60006132f2601583611dde565b91506132fd826132bc565b602082019050919050565b60006020820190508181036000830152613321816132e5565b9050919050565b7f52657175657374207761732064656e6965640000000000000000000000000000600082015250565b600061335e601283611dde565b915061336982613328565b602082019050919050565b6000602082019050818103600083015261338d81613351565b9050919050565b7f4f6e6c79207265717565737465722063616e207375626d69742070726f6f6600600082015250565b60006133ca601f83611dde565b91506133d582613394565b602082019050919050565b600060208201905081810360008301526133f9816133bd565b9050919050565b6000604082019050818103600083015261341a8185611e2a565b90506134296020830184611e7e565b9392505050565b7f4f6e6c792070617469656e74206f7220646f63746f722063616e2063616c6c2060008201527f746869732066756e6374696f6e00000000000000000000000000000000000000602082015250565b600061348c602d83611dde565b915061349782613430565b604082019050919050565b600060208201905081810360008301526134bb8161347f565b905091905056fea2646970667358221220ed8f7d5ad6cf52c52f225ce6cad1dc7d4dbe013de1dc06216013a97a226d853364736f6c634300081c0033",
  "linkReferences": {},
  "deployedLinkReferences": {}
}