{
  "_format": "hh-sol-artifact-1",
  "contractName": "MedicalRecord",
  "sourceName": "contracts/MedicalRecord.sol",
  "abi": [
    {
      "inputs": [],
      "stateMutability": "nonpayable",
      "type": "constructor"
    },
    {
      "inputs": [],
      "name": "ECDSAInvalidSignature",
      "type": "error"
    },
    {
      "inputs": [
        {
          "internalType": "uint256",
          "name": "length",
          "type": "uint256"
        }
      ],
      "name": "ECDSAInvalidSignatureLength",
      "type": "error"
    },
    {
      "inputs": [
        {
          "internalType": "bytes32",
          "name": "s",
          "type": "bytes32"
        }
      ],
      "name": "ECDSAInvalidSignatureS",
      "type": "error"
    },
    {
      "inputs": [
        {
          "internalType": "address",
          "name": "owner",
          "type": "address"
        }
      ],
      "name": "OwnableInvalidOwner",
      "type": "error"
    },
    {
      "inputs": [
        {
          "internalType": "address",
          "name": "account",
          "type": "address"
        }
      ],
      "name": "OwnableUnauthorizedAccount",
      "type": "error"
    },
    {
      "anonymous": false,
      "inputs": [
        {
          "indexed": true,
          "internalType": "address",
          "name": "doctor",
          "type": "address"
        }
      ],
      "name": "DoctorAdded",
      "type": "event"
    },
    {
      "anonymous": false,
      "inputs": [
        {
          "indexed": true,
          "internalType": "address",
          "name": "doctor",
          "type": "address"
        }
      ],
      "name": "DoctorRemoved",
      "type": "event"
    },
    {
      "anonymous": false,
      "inputs": [
        {
          "indexed": true,
          "internalType": "address",
          "name": "previousOwner",
          "type": "address"
        },
        {
          "indexed": true,
          "internalType": "address",
          "name": "newOwner",
          "type": "address"
        }
      ],
      "name": "OwnershipTransferred",
      "type": "event"
    },
    {
      "anonymous": false,
      "inputs": [
        {
          "indexed": true,
          "internalType": "address",
          "name": "patient",
          "type": "address"
        },
        {
          "indexed": true,
          "internalType": "uint256",
          "name": "recordId",
          "type": "uint256"
        },
        {
          "indexed": false,
          "internalType": "string",
          "name": "data",
          "type": "string"
        }
      ],
      "name": "RecordAdded",
      "type": "event"
    },
    {
      "inputs": [
        {
          "internalType": "address",
          "name": "doctor",
          "type": "address"
        }
      ],
      "name": "addDoctor",
      "outputs": [],
      "stateMutability": "nonpayable",
      "type": "function"
    },
    {
      "inputs": [
        {
          "internalType": "address",
          "name": "patient",
          "type": "address"
        },
        {
          "internalType": "string",
          "name": "data",
          "type": "string"
        },
        {
          "internalType": "bytes",
          "name": "signature",
          "type": "bytes"
        },
        {
          "internalType": "address",
          "name": "hospital",
          "type": "address"
        }
      ],
      "name": "addMedicalRecord",
      "outputs": [],
      "stateMutability": "nonpayable",
      "type": "function"
    },
    {
      "inputs": [
        {
          "internalType": "address",
          "name": "patient",
          "type": "address"
        },
        {
          "internalType": "uint256",
          "name": "recordId",
          "type": "uint256"
        }
      ],
      "name": "getMedicalRecord",
      "outputs": [
        {
          "internalType": "string",
          "name": "data",
          "type": "string"
        },
        {
          "internalType": "bytes",
          "name": "signature",
          "type": "bytes"
        },
        {
          "internalType": "address",
          "name": "hospital",
          "type": "address"
        },
        {
          "internalType": "uint256",
          "name": "timestamp",
          "type": "uint256"
        }
      ],
      "stateMutability": "view",
      "type": "function"
    },
    {
      "inputs": [
        {
          "internalType": "address",
          "name": "patient",
          "type": "address"
        }
      ],
      "name": "getRecordCount",
      "outputs": [
        {
          "internalType": "uint256",
          "name": "",
          "type": "uint256"
        }
      ],
      "stateMutability": "view",
      "type": "function"
    },
    {
      "inputs": [
        {
          "internalType": "address",
          "name": "doctor",
          "type": "address"
        }
      ],
      "name": "isDoctor",
      "outputs": [
        {
          "internalType": "bool",
          "name": "",
          "type": "bool"
        }
      ],
      "stateMutability": "view",
      "type": "function"
    },
    {
      "inputs": [],
      "name": "owner",
      "outputs": [
        {
          "internalType": "address",
          "name": "",
          "type": "address"
        }
      ],
      "stateMutability": "view",
      "type": "function"
    },
    {
      "inputs": [
        {
          "internalType": "address",
          "name": "doctor",
          "type": "address"
        }
      ],
      "name": "removeDoctor",
      "outputs": [],
      "stateMutability": "nonpayable",
      "type": "function"
    },
    {
      "inputs": [],
      "name": "renounceOwnership",
      "outputs": [],
      "stateMutability": "nonpayable",
      "type": "function"
    },
    {
      "inputs": [
        {
          "internalType": "address",
          "name": "newOwner",
          "type": "address"
        }
      ],
      "name": "transferOwnership",
      "outputs": [],
      "stateMutability": "nonpayable",
      "type": "function"
    },
    {
      "inputs": [
        {
          "internalType": "string",
          "name": "data",
          "type": "string"
        },
        {
          "internalType": "bytes",
          "name": "signature",
          "type": "bytes"
        },
        {
          "internalType": "address",
          "name": "hospital",
          "type": "address"
        }
      ],
      "name": "verifySignature",
      "outputs": [
        {
          "internalType": "bool",
          "name": "",
          "type": "bool"
        }
      ],
      "stateMutability": "pure",
      "type": "function"
    }
  ],
  "bytecode": "0x608060405234801561001057600080fd5b5033600073ffffffffffffffffffffffffffffffffffffffff168173ffffffffffffffffffffffffffffffffffffffff16036100845760006040517f1e4fbdf700000000000000000000000000000000000000000000000000000000815260040161007b919061019e565b60405180910390fd5b6100938161009960201b60201c565b506101b9565b60008060009054906101000a900473ffffffffffffffffffffffffffffffffffffffff169050816000806101000a81548173ffffffffffffffffffffffffffffffffffffffff021916908373ffffffffffffffffffffffffffffffffffffffff1602179055508173ffffffffffffffffffffffffffffffffffffffff168173ffffffffffffffffffffffffffffffffffffffff167f8be0079c531659141344cd1fd0a4f28419497f9722a3daafe3b4186f6b6457e060405160405180910390a35050565b600073ffffffffffffffffffffffffffffffffffffffff82169050919050565b60006101888261015d565b9050919050565b6101988161017d565b82525050565b60006020820190506101b3600083018461018f565b92915050565b611ed1806101c86000396000f3fe608060405234801561001057600080fd5b506004361061009e5760003560e01c806398fc90e91161006657806398fc90e914610133578063996440c61461014f578063c95571a41461017f578063eea9c37b146101af578063f2fde38b146101e25761009e565b80634780468f146100a357806354acb133146100bf57806358214308146100db578063715018a61461010b5780638da5cb5b14610115575b600080fd5b6100bd60048036038101906100b891906111a0565b6101fe565b005b6100d960048036038101906100d491906113b4565b6102a4565b005b6100f560048036038101906100f091906111a0565b610570565b604051610102919061146c565b60405180910390f35b6101136105b9565b005b61011d6105cd565b60405161012a9190611496565b60405180910390f35b61014d600480360381019061014891906111a0565b6105f6565b005b610169600480360381019061016491906111a0565b61069c565b60405161017691906114cc565b60405180910390f35b610199600480360381019061019491906114e7565b6106f2565b6040516101a691906114cc565b60405180910390f35b6101c960048036038101906101c4919061159e565b610748565b6040516101d994939291906116b2565b60405180910390f35b6101fc60048036038101906101f791906111a0565b610a19565b005b610206610a9f565b6001600360008373ffffffffffffffffffffffffffffffffffffffff1673ffffffffffffffffffffffffffffffffffffffff16815260200190815260200160002060006101000a81548160ff0219169083151502179055508073ffffffffffffffffffffffffffffffffffffffff167f69908b2e63170aa89ef89719bbe3b4c92cccc38653968ab25f4464eff7c28ac860405160405180910390a250565b600360003373ffffffffffffffffffffffffffffffffffffffff1673ffffffffffffffffffffffffffffffffffffffff16815260200190815260200160002060009054906101000a900460ff16610330576040517f08c379a000000000000000000000000000000000000000000000000000000000815260040161032790611751565b60405180910390fd5b61033b8383836106f2565b61037a576040517f08c379a0000000000000000000000000000000000000000000000000000000008152600401610371906117bd565b60405180910390fd5b6000600260008673ffffffffffffffffffffffffffffffffffffffff1673ffffffffffffffffffffffffffffffffffffffff16815260200190815260200160002054905060405180608001604052808581526020018481526020018373ffffffffffffffffffffffffffffffffffffffff16815260200142815250600160008773ffffffffffffffffffffffffffffffffffffffff1673ffffffffffffffffffffffffffffffffffffffff1681526020019081526020016000206000838152602001908152602001600020600082015181600001908161045a91906119e9565b5060208201518160010190816104709190611b16565b5060408201518160020160006101000a81548173ffffffffffffffffffffffffffffffffffffffff021916908373ffffffffffffffffffffffffffffffffffffffff16021790555060608201518160030155905050600260008673ffffffffffffffffffffffffffffffffffffffff1673ffffffffffffffffffffffffffffffffffffffff168152602001908152602001600020600081548092919061051590611c17565b9190505550808573ffffffffffffffffffffffffffffffffffffffff167fa9ad46db2c884e6e6299f7bb4005897a4368a2f8a56ddd645874bb9498a03bab866040516105619190611c5f565b60405180910390a35050505050565b6000600260008373ffffffffffffffffffffffffffffffffffffffff1673ffffffffffffffffffffffffffffffffffffffff168152602001908152602001600020549050919050565b6105c1610a9f565b6105cb6000610b26565b565b60008060009054906101000a900473ffffffffffffffffffffffffffffffffffffffff16905090565b6105fe610a9f565b6000600360008373ffffffffffffffffffffffffffffffffffffffff1673ffffffffffffffffffffffffffffffffffffffff16815260200190815260200160002060006101000a81548160ff0219169083151502179055508073ffffffffffffffffffffffffffffffffffffffff167f493d7cf6a7c880406a55654d6727464ea088bd01d40498e1987a327e68961ab860405160405180910390a250565b6000600360008373ffffffffffffffffffffffffffffffffffffffff1673ffffffffffffffffffffffffffffffffffffffff16815260200190815260200160002060009054906101000a900460ff169050919050565b6000806106fe85610bea565b9050600061070c8286610c25565b90508373ffffffffffffffffffffffffffffffffffffffff168173ffffffffffffffffffffffffffffffffffffffff1614925050509392505050565b6060806000808573ffffffffffffffffffffffffffffffffffffffff163373ffffffffffffffffffffffffffffffffffffffff1614806107d15750600360003373ffffffffffffffffffffffffffffffffffffffff1673ffffffffffffffffffffffffffffffffffffffff16815260200190815260200160002060009054906101000a900460ff165b610810576040517f08c379a000000000000000000000000000000000000000000000000000000000815260040161080790611cf3565b60405180910390fd5b6000600160008873ffffffffffffffffffffffffffffffffffffffff1673ffffffffffffffffffffffffffffffffffffffff168152602001908152602001600020600087815260200190815260200160002060405180608001604052908160008201805461087d9061180c565b80601f01602080910402602001604051908101604052809291908181526020018280546108a99061180c565b80156108f65780601f106108cb576101008083540402835291602001916108f6565b820191906000526020600020905b8154815290600101906020018083116108d957829003601f168201915b5050505050815260200160018201805461090f9061180c565b80601f016020809104026020016040519081016040528092919081815260200182805461093b9061180c565b80156109885780601f1061095d57610100808354040283529160200191610988565b820191906000526020600020905b81548152906001019060200180831161096b57829003601f168201915b505050505081526020016002820160009054906101000a900473ffffffffffffffffffffffffffffffffffffffff1673ffffffffffffffffffffffffffffffffffffffff1673ffffffffffffffffffffffffffffffffffffffff1681526020016003820154815250509050806000015181602001518260400151836060015194509450945094505092959194509250565b610a21610a9f565b600073ffffffffffffffffffffffffffffffffffffffff168173ffffffffffffffffffffffffffffffffffffffff1603610a935760006040517f1e4fbdf7000000000000000000000000000000000000000000000000000000008152600401610a8a9190611496565b60405180910390fd5b610a9c81610b26565b50565b610aa7610c51565b73ffffffffffffffffffffffffffffffffffffffff16610ac56105cd565b73ffffffffffffffffffffffffffffffffffffffff1614610b2457610ae8610c51565b6040517f118cdaa7000000000000000000000000000000000000000000000000000000008152600401610b1b9190611496565b60405180910390fd5b565b60008060009054906101000a900473ffffffffffffffffffffffffffffffffffffffff169050816000806101000a81548173ffffffffffffffffffffffffffffffffffffffff021916908373ffffffffffffffffffffffffffffffffffffffff1602179055508173ffffffffffffffffffffffffffffffffffffffff168173ffffffffffffffffffffffffffffffffffffffff167f8be0079c531659141344cd1fd0a4f28419497f9722a3daafe3b4186f6b6457e060405160405180910390a35050565b6000610bf68251610c59565b82604051602001610c08929190611d75565b604051602081830303815290604052805190602001209050919050565b600080600080610c358686610d27565b925092509250610c458282610d83565b82935050505092915050565b600033905090565b606060006001610c6884610ee7565b01905060008167ffffffffffffffff811115610c8757610c866111e8565b5b6040519080825280601f01601f191660200182016040528015610cb95781602001600182028036833780820191505090505b509050600082602001820190505b600115610d1c578080600190039150507f3031323334353637383961626364656600000000000000000000000000000000600a86061a8153600a8581610d1057610d0f611da8565b5b04945060008503610cc7575b819350505050919050565b60008060006041845103610d6c5760008060006020870151925060408701519150606087015160001a9050610d5e8882858561103a565b955095509550505050610d7c565b60006002855160001b9250925092505b9250925092565b60006003811115610d9757610d96611dd7565b5b826003811115610daa57610da9611dd7565b5b0315610ee35760016003811115610dc457610dc3611dd7565b5b826003811115610dd757610dd6611dd7565b5b03610e0e576040517ff645eedf00000000000000000000000000000000000000000000000000000000815260040160405180910390fd5b60026003811115610e2257610e21611dd7565b5b826003811115610e3557610e34611dd7565b5b03610e7a578060001c6040517ffce698f7000000000000000000000000000000000000000000000000000000008152600401610e71919061146c565b60405180910390fd5b600380811115610e8d57610e8c611dd7565b5b826003811115610ea057610e9f611dd7565b5b03610ee257806040517fd78bce0c000000000000000000000000000000000000000000000000000000008152600401610ed99190611e1f565b60405180910390fd5b5b5050565b600080600090507a184f03e93ff9f4daa797ed6e38ed64bf6a1f0100000000000000008310610f45577a184f03e93ff9f4daa797ed6e38ed64bf6a1f0100000000000000008381610f3b57610f3a611da8565b5b0492506040810190505b6d04ee2d6d415b85acef81000000008310610f82576d04ee2d6d415b85acef81000000008381610f7857610f77611da8565b5b0492506020810190505b662386f26fc100008310610fb157662386f26fc100008381610fa757610fa6611da8565b5b0492506010810190505b6305f5e1008310610fda576305f5e1008381610fd057610fcf611da8565b5b0492506008810190505b6127108310610fff576127108381610ff557610ff4611da8565b5b0492506004810190505b60648310611022576064838161101857611017611da8565b5b0492506002810190505b600a8310611031576001810190505b80915050919050565b60008060007f7fffffffffffffffffffffffffffffff5d576e7357a4501ddfe92f46681b20a08460001c111561107a576000600385925092509250611124565b60006001888888886040516000815260200160405260405161109f9493929190611e56565b6020604051602081039080840390855afa1580156110c1573d6000803e3d6000fd5b505050602060405103519050600073ffffffffffffffffffffffffffffffffffffffff168173ffffffffffffffffffffffffffffffffffffffff160361111557600060016000801b93509350935050611124565b8060008060001b935093509350505b9450945094915050565b6000604051905090565b600080fd5b600080fd5b600073ffffffffffffffffffffffffffffffffffffffff82169050919050565b600061116d82611142565b9050919050565b61117d81611162565b811461118857600080fd5b50565b60008135905061119a81611174565b92915050565b6000602082840312156111b6576111b5611138565b5b60006111c48482850161118b565b91505092915050565b600080fd5b600080fd5b6000601f19601f8301169050919050565b7f4e487b7100000000000000000000000000000000000000000000000000000000600052604160045260246000fd5b611220826111d7565b810181811067ffffffffffffffff8211171561123f5761123e6111e8565b5b80604052505050565b600061125261112e565b905061125e8282611217565b919050565b600067ffffffffffffffff82111561127e5761127d6111e8565b5b611287826111d7565b9050602081019050919050565b82818337600083830152505050565b60006112b66112b184611263565b611248565b9050828152602081018484840111156112d2576112d16111d2565b5b6112dd848285611294565b509392505050565b600082601f8301126112fa576112f96111cd565b5b813561130a8482602086016112a3565b91505092915050565b600067ffffffffffffffff82111561132e5761132d6111e8565b5b611337826111d7565b9050602081019050919050565b600061135761135284611313565b611248565b905082815260208101848484011115611373576113726111d2565b5b61137e848285611294565b509392505050565b600082601f83011261139b5761139a6111cd565b5b81356113ab848260208601611344565b91505092915050565b600080600080608085870312156113ce576113cd611138565b5b60006113dc8782880161118b565b945050602085013567ffffffffffffffff8111156113fd576113fc61113d565b5b611409878288016112e5565b935050604085013567ffffffffffffffff81111561142a5761142961113d565b5b61143687828801611386565b92505060606114478782880161118b565b91505092959194509250565b6000819050919050565b61146681611453565b82525050565b6000602082019050611481600083018461145d565b92915050565b61149081611162565b82525050565b60006020820190506114ab6000830184611487565b92915050565b60008115159050919050565b6114c6816114b1565b82525050565b60006020820190506114e160008301846114bd565b92915050565b600080600060608486031215611500576114ff611138565b5b600084013567ffffffffffffffff81111561151e5761151d61113d565b5b61152a868287016112e5565b935050602084013567ffffffffffffffff81111561154b5761154a61113d565b5b61155786828701611386565b92505060406115688682870161118b565b9150509250925092565b61157b81611453565b811461158657600080fd5b50565b60008135905061159881611572565b92915050565b600080604083850312156115b5576115b4611138565b5b60006115c38582860161118b565b92505060206115d485828601611589565b9150509250929050565b600081519050919050565b600082825260208201905092915050565b60005b838110156116185780820151818401526020810190506115fd565b60008484015250505050565b600061162f826115de565b61163981856115e9565b93506116498185602086016115fa565b611652816111d7565b840191505092915050565b600081519050919050565b600082825260208201905092915050565b60006116848261165d565b61168e8185611668565b935061169e8185602086016115fa565b6116a7816111d7565b840191505092915050565b600060808201905081810360008301526116cc8187611624565b905081810360208301526116e08186611679565b90506116ef6040830185611487565b6116fc606083018461145d565b95945050505050565b7f4f6e6c7920646f63746f72732063616e20616464207265636f72647300000000600082015250565b600061173b601c836115e9565b915061174682611705565b602082019050919050565b6000602082019050818103600083015261176a8161172e565b9050919050565b7f496e76616c6964207369676e6174757265000000000000000000000000000000600082015250565b60006117a76011836115e9565b91506117b282611771565b602082019050919050565b600060208201905081810360008301526117d68161179a565b9050919050565b7f4e487b7100000000000000000000000000000000000000000000000000000000600052602260045260246000fd5b6000600282049050600182168061182457607f821691505b602082108103611837576118366117dd565b5b50919050565b60008190508160005260206000209050919050565b60006020601f8301049050919050565b600082821b905092915050565b60006008830261189f7fffffffffffffffffffffffffffffffffffffffffffffffffffffffffffffffff82611862565b6118a98683611862565b95508019841693508086168417925050509392505050565b6000819050919050565b60006118e66118e16118dc84611453565b6118c1565b611453565b9050919050565b6000819050919050565b611900836118cb565b61191461190c826118ed565b84845461186f565b825550505050565b600090565b61192961191c565b6119348184846118f7565b505050565b5b818110156119585761194d600082611921565b60018101905061193a565b5050565b601f82111561199d5761196e8161183d565b61197784611852565b81016020851015611986578190505b61199a61199285611852565b830182611939565b50505b505050565b600082821c905092915050565b60006119c0600019846008026119a2565b1980831691505092915050565b60006119d983836119af565b9150826002028217905092915050565b6119f2826115de565b67ffffffffffffffff811115611a0b57611a0a6111e8565b5b611a15825461180c565b611a2082828561195c565b600060209050601f831160018114611a535760008415611a41578287015190505b611a4b85826119cd565b865550611ab3565b601f198416611a618661183d565b60005b82811015611a8957848901518255600182019150602085019450602081019050611a64565b86831015611aa65784890151611aa2601f8916826119af565b8355505b6001600288020188555050505b505050505050565b60008190508160005260206000209050919050565b601f821115611b1157611ae281611abb565b611aeb84611852565b81016020851015611afa578190505b611b0e611b0685611852565b830182611939565b50505b505050565b611b1f8261165d565b67ffffffffffffffff811115611b3857611b376111e8565b5b611b42825461180c565b611b4d828285611ad0565b600060209050601f831160018114611b805760008415611b6e578287015190505b611b7885826119cd565b865550611be0565b601f198416611b8e86611abb565b60005b82811015611bb657848901518255600182019150602085019450602081019050611b91565b86831015611bd35784890151611bcf601f8916826119af565b8355505b6001600288020188555050505b505050505050565b7f4e487b7100000000000000000000000000000000000000000000000000000000600052601160045260246000fd5b6000611c2282611453565b91507fffffffffffffffffffffffffffffffffffffffffffffffffffffffffffffffff8203611c5457611c53611be8565b5b600182019050919050565b60006020820190508181036000830152611c798184611624565b905092915050565b7f4f6e6c79207468652070617469656e74206f72206120646f63746f722063616e60008201527f20766965772074686973207265636f7264000000000000000000000000000000602082015250565b6000611cdd6031836115e9565b9150611ce882611c81565b604082019050919050565b60006020820190508181036000830152611d0c81611cd0565b9050919050565b7f19457468657265756d205369676e6564204d6573736167653a0a000000000000815250565b600081905092915050565b6000611d4f8261165d565b611d598185611d39565b9350611d698185602086016115fa565b80840191505092915050565b6000611d8082611d13565b601a82019150611d908285611d44565b9150611d9c8284611d44565b91508190509392505050565b7f4e487b7100000000000000000000000000000000000000000000000000000000600052601260045260246000fd5b7f4e487b7100000000000000000000000000000000000000000000000000000000600052602160045260246000fd5b6000819050919050565b611e1981611e06565b82525050565b6000602082019050611e346000830184611e10565b92915050565b600060ff82169050919050565b611e5081611e3a565b82525050565b6000608082019050611e6b6000830187611e10565b611e786020830186611e47565b611e856040830185611e10565b611e926060830184611e10565b9594505050505056fea2646970667358221220d51af024e3c8151c6ee418b53baa947a0ac72c7af5660165843462942c00462d64736f6c634300081c0033",
  "linkReferences": {},
  "deployedLinkReferences": {}
}