{
  "_format": "hh-sol-artifact-1",
  "contractName": "MedicalRecordVerifier",
  "sourceName": "contracts/MedicalRecordVerifier.sol",
  "abi": [
    {
      "inputs": [
        {
          "internalType": "address",
          "name": "_zkareContract",
          "type": "address"
        },
        {
          "internalType": "address",
          "name": "_verifierContract",
          "type": "address"
        }
      ],
      "stateMutability": "nonpayable",
      "type": "constructor"
    },
    {
      "anonymous": false,
      "inputs": [
        {
          "indexed": true,
          "internalType": "address",
          "name": "patient",
          "type": "address"
        },
        {
          "indexed": false,
          "internalType": "bytes32",
          "name": "requestId",
          "type": "bytes32"
        },
        {
          "indexed": false,
          "internalType": "uint256",
          "name": "approvalTime",
          "type": "uint256"
        }
      ],
      "name": "AccessApproved",
      "type": "event"
    },
    {
      "anonymous": false,
      "inputs": [
        {
          "indexed": true,
          "internalType": "address",
          "name": "patient",
          "type": "address"
        },
        {
          "indexed": false,
          "internalType": "bytes32",
          "name": "requestId",
          "type": "bytes32"
        }
      ],
      "name": "AccessDenied",
      "type": "event"
    },
    {
      "anonymous": false,
      "inputs": [
        {
          "indexed": true,
          "internalType": "address",
          "name": "requester",
          "type": "address"
        },
        {
          "indexed": true,
          "internalType": "address",
          "name": "patient",
          "type": "address"
        },
        {
          "indexed": false,
          "internalType": "bytes32",
          "name": "recordHash",
          "type": "bytes32"
        },
        {
          "indexed": false,
          "internalType": "bytes32",
          "name": "requestId",
          "type": "bytes32"
        }
      ],
      "name": "AccessRequested",
      "type": "event"
    },
    {
      "anonymous": false,
      "inputs": [
        {
          "indexed": true,
          "internalType": "address",
          "name": "requester",
          "type": "address"
        },
        {
          "indexed": false,
          "internalType": "bytes32",
          "name": "recordHash",
          "type": "bytes32"
        },
        {
          "indexed": false,
          "internalType": "uint256",
          "name": "nullifierHash",
          "type": "uint256"
        },
        {
          "indexed": false,
          "internalType": "bool",
          "name": "isApproved",
          "type": "bool"
        }
      ],
      "name": "ProofVerified",
      "type": "event"
    },
    {
      "inputs": [
        {
          "internalType": "address",
          "name": "",
          "type": "address"
        },
        {
          "internalType": "bytes32",
          "name": "",
          "type": "bytes32"
        }
      ],
      "name": "accessRequests",
      "outputs": [
        {
          "internalType": "address",
          "name": "requester",
          "type": "address"
        },
        {
          "internalType": "bytes32",
          "name": "recordHash",
          "type": "bytes32"
        },
        {
          "internalType": "uint256",
          "name": "requestTime",
          "type": "uint256"
        },
        {
          "internalType": "bool",
          "name": "pendingApproval",
          "type": "bool"
        },
        {
          "internalType": "bool",
          "name": "approved",
          "type": "bool"
        },
        {
          "internalType": "uint256",
          "name": "approvalTime",
          "type": "uint256"
        }
      ],
      "stateMutability": "view",
      "type": "function"
    },
    {
      "inputs": [
        {
          "internalType": "bytes32",
          "name": "requestId",
          "type": "bytes32"
        }
      ],
      "name": "approveAccess",
      "outputs": [],
      "stateMutability": "nonpayable",
      "type": "function"
    },
    {
      "inputs": [
        {
          "internalType": "bytes32",
          "name": "requestId",
          "type": "bytes32"
        }
      ],
      "name": "denyAccess",
      "outputs": [],
      "stateMutability": "nonpayable",
      "type": "function"
    },
    {
      "inputs": [
        {
          "internalType": "address",
          "name": "patient",
          "type": "address"
        },
        {
          "internalType": "bytes32",
          "name": "requestId",
          "type": "bytes32"
        }
      ],
      "name": "getApprovalStatus",
      "outputs": [
        {
          "internalType": "bool",
          "name": "",
          "type": "bool"
        },
        {
          "internalType": "uint256",
          "name": "",
          "type": "uint256"
        }
      ],
      "stateMutability": "view",
      "type": "function"
    },
    {
      "inputs": [
        {
          "internalType": "uint256",
          "name": "nullifierHash",
          "type": "uint256"
        }
      ],
      "name": "isNullifierUsed",
      "outputs": [
        {
          "internalType": "bool",
          "name": "",
          "type": "bool"
        }
      ],
      "stateMutability": "view",
      "type": "function"
    },
    {
      "inputs": [
        {
          "internalType": "uint256",
          "name": "",
          "type": "uint256"
        }
      ],
      "name": "nullifierUsed",
      "outputs": [
        {
          "internalType": "bool",
          "name": "",
          "type": "bool"
        }
      ],
      "stateMutability": "view",
      "type": "function"
    },
    {
      "inputs": [
        {
          "internalType": "address",
          "name": "patient",
          "type": "address"
        },
        {
          "internalType": "bytes32",
          "name": "recordHash",
          "type": "bytes32"
        }
      ],
      "name": "requestAccess",
      "outputs": [
        {
          "internalType": "bytes32",
          "name": "",
          "type": "bytes32"
        }
      ],
      "stateMutability": "nonpayable",
      "type": "function"
    },
    {
      "inputs": [
        {
          "internalType": "bytes32",
          "name": "",
          "type": "bytes32"
        }
      ],
      "name": "requestExists",
      "outputs": [
        {
          "internalType": "bool",
          "name": "",
          "type": "bool"
        }
      ],
      "stateMutability": "view",
      "type": "function"
    },
    {
      "inputs": [],
      "name": "verifierContract",
      "outputs": [
        {
          "internalType": "contract IGroth16Verifier",
          "name": "",
          "type": "address"
        }
      ],
      "stateMutability": "view",
      "type": "function"
    },
    {
      "inputs": [
        {
          "internalType": "uint256[2]",
          "name": "a",
          "type": "uint256[2]"
        },
        {
          "internalType": "uint256[2][2]",
          "name": "b",
          "type": "uint256[2][2]"
        },
        {
          "internalType": "uint256[2]",
          "name": "c",
          "type": "uint256[2]"
        },
        {
          "internalType": "uint256[2]",
          "name": "recordHash",
          "type": "uint256[2]"
        },
        {
          "internalType": "uint256",
          "name": "approvalTimestamp",
          "type": "uint256"
        },
        {
          "internalType": "uint256",
          "name": "isApproved",
          "type": "uint256"
        },
        {
          "internalType": "uint256",
          "name": "nullifierHash",
          "type": "uint256"
        }
      ],
      "name": "verifyMedicalRecordProof",
      "outputs": [
        {
          "internalType": "bool",
          "name": "",
          "type": "bool"
        }
      ],
      "stateMutability": "nonpayable",
      "type": "function"
    },
    {
      "inputs": [],
      "name": "zkareContract",
      "outputs": [
        {
          "internalType": "contract Zkare",
          "name": "",
          "type": "address"
        }
      ],
      "stateMutability": "view",
      "type": "function"
    }
  ],
  "bytecode": "0x608060405234801561001057600080fd5b50604051611a1b380380611a1b8339818101604052810190610032919061011d565b816000806101000a81548173ffffffffffffffffffffffffffffffffffffffff021916908373ffffffffffffffffffffffffffffffffffffffff16021790555080600160006101000a81548173ffffffffffffffffffffffffffffffffffffffff021916908373ffffffffffffffffffffffffffffffffffffffff160217905550505061015d565b600080fd5b600073ffffffffffffffffffffffffffffffffffffffff82169050919050565b60006100ea826100bf565b9050919050565b6100fa816100df565b811461010557600080fd5b50565b600081519050610117816100f1565b92915050565b60008060408385031215610134576101336100ba565b5b600061014285828601610108565b925050602061015385828601610108565b9150509250929050565b6118af8061016c6000396000f3fe608060405234801561001057600080fd5b50600436106100a95760003560e01c8063a57ae0dc11610071578063a57ae0dc14610164578063c3119e2014610194578063c6c0572d146101c5578063cf695688146101f5578063d785dfe014610213578063e6d2b5e314610243576100a9565b80631b74d046146100ae5780633a203739146100de5780635a324320146100fc57806370f716cd1461011857806379f95ee914610134575b600080fd5b6100c860048036038101906100c39190610c52565b610278565b6040516100d59190610c9a565b60405180910390f35b6100e6610298565b6040516100f39190610d34565b60405180910390f35b61011660048036038101906101119190610c52565b6102bc565b005b610132600480360381019061012d9190610c52565b6103f8565b005b61014e60048036038101906101499190610d85565b610529565b60405161015b9190610c9a565b60405180910390f35b61017e60048036038101906101799190610df0565b610549565b60405161018b9190610e3f565b60405180910390f35b6101ae60048036038101906101a99190610df0565b6107bb565b6040516101bc929190610e69565b60405180910390f35b6101df60048036038101906101da9190610d85565b610835565b6040516101ec9190610c9a565b60405180910390f35b6101fd61085f565b60405161020a9190610eb3565b60405180910390f35b61022d600480360381019061022891906110c6565b610885565b60405161023a9190610c9a565b60405180910390f35b61025d60048036038101906102589190610df0565b610b8a565b60405161026f9695949392919061117c565b60405180910390f35b60036020528060005260406000206000915054906101000a900460ff1681565b60008054906101000a900473ffffffffffffffffffffffffffffffffffffffff1681565b6000600260003373ffffffffffffffffffffffffffffffffffffffff1673ffffffffffffffffffffffffffffffffffffffff168152602001908152602001600020600083815260200190815260200160002090508060030160009054906101000a900460ff16610361576040517f08c379a00000000000000000000000000000000000000000000000000000000081526004016103589061123a565b60405180910390fd5b60008160030160006101000a81548160ff02191690831515021790555060018160030160016101000a81548160ff0219169083151502179055504281600401819055503373ffffffffffffffffffffffffffffffffffffffff167f86df7e4d47aa41e4157d88a042d61c799895198610962f90c4ff791e1c06272f83426040516103ec92919061125a565b60405180910390a25050565b6000600260003373ffffffffffffffffffffffffffffffffffffffff1673ffffffffffffffffffffffffffffffffffffffff168152602001908152602001600020600083815260200190815260200160002090508060030160009054906101000a900460ff1661049d576040517f08c379a00000000000000000000000000000000000000000000000000000000081526004016104949061123a565b60405180910390fd5b60008160030160006101000a81548160ff02191690831515021790555060008160030160016101000a81548160ff0219169083151502179055503373ffffffffffffffffffffffffffffffffffffffff167fb5284671dd5836b926231e45e2e8145b51d1fd1c5ad5c02c97714329113553638360405161051d9190610e3f565b60405180910390a25050565b60046020528060005260406000206000915054906101000a900460ff1681565b60008033848442604051602001610563949392919061130d565b6040516020818303038152906040528051906020012090506003600082815260200190815260200160002060009054906101000a900460ff16156105dc576040517f08c379a00000000000000000000000000000000000000000000000000000000081526004016105d3906113a7565b60405180910390fd5b6040518060c001604052803373ffffffffffffffffffffffffffffffffffffffff1681526020018481526020014281526020016001151581526020016000151581526020016000815250600260008673ffffffffffffffffffffffffffffffffffffffff1673ffffffffffffffffffffffffffffffffffffffff168152602001908152602001600020600083815260200190815260200160002060008201518160000160006101000a81548173ffffffffffffffffffffffffffffffffffffffff021916908373ffffffffffffffffffffffffffffffffffffffff160217905550602082015181600101556040820151816002015560608201518160030160006101000a81548160ff02191690831515021790555060808201518160030160016101000a81548160ff02191690831515021790555060a0820151816004015590505060016003600083815260200190815260200160002060006101000a81548160ff0219169083151502179055508373ffffffffffffffffffffffffffffffffffffffff163373ffffffffffffffffffffffffffffffffffffffff167fa5ff79453fe633afb0544bbd4c44caeeff26e64be57bf55aeadef8e2e0bd78b185846040516107a99291906113c7565b60405180910390a38091505092915050565b6000806000600260008673ffffffffffffffffffffffffffffffffffffffff1673ffffffffffffffffffffffffffffffffffffffff168152602001908152602001600020600085815260200190815260200160002090508060030160019054906101000a900460ff16816004015492509250509250929050565b60006004600083815260200190815260200160002060009054906101000a900460ff169050919050565b600160009054906101000a900473ffffffffffffffffffffffffffffffffffffffff1681565b60006004600083815260200190815260200160002060009054906101000a900460ff16156108e8576040517f08c379a00000000000000000000000000000000000000000000000000000000081526004016108df9061143c565b60405180910390fd5b6000600467ffffffffffffffff81111561090557610904610ee4565b5b6040519080825280602002602001820160405280156109335781602001602082028036833780820191505090505b5090508560006002811061094a5761094961145c565b5b6020020151816000815181106109635761096261145c565b5b602002602001018181525050856001600281106109835761098261145c565b5b60200201518160018151811061099c5761099b61145c565b5b60200260200101818152505084816002815181106109bd576109bc61145c565b5b60200260200101818152505083816003815181106109de576109dd61145c565b5b6020026020010181815250506000600160009054906101000a900473ffffffffffffffffffffffffffffffffffffffff1673ffffffffffffffffffffffffffffffffffffffff1663c32e370e8b8b8b866040518563ffffffff1660e01b8152600401610a4d94939291906116cb565b6020604051808303816000875af1158015610a6c573d6000803e3d6000fd5b505050506040513d601f19601f82011682018060405250810190610a909190611745565b90508015610b7a5760016004600086815260200190815260200160002060006101000a81548160ff021916908315150217905550600087600060028110610ada57610ad961145c565b5b602002015188600160028110610af357610af261145c565b5b6020020151604051602001610b09929190611772565b604051602081830303815290604052610b21906117db565b90503373ffffffffffffffffffffffffffffffffffffffff167ffd41b28d81ee77f0ee38e4b439e60975cac717ec87939597e4afb26967beee29828760018a14604051610b7093929190611842565b60405180910390a2505b8092505050979650505050505050565b6002602052816000526040600020602052806000526040600020600091509150508060000160009054906101000a900473ffffffffffffffffffffffffffffffffffffffff16908060010154908060020154908060030160009054906101000a900460ff16908060030160019054906101000a900460ff16908060040154905086565b6000604051905090565b600080fd5b6000819050919050565b610c2f81610c1c565b8114610c3a57600080fd5b50565b600081359050610c4c81610c26565b92915050565b600060208284031215610c6857610c67610c17565b5b6000610c7684828501610c3d565b91505092915050565b60008115159050919050565b610c9481610c7f565b82525050565b6000602082019050610caf6000830184610c8b565b92915050565b600073ffffffffffffffffffffffffffffffffffffffff82169050919050565b6000819050919050565b6000610cfa610cf5610cf084610cb5565b610cd5565b610cb5565b9050919050565b6000610d0c82610cdf565b9050919050565b6000610d1e82610d01565b9050919050565b610d2e81610d13565b82525050565b6000602082019050610d496000830184610d25565b92915050565b6000819050919050565b610d6281610d4f565b8114610d6d57600080fd5b50565b600081359050610d7f81610d59565b92915050565b600060208284031215610d9b57610d9a610c17565b5b6000610da984828501610d70565b91505092915050565b6000610dbd82610cb5565b9050919050565b610dcd81610db2565b8114610dd857600080fd5b50565b600081359050610dea81610dc4565b92915050565b60008060408385031215610e0757610e06610c17565b5b6000610e1585828601610ddb565b9250506020610e2685828601610c3d565b9150509250929050565b610e3981610c1c565b82525050565b6000602082019050610e546000830184610e30565b92915050565b610e6381610d4f565b82525050565b6000604082019050610e7e6000830185610c8b565b610e8b6020830184610e5a565b9392505050565b6000610e9d82610d01565b9050919050565b610ead81610e92565b82525050565b6000602082019050610ec86000830184610ea4565b92915050565b600080fd5b6000601f19601f8301169050919050565b7f4e487b7100000000000000000000000000000000000000000000000000000000600052604160045260246000fd5b610f1c82610ed3565b810181811067ffffffffffffffff82111715610f3b57610f3a610ee4565b5b80604052505050565b6000610f4e610c0d565b9050610f5a8282610f13565b919050565b600067ffffffffffffffff821115610f7a57610f79610ee4565b5b602082029050919050565b600080fd5b6000610f9d610f9884610f5f565b610f44565b90508060208402830185811115610fb757610fb6610f85565b5b835b81811015610fe05780610fcc8882610d70565b845260208401935050602081019050610fb9565b5050509392505050565b600082601f830112610fff57610ffe610ece565b5b600261100c848285610f8a565b91505092915050565b600067ffffffffffffffff8211156110305761102f610ee4565b5b602082029050919050565b600061104e61104984611015565b610f44565b9050806040840283018581111561106857611067610f85565b5b835b81811015611091578061107d8882610fea565b84526020840193505060408101905061106a565b5050509392505050565b600082601f8301126110b0576110af610ece565b5b60026110bd84828561103b565b91505092915050565b60008060008060008060006101a0888a0312156110e6576110e5610c17565b5b60006110f48a828b01610fea565b97505060406111058a828b0161109b565b96505060c06111168a828b01610fea565b9550506101006111288a828b01610fea565b94505061014061113a8a828b01610d70565b93505061016061114c8a828b01610d70565b92505061018061115e8a828b01610d70565b91505092959891949750929550565b61117681610db2565b82525050565b600060c082019050611191600083018961116d565b61119e6020830188610e30565b6111ab6040830187610e5a565b6111b86060830186610c8b565b6111c56080830185610c8b565b6111d260a0830184610e5a565b979650505050505050565b600082825260208201905092915050565b7f496e76616c696420726571756573740000000000000000000000000000000000600082015250565b6000611224600f836111dd565b915061122f826111ee565b602082019050919050565b6000602082019050818103600083015261125381611217565b9050919050565b600060408201905061126f6000830185610e30565b61127c6020830184610e5a565b9392505050565b60008160601b9050919050565b600061129b82611283565b9050919050565b60006112ad82611290565b9050919050565b6112c56112c082610db2565b6112a2565b82525050565b6000819050919050565b6112e66112e182610c1c565b6112cb565b82525050565b6000819050919050565b61130761130282610d4f565b6112ec565b82525050565b600061131982876112b4565b60148201915061132982866112b4565b60148201915061133982856112d5565b60208201915061134982846112f6565b60208201915081905095945050505050565b7f416c726561647920657869737473207265717565737400000000000000000000600082015250565b60006113916016836111dd565b915061139c8261135b565b602082019050919050565b600060208201905081810360008301526113c081611384565b9050919050565b60006040820190506113dc6000830185610e30565b6113e96020830184610e30565b9392505050565b7f416c72656164792075736564206e756c6c696669657200000000000000000000600082015250565b60006114266016836111dd565b9150611431826113f0565b602082019050919050565b6000602082019050818103600083015261145581611419565b9050919050565b7f4e487b7100000000000000000000000000000000000000000000000000000000600052603260045260246000fd5b600060029050919050565b600081905092915050565b6000819050919050565b6114b481610d4f565b82525050565b60006114c683836114ab565b60208301905092915050565b6000602082019050919050565b6114e88161148b565b6114f28184611496565b92506114fd826114a1565b8060005b8381101561152e57815161151587826114ba565b9650611520836114d2565b925050600181019050611501565b505050505050565b600060029050919050565b600081905092915050565b6000819050919050565b600081905092915050565b61156a8161148b565b6115748184611556565b925061157f826114a1565b8060005b838110156115b057815161159787826114ba565b96506115a2836114d2565b925050600181019050611583565b505050505050565b60006115c48383611561565b60408301905092915050565b6000602082019050919050565b6115e681611536565b6115f08184611541565b92506115fb8261154c565b8060005b8381101561162c57815161161387826115b8565b965061161e836115d0565b9250506001810190506115ff565b505050505050565b600081519050919050565b600082825260208201905092915050565b6000819050602082019050919050565b6000602082019050919050565b600061167882611634565b611682818561163f565b935061168d83611650565b8060005b838110156116be5781516116a588826114ba565b97506116b083611660565b925050600181019050611691565b5085935050505092915050565b6000610120820190506116e160008301876114df565b6116ee60408301866115dd565b6116fb60c08301856114df565b81810361010083015261170e818461166d565b905095945050505050565b61172281610c7f565b811461172d57600080fd5b50565b60008151905061173f81611719565b92915050565b60006020828403121561175b5761175a610c17565b5b600061176984828501611730565b91505092915050565b600061177e82856112f6565b60208201915061178e82846112f6565b6020820191508190509392505050565b600081519050919050565b6000819050602082019050919050565b60006117c58251610c1c565b80915050919050565b600082821b905092915050565b60006117e68261179e565b826117f0846117a9565b90506117fb816117b9565b9250602082101561183b576118367fffffffffffffffffffffffffffffffffffffffffffffffffffffffffffffffff836020036008026117ce565b831692505b5050919050565b60006060820190506118576000830186610e30565b6118646020830185610e5a565b6118716040830184610c8b565b94935050505056fea264697066735822122059e86149258c7056fec2c7d79f42381cfa6d3bd93c75feffab0dae98231de9c064736f6c634300081c0033",
  "linkReferences": {},
  "deployedLinkReferences": {}
}