{
  "_format": "hh-sol-artifact-1",
  "contractName": "MedicalDataVerifier",
  "sourceName": "contracts/MedicalDataVerifier.sol",
  "abi": [
    {
      "inputs": [
        {
          "internalType": "address",
          "name": "_zkareContract",
          "type": "address"
        },
        {
          "internalType": "address",
          "name": "_groth16Verifier",
          "type": "address"
        }
      ],
      "stateMutability": "nonpayable",
      "type": "constructor"
    },
    {
      "anonymous": false,
      "inputs": [
        {
          "indexed": true,
          "internalType": "address",
          "name": "patient",
          "type": "address"
        },
        {
          "indexed": false,
          "internalType": "uint256",
          "name": "bloodTypeCode",
          "type": "uint256"
        }
      ],
      "name": "BloodTypeRegistered",
      "type": "event"
    },
    {
      "anonymous": false,
      "inputs": [
        {
          "indexed": true,
          "internalType": "address",
          "name": "requester",
          "type": "address"
        },
        {
          "indexed": true,
          "internalType": "address",
          "name": "patient",
          "type": "address"
        },
        {
          "indexed": false,
          "internalType": "bool",
          "name": "isMatch",
          "type": "bool"
        }
      ],
      "name": "BloodTypeVerified",
      "type": "event"
    },
    {
      "anonymous": false,
      "inputs": [
        {
          "indexed": true,
          "internalType": "address",
          "name": "patient",
          "type": "address"
        },
        {
          "indexed": false,
          "internalType": "string",
          "name": "dataType",
          "type": "string"
        }
      ],
      "name": "PatientDataRegistered",
      "type": "event"
    },
    {
      "anonymous": false,
      "inputs": [
        {
          "indexed": true,
          "internalType": "address",
          "name": "patient",
          "type": "address"
        },
        {
          "indexed": false,
          "internalType": "uint256",
          "name": "requestId",
          "type": "uint256"
        },
        {
          "indexed": false,
          "internalType": "bool",
          "name": "approved",
          "type": "bool"
        }
      ],
      "name": "VerificationApproved",
      "type": "event"
    },
    {
      "anonymous": false,
      "inputs": [
        {
          "indexed": true,
          "internalType": "address",
          "name": "requester",
          "type": "address"
        },
        {
          "indexed": true,
          "internalType": "address",
          "name": "patient",
          "type": "address"
        },
        {
          "indexed": false,
          "internalType": "string",
          "name": "verificationType",
          "type": "string"
        },
        {
          "indexed": false,
          "internalType": "uint256",
          "name": "requestId",
          "type": "uint256"
        }
      ],
      "name": "VerificationRequested",
      "type": "event"
    },
    {
      "anonymous": false,
      "inputs": [
        {
          "indexed": true,
          "internalType": "address",
          "name": "requester",
          "type": "address"
        },
        {
          "indexed": true,
          "internalType": "address",
          "name": "patient",
          "type": "address"
        },
        {
          "indexed": false,
          "internalType": "string",
          "name": "verificationType",
          "type": "string"
        },
        {
          "indexed": false,
          "internalType": "bool",
          "name": "isValid",
          "type": "bool"
        }
      ],
      "name": "VerificationResult",
      "type": "event"
    },
    {
      "anonymous": false,
      "inputs": [
        {
          "indexed": false,
          "internalType": "string",
          "name": "verificationType",
          "type": "string"
        },
        {
          "indexed": false,
          "internalType": "address",
          "name": "verifierAddress",
          "type": "address"
        }
      ],
      "name": "VerifierUpdated",
      "type": "event"
    },
    {
      "inputs": [],
      "name": "admin",
      "outputs": [
        {
          "internalType": "address",
          "name": "",
          "type": "address"
        }
      ],
      "stateMutability": "view",
      "type": "function"
    },
    {
      "inputs": [
        {
          "internalType": "address",
          "name": "patient",
          "type": "address"
        },
        {
          "internalType": "uint256",
          "name": "guessedBloodType",
          "type": "uint256"
        }
      ],
      "name": "checkBloodType",
      "outputs": [
        {
          "internalType": "bool",
          "name": "",
          "type": "bool"
        }
      ],
      "stateMutability": "view",
      "type": "function"
    },
    {
      "inputs": [
        {
          "internalType": "address",
          "name": "patient",
          "type": "address"
        },
        {
          "internalType": "string",
          "name": "dataType",
          "type": "string"
        }
      ],
      "name": "getPatientData",
      "outputs": [
        {
          "internalType": "uint256",
          "name": "",
          "type": "uint256"
        }
      ],
      "stateMutability": "view",
      "type": "function"
    },
    {
      "inputs": [
        {
          "internalType": "address",
          "name": "patient",
          "type": "address"
        }
      ],
      "name": "getPendingRequestCount",
      "outputs": [
        {
          "internalType": "uint256",
          "name": "",
          "type": "uint256"
        }
      ],
      "stateMutability": "view",
      "type": "function"
    },
    {
      "inputs": [
        {
          "internalType": "address",
          "name": "patient",
          "type": "address"
        },
        {
          "internalType": "uint256",
          "name": "requestId",
          "type": "uint256"
        }
      ],
      "name": "getRequestDetails",
      "outputs": [
        {
          "internalType": "address",
          "name": "requester",
          "type": "address"
        },
        {
          "internalType": "string",
          "name": "verificationType",
          "type": "string"
        },
        {
          "internalType": "uint256",
          "name": "requestedValue",
          "type": "uint256"
        },
        {
          "internalType": "bool",
          "name": "isPending",
          "type": "bool"
        },
        {
          "internalType": "bool",
          "name": "isApproved",
          "type": "bool"
        }
      ],
      "stateMutability": "view",
      "type": "function"
    },
    {
      "inputs": [
        {
          "internalType": "address",
          "name": "patient",
          "type": "address"
        },
        {
          "internalType": "string",
          "name": "dataType",
          "type": "string"
        },
        {
          "internalType": "uint256",
          "name": "value",
          "type": "uint256"
        }
      ],
      "name": "registerPatientData",
      "outputs": [],
      "stateMutability": "nonpayable",
      "type": "function"
    },
    {
      "inputs": [
        {
          "internalType": "address",
          "name": "patient",
          "type": "address"
        },
        {
          "internalType": "string",
          "name": "verificationType",
          "type": "string"
        },
        {
          "internalType": "uint256",
          "name": "guessedValue",
          "type": "uint256"
        }
      ],
      "name": "requestVerification",
      "outputs": [
        {
          "internalType": "uint256",
          "name": "",
          "type": "uint256"
        }
      ],
      "stateMutability": "nonpayable",
      "type": "function"
    },
    {
      "inputs": [
        {
          "internalType": "uint256",
          "name": "requestId",
          "type": "uint256"
        },
        {
          "internalType": "bool",
          "name": "approved",
          "type": "bool"
        }
      ],
      "name": "respondToVerification",
      "outputs": [],
      "stateMutability": "nonpayable",
      "type": "function"
    },
    {
      "inputs": [
        {
          "internalType": "string",
          "name": "verificationType",
          "type": "string"
        },
        {
          "internalType": "address",
          "name": "verifierAddress",
          "type": "address"
        }
      ],
      "name": "setVerifier",
      "outputs": [],
      "stateMutability": "nonpayable",
      "type": "function"
    },
    {
      "inputs": [
        {
          "internalType": "address",
          "name": "patient",
          "type": "address"
        },
        {
          "internalType": "uint256",
          "name": "requestId",
          "type": "uint256"
        },
        {
          "internalType": "uint256[2]",
          "name": "a",
          "type": "uint256[2]"
        },
        {
          "internalType": "uint256[2][2]",
          "name": "b",
          "type": "uint256[2][2]"
        },
        {
          "internalType": "uint256[2]",
          "name": "c",
          "type": "uint256[2]"
        },
        {
          "internalType": "uint256[]",
          "name": "input",
          "type": "uint256[]"
        }
      ],
      "name": "submitProof",
      "outputs": [
        {
          "internalType": "bool",
          "name": "",
          "type": "bool"
        }
      ],
      "stateMutability": "nonpayable",
      "type": "function"
    },
    {
      "inputs": [
        {
          "internalType": "address",
          "name": "",
          "type": "address"
        },
        {
          "internalType": "uint256",
          "name": "",
          "type": "uint256"
        }
      ],
      "name": "verificationRequests",
      "outputs": [
        {
          "internalType": "address",
          "name": "requester",
          "type": "address"
        },
        {
          "internalType": "string",
          "name": "verificationType",
          "type": "string"
        },
        {
          "internalType": "uint256",
          "name": "requestedValue",
          "type": "uint256"
        },
        {
          "internalType": "bool",
          "name": "isPending",
          "type": "bool"
        },
        {
          "internalType": "bool",
          "name": "isApproved",
          "type": "bool"
        }
      ],
      "stateMutability": "view",
      "type": "function"
    },
    {
      "inputs": [
        {
          "internalType": "string",
          "name": "",
          "type": "string"
        }
      ],
      "name": "verifiers",
      "outputs": [
        {
          "internalType": "address",
          "name": "",
          "type": "address"
        }
      ],
      "stateMutability": "view",
      "type": "function"
    },
    {
      "inputs": [
        {
          "internalType": "address",
          "name": "patient",
          "type": "address"
        },
        {
          "internalType": "uint256",
          "name": "guessedBloodType",
          "type": "uint256"
        },
        {
          "internalType": "uint256[2]",
          "name": "a",
          "type": "uint256[2]"
        },
        {
          "internalType": "uint256[2][2]",
          "name": "b",
          "type": "uint256[2][2]"
        },
        {
          "internalType": "uint256[2]",
          "name": "c",
          "type": "uint256[2]"
        }
      ],
      "name": "verifyBloodType",
      "outputs": [
        {
          "internalType": "bool",
          "name": "",
          "type": "bool"
        }
      ],
      "stateMutability": "nonpayable",
      "type": "function"
    },
    {
      "inputs": [],
      "name": "zkareContract",
      "outputs": [
        {
          "internalType": "contract Zkare",
          "name": "",
          "type": "address"
        }
      ],
      "stateMutability": "view",
      "type": "function"
    }
  ],
  "bytecode": "0x608060405234801561001057600080fd5b50604051613794380380613794833981810160405281019061003291906101af565b816000806101000a81548173ffffffffffffffffffffffffffffffffffffffff021916908373ffffffffffffffffffffffffffffffffffffffff16021790555033600560006101000a81548173ffffffffffffffffffffffffffffffffffffffff021916908373ffffffffffffffffffffffffffffffffffffffff1602179055508060016040516100c290610246565b908152602001604051809103902060006101000a81548173ffffffffffffffffffffffffffffffffffffffff021916908373ffffffffffffffffffffffffffffffffffffffff1602179055507f3b3bce7d23bc0b93a76a122bc1b04f3fccfb8518ae2e4b5d24c639bf5460e0608160405161013d919061029e565b60405180910390a150506102cc565b600080fd5b600073ffffffffffffffffffffffffffffffffffffffff82169050919050565b600061017c82610151565b9050919050565b61018c81610171565b811461019757600080fd5b50565b6000815190506101a981610183565b92915050565b600080604083850312156101c6576101c561014c565b5b60006101d48582860161019a565b92505060206101e58582860161019a565b9150509250929050565b600081905092915050565b7f626c6f6f64547970650000000000000000000000000000000000000000000000600082015250565b60006102306009836101ef565b915061023b826101fa565b600982019050919050565b600061025182610223565b9150819050919050565b600082825260208201905092915050565b600061027960098361025b565b9150610284826101fa565b602082019050919050565b61029881610171565b82525050565b600060408201905081810360008301526102b78161026c565b90506102c6602083018461028f565b92915050565b6134b9806102db6000396000f3fe608060405234801561001057600080fd5b50600436106100ea5760003560e01c80637f5bb04d1161008c578063c7ac3ffd11610066578063c7ac3ffd14610289578063ce09b62a146102b9578063db455173146102e9578063f851a44014610319576100ea565b80637f5bb04d146101f5578063ac205deb14610225578063b03d07e014610255576100ea565b806326cc19fd116100c857806326cc19fd1461015b5780633a2037391461018b5780635892ff5b146101a957806376fa58a4146101c5576100ea565b8063130c8ce6146100ef5780631c0cfd29146101235780632052023d1461013f575b600080fd5b61010960048036038101906101049190611d8b565b610337565b60405161011a959493929190611e94565b60405180910390f35b61013d60048036038101906101389190612023565b61044c565b005b61015960048036038101906101549190612092565b6106c9565b005b61017560048036038101906101709190612023565b610862565b60405161018291906120ee565b60405180910390f35b610193610b6f565b6040516101a09190612168565b60405180910390f35b6101c360048036038101906101be91906121af565b610b93565b005b6101df60048036038101906101da9190612356565b610d59565b6040516101ec91906123d3565b60405180910390f35b61020f600480360381019061020a91906124b1565b6110f9565b60405161021c91906123d3565b60405180910390f35b61023f600480360381019061023a919061255d565b6116bc565b60405161024c91906125a6565b60405180910390f35b61026f600480360381019061026a9190611d8b565b611705565b604051610280959493929190611e94565b60405180910390f35b6102a3600480360381019061029e9190611d8b565b611956565b6040516102b091906123d3565b60405180910390f35b6102d360048036038101906102ce91906125c1565b611a57565b6040516102e091906120ee565b60405180910390f35b61030360048036038101906102fe91906125ee565b611b46565b60405161031091906120ee565b60405180910390f35b610321611cbd565b60405161032e91906125a6565b60405180910390f35b6003602052816000526040600020818154811061035357600080fd5b9060005260206000209060040201600091509150508060000160009054906101000a900473ffffffffffffffffffffffffffffffffffffffff169080600101805461039d90612679565b80601f01602080910402602001604051908101604052809291908181526020018280546103c990612679565b80156104165780601f106103eb57610100808354040283529160200191610416565b820191906000526020600020905b8154815290600101906020018083116103f957829003601f168201915b5050505050908060020154908060030160009054906101000a900460ff16908060030160019054906101000a900460ff16905085565b60008054906101000a900473ffffffffffffffffffffffffffffffffffffffff1673ffffffffffffffffffffffffffffffffffffffff1663996440c6336040518263ffffffff1660e01b81526004016104a591906125a6565b602060405180830381865afa1580156104c2573d6000803e3d6000fd5b505050506040513d601f19601f820116820180604052508101906104e691906126bf565b610525576040517f08c379a000000000000000000000000000000000000000000000000000000000815260040161051c9061275e565b60405180910390fd5b604051602001610534906127d5565b604051602081830303815290604052805190602001208260405160200161055b919061281b565b60405160208183030381529060405280519060200120036106165760018110158015610588575060048111155b6105c7576040517f08c379a00000000000000000000000000000000000000000000000000000000081526004016105be9061287e565b60405180910390fd5b8273ffffffffffffffffffffffffffffffffffffffff167f0894cf43d66031aed0414ca3284907e46c0af74c9ade1c2f037110785221acfd8260405161060d91906120ee565b60405180910390a25b80600260008573ffffffffffffffffffffffffffffffffffffffff1673ffffffffffffffffffffffffffffffffffffffff16815260200190815260200160002083604051610664919061281b565b9081526020016040518091039020819055508273ffffffffffffffffffffffffffffffffffffffff167f3be3a6c66c5a670dee1d6837a68dae66d5cb5ff8f0c13e3a023c535e9281179c836040516106bc919061289e565b60405180910390a2505050565b600560009054906101000a900473ffffffffffffffffffffffffffffffffffffffff1673ffffffffffffffffffffffffffffffffffffffff163373ffffffffffffffffffffffffffffffffffffffff1614610759576040517f08c379a000000000000000000000000000000000000000000000000000000000815260040161075090612932565b60405180910390fd5b600073ffffffffffffffffffffffffffffffffffffffff168173ffffffffffffffffffffffffffffffffffffffff16036107c8576040517f08c379a00000000000000000000000000000000000000000000000000000000081526004016107bf9061299e565b60405180910390fd5b806001836040516107d9919061281b565b908152602001604051809103902060006101000a81548173ffffffffffffffffffffffffffffffffffffffff021916908373ffffffffffffffffffffffffffffffffffffffff1602179055507f3b3bce7d23bc0b93a76a122bc1b04f3fccfb8518ae2e4b5d24c639bf5460e06082826040516108569291906129be565b60405180910390a15050565b60008073ffffffffffffffffffffffffffffffffffffffff1660018460405161088b919061281b565b908152602001604051809103902060009054906101000a900473ffffffffffffffffffffffffffffffffffffffff1673ffffffffffffffffffffffffffffffffffffffff1603610910576040517f08c379a000000000000000000000000000000000000000000000000000000000815260040161090790612a3a565b60405180910390fd5b6000600460008673ffffffffffffffffffffffffffffffffffffffff1673ffffffffffffffffffffffffffffffffffffffff168152602001908152602001600020549050600460008673ffffffffffffffffffffffffffffffffffffffff1673ffffffffffffffffffffffffffffffffffffffff16815260200190815260200160002060008154809291906109a490612a89565b9190505550600360008673ffffffffffffffffffffffffffffffffffffffff1673ffffffffffffffffffffffffffffffffffffffff1681526020019081526020016000206040518060a001604052803373ffffffffffffffffffffffffffffffffffffffff16815260200186815260200185815260200160011515815260200160001515815250908060018154018082558091505060019003906000526020600020906004020160009091909190915060008201518160000160006101000a81548173ffffffffffffffffffffffffffffffffffffffff021916908373ffffffffffffffffffffffffffffffffffffffff1602179055506020820151816001019081610ab09190612c73565b506040820151816002015560608201518160030160006101000a81548160ff02191690831515021790555060808201518160030160016101000a81548160ff02191690831515021790555050508473ffffffffffffffffffffffffffffffffffffffff163373ffffffffffffffffffffffffffffffffffffffff167f0dfd665e42e285ea410b5c1b2527115f838aadaec5e789c4a50b57c99357ceca8684604051610b5c929190612d45565b60405180910390a3809150509392505050565b60008054906101000a900473ffffffffffffffffffffffffffffffffffffffff1681565b600360003373ffffffffffffffffffffffffffffffffffffffff1673ffffffffffffffffffffffffffffffffffffffff168152602001908152602001600020805490508210610c17576040517f08c379a0000000000000000000000000000000000000000000000000000000008152600401610c0e90612dc1565b60405180910390fd5b6000600360003373ffffffffffffffffffffffffffffffffffffffff1673ffffffffffffffffffffffffffffffffffffffff1681526020019081526020016000208381548110610c6a57610c69612de1565b5b906000526020600020906004020190508060030160009054906101000a900460ff16610ccb576040517f08c379a0000000000000000000000000000000000000000000000000000000008152600401610cc290612e5c565b60405180910390fd5b60008160030160006101000a81548160ff021916908315150217905550818160030160016101000a81548160ff0219169083151502179055503373ffffffffffffffffffffffffffffffffffffffff167f14d2c7e78a0a021c9a57f8fab0d1b283e9a5d28781aeaa23f12548656cf94a608484604051610d4c929190612e7c565b60405180910390a2505050565b600080600260008873ffffffffffffffffffffffffffffffffffffffff1673ffffffffffffffffffffffffffffffffffffffff168152602001908152602001600020604051610da7906127d5565b90815260200160405180910390205411610df6576040517f08c379a0000000000000000000000000000000000000000000000000000000008152600401610ded90612f17565b60405180910390fd5b6000600267ffffffffffffffff811115610e1357610e12611ef8565b5b604051908082528060200260200182016040528015610e415781602001602082028036833780820191505090505b5090508581600081518110610e5957610e58612de1565b5b602002602001018181525050600260008873ffffffffffffffffffffffffffffffffffffffff1673ffffffffffffffffffffffffffffffffffffffff168152602001908152602001600020604051610eb0906127d5565b90815260200160405180910390205481600181518110610ed357610ed2612de1565b5b60200260200101818152505060006001604051610eef906127d5565b908152602001604051809103902060009054906101000a900473ffffffffffffffffffffffffffffffffffffffff169050600073ffffffffffffffffffffffffffffffffffffffff168173ffffffffffffffffffffffffffffffffffffffff1603610f8f576040517f08c379a0000000000000000000000000000000000000000000000000000000008152600401610f8690612fa9565b60405180910390fd5b600081905060008173ffffffffffffffffffffffffffffffffffffffff1663c32e370e898989886040518563ffffffff1660e01b8152600401610fd59493929190613209565b6020604051808303816000875af1158015610ff4573d6000803e3d6000fd5b505050506040513d601f19601f8201168201806040525081019061101891906126bf565b905060008180156110815750600260008c73ffffffffffffffffffffffffffffffffffffffff1673ffffffffffffffffffffffffffffffffffffffff16815260200190815260200160002060405161106f906127d5565b9081526020016040518091039020548a145b90508a73ffffffffffffffffffffffffffffffffffffffff163373ffffffffffffffffffffffffffffffffffffffff167f8126627cba75b5794747716e13d174f7da92bac2b5610fc0cccdd517096864d6836040516110e091906123d3565b60405180910390a3809550505050505095945050505050565b6000600360008873ffffffffffffffffffffffffffffffffffffffff1673ffffffffffffffffffffffffffffffffffffffff16815260200190815260200160002080549050861061117f576040517f08c379a000000000000000000000000000000000000000000000000000000000815260040161117690612dc1565b60405180910390fd5b6000600360008973ffffffffffffffffffffffffffffffffffffffff1673ffffffffffffffffffffffffffffffffffffffff16815260200190815260200160002087815481106111d2576111d1612de1565b5b90600052602060002090600402016040518060a00160405290816000820160009054906101000a900473ffffffffffffffffffffffffffffffffffffffff1673ffffffffffffffffffffffffffffffffffffffff1673ffffffffffffffffffffffffffffffffffffffff16815260200160018201805461125190612679565b80601f016020809104026020016040519081016040528092919081815260200182805461127d90612679565b80156112ca5780601f1061129f576101008083540402835291602001916112ca565b820191906000526020600020905b8154815290600101906020018083116112ad57829003601f168201915b50505050508152602001600282015481526020016003820160009054906101000a900460ff161515151581526020016003820160019054906101000a900460ff161515151581525050905080606001511561135a576040517f08c379a0000000000000000000000000000000000000000000000000000000008152600401611351906132a3565b60405180910390fd5b806080015161139e576040517f08c379a00000000000000000000000000000000000000000000000000000000081526004016113959061330f565b60405180910390fd5b8773ffffffffffffffffffffffffffffffffffffffff163373ffffffffffffffffffffffffffffffffffffffff16148061146e575060008054906101000a900473ffffffffffffffffffffffffffffffffffffffff1673ffffffffffffffffffffffffffffffffffffffff1663996440c6336040518263ffffffff1660e01b815260040161142c91906125a6565b602060405180830381865afa158015611449573d6000803e3d6000fd5b505050506040513d601f19601f8201168201806040525081019061146d91906126bf565b5b6114ad576040517f08c379a00000000000000000000000000000000000000000000000000000000081526004016114a4906133a1565b60405180910390fd5b60008160200151905060006001826040516114c8919061281b565b908152602001604051809103902060009054906101000a900473ffffffffffffffffffffffffffffffffffffffff169050600081905060008173ffffffffffffffffffffffffffffffffffffffff1663c32e370e8b8b8b8b6040518563ffffffff1660e01b815260040161153f9493929190613209565b6020604051808303816000875af115801561155e573d6000803e3d6000fd5b505050506040513d601f19601f8201168201806040525081019061158291906126bf565b9050604051602001611593906127d5565b60405160208183030381529060405280519060200120846040516020016115ba919061281b565b604051602081830303815290604052805190602001200361163f578b73ffffffffffffffffffffffffffffffffffffffff16856000015173ffffffffffffffffffffffffffffffffffffffff167f8126627cba75b5794747716e13d174f7da92bac2b5610fc0cccdd517096864d68360405161163691906123d3565b60405180910390a35b8b73ffffffffffffffffffffffffffffffffffffffff16856000015173ffffffffffffffffffffffffffffffffffffffff167f93efe0741de8cd1486bf4da48ca806d55751e51ea9dfba6192869b4898d9af0886846040516116a29291906133c1565b60405180910390a380955050505050509695505050505050565b6001818051602081018201805184825260208301602085012081835280955050505050506000915054906101000a900473ffffffffffffffffffffffffffffffffffffffff1681565b600060606000806000600360008873ffffffffffffffffffffffffffffffffffffffff1673ffffffffffffffffffffffffffffffffffffffff168152602001908152602001600020805490508610611792576040517f08c379a000000000000000000000000000000000000000000000000000000000815260040161178990612dc1565b60405180910390fd5b6000600360008973ffffffffffffffffffffffffffffffffffffffff1673ffffffffffffffffffffffffffffffffffffffff16815260200190815260200160002087815481106117e5576117e4612de1565b5b90600052602060002090600402016040518060a00160405290816000820160009054906101000a900473ffffffffffffffffffffffffffffffffffffffff1673ffffffffffffffffffffffffffffffffffffffff1673ffffffffffffffffffffffffffffffffffffffff16815260200160018201805461186490612679565b80601f016020809104026020016040519081016040528092919081815260200182805461189090612679565b80156118dd5780601f106118b2576101008083540402835291602001916118dd565b820191906000526020600020905b8154815290600101906020018083116118c057829003601f168201915b50505050508152602001600282015481526020016003820160009054906101000a900460ff161515151581526020016003820160019054906101000a900460ff16151515158152505090508060000151816020015182604001518360600151846080015195509550955095509550509295509295909350565b600080600260008573ffffffffffffffffffffffffffffffffffffffff1673ffffffffffffffffffffffffffffffffffffffff1681526020019081526020016000206040516119a4906127d5565b908152602001604051809103902054116119f3576040517f08c379a00000000000000000000000000000000000000000000000000000000081526004016119ea90612f17565b60405180910390fd5b600260008473ffffffffffffffffffffffffffffffffffffffff1673ffffffffffffffffffffffffffffffffffffffff168152602001908152602001600020604051611a3e906127d5565b9081526020016040518091039020548214905092915050565b6000806000905060005b600360008573ffffffffffffffffffffffffffffffffffffffff1673ffffffffffffffffffffffffffffffffffffffff16815260200190815260200160002080549050811015611b3c57600360008573ffffffffffffffffffffffffffffffffffffffff1673ffffffffffffffffffffffffffffffffffffffff1681526020019081526020016000208181548110611afc57611afb612de1565b5b906000526020600020906004020160030160009054906101000a900460ff1615611b2f578180611b2b90612a89565b9250505b8080600101915050611a61565b5080915050919050565b6000828073ffffffffffffffffffffffffffffffffffffffff163373ffffffffffffffffffffffffffffffffffffffff161480611c19575060008054906101000a900473ffffffffffffffffffffffffffffffffffffffff1673ffffffffffffffffffffffffffffffffffffffff1663996440c6336040518263ffffffff1660e01b8152600401611bd791906125a6565b602060405180830381865afa158015611bf4573d6000803e3d6000fd5b505050506040513d601f19601f82011682018060405250810190611c1891906126bf565b5b611c58576040517f08c379a0000000000000000000000000000000000000000000000000000000008152600401611c4f90613463565b60405180910390fd5b600260008573ffffffffffffffffffffffffffffffffffffffff1673ffffffffffffffffffffffffffffffffffffffff16815260200190815260200160002083604051611ca5919061281b565b90815260200160405180910390205491505092915050565b600560009054906101000a900473ffffffffffffffffffffffffffffffffffffffff1681565b6000604051905090565b600080fd5b600080fd5b600073ffffffffffffffffffffffffffffffffffffffff82169050919050565b6000611d2282611cf7565b9050919050565b611d3281611d17565b8114611d3d57600080fd5b50565b600081359050611d4f81611d29565b92915050565b6000819050919050565b611d6881611d55565b8114611d7357600080fd5b50565b600081359050611d8581611d5f565b92915050565b60008060408385031215611da257611da1611ced565b5b6000611db085828601611d40565b9250506020611dc185828601611d76565b9150509250929050565b611dd481611d17565b82525050565b600081519050919050565b600082825260208201905092915050565b60005b83811015611e14578082015181840152602081019050611df9565b60008484015250505050565b6000601f19601f8301169050919050565b6000611e3c82611dda565b611e468185611de5565b9350611e56818560208601611df6565b611e5f81611e20565b840191505092915050565b611e7381611d55565b82525050565b60008115159050919050565b611e8e81611e79565b82525050565b600060a082019050611ea96000830188611dcb565b8181036020830152611ebb8187611e31565b9050611eca6040830186611e6a565b611ed76060830185611e85565b611ee46080830184611e85565b9695505050505050565b600080fd5b600080fd5b7f4e487b7100000000000000000000000000000000000000000000000000000000600052604160045260246000fd5b611f3082611e20565b810181811067ffffffffffffffff82111715611f4f57611f4e611ef8565b5b80604052505050565b6000611f62611ce3565b9050611f6e8282611f27565b919050565b600067ffffffffffffffff821115611f8e57611f8d611ef8565b5b611f9782611e20565b9050602081019050919050565b82818337600083830152505050565b6000611fc6611fc184611f73565b611f58565b905082815260208101848484011115611fe257611fe1611ef3565b5b611fed848285611fa4565b509392505050565b600082601f83011261200a57612009611eee565b5b813561201a848260208601611fb3565b91505092915050565b60008060006060848603121561203c5761203b611ced565b5b600061204a86828701611d40565b935050602084013567ffffffffffffffff81111561206b5761206a611cf2565b5b61207786828701611ff5565b925050604061208886828701611d76565b9150509250925092565b600080604083850312156120a9576120a8611ced565b5b600083013567ffffffffffffffff8111156120c7576120c6611cf2565b5b6120d385828601611ff5565b92505060206120e485828601611d40565b9150509250929050565b60006020820190506121036000830184611e6a565b92915050565b6000819050919050565b600061212e61212961212484611cf7565b612109565b611cf7565b9050919050565b600061214082612113565b9050919050565b600061215282612135565b9050919050565b61216281612147565b82525050565b600060208201905061217d6000830184612159565b92915050565b61218c81611e79565b811461219757600080fd5b50565b6000813590506121a981612183565b92915050565b600080604083850312156121c6576121c5611ced565b5b60006121d485828601611d76565b92505060206121e58582860161219a565b9150509250929050565b600067ffffffffffffffff82111561220a57612209611ef8565b5b602082029050919050565b600080fd5b600061222d612228846121ef565b611f58565b9050806020840283018581111561224757612246612215565b5b835b81811015612270578061225c8882611d76565b845260208401935050602081019050612249565b5050509392505050565b600082601f83011261228f5761228e611eee565b5b600261229c84828561221a565b91505092915050565b600067ffffffffffffffff8211156122c0576122bf611ef8565b5b602082029050919050565b60006122de6122d9846122a5565b611f58565b905080604084028301858111156122f8576122f7612215565b5b835b81811015612321578061230d888261227a565b8452602084019350506040810190506122fa565b5050509392505050565b600082601f8301126123405761233f611eee565b5b600261234d8482856122cb565b91505092915050565b6000806000806000610140868803121561237357612372611ced565b5b600061238188828901611d40565b955050602061239288828901611d76565b94505060406123a38882890161227a565b93505060806123b48882890161232b565b9250506101006123c68882890161227a565b9150509295509295909350565b60006020820190506123e86000830184611e85565b92915050565b600067ffffffffffffffff82111561240957612408611ef8565b5b602082029050602081019050919050565b600061242d612428846123ee565b611f58565b905080838252602082019050602084028301858111156124505761244f612215565b5b835b8181101561247957806124658882611d76565b845260208401935050602081019050612452565b5050509392505050565b600082601f83011261249857612497611eee565b5b81356124a884826020860161241a565b91505092915050565b60008060008060008061016087890312156124cf576124ce611ced565b5b60006124dd89828a01611d40565b96505060206124ee89828a01611d76565b95505060406124ff89828a0161227a565b945050608061251089828a0161232b565b93505061010061252289828a0161227a565b92505061014087013567ffffffffffffffff81111561254457612543611cf2565b5b61255089828a01612483565b9150509295509295509295565b60006020828403121561257357612572611ced565b5b600082013567ffffffffffffffff81111561259157612590611cf2565b5b61259d84828501611ff5565b91505092915050565b60006020820190506125bb6000830184611dcb565b92915050565b6000602082840312156125d7576125d6611ced565b5b60006125e584828501611d40565b91505092915050565b6000806040838503121561260557612604611ced565b5b600061261385828601611d40565b925050602083013567ffffffffffffffff81111561263457612633611cf2565b5b61264085828601611ff5565b9150509250929050565b7f4e487b7100000000000000000000000000000000000000000000000000000000600052602260045260246000fd5b6000600282049050600182168061269157607f821691505b6020821081036126a4576126a361264a565b5b50919050565b6000815190506126b981612183565b92915050565b6000602082840312156126d5576126d4611ced565b5b60006126e3848285016126aa565b91505092915050565b7f4f6e6c7920646f63746f722063616e2063616c6c20746869732066756e63746960008201527f6f6e000000000000000000000000000000000000000000000000000000000000602082015250565b6000612748602283611de5565b9150612753826126ec565b604082019050919050565b600060208201905081810360008301526127778161273b565b9050919050565b600081905092915050565b7f626c6f6f64547970650000000000000000000000000000000000000000000000600082015250565b60006127bf60098361277e565b91506127ca82612789565b600982019050919050565b60006127e0826127b2565b9150819050919050565b60006127f582611dda565b6127ff818561277e565b935061280f818560208601611df6565b80840191505092915050565b600061282782846127ea565b915081905092915050565b7f496e76616c696420626c6f6f64207479706520636f6465000000000000000000600082015250565b6000612868601783611de5565b915061287382612832565b602082019050919050565b600060208201905081810360008301526128978161285b565b9050919050565b600060208201905081810360008301526128b88184611e31565b905092915050565b7f4f6e6c792061646d696e2063616e2063616c6c20746869732066756e6374696f60008201527f6e00000000000000000000000000000000000000000000000000000000000000602082015250565b600061291c602183611de5565b9150612927826128c0565b604082019050919050565b6000602082019050818103600083015261294b8161290f565b9050919050565b7f496e76616c696420766572696669657220616464726573730000000000000000600082015250565b6000612988601883611de5565b915061299382612952565b602082019050919050565b600060208201905081810360008301526129b78161297b565b9050919050565b600060408201905081810360008301526129d88185611e31565b90506129e76020830184611dcb565b9392505050565b7f566572696669636174696f6e2074797065206e6f7420737570706f7274656400600082015250565b6000612a24601f83611de5565b9150612a2f826129ee565b602082019050919050565b60006020820190508181036000830152612a5381612a17565b9050919050565b7f4e487b7100000000000000000000000000000000000000000000000000000000600052601160045260246000fd5b6000612a9482611d55565b91507fffffffffffffffffffffffffffffffffffffffffffffffffffffffffffffffff8203612ac657612ac5612a5a565b5b600182019050919050565b60008190508160005260206000209050919050565b60006020601f8301049050919050565b600082821b905092915050565b600060088302612b337fffffffffffffffffffffffffffffffffffffffffffffffffffffffffffffffff82612af6565b612b3d8683612af6565b95508019841693508086168417925050509392505050565b6000612b70612b6b612b6684611d55565b612109565b611d55565b9050919050565b6000819050919050565b612b8a83612b55565b612b9e612b9682612b77565b848454612b03565b825550505050565b600090565b612bb3612ba6565b612bbe818484612b81565b505050565b5b81811015612be257612bd7600082612bab565b600181019050612bc4565b5050565b601f821115612c2757612bf881612ad1565b612c0184612ae6565b81016020851015612c10578190505b612c24612c1c85612ae6565b830182612bc3565b50505b505050565b600082821c905092915050565b6000612c4a60001984600802612c2c565b1980831691505092915050565b6000612c638383612c39565b9150826002028217905092915050565b612c7c82611dda565b67ffffffffffffffff811115612c9557612c94611ef8565b5b612c9f8254612679565b612caa828285612be6565b600060209050601f831160018114612cdd5760008415612ccb578287015190505b612cd58582612c57565b865550612d3d565b601f198416612ceb86612ad1565b60005b82811015612d1357848901518255600182019150602085019450602081019050612cee565b86831015612d305784890151612d2c601f891682612c39565b8355505b6001600288020188555050505b505050505050565b60006040820190508181036000830152612d5f8185611e31565b9050612d6e6020830184611e6a565b9392505050565b7f52657175657374204944206e6f7420666f756e64000000000000000000000000600082015250565b6000612dab601483611de5565b9150612db682612d75565b602082019050919050565b60006020820190508181036000830152612dda81612d9e565b9050919050565b7f4e487b7100000000000000000000000000000000000000000000000000000000600052603260045260246000fd5b7f5265717565737420616c72656164792070726f63657373656400000000000000600082015250565b6000612e46601983611de5565b9150612e5182612e10565b602082019050919050565b60006020820190508181036000830152612e7581612e39565b9050919050565b6000604082019050612e916000830185611e6a565b612e9e6020830184611e85565b9392505050565b7f50617469656e7420626c6f6f642074797065206e6f742072656769737465726560008201527f6400000000000000000000000000000000000000000000000000000000000000602082015250565b6000612f01602183611de5565b9150612f0c82612ea5565b604082019050919050565b60006020820190508181036000830152612f3081612ef4565b9050919050565b7f426c6f6f642074797065207665726966696572206e6f7420726567697374657260008201527f6564000000000000000000000000000000000000000000000000000000000000602082015250565b6000612f93602283611de5565b9150612f9e82612f37565b604082019050919050565b60006020820190508181036000830152612fc281612f86565b9050919050565b600060029050919050565b600081905092915050565b6000819050919050565b612ff281611d55565b82525050565b60006130048383612fe9565b60208301905092915050565b6000602082019050919050565b61302681612fc9565b6130308184612fd4565b925061303b82612fdf565b8060005b8381101561306c5781516130538782612ff8565b965061305e83613010565b92505060018101905061303f565b505050505050565b600060029050919050565b600081905092915050565b6000819050919050565b600081905092915050565b6130a881612fc9565b6130b28184613094565b92506130bd82612fdf565b8060005b838110156130ee5781516130d58782612ff8565b96506130e083613010565b9250506001810190506130c1565b505050505050565b6000613102838361309f565b60408301905092915050565b6000602082019050919050565b61312481613074565b61312e818461307f565b92506131398261308a565b8060005b8381101561316a57815161315187826130f6565b965061315c8361310e565b92505060018101905061313d565b505050505050565b600081519050919050565b600082825260208201905092915050565b6000819050602082019050919050565b6000602082019050919050565b60006131b682613172565b6131c0818561317d565b93506131cb8361318e565b8060005b838110156131fc5781516131e38882612ff8565b97506131ee8361319e565b9250506001810190506131cf565b5085935050505092915050565b60006101208201905061321f600083018761301d565b61322c604083018661311b565b61323960c083018561301d565b81810361010083015261324c81846131ab565b905095945050505050565b7f52657175657374207374696c6c2070656e64696e670000000000000000000000600082015250565b600061328d601583611de5565b915061329882613257565b602082019050919050565b600060208201905081810360008301526132bc81613280565b9050919050565b7f52657175657374207761732064656e6965640000000000000000000000000000600082015250565b60006132f9601283611de5565b9150613304826132c3565b602082019050919050565b60006020820190508181036000830152613328816132ec565b9050919050565b7f4f6e6c792070617469656e74206f7220646f63746f722063616e207375626d6960008201527f742070726f6f6600000000000000000000000000000000000000000000000000602082015250565b600061338b602783611de5565b91506133968261332f565b604082019050919050565b600060208201905081810360008301526133ba8161337e565b9050919050565b600060408201905081810360008301526133db8185611e31565b90506133ea6020830184611e85565b9392505050565b7f4f6e6c792070617469656e74206f7220646f63746f722063616e2063616c6c2060008201527f746869732066756e6374696f6e00000000000000000000000000000000000000602082015250565b600061344d602d83611de5565b9150613458826133f1565b604082019050919050565b6000602082019050818103600083015261347c81613440565b905091905056fea2646970667358221220a5eb8e13fbc5474aaa7c215a7d549ed4c06a8a8fdac7f7bce5c458ee609e21c164736f6c634300081c0033",
  "linkReferences": {},
  "deployedLinkReferences": {}
}