{
  "_format": "hh-sol-artifact-1",
  "contractName": "MedicalRecordViewer",
  "sourceName": "contracts/MedicalRecordViewer.sol",
  "abi": [
    {
      "inputs": [
        {
          "internalType": "address",
          "name": "_recordContract",
          "type": "address"
        }
      ],
      "stateMutability": "nonpayable",
      "type": "constructor"
    },
    {
      "inputs": [
        {
          "internalType": "address",
          "name": "patient",
          "type": "address"
        },
        {
          "internalType": "uint256",
          "name": "index",
          "type": "uint256"
        }
      ],
      "name": "getRecord",
      "outputs": [
        {
          "internalType": "string",
          "name": "diagnosis",
          "type": "string"
        },
        {
          "internalType": "bool",
          "name": "treated",
          "type": "bool"
        },
        {
          "internalType": "string",
          "name": "date",
          "type": "string"
        }
      ],
      "stateMutability": "view",
      "type": "function"
    },
    {
      "inputs": [
        {
          "internalType": "address",
          "name": "patient",
          "type": "address"
        }
      ],
      "name": "getRecordCount",
      "outputs": [
        {
          "internalType": "uint256",
          "name": "",
          "type": "uint256"
        }
      ],
      "stateMutability": "view",
      "type": "function"
    },
    {
      "inputs": [],
      "name": "recordContract",
      "outputs": [
        {
          "internalType": "contract IMedicalRecordStorage",
          "name": "",
          "type": "address"
        }
      ],
      "stateMutability": "view",
      "type": "function"
    }
  ],
  "bytecode": "0x608060405234801561001057600080fd5b506040516108aa3803806108aa833981810160405281019061003291906100db565b806000806101000a81548173ffffffffffffffffffffffffffffffffffffffff021916908373ffffffffffffffffffffffffffffffffffffffff16021790555050610108565b600080fd5b600073ffffffffffffffffffffffffffffffffffffffff82169050919050565b60006100a88261007d565b9050919050565b6100b88161009d565b81146100c357600080fd5b50565b6000815190506100d5816100af565b92915050565b6000602082840312156100f1576100f0610078565b5b60006100ff848285016100c6565b91505092915050565b610793806101176000396000f3fe608060405234801561001057600080fd5b50600436106100415760003560e01c8063582143081461004657806389698f0214610076578063cdb8acf014610094575b600080fd5b610060600480360381019061005b91906102b4565b6100c6565b60405161006d91906102fa565b60405180910390f35b61007e61016a565b60405161008b9190610374565b60405180910390f35b6100ae60048036038101906100a991906103bb565b61018e565b6040516100bd939291906104a6565b60405180910390f35b60008060009054906101000a900473ffffffffffffffffffffffffffffffffffffffff1673ffffffffffffffffffffffffffffffffffffffff166358214308836040518263ffffffff1660e01b815260040161012291906104fa565b602060405180830381865afa15801561013f573d6000803e3d6000fd5b505050506040513d601f19601f82011682018060405250810190610163919061052a565b9050919050565b60008054906101000a900473ffffffffffffffffffffffffffffffffffffffff1681565b60606000606060008054906101000a900473ffffffffffffffffffffffffffffffffffffffff1673ffffffffffffffffffffffffffffffffffffffff166382a6c0ac86866040518363ffffffff1660e01b81526004016101ef929190610557565b600060405180830381865afa15801561020c573d6000803e3d6000fd5b505050506040513d6000823e3d601f19601f8201168201806040525081019061023591906106d2565b9250925092509250925092565b6000604051905090565b600080fd5b600080fd5b600073ffffffffffffffffffffffffffffffffffffffff82169050919050565b600061028182610256565b9050919050565b61029181610276565b811461029c57600080fd5b50565b6000813590506102ae81610288565b92915050565b6000602082840312156102ca576102c961024c565b5b60006102d88482850161029f565b91505092915050565b6000819050919050565b6102f4816102e1565b82525050565b600060208201905061030f60008301846102eb565b92915050565b6000819050919050565b600061033a61033561033084610256565b610315565b610256565b9050919050565b600061034c8261031f565b9050919050565b600061035e82610341565b9050919050565b61036e81610353565b82525050565b60006020820190506103896000830184610365565b92915050565b610398816102e1565b81146103a357600080fd5b50565b6000813590506103b58161038f565b92915050565b600080604083850312156103d2576103d161024c565b5b60006103e08582860161029f565b92505060206103f1858286016103a6565b9150509250929050565b600081519050919050565b600082825260208201905092915050565b60005b8381101561043557808201518184015260208101905061041a565b60008484015250505050565b6000601f19601f8301169050919050565b600061045d826103fb565b6104678185610406565b9350610477818560208601610417565b61048081610441565b840191505092915050565b60008115159050919050565b6104a08161048b565b82525050565b600060608201905081810360008301526104c08186610452565b90506104cf6020830185610497565b81810360408301526104e18184610452565b9050949350505050565b6104f481610276565b82525050565b600060208201905061050f60008301846104eb565b92915050565b6000815190506105248161038f565b92915050565b6000602082840312156105405761053f61024c565b5b600061054e84828501610515565b91505092915050565b600060408201905061056c60008301856104eb565b61057960208301846102eb565b9392505050565b600080fd5b600080fd5b7f4e487b7100000000000000000000000000000000000000000000000000000000600052604160045260246000fd5b6105c282610441565b810181811067ffffffffffffffff821117156105e1576105e061058a565b5b80604052505050565b60006105f4610242565b905061060082826105b9565b919050565b600067ffffffffffffffff8211156106205761061f61058a565b5b61062982610441565b9050602081019050919050565b600061064961064484610605565b6105ea565b90508281526020810184848401111561066557610664610585565b5b610670848285610417565b509392505050565b600082601f83011261068d5761068c610580565b5b815161069d848260208601610636565b91505092915050565b6106af8161048b565b81146106ba57600080fd5b50565b6000815190506106cc816106a6565b92915050565b6000806000606084860312156106eb576106ea61024c565b5b600084015167ffffffffffffffff81111561070957610708610251565b5b61071586828701610678565b9350506020610726868287016106bd565b925050604084015167ffffffffffffffff81111561074757610746610251565b5b61075386828701610678565b915050925092509256fea264697066735822122016909314ad4e68f18dac25d7255e90deb22f0e89e97ce84553eaf804e909ed0564736f6c634300081c0033",
  "linkReferences": {},
  "deployedLinkReferences": {}
}