{
  "_format": "hh-sol-artifact-1",
  "contractName": "Zkare",
  "sourceName": "contracts/Zkare.sol",
  "abi": [
    {
      "inputs": [],
      "stateMutability": "nonpayable",
      "type": "constructor"
    },
    {
      "anonymous": false,
      "inputs": [
        {
          "indexed": true,
          "internalType": "address",
          "name": "patient",
          "type": "address"
        },
        {
          "indexed": true,
          "internalType": "address",
          "name": "viewer",
          "type": "address"
        }
      ],
      "name": "AccessGranted",
      "type": "event"
    },
    {
      "anonymous": false,
      "inputs": [
        {
          "indexed": true,
          "internalType": "address",
          "name": "patient",
          "type": "address"
        },
        {
          "indexed": true,
          "internalType": "address",
          "name": "viewer",
          "type": "address"
        }
      ],
      "name": "AccessRevoked",
      "type": "event"
    },
    {
      "anonymous": false,
      "inputs": [
        {
          "indexed": true,
          "internalType": "address",
          "name": "doctor",
          "type": "address"
        }
      ],
      "name": "DoctorAdded",
      "type": "event"
    },
    {
      "anonymous": false,
      "inputs": [
        {
          "indexed": true,
          "internalType": "address",
          "name": "doctor",
          "type": "address"
        }
      ],
      "name": "DoctorRemoved",
      "type": "event"
    },
    {
      "anonymous": false,
      "inputs": [
        {
          "indexed": true,
          "internalType": "address",
          "name": "patient",
          "type": "address"
        }
      ],
      "name": "PatientRegistered",
      "type": "event"
    },
    {
      "anonymous": false,
      "inputs": [
        {
          "indexed": true,
          "internalType": "address",
          "name": "patient",
          "type": "address"
        },
        {
          "indexed": true,
          "internalType": "address",
          "name": "doctor",
          "type": "address"
        },
        {
          "indexed": false,
          "internalType": "bytes32",
          "name": "recordHash",
          "type": "bytes32"
        }
      ],
      "name": "RecordDeleted",
      "type": "event"
    },
    {
      "anonymous": false,
      "inputs": [
        {
          "indexed": true,
          "internalType": "address",
          "name": "patient",
          "type": "address"
        },
        {
          "indexed": true,
          "internalType": "address",
          "name": "doctor",
          "type": "address"
        },
        {
          "indexed": false,
          "internalType": "bytes32",
          "name": "recordHash",
          "type": "bytes32"
        }
      ],
      "name": "RecordRegistered",
      "type": "event"
    },
    {
      "anonymous": false,
      "inputs": [
        {
          "indexed": true,
          "internalType": "address",
          "name": "patient",
          "type": "address"
        },
        {
          "indexed": true,
          "internalType": "address",
          "name": "requester",
          "type": "address"
        },
        {
          "indexed": false,
          "internalType": "bool",
          "name": "approved",
          "type": "bool"
        }
      ],
      "name": "ViewRequestApproved",
      "type": "event"
    },
    {
      "anonymous": false,
      "inputs": [
        {
          "indexed": true,
          "internalType": "address",
          "name": "requester",
          "type": "address"
        },
        {
          "indexed": true,
          "internalType": "address",
          "name": "patient",
          "type": "address"
        },
        {
          "indexed": false,
          "internalType": "uint256",
          "name": "requestId",
          "type": "uint256"
        }
      ],
      "name": "ViewRequestCreated",
      "type": "event"
    },
    {
      "inputs": [
        {
          "internalType": "address",
          "name": "",
          "type": "address"
        },
        {
          "internalType": "address",
          "name": "",
          "type": "address"
        }
      ],
      "name": "accessApprovals",
      "outputs": [
        {
          "internalType": "bool",
          "name": "",
          "type": "bool"
        }
      ],
      "stateMutability": "view",
      "type": "function"
    },
    {
      "inputs": [
        {
          "internalType": "address",
          "name": "doctor",
          "type": "address"
        }
      ],
      "name": "addDoctor",
      "outputs": [],
      "stateMutability": "nonpayable",
      "type": "function"
    },
    {
      "inputs": [],
      "name": "admin",
      "outputs": [
        {
          "internalType": "address",
          "name": "",
          "type": "address"
        }
      ],
      "stateMutability": "view",
      "type": "function"
    },
    {
      "inputs": [
        {
          "internalType": "address",
          "name": "patient",
          "type": "address"
        },
        {
          "internalType": "uint256",
          "name": "recordIndex",
          "type": "uint256"
        }
      ],
      "name": "deleteRecord",
      "outputs": [],
      "stateMutability": "nonpayable",
      "type": "function"
    },
    {
      "inputs": [
        {
          "internalType": "address",
          "name": "",
          "type": "address"
        }
      ],
      "name": "doctorStatus",
      "outputs": [
        {
          "internalType": "bool",
          "name": "",
          "type": "bool"
        }
      ],
      "stateMutability": "view",
      "type": "function"
    },
    {
      "inputs": [
        {
          "internalType": "uint256",
          "name": "",
          "type": "uint256"
        }
      ],
      "name": "doctors",
      "outputs": [
        {
          "internalType": "address",
          "name": "",
          "type": "address"
        }
      ],
      "stateMutability": "view",
      "type": "function"
    },
    {
      "inputs": [],
      "name": "getAllDoctors",
      "outputs": [
        {
          "internalType": "address[]",
          "name": "",
          "type": "address[]"
        }
      ],
      "stateMutability": "view",
      "type": "function"
    },
    {
      "inputs": [],
      "name": "getAllPatients",
      "outputs": [
        {
          "internalType": "address[]",
          "name": "",
          "type": "address[]"
        }
      ],
      "stateMutability": "view",
      "type": "function"
    },
    {
      "inputs": [
        {
          "internalType": "address",
          "name": "patient",
          "type": "address"
        }
      ],
      "name": "getAllRecords",
      "outputs": [
        {
          "internalType": "uint256[]",
          "name": "",
          "type": "uint256[]"
        }
      ],
      "stateMutability": "view",
      "type": "function"
    },
    {
      "inputs": [
        {
          "internalType": "address",
          "name": "doctor",
          "type": "address"
        },
        {
          "internalType": "address",
          "name": "patient",
          "type": "address"
        }
      ],
      "name": "getDoctorPatientRecords",
      "outputs": [
        {
          "internalType": "uint256[]",
          "name": "",
          "type": "uint256[]"
        }
      ],
      "stateMutability": "view",
      "type": "function"
    },
    {
      "inputs": [],
      "name": "getPendingRequests",
      "outputs": [
        {
          "internalType": "uint256[]",
          "name": "",
          "type": "uint256[]"
        }
      ],
      "stateMutability": "view",
      "type": "function"
    },
    {
      "inputs": [
        {
          "internalType": "address",
          "name": "patient",
          "type": "address"
        },
        {
          "internalType": "uint256",
          "name": "recordIndex",
          "type": "uint256"
        }
      ],
      "name": "getRecord",
      "outputs": [
        {
          "internalType": "bytes32",
          "name": "recordHash",
          "type": "bytes32"
        },
        {
          "internalType": "string",
          "name": "cid",
          "type": "string"
        },
        {
          "internalType": "address",
          "name": "doctor",
          "type": "address"
        },
        {
          "internalType": "uint256",
          "name": "timestamp",
          "type": "uint256"
        }
      ],
      "stateMutability": "view",
      "type": "function"
    },
    {
      "inputs": [
        {
          "internalType": "address",
          "name": "patient",
          "type": "address"
        }
      ],
      "name": "getRecordCount",
      "outputs": [
        {
          "internalType": "uint256",
          "name": "",
          "type": "uint256"
        }
      ],
      "stateMutability": "view",
      "type": "function"
    },
    {
      "inputs": [
        {
          "internalType": "address",
          "name": "patient",
          "type": "address"
        },
        {
          "internalType": "uint256",
          "name": "requestId",
          "type": "uint256"
        }
      ],
      "name": "getRequestDetails",
      "outputs": [
        {
          "internalType": "address",
          "name": "requester",
          "type": "address"
        },
        {
          "internalType": "uint256",
          "name": "timestamp",
          "type": "uint256"
        },
        {
          "internalType": "bool",
          "name": "isPending",
          "type": "bool"
        },
        {
          "internalType": "bool",
          "name": "isApproved",
          "type": "bool"
        }
      ],
      "stateMutability": "view",
      "type": "function"
    },
    {
      "inputs": [
        {
          "internalType": "address",
          "name": "doctor",
          "type": "address"
        }
      ],
      "name": "isDoctor",
      "outputs": [
        {
          "internalType": "bool",
          "name": "",
          "type": "bool"
        }
      ],
      "stateMutability": "view",
      "type": "function"
    },
    {
      "inputs": [
        {
          "internalType": "address",
          "name": "patient",
          "type": "address"
        }
      ],
      "name": "isPatient",
      "outputs": [
        {
          "internalType": "bool",
          "name": "",
          "type": "bool"
        }
      ],
      "stateMutability": "view",
      "type": "function"
    },
    {
      "inputs": [
        {
          "internalType": "address",
          "name": "",
          "type": "address"
        }
      ],
      "name": "patientStatus",
      "outputs": [
        {
          "internalType": "bool",
          "name": "",
          "type": "bool"
        }
      ],
      "stateMutability": "view",
      "type": "function"
    },
    {
      "inputs": [
        {
          "internalType": "uint256",
          "name": "",
          "type": "uint256"
        }
      ],
      "name": "patients",
      "outputs": [
        {
          "internalType": "address",
          "name": "",
          "type": "address"
        }
      ],
      "stateMutability": "view",
      "type": "function"
    },
    {
      "inputs": [
        {
          "internalType": "address",
          "name": "",
          "type": "address"
        },
        {
          "internalType": "uint256",
          "name": "",
          "type": "uint256"
        }
      ],
      "name": "records",
      "outputs": [
        {
          "internalType": "bytes32",
          "name": "recordHash",
          "type": "bytes32"
        },
        {
          "internalType": "string",
          "name": "cid",
          "type": "string"
        },
        {
          "internalType": "address",
          "name": "patient",
          "type": "address"
        },
        {
          "internalType": "address",
          "name": "doctor",
          "type": "address"
        },
        {
          "internalType": "uint256",
          "name": "timestamp",
          "type": "uint256"
        },
        {
          "internalType": "bool",
          "name": "isDeleted",
          "type": "bool"
        }
      ],
      "stateMutability": "view",
      "type": "function"
    },
    {
      "inputs": [],
      "name": "registerPatient",
      "outputs": [],
      "stateMutability": "nonpayable",
      "type": "function"
    },
    {
      "inputs": [
        {
          "internalType": "bytes32",
          "name": "recordHash",
          "type": "bytes32"
        },
        {
          "internalType": "string",
          "name": "cid",
          "type": "string"
        },
        {
          "internalType": "address",
          "name": "patient",
          "type": "address"
        }
      ],
      "name": "registerRecord",
      "outputs": [],
      "stateMutability": "nonpayable",
      "type": "function"
    },
    {
      "inputs": [
        {
          "internalType": "address",
          "name": "doctor",
          "type": "address"
        }
      ],
      "name": "removeDoctor",
      "outputs": [],
      "stateMutability": "nonpayable",
      "type": "function"
    },
    {
      "inputs": [
        {
          "internalType": "address",
          "name": "patient",
          "type": "address"
        }
      ],
      "name": "requestAccess",
      "outputs": [
        {
          "internalType": "uint256",
          "name": "",
          "type": "uint256"
        }
      ],
      "stateMutability": "nonpayable",
      "type": "function"
    },
    {
      "inputs": [
        {
          "internalType": "uint256",
          "name": "requestId",
          "type": "uint256"
        },
        {
          "internalType": "bool",
          "name": "approved",
          "type": "bool"
        }
      ],
      "name": "respondToRequest",
      "outputs": [],
      "stateMutability": "nonpayable",
      "type": "function"
    },
    {
      "inputs": [
        {
          "internalType": "address",
          "name": "viewer",
          "type": "address"
        }
      ],
      "name": "revokeAccess",
      "outputs": [],
      "stateMutability": "nonpayable",
      "type": "function"
    },
    {
      "inputs": [
        {
          "internalType": "address",
          "name": "",
          "type": "address"
        },
        {
          "internalType": "uint256",
          "name": "",
          "type": "uint256"
        }
      ],
      "name": "viewRequests",
      "outputs": [
        {
          "internalType": "address",
          "name": "requester",
          "type": "address"
        },
        {
          "internalType": "uint256",
          "name": "timestamp",
          "type": "uint256"
        },
        {
          "internalType": "bool",
          "name": "isPending",
          "type": "bool"
        },
        {
          "internalType": "bool",
          "name": "isApproved",
          "type": "bool"
        }
      ],
      "stateMutability": "view",
      "type": "function"
    }
  ],
  "bytecode": "0x608060405234801561001057600080fd5b5033600560006101000a81548173ffffffffffffffffffffffffffffffffffffffff021916908373ffffffffffffffffffffffffffffffffffffffff1602179055506100613361006660201b60201c565b6101b8565b600160008273ffffffffffffffffffffffffffffffffffffffff1673ffffffffffffffffffffffffffffffffffffffff16815260200190815260200160002060009054906101000a900460ff166101b55760018060008373ffffffffffffffffffffffffffffffffffffffff1673ffffffffffffffffffffffffffffffffffffffff16815260200190815260200160002060006101000a81548160ff0219169083151502179055506003819080600181540180825580915050600190039060005260206000200160009091909190916101000a81548173ffffffffffffffffffffffffffffffffffffffff021916908373ffffffffffffffffffffffffffffffffffffffff1602179055508073ffffffffffffffffffffffffffffffffffffffff167f69908b2e63170aa89ef89719bbe3b4c92cccc38653968ab25f4464eff7c28ac860405160405180910390a25b50565b614087806101c76000396000f3fe608060405234801561001057600080fd5b506004361061018e5760003560e01c8063822d3885116100de578063996440c611610097578063ba2d3f3811610071578063ba2d3f3814610510578063cdb8acf01461052c578063f0d950901461055f578063f851a4401461057d5761018e565b8063996440c61461047d578063b03d07e0146104ad578063b912561d146104e05761018e565b8063822d3885146103a657806382a6c0ac146103b057806385e68531146103e55780638f9c79ed1461040157806393119a831461043157806398fc90e9146104615761018e565b8063582143081161014b5780636efb1b84116101255780636efb1b841461030c5780638068692e1461033c57806380a1f7121461035857806380fcfbbf146103765761018e565b8063582143081461027957806366d969c4146102a95780636ec9f7e9146102dc5761018e565b8063022cb2711461019357806302e2df1c146101c357806318a231a9146101f35780631f9ad2ff14610211578063210661b7146102415780634780468f1461025d575b600080fd5b6101ad60048036038101906101a8919061303e565b61059b565b6040516101ba9190613084565b60405180910390f35b6101dd60048036038101906101d8919061303e565b610823565b6040516101ea919061315d565b60405180910390f35b6101fb610a88565b604051610208919061323d565b60405180910390f35b61022b6004803603810190610226919061325f565b610b16565b60405161023891906132ba565b60405180910390f35b61025b60048036038101906102569190613301565b610b45565b005b6102776004803603810190610272919061303e565b610ec8565b005b610293600480360381019061028e919061303e565b610f64565b6040516102a09190613084565b60405180910390f35b6102c360048036038101906102be9190613301565b611050565b6040516102d39493929190613350565b60405180910390f35b6102f660048036038101906102f1919061303e565b6110d7565b60405161030391906132ba565b60405180910390f35b61032660048036038101906103219190613395565b6110f7565b60405161033391906133c2565b60405180910390f35b61035660048036038101906103519190613559565b611136565b005b61036061142a565b60405161036d919061315d565b60405180910390f35b610390600480360381019061038b919061325f565b611662565b60405161039d919061315d565b60405180910390f35b6103ae611a97565b005b6103ca60048036038101906103c59190613301565b611aa2565b6040516103dc96959493929190613656565b60405180910390f35b6103ff60048036038101906103fa919061303e565b611bd0565b005b61041b6004803603810190610416919061303e565b611d8b565b60405161042891906132ba565b60405180910390f35b61044b60048036038101906104469190613395565b611de1565b60405161045891906133c2565b60405180910390f35b61047b6004803603810190610476919061303e565b611e20565b005b6104976004803603810190610492919061303e565b611fda565b6040516104a491906132ba565b60405180910390f35b6104c760048036038101906104c29190613301565b612030565b6040516104d79493929190613350565b60405180910390f35b6104fa60048036038101906104f5919061303e565b61230a565b60405161050791906132ba565b60405180910390f35b61052a600480360381019061052591906136ea565b61232a565b005b61054660048036038101906105419190613301565b612667565b604051610556949392919061372a565b60405180910390f35b610567612aa1565b604051610574919061323d565b60405180910390f35b610585612d01565b60405161059291906133c2565b60405180910390f35b6000600660008373ffffffffffffffffffffffffffffffffffffffff1673ffffffffffffffffffffffffffffffffffffffff16815260200190815260200160002060003373ffffffffffffffffffffffffffffffffffffffff1673ffffffffffffffffffffffffffffffffffffffff16815260200190815260200160002060009054906101000a900460ff1615610635576000905061081e565b6000600760008473ffffffffffffffffffffffffffffffffffffffff1673ffffffffffffffffffffffffffffffffffffffff168152602001908152602001600020805490509050600760008473ffffffffffffffffffffffffffffffffffffffff1673ffffffffffffffffffffffffffffffffffffffff16815260200190815260200160002060405180608001604052803373ffffffffffffffffffffffffffffffffffffffff16815260200142815260200160011515815260200160001515815250908060018154018082558091505060019003906000526020600020906003020160009091909190915060008201518160000160006101000a81548173ffffffffffffffffffffffffffffffffffffffff021916908373ffffffffffffffffffffffffffffffffffffffff1602179055506020820151816001015560408201518160020160006101000a81548160ff02191690831515021790555060608201518160020160016101000a81548160ff02191690831515021790555050508273ffffffffffffffffffffffffffffffffffffffff163373ffffffffffffffffffffffffffffffffffffffff167f70864b087235afb5bd6c5d68d7a73ae2f2a6adbfa405db231f7aad1b153e5dd1836040516108119190613084565b60405180910390a3809150505b919050565b6060818073ffffffffffffffffffffffffffffffffffffffff163373ffffffffffffffffffffffffffffffffffffffff1614806108e65750600660008273ffffffffffffffffffffffffffffffffffffffff1673ffffffffffffffffffffffffffffffffffffffff16815260200190815260200160002060003373ffffffffffffffffffffffffffffffffffffffff1673ffffffffffffffffffffffffffffffffffffffff16815260200190815260200160002060009054906101000a900460ff165b610925576040517f08c379a000000000000000000000000000000000000000000000000000000000815260040161091c906137e8565b60405180910390fd5b600061093084610f64565b905060008167ffffffffffffffff81111561094e5761094d61342e565b5b60405190808252806020026020018201604052801561097c5781602001602082028036833780820191505090505b5090506000805b6000808873ffffffffffffffffffffffffffffffffffffffff1673ffffffffffffffffffffffffffffffffffffffff16815260200190815260200160002080549050811015610a7b576000808873ffffffffffffffffffffffffffffffffffffffff1673ffffffffffffffffffffffffffffffffffffffff1681526020019081526020016000208181548110610a1c57610a1b613808565b5b906000526020600020906006020160050160009054906101000a900460ff16610a6e5780838381518110610a5357610a52613808565b5b6020026020010181815250508180610a6a90613866565b9250505b8080600101915050610983565b5081945050505050919050565b60606004805480602002602001604051908101604052809291908181526020018280548015610b0c57602002820191906000526020600020905b8160009054906101000a900473ffffffffffffffffffffffffffffffffffffffff1673ffffffffffffffffffffffffffffffffffffffff1681526020019060010190808311610ac2575b5050505050905090565b60066020528160005260406000206020528060005260406000206000915091509054906101000a900460ff1681565b600160003373ffffffffffffffffffffffffffffffffffffffff1673ffffffffffffffffffffffffffffffffffffffff16815260200190815260200160002060009054906101000a900460ff16610bd1576040517f08c379a0000000000000000000000000000000000000000000000000000000008152600401610bc890613920565b60405180910390fd5b6000808373ffffffffffffffffffffffffffffffffffffffff1673ffffffffffffffffffffffffffffffffffffffff168152602001908152602001600020805490508110610c54576040517f08c379a0000000000000000000000000000000000000000000000000000000008152600401610c4b9061398c565b60405180910390fd5b6000808373ffffffffffffffffffffffffffffffffffffffff1673ffffffffffffffffffffffffffffffffffffffff1681526020019081526020016000208181548110610ca457610ca3613808565b5b906000526020600020906006020160050160009054906101000a900460ff1615610d03576040517f08c379a0000000000000000000000000000000000000000000000000000000008152600401610cfa906139f8565b60405180910390fd5b60016000808473ffffffffffffffffffffffffffffffffffffffff1673ffffffffffffffffffffffffffffffffffffffff1681526020019081526020016000208281548110610d5557610d54613808565b5b906000526020600020906006020160050160006101000a81548160ff0219169083151502179055506000808373ffffffffffffffffffffffffffffffffffffffff1673ffffffffffffffffffffffffffffffffffffffff1681526020019081526020016000208181548110610dcd57610dcc613808565b5b906000526020600020906006020160030160009054906101000a900473ffffffffffffffffffffffffffffffffffffffff1673ffffffffffffffffffffffffffffffffffffffff168273ffffffffffffffffffffffffffffffffffffffff167f8de02e02314897c12de4e24ce94d47ee9ec0a4068f5992690be8948ddf424f956000808673ffffffffffffffffffffffffffffffffffffffff1673ffffffffffffffffffffffffffffffffffffffff1681526020019081526020016000208481548110610e9d57610e9c613808565b5b906000526020600020906006020160000154604051610ebc9190613a18565b60405180910390a35050565b600560009054906101000a900473ffffffffffffffffffffffffffffffffffffffff1673ffffffffffffffffffffffffffffffffffffffff163373ffffffffffffffffffffffffffffffffffffffff1614610f58576040517f08c379a0000000000000000000000000000000000000000000000000000000008152600401610f4f90613aa5565b60405180910390fd5b610f6181612d27565b50565b6000806000905060005b6000808573ffffffffffffffffffffffffffffffffffffffff1673ffffffffffffffffffffffffffffffffffffffff16815260200190815260200160002080549050811015611046576000808573ffffffffffffffffffffffffffffffffffffffff1673ffffffffffffffffffffffffffffffffffffffff168152602001908152602001600020818154811061100757611006613808565b5b906000526020600020906006020160050160009054906101000a900460ff1661103957818061103590613866565b9250505b8080600101915050610f6e565b5080915050919050565b6007602052816000526040600020818154811061106c57600080fd5b9060005260206000209060030201600091509150508060000160009054906101000a900473ffffffffffffffffffffffffffffffffffffffff16908060010154908060020160009054906101000a900460ff16908060020160019054906101000a900460ff16905084565b60026020528060005260406000206000915054906101000a900460ff1681565b6003818154811061110757600080fd5b906000526020600020016000915054906101000a900473ffffffffffffffffffffffffffffffffffffffff1681565b600160003373ffffffffffffffffffffffffffffffffffffffff1673ffffffffffffffffffffffffffffffffffffffff16815260200190815260200160002060009054906101000a900460ff166111c2576040517f08c379a00000000000000000000000000000000000000000000000000000000081526004016111b990613920565b60405180910390fd5b600260008273ffffffffffffffffffffffffffffffffffffffff1673ffffffffffffffffffffffffffffffffffffffff16815260200190815260200160002060009054906101000a900460ff1661121d5761121c81612e79565b5b60006040518060c001604052808581526020018481526020018373ffffffffffffffffffffffffffffffffffffffff1681526020013373ffffffffffffffffffffffffffffffffffffffff1681526020014281526020016000151581525090506000808373ffffffffffffffffffffffffffffffffffffffff1673ffffffffffffffffffffffffffffffffffffffff1681526020019081526020016000208190806001815401808255809150506001900390600052602060002090600602016000909190919091506000820151816000015560208201518160010190816113049190613cd1565b5060408201518160020160006101000a81548173ffffffffffffffffffffffffffffffffffffffff021916908373ffffffffffffffffffffffffffffffffffffffff16021790555060608201518160030160006101000a81548173ffffffffffffffffffffffffffffffffffffffff021916908373ffffffffffffffffffffffffffffffffffffffff1602179055506080820151816004015560a08201518160050160006101000a81548160ff02191690831515021790555050503373ffffffffffffffffffffffffffffffffffffffff168273ffffffffffffffffffffffffffffffffffffffff167f3836bc4be94108bdd241f95c7155cd25dc9f39244489cfa7890245f9781369c58660405161141c9190613a18565b60405180910390a350505050565b60606000805b600760003373ffffffffffffffffffffffffffffffffffffffff1673ffffffffffffffffffffffffffffffffffffffff1681526020019081526020016000208054905081101561150b57600760003373ffffffffffffffffffffffffffffffffffffffff1673ffffffffffffffffffffffffffffffffffffffff16815260200190815260200160002081815481106114cb576114ca613808565b5b906000526020600020906003020160020160009054906101000a900460ff16156114fe5781806114fa90613866565b9250505b8080600101915050611430565b5060008167ffffffffffffffff8111156115285761152761342e565b5b6040519080825280602002602001820160405280156115565781602001602082028036833780820191505090505b5090506000805b600760003373ffffffffffffffffffffffffffffffffffffffff1673ffffffffffffffffffffffffffffffffffffffff1681526020019081526020016000208054905081101561165857600760003373ffffffffffffffffffffffffffffffffffffffff1673ffffffffffffffffffffffffffffffffffffffff16815260200190815260200160002081815481106115f8576115f7613808565b5b906000526020600020906003020160020160009054906101000a900460ff161561164b57808383815181106116305761162f613808565b5b602002602001018181525050818061164790613866565b9250505b808060010191505061155d565b5081935050505090565b6060600160003373ffffffffffffffffffffffffffffffffffffffff1673ffffffffffffffffffffffffffffffffffffffff16815260200190815260200160002060009054906101000a900460ff166116f0576040517f08c379a00000000000000000000000000000000000000000000000000000000081526004016116e790613920565b60405180910390fd5b6000805b6000808573ffffffffffffffffffffffffffffffffffffffff1673ffffffffffffffffffffffffffffffffffffffff16815260200190815260200160002080549050811015611886578473ffffffffffffffffffffffffffffffffffffffff166000808673ffffffffffffffffffffffffffffffffffffffff1673ffffffffffffffffffffffffffffffffffffffff16815260200190815260200160002082815481106117a4576117a3613808565b5b906000526020600020906006020160030160009054906101000a900473ffffffffffffffffffffffffffffffffffffffff1673ffffffffffffffffffffffffffffffffffffffff1614801561186557506000808573ffffffffffffffffffffffffffffffffffffffff1673ffffffffffffffffffffffffffffffffffffffff168152602001908152602001600020818154811061184457611843613808565b5b906000526020600020906006020160050160009054906101000a900460ff16155b1561187957818061187590613866565b9250505b80806001019150506116f4565b5060008167ffffffffffffffff8111156118a3576118a261342e565b5b6040519080825280602002602001820160405280156118d15781602001602082028036833780820191505090505b5090506000805b6000808773ffffffffffffffffffffffffffffffffffffffff1673ffffffffffffffffffffffffffffffffffffffff16815260200190815260200160002080549050811015611a8a578673ffffffffffffffffffffffffffffffffffffffff166000808873ffffffffffffffffffffffffffffffffffffffff1673ffffffffffffffffffffffffffffffffffffffff168152602001908152602001600020828154811061198857611987613808565b5b906000526020600020906006020160030160009054906101000a900473ffffffffffffffffffffffffffffffffffffffff1673ffffffffffffffffffffffffffffffffffffffff16148015611a4957506000808773ffffffffffffffffffffffffffffffffffffffff1673ffffffffffffffffffffffffffffffffffffffff1681526020019081526020016000208181548110611a2857611a27613808565b5b906000526020600020906006020160050160009054906101000a900460ff16155b15611a7d5780838381518110611a6257611a61613808565b5b6020026020010181815250508180611a7990613866565b9250505b80806001019150506118d8565b5081935050505092915050565b611aa033612e79565b565b60006020528160005260406000208181548110611abe57600080fd5b906000526020600020906006020160009150915050806000015490806001018054611ae890613af4565b80601f0160208091040260200160405190810160405280929190818152602001828054611b1490613af4565b8015611b615780601f10611b3657610100808354040283529160200191611b61565b820191906000526020600020905b815481529060010190602001808311611b4457829003601f168201915b5050505050908060020160009054906101000a900473ffffffffffffffffffffffffffffffffffffffff16908060030160009054906101000a900473ffffffffffffffffffffffffffffffffffffffff16908060040154908060050160009054906101000a900460ff16905086565b600660003373ffffffffffffffffffffffffffffffffffffffff1673ffffffffffffffffffffffffffffffffffffffff16815260200190815260200160002060008273ffffffffffffffffffffffffffffffffffffffff1673ffffffffffffffffffffffffffffffffffffffff16815260200190815260200160002060009054906101000a900460ff16611c99576040517f08c379a0000000000000000000000000000000000000000000000000000000008152600401611c9090613def565b60405180910390fd5b6000600660003373ffffffffffffffffffffffffffffffffffffffff1673ffffffffffffffffffffffffffffffffffffffff16815260200190815260200160002060008373ffffffffffffffffffffffffffffffffffffffff1673ffffffffffffffffffffffffffffffffffffffff16815260200190815260200160002060006101000a81548160ff0219169083151502179055508073ffffffffffffffffffffffffffffffffffffffff163373ffffffffffffffffffffffffffffffffffffffff167f825c8be24eb0df19500f63e86c29e7d0d951e73056b889b891d85e40938d9b6e60405160405180910390a350565b6000600260008373ffffffffffffffffffffffffffffffffffffffff1673ffffffffffffffffffffffffffffffffffffffff16815260200190815260200160002060009054906101000a900460ff169050919050565b60048181548110611df157600080fd5b906000526020600020016000915054906101000a900473ffffffffffffffffffffffffffffffffffffffff1681565b600560009054906101000a900473ffffffffffffffffffffffffffffffffffffffff1673ffffffffffffffffffffffffffffffffffffffff163373ffffffffffffffffffffffffffffffffffffffff1614611eb0576040517f08c379a0000000000000000000000000000000000000000000000000000000008152600401611ea790613aa5565b60405180910390fd5b600160008273ffffffffffffffffffffffffffffffffffffffff1673ffffffffffffffffffffffffffffffffffffffff16815260200190815260200160002060009054906101000a900460ff16611f3c576040517f08c379a0000000000000000000000000000000000000000000000000000000008152600401611f3390613e5b565b60405180910390fd5b6000600160008373ffffffffffffffffffffffffffffffffffffffff1673ffffffffffffffffffffffffffffffffffffffff16815260200190815260200160002060006101000a81548160ff0219169083151502179055508073ffffffffffffffffffffffffffffffffffffffff167f493d7cf6a7c880406a55654d6727464ea088bd01d40498e1987a327e68961ab860405160405180910390a250565b6000600160008373ffffffffffffffffffffffffffffffffffffffff1673ffffffffffffffffffffffffffffffffffffffff16815260200190815260200160002060009054906101000a900460ff169050919050565b600080600080600760008773ffffffffffffffffffffffffffffffffffffffff1673ffffffffffffffffffffffffffffffffffffffff1681526020019081526020016000208054905085106120ba576040517f08c379a00000000000000000000000000000000000000000000000000000000081526004016120b190613ec7565b60405180910390fd5b8573ffffffffffffffffffffffffffffffffffffffff163373ffffffffffffffffffffffffffffffffffffffff1614806121a15750600760008773ffffffffffffffffffffffffffffffffffffffff1673ffffffffffffffffffffffffffffffffffffffff16815260200190815260200160002085815481106121405761213f613808565b5b906000526020600020906003020160000160009054906101000a900473ffffffffffffffffffffffffffffffffffffffff1673ffffffffffffffffffffffffffffffffffffffff163373ffffffffffffffffffffffffffffffffffffffff16145b6121e0576040517f08c379a00000000000000000000000000000000000000000000000000000000081526004016121d790613f59565b60405180910390fd5b6000600760008873ffffffffffffffffffffffffffffffffffffffff1673ffffffffffffffffffffffffffffffffffffffff168152602001908152602001600020868154811061223357612232613808565b5b90600052602060002090600302016040518060800160405290816000820160009054906101000a900473ffffffffffffffffffffffffffffffffffffffff1673ffffffffffffffffffffffffffffffffffffffff1673ffffffffffffffffffffffffffffffffffffffff168152602001600182015481526020016002820160009054906101000a900460ff161515151581526020016002820160019054906101000a900460ff1615151515815250509050806000015181602001518260400151836060015194509450945094505092959194509250565b60016020528060005260406000206000915054906101000a900460ff1681565b600760003373ffffffffffffffffffffffffffffffffffffffff1673ffffffffffffffffffffffffffffffffffffffff1681526020019081526020016000208054905082106123ae576040517f08c379a00000000000000000000000000000000000000000000000000000000081526004016123a590613ec7565b60405180910390fd5b6000600760003373ffffffffffffffffffffffffffffffffffffffff1673ffffffffffffffffffffffffffffffffffffffff168152602001908152602001600020838154811061240157612400613808565b5b906000526020600020906003020190508060020160009054906101000a900460ff16612462576040517f08c379a000000000000000000000000000000000000000000000000000000000815260040161245990613fc5565b60405180910390fd5b60008160020160006101000a81548160ff021916908315150217905550818160020160016101000a81548160ff02191690831515021790555081156125d9576001600660003373ffffffffffffffffffffffffffffffffffffffff1673ffffffffffffffffffffffffffffffffffffffff16815260200190815260200160002060008360000160009054906101000a900473ffffffffffffffffffffffffffffffffffffffff1673ffffffffffffffffffffffffffffffffffffffff1673ffffffffffffffffffffffffffffffffffffffff16815260200190815260200160002060006101000a81548160ff0219169083151502179055508060000160009054906101000a900473ffffffffffffffffffffffffffffffffffffffff1673ffffffffffffffffffffffffffffffffffffffff163373ffffffffffffffffffffffffffffffffffffffff167f9f520b3bfc56d06f7065d10b4683b3f57ac8895d5026cd176dee95ce1454cb8d60405160405180910390a35b8060000160009054906101000a900473ffffffffffffffffffffffffffffffffffffffff1673ffffffffffffffffffffffffffffffffffffffff163373ffffffffffffffffffffffffffffffffffffffff167f74fd0dd90f78af3dc9bef188bc8f7967b4d14ce969088d27cd52f32dd866a8c88460405161265a91906132ba565b60405180910390a3505050565b60006060600080858073ffffffffffffffffffffffffffffffffffffffff163373ffffffffffffffffffffffffffffffffffffffff16148061272f5750600660008273ffffffffffffffffffffffffffffffffffffffff1673ffffffffffffffffffffffffffffffffffffffff16815260200190815260200160002060003373ffffffffffffffffffffffffffffffffffffffff1673ffffffffffffffffffffffffffffffffffffffff16815260200190815260200160002060009054906101000a900460ff165b61276e576040517f08c379a0000000000000000000000000000000000000000000000000000000008152600401612765906137e8565b60405180910390fd5b6000808873ffffffffffffffffffffffffffffffffffffffff1673ffffffffffffffffffffffffffffffffffffffff1681526020019081526020016000208054905086106127f1576040517f08c379a00000000000000000000000000000000000000000000000000000000081526004016127e89061398c565b60405180910390fd5b6000808873ffffffffffffffffffffffffffffffffffffffff1673ffffffffffffffffffffffffffffffffffffffff168152602001908152602001600020868154811061284157612840613808565b5b906000526020600020906006020160050160009054906101000a900460ff16156128a0576040517f08c379a000000000000000000000000000000000000000000000000000000000815260040161289790614031565b60405180910390fd5b60008060008973ffffffffffffffffffffffffffffffffffffffff1673ffffffffffffffffffffffffffffffffffffffff16815260200190815260200160002087815481106128f2576128f1613808565b5b90600052602060002090600602016040518060c00160405290816000820154815260200160018201805461292590613af4565b80601f016020809104026020016040519081016040528092919081815260200182805461295190613af4565b801561299e5780601f106129735761010080835404028352916020019161299e565b820191906000526020600020905b81548152906001019060200180831161298157829003601f168201915b505050505081526020016002820160009054906101000a900473ffffffffffffffffffffffffffffffffffffffff1673ffffffffffffffffffffffffffffffffffffffff1673ffffffffffffffffffffffffffffffffffffffff1681526020016003820160009054906101000a900473ffffffffffffffffffffffffffffffffffffffff1673ffffffffffffffffffffffffffffffffffffffff1673ffffffffffffffffffffffffffffffffffffffff168152602001600482015481526020016005820160009054906101000a900460ff161515151581525050905080600001518160200151826060015183608001519550955095509550505092959194509250565b60606000805b600380549050811015612b60576001600060038381548110612acc57612acb613808565b5b9060005260206000200160009054906101000a900473ffffffffffffffffffffffffffffffffffffffff1673ffffffffffffffffffffffffffffffffffffffff1673ffffffffffffffffffffffffffffffffffffffff16815260200190815260200160002060009054906101000a900460ff1615612b53578180612b4f90613866565b9250505b8080600101915050612aa7565b5060008167ffffffffffffffff811115612b7d57612b7c61342e565b5b604051908082528060200260200182016040528015612bab5781602001602082028036833780820191505090505b5090506000805b600380549050811015612cf7576001600060038381548110612bd757612bd6613808565b5b9060005260206000200160009054906101000a900473ffffffffffffffffffffffffffffffffffffffff1673ffffffffffffffffffffffffffffffffffffffff1673ffffffffffffffffffffffffffffffffffffffff16815260200190815260200160002060009054906101000a900460ff1615612cea5760038181548110612c6357612c62613808565b5b9060005260206000200160009054906101000a900473ffffffffffffffffffffffffffffffffffffffff16838381518110612ca157612ca0613808565b5b602002602001019073ffffffffffffffffffffffffffffffffffffffff16908173ffffffffffffffffffffffffffffffffffffffff16815250508180612ce690613866565b9250505b8080600101915050612bb2565b5081935050505090565b600560009054906101000a900473ffffffffffffffffffffffffffffffffffffffff1681565b600160008273ffffffffffffffffffffffffffffffffffffffff1673ffffffffffffffffffffffffffffffffffffffff16815260200190815260200160002060009054906101000a900460ff16612e765760018060008373ffffffffffffffffffffffffffffffffffffffff1673ffffffffffffffffffffffffffffffffffffffff16815260200190815260200160002060006101000a81548160ff0219169083151502179055506003819080600181540180825580915050600190039060005260206000200160009091909190916101000a81548173ffffffffffffffffffffffffffffffffffffffff021916908373ffffffffffffffffffffffffffffffffffffffff1602179055508073ffffffffffffffffffffffffffffffffffffffff167f69908b2e63170aa89ef89719bbe3b4c92cccc38653968ab25f4464eff7c28ac860405160405180910390a25b50565b600260008273ffffffffffffffffffffffffffffffffffffffff1673ffffffffffffffffffffffffffffffffffffffff16815260200190815260200160002060009054906101000a900460ff16612fc9576001600260008373ffffffffffffffffffffffffffffffffffffffff1673ffffffffffffffffffffffffffffffffffffffff16815260200190815260200160002060006101000a81548160ff0219169083151502179055506004819080600181540180825580915050600190039060005260206000200160009091909190916101000a81548173ffffffffffffffffffffffffffffffffffffffff021916908373ffffffffffffffffffffffffffffffffffffffff1602179055508073ffffffffffffffffffffffffffffffffffffffff167fc9fa2003fca4ce0dfc8cb0deae32266b715536df6685365b05b5be96ede8e49c60405160405180910390a25b50565b6000604051905090565b600080fd5b600080fd5b600073ffffffffffffffffffffffffffffffffffffffff82169050919050565b600061300b82612fe0565b9050919050565b61301b81613000565b811461302657600080fd5b50565b60008135905061303881613012565b92915050565b60006020828403121561305457613053612fd6565b5b600061306284828501613029565b91505092915050565b6000819050919050565b61307e8161306b565b82525050565b60006020820190506130996000830184613075565b92915050565b600081519050919050565b600082825260208201905092915050565b6000819050602082019050919050565b6130d48161306b565b82525050565b60006130e683836130cb565b60208301905092915050565b6000602082019050919050565b600061310a8261309f565b61311481856130aa565b935061311f836130bb565b8060005b8381101561315057815161313788826130da565b9750613142836130f2565b925050600181019050613123565b5085935050505092915050565b6000602082019050818103600083015261317781846130ff565b905092915050565b600081519050919050565b600082825260208201905092915050565b6000819050602082019050919050565b6131b481613000565b82525050565b60006131c683836131ab565b60208301905092915050565b6000602082019050919050565b60006131ea8261317f565b6131f4818561318a565b93506131ff8361319b565b8060005b8381101561323057815161321788826131ba565b9750613222836131d2565b925050600181019050613203565b5085935050505092915050565b6000602082019050818103600083015261325781846131df565b905092915050565b6000806040838503121561327657613275612fd6565b5b600061328485828601613029565b925050602061329585828601613029565b9150509250929050565b60008115159050919050565b6132b48161329f565b82525050565b60006020820190506132cf60008301846132ab565b92915050565b6132de8161306b565b81146132e957600080fd5b50565b6000813590506132fb816132d5565b92915050565b6000806040838503121561331857613317612fd6565b5b600061332685828601613029565b9250506020613337858286016132ec565b9150509250929050565b61334a81613000565b82525050565b60006080820190506133656000830187613341565b6133726020830186613075565b61337f60408301856132ab565b61338c60608301846132ab565b95945050505050565b6000602082840312156133ab576133aa612fd6565b5b60006133b9848285016132ec565b91505092915050565b60006020820190506133d76000830184613341565b92915050565b6000819050919050565b6133f0816133dd565b81146133fb57600080fd5b50565b60008135905061340d816133e7565b92915050565b600080fd5b600080fd5b6000601f19601f8301169050919050565b7f4e487b7100000000000000000000000000000000000000000000000000000000600052604160045260246000fd5b6134668261341d565b810181811067ffffffffffffffff821117156134855761348461342e565b5b80604052505050565b6000613498612fcc565b90506134a4828261345d565b919050565b600067ffffffffffffffff8211156134c4576134c361342e565b5b6134cd8261341d565b9050602081019050919050565b82818337600083830152505050565b60006134fc6134f7846134a9565b61348e565b90508281526020810184848401111561351857613517613418565b5b6135238482856134da565b509392505050565b600082601f8301126135405761353f613413565b5b81356135508482602086016134e9565b91505092915050565b60008060006060848603121561357257613571612fd6565b5b6000613580868287016133fe565b935050602084013567ffffffffffffffff8111156135a1576135a0612fdb565b5b6135ad8682870161352b565b92505060406135be86828701613029565b9150509250925092565b6135d1816133dd565b82525050565b600081519050919050565b600082825260208201905092915050565b60005b838110156136115780820151818401526020810190506135f6565b60008484015250505050565b6000613628826135d7565b61363281856135e2565b93506136428185602086016135f3565b61364b8161341d565b840191505092915050565b600060c08201905061366b60008301896135c8565b818103602083015261367d818861361d565b905061368c6040830187613341565b6136996060830186613341565b6136a66080830185613075565b6136b360a08301846132ab565b979650505050505050565b6136c78161329f565b81146136d257600080fd5b50565b6000813590506136e4816136be565b92915050565b6000806040838503121561370157613700612fd6565b5b600061370f858286016132ec565b9250506020613720858286016136d5565b9150509250929050565b600060808201905061373f60008301876135c8565b8181036020830152613751818661361d565b90506137606040830185613341565b61376d6060830184613075565b95945050505050565b7f4e6f7420617574686f72697a656420746f206163636573732070617469656e7460008201527f207265636f726473000000000000000000000000000000000000000000000000602082015250565b60006137d26028836135e2565b91506137dd82613776565b604082019050919050565b60006020820190508181036000830152613801816137c5565b9050919050565b7f4e487b7100000000000000000000000000000000000000000000000000000000600052603260045260246000fd5b7f4e487b7100000000000000000000000000000000000000000000000000000000600052601160045260246000fd5b60006138718261306b565b91507fffffffffffffffffffffffffffffffffffffffffffffffffffffffffffffffff82036138a3576138a2613837565b5b600182019050919050565b7f4f6e6c7920646f63746f722063616e2063616c6c20746869732066756e63746960008201527f6f6e000000000000000000000000000000000000000000000000000000000000602082015250565b600061390a6022836135e2565b9150613915826138ae565b604082019050919050565b60006020820190508181036000830152613939816138fd565b9050919050565b7f5265636f726420646f6573206e6f742065786973740000000000000000000000600082015250565b60006139766015836135e2565b915061398182613940565b602082019050919050565b600060208201905081810360008301526139a581613969565b9050919050565b7f5265636f726420616c72656164792064656c6574656400000000000000000000600082015250565b60006139e26016836135e2565b91506139ed826139ac565b602082019050919050565b60006020820190508181036000830152613a11816139d5565b9050919050565b6000602082019050613a2d60008301846135c8565b92915050565b7f4f6e6c792061646d696e2063616e2063616c6c20746869732066756e6374696f60008201527f6e00000000000000000000000000000000000000000000000000000000000000602082015250565b6000613a8f6021836135e2565b9150613a9a82613a33565b604082019050919050565b60006020820190508181036000830152613abe81613a82565b9050919050565b7f4e487b7100000000000000000000000000000000000000000000000000000000600052602260045260246000fd5b60006002820490506001821680613b0c57607f821691505b602082108103613b1f57613b1e613ac5565b5b50919050565b60008190508160005260206000209050919050565b60006020601f8301049050919050565b600082821b905092915050565b600060088302613b877fffffffffffffffffffffffffffffffffffffffffffffffffffffffffffffffff82613b4a565b613b918683613b4a565b95508019841693508086168417925050509392505050565b6000819050919050565b6000613bce613bc9613bc48461306b565b613ba9565b61306b565b9050919050565b6000819050919050565b613be883613bb3565b613bfc613bf482613bd5565b848454613b57565b825550505050565b600090565b613c11613c04565b613c1c818484613bdf565b505050565b5b81811015613c4057613c35600082613c09565b600181019050613c22565b5050565b601f821115613c8557613c5681613b25565b613c5f84613b3a565b81016020851015613c6e578190505b613c82613c7a85613b3a565b830182613c21565b50505b505050565b600082821c905092915050565b6000613ca860001984600802613c8a565b1980831691505092915050565b6000613cc18383613c97565b9150826002028217905092915050565b613cda826135d7565b67ffffffffffffffff811115613cf357613cf261342e565b5b613cfd8254613af4565b613d08828285613c44565b600060209050601f831160018114613d3b5760008415613d29578287015190505b613d338582613cb5565b865550613d9b565b601f198416613d4986613b25565b60005b82811015613d7157848901518255600182019150602085019450602081019050613d4c565b86831015613d8e5784890151613d8a601f891682613c97565b8355505b6001600288020188555050505b505050505050565b7f56696577657220646f6573206e6f742068617665206163636573730000000000600082015250565b6000613dd9601b836135e2565b9150613de482613da3565b602082019050919050565b60006020820190508181036000830152613e0881613dcc565b9050919050565b7f41646472657373206973206e6f74206120646f63746f72000000000000000000600082015250565b6000613e456017836135e2565b9150613e5082613e0f565b602082019050919050565b60006020820190508181036000830152613e7481613e38565b9050919050565b7f52657175657374204944206e6f7420666f756e64000000000000000000000000600082015250565b6000613eb16014836135e2565b9150613ebc82613e7b565b602082019050919050565b60006020820190508181036000830152613ee081613ea4565b9050919050565b7f4e6f7420617574686f72697a656420746f20766965772072657175657374206460008201527f657461696c730000000000000000000000000000000000000000000000000000602082015250565b6000613f436026836135e2565b9150613f4e82613ee7565b604082019050919050565b60006020820190508181036000830152613f7281613f36565b9050919050565b7f5265717565737420616c72656164792070726f63657373656400000000000000600082015250565b6000613faf6019836135e2565b9150613fba82613f79565b602082019050919050565b60006020820190508181036000830152613fde81613fa2565b9050919050565b7f5265636f726420686173206265656e2064656c65746564000000000000000000600082015250565b600061401b6017836135e2565b915061402682613fe5565b602082019050919050565b6000602082019050818103600083015261404a8161400e565b905091905056fea2646970667358221220ca488d332ac9434ef48e19e09c266d50e3a4b6ca83b866127f51a2f5495c2b6d64736f6c634300081c0033",
  "linkReferences": {},
  "deployedLinkReferences": {}
}