{
  "_format": "hh-sol-artifact-1",
  "contractName": "MedicalRecordStorage",
  "sourceName": "contracts/MedicalRecordStorage.sol",
  "abi": [
    {
      "anonymous": false,
      "inputs": [
        {
          "indexed": true,
          "internalType": "address",
          "name": "patient",
          "type": "address"
        },
        {
          "indexed": false,
          "internalType": "string",
          "name": "diagnosis",
          "type": "string"
        },
        {
          "indexed": false,
          "internalType": "bool",
          "name": "treated",
          "type": "bool"
        },
        {
          "indexed": false,
          "internalType": "string",
          "name": "date",
          "type": "string"
        }
      ],
      "name": "RecordRegistered",
      "type": "event"
    },
    {
      "inputs": [
        {
          "internalType": "address",
          "name": "patient",
          "type": "address"
        }
      ],
      "name": "getRecordCount",
      "outputs": [
        {
          "internalType": "uint256",
          "name": "",
          "type": "uint256"
        }
      ],
      "stateMutability": "view",
      "type": "function"
    },
    {
      "inputs": [
        {
          "internalType": "address",
          "name": "",
          "type": "address"
        },
        {
          "internalType": "uint256",
          "name": "",
          "type": "uint256"
        }
      ],
      "name": "records",
      "outputs": [
        {
          "internalType": "string",
          "name": "diagnosis",
          "type": "string"
        },
        {
          "internalType": "bool",
          "name": "treated",
          "type": "bool"
        },
        {
          "internalType": "string",
          "name": "date",
          "type": "string"
        }
      ],
      "stateMutability": "view",
      "type": "function"
    },
    {
      "inputs": [
        {
          "internalType": "string",
          "name": "diagnosis",
          "type": "string"
        },
        {
          "internalType": "bool",
          "name": "treated",
          "type": "bool"
        },
        {
          "internalType": "string",
          "name": "date",
          "type": "string"
        }
      ],
      "name": "registerRecord",
      "outputs": [],
      "stateMutability": "nonpayable",
      "type": "function"
    }
  ],
  "bytecode": "0x6080604052348015600f57600080fd5b50610ad18061001f6000396000f3fe608060405234801561001057600080fd5b50600436106100415760003560e01c8063582143081461004657806382a6c0ac14610076578063bc3e5a8a146100a8575b600080fd5b610060600480360381019061005b9190610414565b6100c4565b60405161006d919061045a565b60405180910390f35b610090600480360381019061008b91906104a1565b61010f565b60405161009f9392919061058c565b60405180910390f35b6100c260048036038101906100bd9190610732565b610273565b005b60008060008373ffffffffffffffffffffffffffffffffffffffff1673ffffffffffffffffffffffffffffffffffffffff168152602001908152602001600020805490509050919050565b6000602052816000526040600020818154811061012b57600080fd5b90600052602060002090600302016000915091505080600001805461014f906107ec565b80601f016020809104026020016040519081016040528092919081815260200182805461017b906107ec565b80156101c85780601f1061019d576101008083540402835291602001916101c8565b820191906000526020600020905b8154815290600101906020018083116101ab57829003601f168201915b5050505050908060010160009054906101000a900460ff16908060020180546101f0906107ec565b80601f016020809104026020016040519081016040528092919081815260200182805461021c906107ec565b80156102695780601f1061023e57610100808354040283529160200191610269565b820191906000526020600020905b81548152906001019060200180831161024c57829003601f168201915b5050505050905083565b6000604051806060016040528085815260200184151581526020018381525090506000803373ffffffffffffffffffffffffffffffffffffffff1673ffffffffffffffffffffffffffffffffffffffff168152602001908152602001600020819080600181540180825580915050600190039060005260206000209060030201600090919091909150600082015181600001908161031191906109c9565b5060208201518160010160006101000a81548160ff021916908315150217905550604082015181600201908161034791906109c9565b5050503373ffffffffffffffffffffffffffffffffffffffff167fdf3b2a0fd728099c508d52f1e6cdcc93ee10837c8f05960c488650742f1f58d98585856040516103949392919061058c565b60405180910390a250505050565b6000604051905090565b600080fd5b600080fd5b600073ffffffffffffffffffffffffffffffffffffffff82169050919050565b60006103e1826103b6565b9050919050565b6103f1816103d6565b81146103fc57600080fd5b50565b60008135905061040e816103e8565b92915050565b60006020828403121561042a576104296103ac565b5b6000610438848285016103ff565b91505092915050565b6000819050919050565b61045481610441565b82525050565b600060208201905061046f600083018461044b565b92915050565b61047e81610441565b811461048957600080fd5b50565b60008135905061049b81610475565b92915050565b600080604083850312156104b8576104b76103ac565b5b60006104c6858286016103ff565b92505060206104d78582860161048c565b9150509250929050565b600081519050919050565b600082825260208201905092915050565b60005b8381101561051b578082015181840152602081019050610500565b60008484015250505050565b6000601f19601f8301169050919050565b6000610543826104e1565b61054d81856104ec565b935061055d8185602086016104fd565b61056681610527565b840191505092915050565b60008115159050919050565b61058681610571565b82525050565b600060608201905081810360008301526105a68186610538565b90506105b5602083018561057d565b81810360408301526105c78184610538565b9050949350505050565b600080fd5b600080fd5b7f4e487b7100000000000000000000000000000000000000000000000000000000600052604160045260246000fd5b61061382610527565b810181811067ffffffffffffffff82111715610632576106316105db565b5b80604052505050565b60006106456103a2565b9050610651828261060a565b919050565b600067ffffffffffffffff821115610671576106706105db565b5b61067a82610527565b9050602081019050919050565b82818337600083830152505050565b60006106a96106a484610656565b61063b565b9050828152602081018484840111156106c5576106c46105d6565b5b6106d0848285610687565b509392505050565b600082601f8301126106ed576106ec6105d1565b5b81356106fd848260208601610696565b91505092915050565b61070f81610571565b811461071a57600080fd5b50565b60008135905061072c81610706565b92915050565b60008060006060848603121561074b5761074a6103ac565b5b600084013567ffffffffffffffff811115610769576107686103b1565b5b610775868287016106d8565b93505060206107868682870161071d565b925050604084013567ffffffffffffffff8111156107a7576107a66103b1565b5b6107b3868287016106d8565b9150509250925092565b7f4e487b7100000000000000000000000000000000000000000000000000000000600052602260045260246000fd5b6000600282049050600182168061080457607f821691505b602082108103610817576108166107bd565b5b50919050565b60008190508160005260206000209050919050565b60006020601f8301049050919050565b600082821b905092915050565b60006008830261087f7fffffffffffffffffffffffffffffffffffffffffffffffffffffffffffffffff82610842565b6108898683610842565b95508019841693508086168417925050509392505050565b6000819050919050565b60006108c66108c16108bc84610441565b6108a1565b610441565b9050919050565b6000819050919050565b6108e0836108ab565b6108f46108ec826108cd565b84845461084f565b825550505050565b600090565b6109096108fc565b6109148184846108d7565b505050565b5b818110156109385761092d600082610901565b60018101905061091a565b5050565b601f82111561097d5761094e8161081d565b61095784610832565b81016020851015610966578190505b61097a61097285610832565b830182610919565b50505b505050565b600082821c905092915050565b60006109a060001984600802610982565b1980831691505092915050565b60006109b9838361098f565b9150826002028217905092915050565b6109d2826104e1565b67ffffffffffffffff8111156109eb576109ea6105db565b5b6109f582546107ec565b610a0082828561093c565b600060209050601f831160018114610a335760008415610a21578287015190505b610a2b85826109ad565b865550610a93565b601f198416610a418661081d565b60005b82811015610a6957848901518255600182019150602085019450602081019050610a44565b86831015610a865784890151610a82601f89168261098f565b8355505b6001600288020188555050505b50505050505056fea26469706673582212200f6ef87431b131e29081b8d9d6a78adacf339263349ac02cc509d005a306f08464736f6c634300081c0033",
  "linkReferences": {},
  "deployedLinkReferences": {}
}