{
  "_format": "hh-sol-artifact-1",
  "contractName": "Groth16Verifier",
  "sourceName": "contracts/Groth16Verifier.sol",
  "abi": [
    {
      "anonymous": false,
      "inputs": [
        {
          "indexed": false,
          "internalType": "uint256[2]",
          "name": "a",
          "type": "uint256[2]"
        },
        {
          "indexed": false,
          "internalType": "uint256[2][2]",
          "name": "b",
          "type": "uint256[2][2]"
        },
        {
          "indexed": false,
          "internalType": "uint256[2]",
          "name": "c",
          "type": "uint256[2]"
        },
        {
          "indexed": false,
          "internalType": "uint256[]",
          "name": "input",
          "type": "uint256[]"
        }
      ],
      "name": "VerificationAttempt",
      "type": "event"
    },
    {
      "inputs": [
        {
          "internalType": "uint256[2]",
          "name": "a",
          "type": "uint256[2]"
        },
        {
          "internalType": "uint256[2][2]",
          "name": "b",
          "type": "uint256[2][2]"
        },
        {
          "internalType": "uint256[2]",
          "name": "c",
          "type": "uint256[2]"
        },
        {
          "internalType": "uint256[4]",
          "name": "input",
          "type": "uint256[4]"
        }
      ],
      "name": "verifyProof",
      "outputs": [
        {
          "internalType": "bool",
          "name": "",
          "type": "bool"
        }
      ],
      "stateMutability": "nonpayable",
      "type": "function"
    },
    {
      "inputs": [
        {
          "internalType": "uint256[2]",
          "name": "a",
          "type": "uint256[2]"
        },
        {
          "internalType": "uint256[2][2]",
          "name": "b",
          "type": "uint256[2][2]"
        },
        {
          "internalType": "uint256[2]",
          "name": "c",
          "type": "uint256[2]"
        },
        {
          "internalType": "uint256[]",
          "name": "input",
          "type": "uint256[]"
        }
      ],
      "name": "verifyProof",
      "outputs": [
        {
          "internalType": "bool",
          "name": "",
          "type": "bool"
        }
      ],
      "stateMutability": "nonpayable",
      "type": "function"
    },
    {
      "inputs": [
        {
          "internalType": "uint256[2]",
          "name": "a",
          "type": "uint256[2]"
        },
        {
          "internalType": "uint256[2][2]",
          "name": "b",
          "type": "uint256[2][2]"
        },
        {
          "internalType": "uint256[2]",
          "name": "c",
          "type": "uint256[2]"
        },
        {
          "internalType": "uint256[2]",
          "name": "input",
          "type": "uint256[2]"
        }
      ],
      "name": "verifyProof",
      "outputs": [
        {
          "internalType": "bool",
          "name": "",
          "type": "bool"
        }
      ],
      "stateMutability": "nonpayable",
      "type": "function"
    }
  ],
  "bytecode": "0x6080604052348015600f57600080fd5b50610b798061001f6000396000f3fe608060405234801561001057600080fd5b50600436106100415760003560e01c80635fe8c13b14610046578063c32e370e14610076578063f5c9d69e146100a6575b600080fd5b610060600480360381019061005b9190610636565b6100d6565b60405161006d91906106ba565b60405180910390f35b610090600480360381019061008b9190610798565b610220565b60405161009d91906106ba565b60405180910390f35b6100c060048036038101906100bb919061081d565b61026b565b6040516100cd91906106ba565b60405180910390f35b600080600467ffffffffffffffff8111156100f4576100f361036d565b5b6040519080825280602002602001820160405280156101225781602001602082028036833780820191505090505b5090508260006004811061013957610138610886565b5b60200201518160008151811061015257610151610886565b5b6020026020010181815250508260016004811061017257610171610886565b5b60200201518160018151811061018b5761018a610886565b5b602002602001018181525050826002600481106101ab576101aa610886565b5b6020020151816002815181106101c4576101c3610886565b5b602002602001018181525050826003600481106101e4576101e3610886565b5b6020020151816003815181106101fd576101fc610886565b5b60200260200101818152505061021586868684610220565b915050949350505050565b60007f73993f73e83fb9373b0befa2ccd16ed36115e5f76c797c0ad55c7350586d3257858585856040516102579493929190610af5565b60405180910390a160019050949350505050565b600080600267ffffffffffffffff8111156102895761028861036d565b5b6040519080825280602002602001820160405280156102b75781602001602082028036833780820191505090505b509050826000600281106102ce576102cd610886565b5b6020020151816000815181106102e7576102e6610886565b5b6020026020010181815250508260016002811061030757610306610886565b5b6020020151816001815181106103205761031f610886565b5b60200260200101818152505061033886868684610220565b915050949350505050565b6000604051905090565b600080fd5b600080fd5b600080fd5b6000601f19601f8301169050919050565b7f4e487b7100000000000000000000000000000000000000000000000000000000600052604160045260246000fd5b6103a58261035c565b810181811067ffffffffffffffff821117156103c4576103c361036d565b5b80604052505050565b60006103d7610343565b90506103e3828261039c565b919050565b600067ffffffffffffffff8211156104035761040261036d565b5b602082029050919050565b600080fd5b6000819050919050565b61042681610413565b811461043157600080fd5b50565b6000813590506104438161041d565b92915050565b600061045c610457846103e8565b6103cd565b905080602084028301858111156104765761047561040e565b5b835b8181101561049f578061048b8882610434565b845260208401935050602081019050610478565b5050509392505050565b600082601f8301126104be576104bd610357565b5b60026104cb848285610449565b91505092915050565b600067ffffffffffffffff8211156104ef576104ee61036d565b5b602082029050919050565b600061050d610508846104d4565b6103cd565b905080604084028301858111156105275761052661040e565b5b835b81811015610550578061053c88826104a9565b845260208401935050604081019050610529565b5050509392505050565b600082601f83011261056f5761056e610357565b5b600261057c8482856104fa565b91505092915050565b600067ffffffffffffffff8211156105a05761059f61036d565b5b602082029050919050565b60006105be6105b984610585565b6103cd565b905080602084028301858111156105d8576105d761040e565b5b835b8181101561060157806105ed8882610434565b8452602084019350506020810190506105da565b5050509392505050565b600082601f8301126106205761061f610357565b5b600461062d8482856105ab565b91505092915050565b60008060008061018085870312156106515761065061034d565b5b600061065f878288016104a9565b94505060406106708782880161055a565b93505060c0610681878288016104a9565b9250506101006106938782880161060b565b91505092959194509250565b60008115159050919050565b6106b48161069f565b82525050565b60006020820190506106cf60008301846106ab565b92915050565b600067ffffffffffffffff8211156106f0576106ef61036d565b5b602082029050602081019050919050565b600061071461070f846106d5565b6103cd565b905080838252602082019050602084028301858111156107375761073661040e565b5b835b81811015610760578061074c8882610434565b845260208401935050602081019050610739565b5050509392505050565b600082601f83011261077f5761077e610357565b5b813561078f848260208601610701565b91505092915050565b60008060008061012085870312156107b3576107b261034d565b5b60006107c1878288016104a9565b94505060406107d28782880161055a565b93505060c06107e3878288016104a9565b92505061010085013567ffffffffffffffff81111561080557610804610352565b5b6108118782880161076a565b91505092959194509250565b60008060008061014085870312156108385761083761034d565b5b6000610846878288016104a9565b94505060406108578782880161055a565b93505060c0610868878288016104a9565b92505061010061087a878288016104a9565b91505092959194509250565b7f4e487b7100000000000000000000000000000000000000000000000000000000600052603260045260246000fd5b600060029050919050565b600081905092915050565b6000819050919050565b6108de81610413565b82525050565b60006108f083836108d5565b60208301905092915050565b6000602082019050919050565b610912816108b5565b61091c81846108c0565b9250610927826108cb565b8060005b8381101561095857815161093f87826108e4565b965061094a836108fc565b92505060018101905061092b565b505050505050565b600060029050919050565b600081905092915050565b6000819050919050565b600081905092915050565b610994816108b5565b61099e8184610980565b92506109a9826108cb565b8060005b838110156109da5781516109c187826108e4565b96506109cc836108fc565b9250506001810190506109ad565b505050505050565b60006109ee838361098b565b60408301905092915050565b6000602082019050919050565b610a1081610960565b610a1a818461096b565b9250610a2582610976565b8060005b83811015610a56578151610a3d87826109e2565b9650610a48836109fa565b925050600181019050610a29565b505050505050565b600081519050919050565b600082825260208201905092915050565b6000819050602082019050919050565b6000602082019050919050565b6000610aa282610a5e565b610aac8185610a69565b9350610ab783610a7a565b8060005b83811015610ae8578151610acf88826108e4565b9750610ada83610a8a565b925050600181019050610abb565b5085935050505092915050565b600061012082019050610b0b6000830187610909565b610b186040830186610a07565b610b2560c0830185610909565b818103610100830152610b388184610a97565b90509594505050505056fea26469706673582212207c9e503427f10ba6319909142450f132cf3227dc44a7bacdcbec52cc9389368f64736f6c634300081c0033",
  "linkReferences": {},
  "deployedLinkReferences": {}
}